{
	"contracts/onepage.sol": {
		"OnePageLiquidity": {
			"abi": [
				{
					"inputs": [
						{
							"internalType": "address",
							"name": "_creator",
							"type": "address"
						},
						{
							"internalType": "address",
							"name": "_platformWallet",
							"type": "address"
						},
						{
							"internalType": "uint256",
							"name": "_platformFeeBPS",
							"type": "uint256"
						}
					],
					"stateMutability": "nonpayable",
					"type": "constructor"
				},
				{
					"anonymous": false,
					"inputs": [
						{
							"indexed": true,
							"internalType": "address",
							"name": "tokenA",
							"type": "address"
						},
						{
							"indexed": true,
							"internalType": "address",
							"name": "tokenB",
							"type": "address"
						},
						{
							"indexed": false,
							"internalType": "uint256",
							"name": "amountA",
							"type": "uint256"
						},
						{
							"indexed": false,
							"internalType": "uint256",
							"name": "amountB",
							"type": "uint256"
						}
					],
					"name": "LiquidityDeposited",
					"type": "event"
				},
				{
					"anonymous": false,
					"inputs": [
						{
							"indexed": true,
							"internalType": "address",
							"name": "tokenA",
							"type": "address"
						},
						{
							"indexed": true,
							"internalType": "address",
							"name": "tokenB",
							"type": "address"
						},
						{
							"indexed": false,
							"internalType": "uint256",
							"name": "amountA",
							"type": "uint256"
						},
						{
							"indexed": false,
							"internalType": "uint256",
							"name": "amountB",
							"type": "uint256"
						}
					],
					"name": "LiquidityWithdrawn",
					"type": "event"
				},
				{
					"anonymous": false,
					"inputs": [
						{
							"indexed": true,
							"internalType": "address",
							"name": "tokenA",
							"type": "address"
						},
						{
							"indexed": true,
							"internalType": "address",
							"name": "tokenB",
							"type": "address"
						},
						{
							"indexed": false,
							"internalType": "uint256",
							"name": "fee",
							"type": "uint256"
						}
					],
					"name": "PairAdded",
					"type": "event"
				},
				{
					"anonymous": false,
					"inputs": [
						{
							"indexed": true,
							"internalType": "address",
							"name": "tokenA",
							"type": "address"
						},
						{
							"indexed": true,
							"internalType": "address",
							"name": "tokenB",
							"type": "address"
						}
					],
					"name": "PairRemoved",
					"type": "event"
				},
				{
					"anonymous": false,
					"inputs": [
						{
							"indexed": true,
							"internalType": "address",
							"name": "user",
							"type": "address"
						},
						{
							"indexed": false,
							"internalType": "address",
							"name": "tokenIn",
							"type": "address"
						},
						{
							"indexed": false,
							"internalType": "address",
							"name": "tokenOut",
							"type": "address"
						},
						{
							"indexed": false,
							"internalType": "uint256",
							"name": "amountIn",
							"type": "uint256"
						},
						{
							"indexed": false,
							"internalType": "uint256",
							"name": "amountOut",
							"type": "uint256"
						}
					],
					"name": "Swapped",
					"type": "event"
				},
				{
					"inputs": [
						{
							"internalType": "address",
							"name": "tokenA",
							"type": "address"
						},
						{
							"internalType": "address",
							"name": "tokenB",
							"type": "address"
						},
						{
							"internalType": "uint256",
							"name": "fee",
							"type": "uint256"
						}
					],
					"name": "addPair",
					"outputs": [],
					"stateMutability": "nonpayable",
					"type": "function"
				},
				{
					"inputs": [],
					"name": "creator",
					"outputs": [
						{
							"internalType": "address",
							"name": "",
							"type": "address"
						}
					],
					"stateMutability": "view",
					"type": "function"
				},
				{
					"inputs": [
						{
							"internalType": "address",
							"name": "tokenA",
							"type": "address"
						},
						{
							"internalType": "address",
							"name": "tokenB",
							"type": "address"
						},
						{
							"internalType": "uint256",
							"name": "amountA",
							"type": "uint256"
						},
						{
							"internalType": "uint256",
							"name": "amountB",
							"type": "uint256"
						}
					],
					"name": "depositLiquidity",
					"outputs": [],
					"stateMutability": "nonpayable",
					"type": "function"
				},
				{
					"inputs": [
						{
							"internalType": "uint256",
							"name": "",
							"type": "uint256"
						}
					],
					"name": "pairKeys",
					"outputs": [
						{
							"internalType": "address",
							"name": "tokenA",
							"type": "address"
						},
						{
							"internalType": "address",
							"name": "tokenB",
							"type": "address"
						}
					],
					"stateMutability": "view",
					"type": "function"
				},
				{
					"inputs": [
						{
							"internalType": "address",
							"name": "",
							"type": "address"
						},
						{
							"internalType": "address",
							"name": "",
							"type": "address"
						}
					],
					"name": "pairs",
					"outputs": [
						{
							"internalType": "address",
							"name": "tokenA",
							"type": "address"
						},
						{
							"internalType": "address",
							"name": "tokenB",
							"type": "address"
						},
						{
							"internalType": "uint256",
							"name": "reserveA",
							"type": "uint256"
						},
						{
							"internalType": "uint256",
							"name": "reserveB",
							"type": "uint256"
						},
						{
							"internalType": "uint256",
							"name": "fee",
							"type": "uint256"
						}
					],
					"stateMutability": "view",
					"type": "function"
				},
				{
					"inputs": [],
					"name": "platformFeeBPS",
					"outputs": [
						{
							"internalType": "uint256",
							"name": "",
							"type": "uint256"
						}
					],
					"stateMutability": "view",
					"type": "function"
				},
				{
					"inputs": [],
					"name": "platformWallet",
					"outputs": [
						{
							"internalType": "address",
							"name": "",
							"type": "address"
						}
					],
					"stateMutability": "view",
					"type": "function"
				},
				{
					"inputs": [
						{
							"internalType": "address",
							"name": "tokenA",
							"type": "address"
						},
						{
							"internalType": "address",
							"name": "tokenB",
							"type": "address"
						}
					],
					"name": "removePair",
					"outputs": [],
					"stateMutability": "nonpayable",
					"type": "function"
				},
				{
					"inputs": [
						{
							"internalType": "address",
							"name": "tokenIn",
							"type": "address"
						},
						{
							"internalType": "address",
							"name": "tokenOut",
							"type": "address"
						},
						{
							"internalType": "uint256",
							"name": "amountIn",
							"type": "uint256"
						},
						{
							"internalType": "uint256",
							"name": "minAmountOut",
							"type": "uint256"
						}
					],
					"name": "swap",
					"outputs": [],
					"stateMutability": "nonpayable",
					"type": "function"
				},
				{
					"inputs": [
						{
							"internalType": "address",
							"name": "tokenA",
							"type": "address"
						},
						{
							"internalType": "address",
							"name": "tokenB",
							"type": "address"
						},
						{
							"internalType": "uint256",
							"name": "amountA",
							"type": "uint256"
						},
						{
							"internalType": "uint256",
							"name": "amountB",
							"type": "uint256"
						}
					],
					"name": "withdrawFromPair",
					"outputs": [],
					"stateMutability": "nonpayable",
					"type": "function"
				}
			],
			"devdoc": {
				"kind": "dev",
				"methods": {},
				"version": 1
			},
			"evm": {
				"assembly": "    /* \"contracts/onepage.sol\":184:6467  contract OnePageLiquidity is ReentrancyGuard {... */\n  mstore(0x40, 0x80)\n    /* \"contracts/onepage.sol\":1485:1782  constructor(address _creator, address _platformWallet, uint256 _platformFeeBPS) {... */\n  callvalue\n  dup1\n  iszero\n  tag_1\n  jumpi\n  0x00\n  dup1\n  revert\ntag_1:\n  pop\n  mload(0x40)\n  sub(codesize, bytecodeSize)\n  dup1\n  bytecodeSize\n  dup4\n  codecopy\n  dup2\n  dup2\n  add\n  0x40\n  mstore\n  dup2\n  add\n  swap1\n  tag_2\n  swap2\n  swap1\n  tag_3\n  jump\t// in\ntag_2:\n    /* \"@openzeppelin/contracts/security/ReentrancyGuard.sol\":1716:1717  1 */\n  0x01\n    /* \"@openzeppelin/contracts/security/ReentrancyGuard.sol\":1821:1828  _status */\n  0x00\n    /* \"@openzeppelin/contracts/security/ReentrancyGuard.sol\":1821:1843  _status = _NOT_ENTERED */\n  dup2\n  swap1\n  sstore\n  pop\n    /* \"contracts/onepage.sol\":1604:1605  0 */\n  0x00\n    /* \"contracts/onepage.sol\":1584:1606  _creator != address(0) */\n  0xffffffffffffffffffffffffffffffffffffffff\n  and\n    /* \"contracts/onepage.sol\":1584:1592  _creator */\n  dup4\n    /* \"contracts/onepage.sol\":1584:1606  _creator != address(0) */\n  0xffffffffffffffffffffffffffffffffffffffff\n  and\n  eq\n  iszero\n    /* \"contracts/onepage.sol\":1584:1639  _creator != address(0) && _platformWallet != address(0) */\n  dup1\n  iszero\n  tag_8\n  jumpi\n  pop\n    /* \"contracts/onepage.sol\":1637:1638  0 */\n  0x00\n    /* \"contracts/onepage.sol\":1610:1639  _platformWallet != address(0) */\n  0xffffffffffffffffffffffffffffffffffffffff\n  and\n    /* \"contracts/onepage.sol\":1610:1625  _platformWallet */\n  dup3\n    /* \"contracts/onepage.sol\":1610:1639  _platformWallet != address(0) */\n  0xffffffffffffffffffffffffffffffffffffffff\n  and\n  eq\n  iszero\n    /* \"contracts/onepage.sol\":1584:1639  _creator != address(0) && _platformWallet != address(0) */\ntag_8:\n    /* \"contracts/onepage.sol\":1576:1659  require(_creator != address(0) && _platformWallet != address(0), \"Invalid address\") */\n  tag_9\n  jumpi\n  mload(0x40)\n  0x08c379a000000000000000000000000000000000000000000000000000000000\n  dup2\n  mstore\n  0x04\n  add\n  tag_10\n  swap1\n  tag_11\n  jump\t// in\ntag_10:\n  mload(0x40)\n  dup1\n  swap2\n  sub\n  swap1\n  revert\ntag_9:\n    /* \"contracts/onepage.sol\":1680:1688  _creator */\n  dup3\n    /* \"contracts/onepage.sol\":1670:1677  creator */\n  0x01\n  0x00\n    /* \"contracts/onepage.sol\":1670:1688  creator = _creator */\n  0x0100\n  exp\n  dup2\n  sload\n  dup2\n  0xffffffffffffffffffffffffffffffffffffffff\n  mul\n  not\n  and\n  swap1\n  dup4\n  0xffffffffffffffffffffffffffffffffffffffff\n  and\n  mul\n  or\n  swap1\n  sstore\n  pop\n    /* \"contracts/onepage.sol\":1716:1731  _platformWallet */\n  dup2\n    /* \"contracts/onepage.sol\":1699:1713  platformWallet */\n  0x02\n  0x00\n    /* \"contracts/onepage.sol\":1699:1731  platformWallet = _platformWallet */\n  0x0100\n  exp\n  dup2\n  sload\n  dup2\n  0xffffffffffffffffffffffffffffffffffffffff\n  mul\n  not\n  and\n  swap1\n  dup4\n  0xffffffffffffffffffffffffffffffffffffffff\n  and\n  mul\n  or\n  swap1\n  sstore\n  pop\n    /* \"contracts/onepage.sol\":1759:1774  _platformFeeBPS */\n  dup1\n    /* \"contracts/onepage.sol\":1742:1756  platformFeeBPS */\n  0x03\n    /* \"contracts/onepage.sol\":1742:1774  platformFeeBPS = _platformFeeBPS */\n  dup2\n  swap1\n  sstore\n  pop\n    /* \"contracts/onepage.sol\":1485:1782  constructor(address _creator, address _platformWallet, uint256 _platformFeeBPS) {... */\n  pop\n  pop\n  pop\n    /* \"contracts/onepage.sol\":184:6467  contract OnePageLiquidity is ReentrancyGuard {... */\n  jump(tag_12)\n    /* \"#utility.yul\":88:205   */\ntag_14:\n    /* \"#utility.yul\":197:198   */\n  0x00\n    /* \"#utility.yul\":194:195   */\n  dup1\n    /* \"#utility.yul\":187:199   */\n  revert\n    /* \"#utility.yul\":334:460   */\ntag_16:\n    /* \"#utility.yul\":371:378   */\n  0x00\n    /* \"#utility.yul\":411:453   */\n  0xffffffffffffffffffffffffffffffffffffffff\n    /* \"#utility.yul\":404:409   */\n  dup3\n    /* \"#utility.yul\":400:454   */\n  and\n    /* \"#utility.yul\":389:454   */\n  swap1\n  pop\n    /* \"#utility.yul\":334:460   */\n  swap2\n  swap1\n  pop\n  jump\t// out\n    /* \"#utility.yul\":466:562   */\ntag_17:\n    /* \"#utility.yul\":503:510   */\n  0x00\n    /* \"#utility.yul\":532:556   */\n  tag_32\n    /* \"#utility.yul\":550:555   */\n  dup3\n    /* \"#utility.yul\":532:556   */\n  tag_16\n  jump\t// in\ntag_32:\n    /* \"#utility.yul\":521:556   */\n  swap1\n  pop\n    /* \"#utility.yul\":466:562   */\n  swap2\n  swap1\n  pop\n  jump\t// out\n    /* \"#utility.yul\":568:690   */\ntag_18:\n    /* \"#utility.yul\":641:665   */\n  tag_34\n    /* \"#utility.yul\":659:664   */\n  dup2\n    /* \"#utility.yul\":641:665   */\n  tag_17\n  jump\t// in\ntag_34:\n    /* \"#utility.yul\":634:639   */\n  dup2\n    /* \"#utility.yul\":631:666   */\n  eq\n    /* \"#utility.yul\":621:684   */\n  tag_35\n  jumpi\n    /* \"#utility.yul\":680:681   */\n  0x00\n    /* \"#utility.yul\":677:678   */\n  dup1\n    /* \"#utility.yul\":670:682   */\n  revert\n    /* \"#utility.yul\":621:684   */\ntag_35:\n    /* \"#utility.yul\":568:690   */\n  pop\n  jump\t// out\n    /* \"#utility.yul\":696:839   */\ntag_19:\n    /* \"#utility.yul\":753:758   */\n  0x00\n    /* \"#utility.yul\":784:790   */\n  dup2\n    /* \"#utility.yul\":778:791   */\n  mload\n    /* \"#utility.yul\":769:791   */\n  swap1\n  pop\n    /* \"#utility.yul\":800:833   */\n  tag_37\n    /* \"#utility.yul\":827:832   */\n  dup2\n    /* \"#utility.yul\":800:833   */\n  tag_18\n  jump\t// in\ntag_37:\n    /* \"#utility.yul\":696:839   */\n  swap3\n  swap2\n  pop\n  pop\n  jump\t// out\n    /* \"#utility.yul\":845:922   */\ntag_20:\n    /* \"#utility.yul\":882:889   */\n  0x00\n    /* \"#utility.yul\":911:916   */\n  dup2\n    /* \"#utility.yul\":900:916   */\n  swap1\n  pop\n    /* \"#utility.yul\":845:922   */\n  swap2\n  swap1\n  pop\n  jump\t// out\n    /* \"#utility.yul\":928:1050   */\ntag_21:\n    /* \"#utility.yul\":1001:1025   */\n  tag_40\n    /* \"#utility.yul\":1019:1024   */\n  dup2\n    /* \"#utility.yul\":1001:1025   */\n  tag_20\n  jump\t// in\ntag_40:\n    /* \"#utility.yul\":994:999   */\n  dup2\n    /* \"#utility.yul\":991:1026   */\n  eq\n    /* \"#utility.yul\":981:1044   */\n  tag_41\n  jumpi\n    /* \"#utility.yul\":1040:1041   */\n  0x00\n    /* \"#utility.yul\":1037:1038   */\n  dup1\n    /* \"#utility.yul\":1030:1042   */\n  revert\n    /* \"#utility.yul\":981:1044   */\ntag_41:\n    /* \"#utility.yul\":928:1050   */\n  pop\n  jump\t// out\n    /* \"#utility.yul\":1056:1199   */\ntag_22:\n    /* \"#utility.yul\":1113:1118   */\n  0x00\n    /* \"#utility.yul\":1144:1150   */\n  dup2\n    /* \"#utility.yul\":1138:1151   */\n  mload\n    /* \"#utility.yul\":1129:1151   */\n  swap1\n  pop\n    /* \"#utility.yul\":1160:1193   */\n  tag_43\n    /* \"#utility.yul\":1187:1192   */\n  dup2\n    /* \"#utility.yul\":1160:1193   */\n  tag_21\n  jump\t// in\ntag_43:\n    /* \"#utility.yul\":1056:1199   */\n  swap3\n  swap2\n  pop\n  pop\n  jump\t// out\n    /* \"#utility.yul\":1205:1868   */\ntag_3:\n    /* \"#utility.yul\":1293:1299   */\n  0x00\n    /* \"#utility.yul\":1301:1307   */\n  dup1\n    /* \"#utility.yul\":1309:1315   */\n  0x00\n    /* \"#utility.yul\":1358:1360   */\n  0x60\n    /* \"#utility.yul\":1346:1355   */\n  dup5\n    /* \"#utility.yul\":1337:1344   */\n  dup7\n    /* \"#utility.yul\":1333:1356   */\n  sub\n    /* \"#utility.yul\":1329:1361   */\n  slt\n    /* \"#utility.yul\":1326:1445   */\n  iszero\n  tag_45\n  jumpi\n    /* \"#utility.yul\":1364:1443   */\n  tag_46\n  tag_14\n  jump\t// in\ntag_46:\n    /* \"#utility.yul\":1326:1445   */\ntag_45:\n    /* \"#utility.yul\":1484:1485   */\n  0x00\n    /* \"#utility.yul\":1509:1573   */\n  tag_47\n    /* \"#utility.yul\":1565:1572   */\n  dup7\n    /* \"#utility.yul\":1556:1562   */\n  dup3\n    /* \"#utility.yul\":1545:1554   */\n  dup8\n    /* \"#utility.yul\":1541:1563   */\n  add\n    /* \"#utility.yul\":1509:1573   */\n  tag_19\n  jump\t// in\ntag_47:\n    /* \"#utility.yul\":1499:1573   */\n  swap4\n  pop\n    /* \"#utility.yul\":1455:1583   */\n  pop\n    /* \"#utility.yul\":1622:1624   */\n  0x20\n    /* \"#utility.yul\":1648:1712   */\n  tag_48\n    /* \"#utility.yul\":1704:1711   */\n  dup7\n    /* \"#utility.yul\":1695:1701   */\n  dup3\n    /* \"#utility.yul\":1684:1693   */\n  dup8\n    /* \"#utility.yul\":1680:1702   */\n  add\n    /* \"#utility.yul\":1648:1712   */\n  tag_19\n  jump\t// in\ntag_48:\n    /* \"#utility.yul\":1638:1712   */\n  swap3\n  pop\n    /* \"#utility.yul\":1593:1722   */\n  pop\n    /* \"#utility.yul\":1761:1763   */\n  0x40\n    /* \"#utility.yul\":1787:1851   */\n  tag_49\n    /* \"#utility.yul\":1843:1850   */\n  dup7\n    /* \"#utility.yul\":1834:1840   */\n  dup3\n    /* \"#utility.yul\":1823:1832   */\n  dup8\n    /* \"#utility.yul\":1819:1841   */\n  add\n    /* \"#utility.yul\":1787:1851   */\n  tag_22\n  jump\t// in\ntag_49:\n    /* \"#utility.yul\":1777:1851   */\n  swap2\n  pop\n    /* \"#utility.yul\":1732:1861   */\n  pop\n    /* \"#utility.yul\":1205:1868   */\n  swap3\n  pop\n  swap3\n  pop\n  swap3\n  jump\t// out\n    /* \"#utility.yul\":1874:2043   */\ntag_23:\n    /* \"#utility.yul\":1958:1969   */\n  0x00\n    /* \"#utility.yul\":1992:1998   */\n  dup3\n    /* \"#utility.yul\":1987:1990   */\n  dup3\n    /* \"#utility.yul\":1980:1999   */\n  mstore\n    /* \"#utility.yul\":2032:2036   */\n  0x20\n    /* \"#utility.yul\":2027:2030   */\n  dup3\n    /* \"#utility.yul\":2023:2037   */\n  add\n    /* \"#utility.yul\":2008:2037   */\n  swap1\n  pop\n    /* \"#utility.yul\":1874:2043   */\n  swap3\n  swap2\n  pop\n  pop\n  jump\t// out\n    /* \"#utility.yul\":2049:2214   */\ntag_24:\n    /* \"#utility.yul\":2189:2206   */\n  0x496e76616c696420616464726573730000000000000000000000000000000000\n    /* \"#utility.yul\":2185:2186   */\n  0x00\n    /* \"#utility.yul\":2177:2183   */\n  dup3\n    /* \"#utility.yul\":2173:2187   */\n  add\n    /* \"#utility.yul\":2166:2207   */\n  mstore\n    /* \"#utility.yul\":2049:2214   */\n  pop\n  jump\t// out\n    /* \"#utility.yul\":2220:2586   */\ntag_25:\n    /* \"#utility.yul\":2362:2365   */\n  0x00\n    /* \"#utility.yul\":2383:2450   */\n  tag_53\n    /* \"#utility.yul\":2447:2449   */\n  0x0f\n    /* \"#utility.yul\":2442:2445   */\n  dup4\n    /* \"#utility.yul\":2383:2450   */\n  tag_23\n  jump\t// in\ntag_53:\n    /* \"#utility.yul\":2376:2450   */\n  swap2\n  pop\n    /* \"#utility.yul\":2459:2552   */\n  tag_54\n    /* \"#utility.yul\":2548:2551   */\n  dup3\n    /* \"#utility.yul\":2459:2552   */\n  tag_24\n  jump\t// in\ntag_54:\n    /* \"#utility.yul\":2577:2579   */\n  0x20\n    /* \"#utility.yul\":2572:2575   */\n  dup3\n    /* \"#utility.yul\":2568:2580   */\n  add\n    /* \"#utility.yul\":2561:2580   */\n  swap1\n  pop\n    /* \"#utility.yul\":2220:2586   */\n  swap2\n  swap1\n  pop\n  jump\t// out\n    /* \"#utility.yul\":2592:3011   */\ntag_11:\n    /* \"#utility.yul\":2758:2762   */\n  0x00\n    /* \"#utility.yul\":2796:2798   */\n  0x20\n    /* \"#utility.yul\":2785:2794   */\n  dup3\n    /* \"#utility.yul\":2781:2799   */\n  add\n    /* \"#utility.yul\":2773:2799   */\n  swap1\n  pop\n    /* \"#utility.yul\":2845:2854   */\n  dup2\n    /* \"#utility.yul\":2839:2843   */\n  dup2\n    /* \"#utility.yul\":2835:2855   */\n  sub\n    /* \"#utility.yul\":2831:2832   */\n  0x00\n    /* \"#utility.yul\":2820:2829   */\n  dup4\n    /* \"#utility.yul\":2816:2833   */\n  add\n    /* \"#utility.yul\":2809:2856   */\n  mstore\n    /* \"#utility.yul\":2873:3004   */\n  tag_56\n    /* \"#utility.yul\":2999:3003   */\n  dup2\n    /* \"#utility.yul\":2873:3004   */\n  tag_25\n  jump\t// in\ntag_56:\n    /* \"#utility.yul\":2865:3004   */\n  swap1\n  pop\n    /* \"#utility.yul\":2592:3011   */\n  swap2\n  swap1\n  pop\n  jump\t// out\n    /* \"contracts/onepage.sol\":184:6467  contract OnePageLiquidity is ReentrancyGuard {... */\ntag_12:\n  dataSize(sub_0)\n  dup1\n  dataOffset(sub_0)\n  0x00\n  codecopy\n  0x00\n  return\nstop\n\nsub_0: assembly {\n        /* \"contracts/onepage.sol\":184:6467  contract OnePageLiquidity is ReentrancyGuard {... */\n      mstore(0x40, 0x80)\n      callvalue\n      dup1\n      iszero\n      tag_1\n      jumpi\n      0x00\n      dup1\n      revert\n    tag_1:\n      pop\n      jumpi(tag_2, lt(calldatasize, 0x04))\n      shr(0xe0, calldataload(0x00))\n      dup1\n      0xb5acfa62\n      gt\n      tag_13\n      jumpi\n      dup1\n      0xb5acfa62\n      eq\n      tag_8\n      jumpi\n      dup1\n      0xbd50a3d4\n      eq\n      tag_9\n      jumpi\n      dup1\n      0xebaaa3a1\n      eq\n      tag_10\n      jumpi\n      dup1\n      0xfa2af9da\n      eq\n      tag_11\n      jumpi\n      dup1\n      0xfe029156\n      eq\n      tag_12\n      jumpi\n      jump(tag_2)\n    tag_13:\n      dup1\n      0x02d05d3f\n      eq\n      tag_3\n      jumpi\n      dup1\n      0x27efb5a7\n      eq\n      tag_4\n      jumpi\n      dup1\n      0x5861b227\n      eq\n      tag_5\n      jumpi\n      dup1\n      0x69454b86\n      eq\n      tag_6\n      jumpi\n      dup1\n      0xad8c5668\n      eq\n      tag_7\n      jumpi\n    tag_2:\n      0x00\n      dup1\n      revert\n        /* \"contracts/onepage.sol\":236:258  address public creator */\n    tag_3:\n      tag_14\n      tag_15\n      jump\t// in\n    tag_14:\n      mload(0x40)\n      tag_16\n      swap2\n      swap1\n      tag_17\n      jump\t// in\n    tag_16:\n      mload(0x40)\n      dup1\n      swap2\n      sub\n      swap1\n      return\n        /* \"contracts/onepage.sol\":5681:6464  function withdrawFromPair(address tokenA, address tokenB, uint256 amountA, uint256 amountB) external onlyCreator nonReentrant {... */\n    tag_4:\n      tag_18\n      0x04\n      dup1\n      calldatasize\n      sub\n      dup2\n      add\n      swap1\n      tag_19\n      swap2\n      swap1\n      tag_20\n      jump\t// in\n    tag_19:\n      tag_21\n      jump\t// in\n    tag_18:\n      stop\n        /* \"contracts/onepage.sol\":2386:3041  function removePair(address tokenA, address tokenB) external onlyCreator {... */\n    tag_5:\n      tag_22\n      0x04\n      dup1\n      calldatasize\n      sub\n      dup2\n      add\n      swap1\n      tag_23\n      swap2\n      swap1\n      tag_24\n      jump\t// in\n    tag_23:\n      tag_25\n      jump\t// in\n    tag_22:\n      stop\n        /* \"contracts/onepage.sol\":1256:1313  mapping(address => mapping(address => Pair)) public pairs */\n    tag_6:\n      tag_26\n      0x04\n      dup1\n      calldatasize\n      sub\n      dup2\n      add\n      swap1\n      tag_27\n      swap2\n      swap1\n      tag_24\n      jump\t// in\n    tag_27:\n      tag_28\n      jump\t// in\n    tag_26:\n      mload(0x40)\n      tag_29\n      swap6\n      swap5\n      swap4\n      swap3\n      swap2\n      swap1\n      tag_30\n      jump\t// in\n    tag_29:\n      mload(0x40)\n      dup1\n      swap2\n      sub\n      swap1\n      return\n        /* \"contracts/onepage.sol\":1320:1345  PairKey[] public pairKeys */\n    tag_7:\n      tag_31\n      0x04\n      dup1\n      calldatasize\n      sub\n      dup2\n      add\n      swap1\n      tag_32\n      swap2\n      swap1\n      tag_33\n      jump\t// in\n    tag_32:\n      tag_34\n      jump\t// in\n    tag_31:\n      mload(0x40)\n      tag_35\n      swap3\n      swap2\n      swap1\n      tag_36\n      jump\t// in\n    tag_35:\n      mload(0x40)\n      dup1\n      swap2\n      sub\n      swap1\n      return\n        /* \"contracts/onepage.sol\":1823:2346  function addPair(address tokenA, address tokenB, uint256 fee) external onlyCreator {... */\n    tag_8:\n      tag_37\n      0x04\n      dup1\n      calldatasize\n      sub\n      dup2\n      add\n      swap1\n      tag_38\n      swap2\n      swap1\n      tag_39\n      jump\t// in\n    tag_38:\n      tag_40\n      jump\t// in\n    tag_37:\n      stop\n        /* \"contracts/onepage.sol\":3091:3863  function depositLiquidity(address tokenA, address tokenB, uint256 amountA, uint256 amountB) external onlyCreator nonReentrant {... */\n    tag_9:\n      tag_41\n      0x04\n      dup1\n      calldatasize\n      sub\n      dup2\n      add\n      swap1\n      tag_42\n      swap2\n      swap1\n      tag_20\n      jump\t// in\n    tag_42:\n      tag_43\n      jump\t// in\n    tag_41:\n      stop\n        /* \"contracts/onepage.sol\":346:375  uint256 public platformFeeBPS */\n    tag_10:\n      tag_44\n      tag_45\n      jump\t// in\n    tag_44:\n      mload(0x40)\n      tag_46\n      swap2\n      swap1\n      tag_47\n      jump\t// in\n    tag_46:\n      mload(0x40)\n      dup1\n      swap2\n      sub\n      swap1\n      return\n        /* \"contracts/onepage.sol\":265:294  address public platformWallet */\n    tag_11:\n      tag_48\n      tag_49\n      jump\t// in\n    tag_48:\n      mload(0x40)\n      tag_50\n      swap2\n      swap1\n      tag_17\n      jump\t// in\n    tag_50:\n      mload(0x40)\n      dup1\n      swap2\n      sub\n      swap1\n      return\n        /* \"contracts/onepage.sol\":3905:5630  function swap(address tokenIn, address tokenOut, uint256 amountIn, uint256 minAmountOut) external nonReentrant {... */\n    tag_12:\n      tag_51\n      0x04\n      dup1\n      calldatasize\n      sub\n      dup2\n      add\n      swap1\n      tag_52\n      swap2\n      swap1\n      tag_20\n      jump\t// in\n    tag_52:\n      tag_53\n      jump\t// in\n    tag_51:\n      stop\n        /* \"contracts/onepage.sol\":236:258  address public creator */\n    tag_15:\n      0x01\n      0x00\n      swap1\n      sload\n      swap1\n      0x0100\n      exp\n      swap1\n      div\n      0xffffffffffffffffffffffffffffffffffffffff\n      and\n      dup2\n      jump\t// out\n        /* \"contracts/onepage.sol\":5681:6464  function withdrawFromPair(address tokenA, address tokenB, uint256 amountA, uint256 amountB) external onlyCreator nonReentrant {... */\n    tag_21:\n        /* \"contracts/onepage.sol\":1410:1417  creator */\n      0x01\n      0x00\n      swap1\n      sload\n      swap1\n      0x0100\n      exp\n      swap1\n      div\n      0xffffffffffffffffffffffffffffffffffffffff\n      and\n        /* \"contracts/onepage.sol\":1396:1417  msg.sender == creator */\n      0xffffffffffffffffffffffffffffffffffffffff\n      and\n        /* \"contracts/onepage.sol\":1396:1406  msg.sender */\n      caller\n        /* \"contracts/onepage.sol\":1396:1417  msg.sender == creator */\n      0xffffffffffffffffffffffffffffffffffffffff\n      and\n      eq\n        /* \"contracts/onepage.sol\":1388:1457  require(msg.sender == creator, \"Only creator can call this function\") */\n      tag_55\n      jumpi\n      mload(0x40)\n      0x08c379a000000000000000000000000000000000000000000000000000000000\n      dup2\n      mstore\n      0x04\n      add\n      tag_56\n      swap1\n      tag_57\n      jump\t// in\n    tag_56:\n      mload(0x40)\n      dup1\n      swap2\n      sub\n      swap1\n      revert\n    tag_55:\n        /* \"@openzeppelin/contracts/security/ReentrancyGuard.sol\":2261:2282  _nonReentrantBefore() */\n      tag_59\n        /* \"@openzeppelin/contracts/security/ReentrancyGuard.sol\":2261:2280  _nonReentrantBefore */\n      tag_60\n        /* \"@openzeppelin/contracts/security/ReentrancyGuard.sol\":2261:2282  _nonReentrantBefore() */\n      jump\t// in\n    tag_59:\n        /* \"contracts/onepage.sol\":5836:5837  0 */\n      0x00\n        /* \"contracts/onepage.sol\":5826:5833  amountA */\n      dup3\n        /* \"contracts/onepage.sol\":5826:5837  amountA > 0 */\n      gt\n        /* \"contracts/onepage.sol\":5826:5852  amountA > 0 && amountB > 0 */\n      dup1\n      iszero\n      tag_62\n      jumpi\n      pop\n        /* \"contracts/onepage.sol\":5851:5852  0 */\n      0x00\n        /* \"contracts/onepage.sol\":5841:5848  amountB */\n      dup2\n        /* \"contracts/onepage.sol\":5841:5852  amountB > 0 */\n      gt\n        /* \"contracts/onepage.sol\":5826:5852  amountA > 0 && amountB > 0 */\n    tag_62:\n        /* \"contracts/onepage.sol\":5818:5901  require(amountA > 0 && amountB > 0, \"Withdrawal amounts must be greater than zero\") */\n      tag_63\n      jumpi\n      mload(0x40)\n      0x08c379a000000000000000000000000000000000000000000000000000000000\n      dup2\n      mstore\n      0x04\n      add\n      tag_64\n      swap1\n      tag_65\n      jump\t// in\n    tag_64:\n      mload(0x40)\n      dup1\n      swap2\n      sub\n      swap1\n      revert\n    tag_63:\n        /* \"contracts/onepage.sol\":5925:5931  tokenB */\n      dup3\n        /* \"contracts/onepage.sol\":5916:5931  tokenA > tokenB */\n      0xffffffffffffffffffffffffffffffffffffffff\n      and\n        /* \"contracts/onepage.sol\":5916:5922  tokenA */\n      dup5\n        /* \"contracts/onepage.sol\":5916:5931  tokenA > tokenB */\n      0xffffffffffffffffffffffffffffffffffffffff\n      and\n      gt\n        /* \"contracts/onepage.sol\":5912:5995  if (tokenA > tokenB) {... */\n      iszero\n      tag_66\n      jumpi\n        /* \"contracts/onepage.sol\":5968:5974  tokenB */\n      dup3\n        /* \"contracts/onepage.sol\":5976:5982  tokenA */\n      dup5\n        /* \"contracts/onepage.sol\":5948:5983  (tokenA, tokenB) = (tokenB, tokenA) */\n      dup1\n      swap5\n      pop\n      dup2\n      swap6\n      pop\n      pop\n      pop\n        /* \"contracts/onepage.sol\":5912:5995  if (tokenA > tokenB) {... */\n    tag_66:\n        /* \"contracts/onepage.sol\":6005:6022  Pair storage pair */\n      0x00\n        /* \"contracts/onepage.sol\":6025:6030  pairs */\n      0x04\n        /* \"contracts/onepage.sol\":6025:6038  pairs[tokenA] */\n      0x00\n        /* \"contracts/onepage.sol\":6031:6037  tokenA */\n      dup7\n        /* \"contracts/onepage.sol\":6025:6038  pairs[tokenA] */\n      0xffffffffffffffffffffffffffffffffffffffff\n      and\n      0xffffffffffffffffffffffffffffffffffffffff\n      and\n      dup2\n      mstore\n      0x20\n      add\n      swap1\n      dup2\n      mstore\n      0x20\n      add\n      0x00\n      keccak256\n        /* \"contracts/onepage.sol\":6025:6046  pairs[tokenA][tokenB] */\n      0x00\n        /* \"contracts/onepage.sol\":6039:6045  tokenB */\n      dup6\n        /* \"contracts/onepage.sol\":6025:6046  pairs[tokenA][tokenB] */\n      0xffffffffffffffffffffffffffffffffffffffff\n      and\n      0xffffffffffffffffffffffffffffffffffffffff\n      and\n      dup2\n      mstore\n      0x20\n      add\n      swap1\n      dup2\n      mstore\n      0x20\n      add\n      0x00\n      keccak256\n        /* \"contracts/onepage.sol\":6005:6046  Pair storage pair = pairs[tokenA][tokenB] */\n      swap1\n      pop\n        /* \"contracts/onepage.sol\":6082:6089  amountA */\n      dup3\n        /* \"contracts/onepage.sol\":6065:6069  pair */\n      dup2\n        /* \"contracts/onepage.sol\":6065:6078  pair.reserveA */\n      0x02\n      add\n      sload\n        /* \"contracts/onepage.sol\":6065:6089  pair.reserveA >= amountA */\n      lt\n      iszero\n        /* \"contracts/onepage.sol\":6057:6127  require(pair.reserveA >= amountA, \"Insufficient liquidity for tokenA\") */\n      tag_67\n      jumpi\n      mload(0x40)\n      0x08c379a000000000000000000000000000000000000000000000000000000000\n      dup2\n      mstore\n      0x04\n      add\n      tag_68\n      swap1\n      tag_69\n      jump\t// in\n    tag_68:\n      mload(0x40)\n      dup1\n      swap2\n      sub\n      swap1\n      revert\n    tag_67:\n        /* \"contracts/onepage.sol\":6163:6170  amountB */\n      dup2\n        /* \"contracts/onepage.sol\":6146:6150  pair */\n      dup2\n        /* \"contracts/onepage.sol\":6146:6159  pair.reserveB */\n      0x03\n      add\n      sload\n        /* \"contracts/onepage.sol\":6146:6170  pair.reserveB >= amountB */\n      lt\n      iszero\n        /* \"contracts/onepage.sol\":6138:6208  require(pair.reserveB >= amountB, \"Insufficient liquidity for tokenB\") */\n      tag_70\n      jumpi\n      mload(0x40)\n      0x08c379a000000000000000000000000000000000000000000000000000000000\n      dup2\n      mstore\n      0x04\n      add\n      tag_71\n      swap1\n      tag_72\n      jump\t// in\n    tag_71:\n      mload(0x40)\n      dup1\n      swap2\n      sub\n      swap1\n      revert\n    tag_70:\n        /* \"contracts/onepage.sol\":6238:6245  amountA */\n      dup3\n        /* \"contracts/onepage.sol\":6221:6225  pair */\n      dup2\n        /* \"contracts/onepage.sol\":6221:6234  pair.reserveA */\n      0x02\n      add\n      0x00\n        /* \"contracts/onepage.sol\":6221:6245  pair.reserveA -= amountA */\n      dup3\n      dup3\n      sload\n      tag_73\n      swap2\n      swap1\n      tag_74\n      jump\t// in\n    tag_73:\n      swap3\n      pop\n      pop\n      dup2\n      swap1\n      sstore\n      pop\n        /* \"contracts/onepage.sol\":6273:6280  amountB */\n      dup2\n        /* \"contracts/onepage.sol\":6256:6260  pair */\n      dup2\n        /* \"contracts/onepage.sol\":6256:6269  pair.reserveB */\n      0x03\n      add\n      0x00\n        /* \"contracts/onepage.sol\":6256:6280  pair.reserveB -= amountB */\n      dup3\n      dup3\n      sload\n      tag_75\n      swap2\n      swap1\n      tag_74\n      jump\t// in\n    tag_75:\n      swap3\n      pop\n      pop\n      dup2\n      swap1\n      sstore\n      pop\n        /* \"contracts/onepage.sol\":6300:6306  tokenA */\n      dup5\n        /* \"contracts/onepage.sol\":6293:6316  IERC20(tokenA).transfer */\n      0xffffffffffffffffffffffffffffffffffffffff\n      and\n      0xa9059cbb\n        /* \"contracts/onepage.sol\":6317:6324  creator */\n      0x01\n      0x00\n      swap1\n      sload\n      swap1\n      0x0100\n      exp\n      swap1\n      div\n      0xffffffffffffffffffffffffffffffffffffffff\n      and\n        /* \"contracts/onepage.sol\":6326:6333  amountA */\n      dup6\n        /* \"contracts/onepage.sol\":6293:6334  IERC20(tokenA).transfer(creator, amountA) */\n      mload(0x40)\n      dup4\n      0xffffffff\n      and\n      0xe0\n      shl\n      dup2\n      mstore\n      0x04\n      add\n      tag_76\n      swap3\n      swap2\n      swap1\n      tag_77\n      jump\t// in\n    tag_76:\n      0x20\n      mload(0x40)\n      dup1\n      dup4\n      sub\n      dup2\n      0x00\n      dup8\n      gas\n      call\n      iszero\n      dup1\n      iszero\n      tag_79\n      jumpi\n      returndatasize\n      0x00\n      dup1\n      returndatacopy\n      revert(0x00, returndatasize)\n    tag_79:\n      pop\n      pop\n      pop\n      pop\n      mload(0x40)\n      returndatasize\n      not(0x1f)\n      0x1f\n      dup3\n      add\n      and\n      dup3\n      add\n      dup1\n      0x40\n      mstore\n      pop\n      dup2\n      add\n      swap1\n      tag_80\n      swap2\n      swap1\n      tag_81\n      jump\t// in\n    tag_80:\n      pop\n        /* \"contracts/onepage.sol\":6352:6358  tokenB */\n      dup4\n        /* \"contracts/onepage.sol\":6345:6368  IERC20(tokenB).transfer */\n      0xffffffffffffffffffffffffffffffffffffffff\n      and\n      0xa9059cbb\n        /* \"contracts/onepage.sol\":6369:6376  creator */\n      0x01\n      0x00\n      swap1\n      sload\n      swap1\n      0x0100\n      exp\n      swap1\n      div\n      0xffffffffffffffffffffffffffffffffffffffff\n      and\n        /* \"contracts/onepage.sol\":6378:6385  amountB */\n      dup5\n        /* \"contracts/onepage.sol\":6345:6386  IERC20(tokenB).transfer(creator, amountB) */\n      mload(0x40)\n      dup4\n      0xffffffff\n      and\n      0xe0\n      shl\n      dup2\n      mstore\n      0x04\n      add\n      tag_82\n      swap3\n      swap2\n      swap1\n      tag_77\n      jump\t// in\n    tag_82:\n      0x20\n      mload(0x40)\n      dup1\n      dup4\n      sub\n      dup2\n      0x00\n      dup8\n      gas\n      call\n      iszero\n      dup1\n      iszero\n      tag_84\n      jumpi\n      returndatasize\n      0x00\n      dup1\n      returndatacopy\n      revert(0x00, returndatasize)\n    tag_84:\n      pop\n      pop\n      pop\n      pop\n      mload(0x40)\n      returndatasize\n      not(0x1f)\n      0x1f\n      dup3\n      add\n      and\n      dup3\n      add\n      dup1\n      0x40\n      mstore\n      pop\n      dup2\n      add\n      swap1\n      tag_85\n      swap2\n      swap1\n      tag_81\n      jump\t// in\n    tag_85:\n      pop\n        /* \"contracts/onepage.sol\":6431:6437  tokenB */\n      dup4\n        /* \"contracts/onepage.sol\":6404:6456  LiquidityWithdrawn(tokenA, tokenB, amountA, amountB) */\n      0xffffffffffffffffffffffffffffffffffffffff\n      and\n        /* \"contracts/onepage.sol\":6423:6429  tokenA */\n      dup6\n        /* \"contracts/onepage.sol\":6404:6456  LiquidityWithdrawn(tokenA, tokenB, amountA, amountB) */\n      0xffffffffffffffffffffffffffffffffffffffff\n      and\n      0xba0b893b2f314a229997e335266881b5ac6b290bd350d2c23cc57160b77882b8\n        /* \"contracts/onepage.sol\":6439:6446  amountA */\n      dup6\n        /* \"contracts/onepage.sol\":6448:6455  amountB */\n      dup6\n        /* \"contracts/onepage.sol\":6404:6456  LiquidityWithdrawn(tokenA, tokenB, amountA, amountB) */\n      mload(0x40)\n      tag_86\n      swap3\n      swap2\n      swap1\n      tag_87\n      jump\t// in\n    tag_86:\n      mload(0x40)\n      dup1\n      swap2\n      sub\n      swap1\n      log3\n        /* \"contracts/onepage.sol\":5807:6464  {... */\n      pop\n        /* \"@openzeppelin/contracts/security/ReentrancyGuard.sol\":2303:2323  _nonReentrantAfter() */\n      tag_88\n        /* \"@openzeppelin/contracts/security/ReentrancyGuard.sol\":2303:2321  _nonReentrantAfter */\n      tag_89\n        /* \"@openzeppelin/contracts/security/ReentrancyGuard.sol\":2303:2323  _nonReentrantAfter() */\n      jump\t// in\n    tag_88:\n        /* \"contracts/onepage.sol\":5681:6464  function withdrawFromPair(address tokenA, address tokenB, uint256 amountA, uint256 amountB) external onlyCreator nonReentrant {... */\n      pop\n      pop\n      pop\n      pop\n      jump\t// out\n        /* \"contracts/onepage.sol\":2386:3041  function removePair(address tokenA, address tokenB) external onlyCreator {... */\n    tag_25:\n        /* \"contracts/onepage.sol\":1410:1417  creator */\n      0x01\n      0x00\n      swap1\n      sload\n      swap1\n      0x0100\n      exp\n      swap1\n      div\n      0xffffffffffffffffffffffffffffffffffffffff\n      and\n        /* \"contracts/onepage.sol\":1396:1417  msg.sender == creator */\n      0xffffffffffffffffffffffffffffffffffffffff\n      and\n        /* \"contracts/onepage.sol\":1396:1406  msg.sender */\n      caller\n        /* \"contracts/onepage.sol\":1396:1417  msg.sender == creator */\n      0xffffffffffffffffffffffffffffffffffffffff\n      and\n      eq\n        /* \"contracts/onepage.sol\":1388:1457  require(msg.sender == creator, \"Only creator can call this function\") */\n      tag_91\n      jumpi\n      mload(0x40)\n      0x08c379a000000000000000000000000000000000000000000000000000000000\n      dup2\n      mstore\n      0x04\n      add\n      tag_92\n      swap1\n      tag_57\n      jump\t// in\n    tag_92:\n      mload(0x40)\n      dup1\n      swap2\n      sub\n      swap1\n      revert\n    tag_91:\n        /* \"contracts/onepage.sol\":2483:2489  tokenB */\n      dup1\n        /* \"contracts/onepage.sol\":2474:2489  tokenA > tokenB */\n      0xffffffffffffffffffffffffffffffffffffffff\n      and\n        /* \"contracts/onepage.sol\":2474:2480  tokenA */\n      dup3\n        /* \"contracts/onepage.sol\":2474:2489  tokenA > tokenB */\n      0xffffffffffffffffffffffffffffffffffffffff\n      and\n      gt\n        /* \"contracts/onepage.sol\":2470:2553  if (tokenA > tokenB) {... */\n      iszero\n      tag_94\n      jumpi\n        /* \"contracts/onepage.sol\":2526:2532  tokenB */\n      dup1\n        /* \"contracts/onepage.sol\":2534:2540  tokenA */\n      dup3\n        /* \"contracts/onepage.sol\":2506:2541  (tokenA, tokenB) = (tokenB, tokenA) */\n      dup1\n      swap3\n      pop\n      dup2\n      swap4\n      pop\n      pop\n      pop\n        /* \"contracts/onepage.sol\":2470:2553  if (tokenA > tokenB) {... */\n    tag_94:\n        /* \"contracts/onepage.sol\":2611:2612  0 */\n      0x00\n        /* \"contracts/onepage.sol\":2571:2613  pairs[tokenA][tokenB].tokenA != address(0) */\n      0xffffffffffffffffffffffffffffffffffffffff\n      and\n        /* \"contracts/onepage.sol\":2571:2576  pairs */\n      0x04\n        /* \"contracts/onepage.sol\":2571:2584  pairs[tokenA] */\n      0x00\n        /* \"contracts/onepage.sol\":2577:2583  tokenA */\n      dup5\n        /* \"contracts/onepage.sol\":2571:2584  pairs[tokenA] */\n      0xffffffffffffffffffffffffffffffffffffffff\n      and\n      0xffffffffffffffffffffffffffffffffffffffff\n      and\n      dup2\n      mstore\n      0x20\n      add\n      swap1\n      dup2\n      mstore\n      0x20\n      add\n      0x00\n      keccak256\n        /* \"contracts/onepage.sol\":2571:2592  pairs[tokenA][tokenB] */\n      0x00\n        /* \"contracts/onepage.sol\":2585:2591  tokenB */\n      dup4\n        /* \"contracts/onepage.sol\":2571:2592  pairs[tokenA][tokenB] */\n      0xffffffffffffffffffffffffffffffffffffffff\n      and\n      0xffffffffffffffffffffffffffffffffffffffff\n      and\n      dup2\n      mstore\n      0x20\n      add\n      swap1\n      dup2\n      mstore\n      0x20\n      add\n      0x00\n      keccak256\n        /* \"contracts/onepage.sol\":2571:2599  pairs[tokenA][tokenB].tokenA */\n      0x00\n      add\n      0x00\n      swap1\n      sload\n      swap1\n      0x0100\n      exp\n      swap1\n      div\n      0xffffffffffffffffffffffffffffffffffffffff\n      and\n        /* \"contracts/onepage.sol\":2571:2613  pairs[tokenA][tokenB].tokenA != address(0) */\n      0xffffffffffffffffffffffffffffffffffffffff\n      and\n      sub\n        /* \"contracts/onepage.sol\":2563:2637  require(pairs[tokenA][tokenB].tokenA != address(0), \"Pair does not exist\") */\n      tag_95\n      jumpi\n      mload(0x40)\n      0x08c379a000000000000000000000000000000000000000000000000000000000\n      dup2\n      mstore\n      0x04\n      add\n      tag_96\n      swap1\n      tag_97\n      jump\t// in\n    tag_96:\n      mload(0x40)\n      dup1\n      swap2\n      sub\n      swap1\n      revert\n    tag_95:\n        /* \"contracts/onepage.sol\":2657:2662  pairs */\n      0x04\n        /* \"contracts/onepage.sol\":2657:2670  pairs[tokenA] */\n      0x00\n        /* \"contracts/onepage.sol\":2663:2669  tokenA */\n      dup4\n        /* \"contracts/onepage.sol\":2657:2670  pairs[tokenA] */\n      0xffffffffffffffffffffffffffffffffffffffff\n      and\n      0xffffffffffffffffffffffffffffffffffffffff\n      and\n      dup2\n      mstore\n      0x20\n      add\n      swap1\n      dup2\n      mstore\n      0x20\n      add\n      0x00\n      keccak256\n        /* \"contracts/onepage.sol\":2657:2678  pairs[tokenA][tokenB] */\n      0x00\n        /* \"contracts/onepage.sol\":2671:2677  tokenB */\n      dup3\n        /* \"contracts/onepage.sol\":2657:2678  pairs[tokenA][tokenB] */\n      0xffffffffffffffffffffffffffffffffffffffff\n      and\n      0xffffffffffffffffffffffffffffffffffffffff\n      and\n      dup2\n      mstore\n      0x20\n      add\n      swap1\n      dup2\n      mstore\n      0x20\n      add\n      0x00\n      keccak256\n      0x00\n        /* \"contracts/onepage.sol\":2650:2678  delete pairs[tokenA][tokenB] */\n      dup1\n      dup3\n      add\n      exp(0x0100, 0x00)\n      dup2\n      sload\n      swap1\n      0xffffffffffffffffffffffffffffffffffffffff\n      mul\n      not\n      and\n      swap1\n      sstore\n      0x01\n      dup3\n      add\n      exp(0x0100, 0x00)\n      dup2\n      sload\n      swap1\n      0xffffffffffffffffffffffffffffffffffffffff\n      mul\n      not\n      and\n      swap1\n      sstore\n      0x02\n      dup3\n      add\n      0x00\n      swap1\n      sstore\n      0x03\n      dup3\n      add\n      0x00\n      swap1\n      sstore\n      0x04\n      dup3\n      add\n      0x00\n      swap1\n      sstore\n      pop\n      pop\n        /* \"contracts/onepage.sol\":2691:2705  uint256 length */\n      0x00\n        /* \"contracts/onepage.sol\":2708:2716  pairKeys */\n      0x05\n        /* \"contracts/onepage.sol\":2708:2723  pairKeys.length */\n      dup1\n      sload\n      swap1\n      pop\n        /* \"contracts/onepage.sol\":2691:2723  uint256 length = pairKeys.length */\n      swap1\n      pop\n        /* \"contracts/onepage.sol\":2739:2748  uint256 i */\n      0x00\n        /* \"contracts/onepage.sol\":2734:2989  for (uint256 i = 0; i < length; i++) {... */\n    tag_98:\n        /* \"contracts/onepage.sol\":2758:2764  length */\n      dup2\n        /* \"contracts/onepage.sol\":2754:2755  i */\n      dup2\n        /* \"contracts/onepage.sol\":2754:2764  i < length */\n      lt\n        /* \"contracts/onepage.sol\":2734:2989  for (uint256 i = 0; i < length; i++) {... */\n      iszero\n      tag_99\n      jumpi\n        /* \"contracts/onepage.sol\":2812:2818  tokenA */\n      dup4\n        /* \"contracts/onepage.sol\":2790:2818  pairKeys[i].tokenA == tokenA */\n      0xffffffffffffffffffffffffffffffffffffffff\n      and\n        /* \"contracts/onepage.sol\":2790:2798  pairKeys */\n      0x05\n        /* \"contracts/onepage.sol\":2799:2800  i */\n      dup3\n        /* \"contracts/onepage.sol\":2790:2801  pairKeys[i] */\n      dup2\n      sload\n      dup2\n      lt\n      tag_101\n      jumpi\n      tag_102\n      tag_103\n      jump\t// in\n    tag_102:\n    tag_101:\n      swap1\n      0x00\n      mstore\n      keccak256(0x00, 0x20)\n      swap1\n      0x02\n      mul\n      add\n        /* \"contracts/onepage.sol\":2790:2808  pairKeys[i].tokenA */\n      0x00\n      add\n      0x00\n      swap1\n      sload\n      swap1\n      0x0100\n      exp\n      swap1\n      div\n      0xffffffffffffffffffffffffffffffffffffffff\n      and\n        /* \"contracts/onepage.sol\":2790:2818  pairKeys[i].tokenA == tokenA */\n      0xffffffffffffffffffffffffffffffffffffffff\n      and\n      eq\n        /* \"contracts/onepage.sol\":2790:2850  pairKeys[i].tokenA == tokenA && pairKeys[i].tokenB == tokenB */\n      dup1\n      iszero\n      tag_105\n      jumpi\n      pop\n        /* \"contracts/onepage.sol\":2844:2850  tokenB */\n      dup3\n        /* \"contracts/onepage.sol\":2822:2850  pairKeys[i].tokenB == tokenB */\n      0xffffffffffffffffffffffffffffffffffffffff\n      and\n        /* \"contracts/onepage.sol\":2822:2830  pairKeys */\n      0x05\n        /* \"contracts/onepage.sol\":2831:2832  i */\n      dup3\n        /* \"contracts/onepage.sol\":2822:2833  pairKeys[i] */\n      dup2\n      sload\n      dup2\n      lt\n      tag_106\n      jumpi\n      tag_107\n      tag_103\n      jump\t// in\n    tag_107:\n    tag_106:\n      swap1\n      0x00\n      mstore\n      keccak256(0x00, 0x20)\n      swap1\n      0x02\n      mul\n      add\n        /* \"contracts/onepage.sol\":2822:2840  pairKeys[i].tokenB */\n      0x01\n      add\n      0x00\n      swap1\n      sload\n      swap1\n      0x0100\n      exp\n      swap1\n      div\n      0xffffffffffffffffffffffffffffffffffffffff\n      and\n        /* \"contracts/onepage.sol\":2822:2850  pairKeys[i].tokenB == tokenB */\n      0xffffffffffffffffffffffffffffffffffffffff\n      and\n      eq\n        /* \"contracts/onepage.sol\":2790:2850  pairKeys[i].tokenA == tokenA && pairKeys[i].tokenB == tokenB */\n    tag_105:\n        /* \"contracts/onepage.sol\":2786:2978  if (pairKeys[i].tokenA == tokenA && pairKeys[i].tokenB == tokenB) {... */\n      iszero\n      tag_109\n      jumpi\n        /* \"contracts/onepage.sol\":2885:2893  pairKeys */\n      0x05\n        /* \"contracts/onepage.sol\":2903:2904  1 */\n      0x01\n        /* \"contracts/onepage.sol\":2894:2900  length */\n      dup4\n        /* \"contracts/onepage.sol\":2894:2904  length - 1 */\n      tag_110\n      swap2\n      swap1\n      tag_74\n      jump\t// in\n    tag_110:\n        /* \"contracts/onepage.sol\":2885:2905  pairKeys[length - 1] */\n      dup2\n      sload\n      dup2\n      lt\n      tag_111\n      jumpi\n      tag_112\n      tag_103\n      jump\t// in\n    tag_112:\n    tag_111:\n      swap1\n      0x00\n      mstore\n      keccak256(0x00, 0x20)\n      swap1\n      0x02\n      mul\n      add\n        /* \"contracts/onepage.sol\":2871:2879  pairKeys */\n      0x05\n        /* \"contracts/onepage.sol\":2880:2881  i */\n      dup3\n        /* \"contracts/onepage.sol\":2871:2882  pairKeys[i] */\n      dup2\n      sload\n      dup2\n      lt\n      tag_114\n      jumpi\n      tag_115\n      tag_103\n      jump\t// in\n    tag_115:\n    tag_114:\n      swap1\n      0x00\n      mstore\n      keccak256(0x00, 0x20)\n      swap1\n      0x02\n      mul\n      add\n        /* \"contracts/onepage.sol\":2871:2905  pairKeys[i] = pairKeys[length - 1] */\n      0x00\n      dup3\n      add\n      0x00\n      swap1\n      sload\n      swap1\n      0x0100\n      exp\n      swap1\n      div\n      0xffffffffffffffffffffffffffffffffffffffff\n      and\n      dup2\n      0x00\n      add\n      exp(0x0100, 0x00)\n      dup2\n      sload\n      dup2\n      0xffffffffffffffffffffffffffffffffffffffff\n      mul\n      not\n      and\n      swap1\n      dup4\n      0xffffffffffffffffffffffffffffffffffffffff\n      and\n      mul\n      or\n      swap1\n      sstore\n      pop\n      0x01\n      dup3\n      add\n      0x00\n      swap1\n      sload\n      swap1\n      0x0100\n      exp\n      swap1\n      div\n      0xffffffffffffffffffffffffffffffffffffffff\n      and\n      dup2\n      0x01\n      add\n      exp(0x0100, 0x00)\n      dup2\n      sload\n      dup2\n      0xffffffffffffffffffffffffffffffffffffffff\n      mul\n      not\n      and\n      swap1\n      dup4\n      0xffffffffffffffffffffffffffffffffffffffff\n      and\n      mul\n      or\n      swap1\n      sstore\n      pop\n      swap1\n      pop\n      pop\n        /* \"contracts/onepage.sol\":2924:2932  pairKeys */\n      0x05\n        /* \"contracts/onepage.sol\":2924:2938  pairKeys.pop() */\n      dup1\n      sload\n      dup1\n      tag_117\n      jumpi\n      tag_118\n      tag_119\n      jump\t// in\n    tag_118:\n    tag_117:\n      0x01\n      swap1\n      sub\n      dup2\n      dup2\n      swap1\n      0x00\n      mstore\n      keccak256(0x00, 0x20)\n      swap1\n      0x02\n      mul\n      add\n      0x00\n      dup1\n      dup3\n      add\n      exp(0x0100, 0x00)\n      dup2\n      sload\n      swap1\n      0xffffffffffffffffffffffffffffffffffffffff\n      mul\n      not\n      and\n      swap1\n      sstore\n      0x01\n      dup3\n      add\n      exp(0x0100, 0x00)\n      dup2\n      sload\n      swap1\n      0xffffffffffffffffffffffffffffffffffffffff\n      mul\n      not\n      and\n      swap1\n      sstore\n      pop\n      pop\n      swap1\n      sstore\n        /* \"contracts/onepage.sol\":2957:2962  break */\n      jump(tag_99)\n        /* \"contracts/onepage.sol\":2786:2978  if (pairKeys[i].tokenA == tokenA && pairKeys[i].tokenB == tokenB) {... */\n    tag_109:\n        /* \"contracts/onepage.sol\":2766:2769  i++ */\n      dup1\n      dup1\n      0x01\n      add\n      swap2\n      pop\n      pop\n        /* \"contracts/onepage.sol\":2734:2989  for (uint256 i = 0; i < length; i++) {... */\n      jump(tag_98)\n    tag_99:\n      pop\n        /* \"contracts/onepage.sol\":3026:3032  tokenB */\n      dup2\n        /* \"contracts/onepage.sol\":3006:3033  PairRemoved(tokenA, tokenB) */\n      0xffffffffffffffffffffffffffffffffffffffff\n      and\n        /* \"contracts/onepage.sol\":3018:3024  tokenA */\n      dup4\n        /* \"contracts/onepage.sol\":3006:3033  PairRemoved(tokenA, tokenB) */\n      0xffffffffffffffffffffffffffffffffffffffff\n      and\n      0xcfacf9d602eaae62e56c577b2340ef89b971ff33287fa964a1d17027e8ea2d42\n      mload(0x40)\n      mload(0x40)\n      dup1\n      swap2\n      sub\n      swap1\n      log3\n        /* \"contracts/onepage.sol\":2459:3041  {... */\n      pop\n        /* \"contracts/onepage.sol\":2386:3041  function removePair(address tokenA, address tokenB) external onlyCreator {... */\n      pop\n      pop\n      jump\t// out\n        /* \"contracts/onepage.sol\":1256:1313  mapping(address => mapping(address => Pair)) public pairs */\n    tag_28:\n      mstore(0x20, 0x04)\n      dup2\n      0x00\n      mstore\n      mstore(0x20, keccak256(0x00, 0x40))\n      dup1\n      0x00\n      mstore\n      keccak256(0x00, 0x40)\n      0x00\n      swap2\n      pop\n      swap2\n      pop\n      pop\n      dup1\n      0x00\n      add\n      0x00\n      swap1\n      sload\n      swap1\n      0x0100\n      exp\n      swap1\n      div\n      0xffffffffffffffffffffffffffffffffffffffff\n      and\n      swap1\n      dup1\n      0x01\n      add\n      0x00\n      swap1\n      sload\n      swap1\n      0x0100\n      exp\n      swap1\n      div\n      0xffffffffffffffffffffffffffffffffffffffff\n      and\n      swap1\n      dup1\n      0x02\n      add\n      sload\n      swap1\n      dup1\n      0x03\n      add\n      sload\n      swap1\n      dup1\n      0x04\n      add\n      sload\n      swap1\n      pop\n      dup6\n      jump\t// out\n        /* \"contracts/onepage.sol\":1320:1345  PairKey[] public pairKeys */\n    tag_34:\n      0x05\n      dup2\n      dup2\n      sload\n      dup2\n      lt\n      tag_121\n      jumpi\n      0x00\n      dup1\n      revert\n    tag_121:\n      swap1\n      0x00\n      mstore\n      keccak256(0x00, 0x20)\n      swap1\n      0x02\n      mul\n      add\n      0x00\n      swap2\n      pop\n      swap1\n      pop\n      dup1\n      0x00\n      add\n      0x00\n      swap1\n      sload\n      swap1\n      0x0100\n      exp\n      swap1\n      div\n      0xffffffffffffffffffffffffffffffffffffffff\n      and\n      swap1\n      dup1\n      0x01\n      add\n      0x00\n      swap1\n      sload\n      swap1\n      0x0100\n      exp\n      swap1\n      div\n      0xffffffffffffffffffffffffffffffffffffffff\n      and\n      swap1\n      pop\n      dup3\n      jump\t// out\n        /* \"contracts/onepage.sol\":1823:2346  function addPair(address tokenA, address tokenB, uint256 fee) external onlyCreator {... */\n    tag_40:\n        /* \"contracts/onepage.sol\":1410:1417  creator */\n      0x01\n      0x00\n      swap1\n      sload\n      swap1\n      0x0100\n      exp\n      swap1\n      div\n      0xffffffffffffffffffffffffffffffffffffffff\n      and\n        /* \"contracts/onepage.sol\":1396:1417  msg.sender == creator */\n      0xffffffffffffffffffffffffffffffffffffffff\n      and\n        /* \"contracts/onepage.sol\":1396:1406  msg.sender */\n      caller\n        /* \"contracts/onepage.sol\":1396:1417  msg.sender == creator */\n      0xffffffffffffffffffffffffffffffffffffffff\n      and\n      eq\n        /* \"contracts/onepage.sol\":1388:1457  require(msg.sender == creator, \"Only creator can call this function\") */\n      tag_124\n      jumpi\n      mload(0x40)\n      0x08c379a000000000000000000000000000000000000000000000000000000000\n      dup2\n      mstore\n      0x04\n      add\n      tag_125\n      swap1\n      tag_57\n      jump\t// in\n    tag_125:\n      mload(0x40)\n      dup1\n      swap2\n      sub\n      swap1\n      revert\n    tag_124:\n        /* \"contracts/onepage.sol\":1943:1944  0 */\n      0x00\n        /* \"contracts/onepage.sol\":1925:1945  tokenA != address(0) */\n      0xffffffffffffffffffffffffffffffffffffffff\n      and\n        /* \"contracts/onepage.sol\":1925:1931  tokenA */\n      dup4\n        /* \"contracts/onepage.sol\":1925:1945  tokenA != address(0) */\n      0xffffffffffffffffffffffffffffffffffffffff\n      and\n      eq\n      iszero\n        /* \"contracts/onepage.sol\":1925:1969  tokenA != address(0) && tokenB != address(0) */\n      dup1\n      iszero\n      tag_127\n      jumpi\n      pop\n        /* \"contracts/onepage.sol\":1967:1968  0 */\n      0x00\n        /* \"contracts/onepage.sol\":1949:1969  tokenB != address(0) */\n      0xffffffffffffffffffffffffffffffffffffffff\n      and\n        /* \"contracts/onepage.sol\":1949:1955  tokenB */\n      dup3\n        /* \"contracts/onepage.sol\":1949:1969  tokenB != address(0) */\n      0xffffffffffffffffffffffffffffffffffffffff\n      and\n      eq\n      iszero\n        /* \"contracts/onepage.sol\":1925:1969  tokenA != address(0) && tokenB != address(0) */\n    tag_127:\n        /* \"contracts/onepage.sol\":1917:1995  require(tokenA != address(0) && tokenB != address(0), \"Invalid token address\") */\n      tag_128\n      jumpi\n      mload(0x40)\n      0x08c379a000000000000000000000000000000000000000000000000000000000\n      dup2\n      mstore\n      0x04\n      add\n      tag_129\n      swap1\n      tag_130\n      jump\t// in\n    tag_129:\n      mload(0x40)\n      dup1\n      swap2\n      sub\n      swap1\n      revert\n    tag_128:\n        /* \"contracts/onepage.sol\":2019:2025  tokenB */\n      dup2\n        /* \"contracts/onepage.sol\":2010:2025  tokenA > tokenB */\n      0xffffffffffffffffffffffffffffffffffffffff\n      and\n        /* \"contracts/onepage.sol\":2010:2016  tokenA */\n      dup4\n        /* \"contracts/onepage.sol\":2010:2025  tokenA > tokenB */\n      0xffffffffffffffffffffffffffffffffffffffff\n      and\n      gt\n        /* \"contracts/onepage.sol\":2006:2089  if (tokenA > tokenB) {... */\n      iszero\n      tag_131\n      jumpi\n        /* \"contracts/onepage.sol\":2062:2068  tokenB */\n      dup2\n        /* \"contracts/onepage.sol\":2070:2076  tokenA */\n      dup4\n        /* \"contracts/onepage.sol\":2042:2077  (tokenA, tokenB) = (tokenB, tokenA) */\n      dup1\n      swap4\n      pop\n      dup2\n      swap5\n      pop\n      pop\n      pop\n        /* \"contracts/onepage.sol\":2006:2089  if (tokenA > tokenB) {... */\n    tag_131:\n        /* \"contracts/onepage.sol\":2147:2148  0 */\n      0x00\n        /* \"contracts/onepage.sol\":2107:2149  pairs[tokenA][tokenB].tokenA == address(0) */\n      0xffffffffffffffffffffffffffffffffffffffff\n      and\n        /* \"contracts/onepage.sol\":2107:2112  pairs */\n      0x04\n        /* \"contracts/onepage.sol\":2107:2120  pairs[tokenA] */\n      0x00\n        /* \"contracts/onepage.sol\":2113:2119  tokenA */\n      dup6\n        /* \"contracts/onepage.sol\":2107:2120  pairs[tokenA] */\n      0xffffffffffffffffffffffffffffffffffffffff\n      and\n      0xffffffffffffffffffffffffffffffffffffffff\n      and\n      dup2\n      mstore\n      0x20\n      add\n      swap1\n      dup2\n      mstore\n      0x20\n      add\n      0x00\n      keccak256\n        /* \"contracts/onepage.sol\":2107:2128  pairs[tokenA][tokenB] */\n      0x00\n        /* \"contracts/onepage.sol\":2121:2127  tokenB */\n      dup5\n        /* \"contracts/onepage.sol\":2107:2128  pairs[tokenA][tokenB] */\n      0xffffffffffffffffffffffffffffffffffffffff\n      and\n      0xffffffffffffffffffffffffffffffffffffffff\n      and\n      dup2\n      mstore\n      0x20\n      add\n      swap1\n      dup2\n      mstore\n      0x20\n      add\n      0x00\n      keccak256\n        /* \"contracts/onepage.sol\":2107:2135  pairs[tokenA][tokenB].tokenA */\n      0x00\n      add\n      0x00\n      swap1\n      sload\n      swap1\n      0x0100\n      exp\n      swap1\n      div\n      0xffffffffffffffffffffffffffffffffffffffff\n      and\n        /* \"contracts/onepage.sol\":2107:2149  pairs[tokenA][tokenB].tokenA == address(0) */\n      0xffffffffffffffffffffffffffffffffffffffff\n      and\n      eq\n        /* \"contracts/onepage.sol\":2099:2173  require(pairs[tokenA][tokenB].tokenA == address(0), \"Pair already exists\") */\n      tag_132\n      jumpi\n      mload(0x40)\n      0x08c379a000000000000000000000000000000000000000000000000000000000\n      dup2\n      mstore\n      0x04\n      add\n      tag_133\n      swap1\n      tag_134\n      jump\t// in\n    tag_133:\n      mload(0x40)\n      dup1\n      swap2\n      sub\n      swap1\n      revert\n    tag_132:\n        /* \"contracts/onepage.sol\":2210:2241  Pair(tokenA, tokenB, 0, 0, fee) */\n      mload(0x40)\n      dup1\n      0xa0\n      add\n      0x40\n      mstore\n      dup1\n        /* \"contracts/onepage.sol\":2215:2221  tokenA */\n      dup5\n        /* \"contracts/onepage.sol\":2210:2241  Pair(tokenA, tokenB, 0, 0, fee) */\n      0xffffffffffffffffffffffffffffffffffffffff\n      and\n      dup2\n      mstore\n      0x20\n      add\n        /* \"contracts/onepage.sol\":2223:2229  tokenB */\n      dup4\n        /* \"contracts/onepage.sol\":2210:2241  Pair(tokenA, tokenB, 0, 0, fee) */\n      0xffffffffffffffffffffffffffffffffffffffff\n      and\n      dup2\n      mstore\n      0x20\n      add\n        /* \"contracts/onepage.sol\":2231:2232  0 */\n      0x00\n        /* \"contracts/onepage.sol\":2210:2241  Pair(tokenA, tokenB, 0, 0, fee) */\n      dup2\n      mstore\n      0x20\n      add\n        /* \"contracts/onepage.sol\":2234:2235  0 */\n      0x00\n        /* \"contracts/onepage.sol\":2210:2241  Pair(tokenA, tokenB, 0, 0, fee) */\n      dup2\n      mstore\n      0x20\n      add\n        /* \"contracts/onepage.sol\":2237:2240  fee */\n      dup3\n        /* \"contracts/onepage.sol\":2210:2241  Pair(tokenA, tokenB, 0, 0, fee) */\n      dup2\n      mstore\n      pop\n        /* \"contracts/onepage.sol\":2186:2191  pairs */\n      0x04\n        /* \"contracts/onepage.sol\":2186:2199  pairs[tokenA] */\n      0x00\n        /* \"contracts/onepage.sol\":2192:2198  tokenA */\n      dup6\n        /* \"contracts/onepage.sol\":2186:2199  pairs[tokenA] */\n      0xffffffffffffffffffffffffffffffffffffffff\n      and\n      0xffffffffffffffffffffffffffffffffffffffff\n      and\n      dup2\n      mstore\n      0x20\n      add\n      swap1\n      dup2\n      mstore\n      0x20\n      add\n      0x00\n      keccak256\n        /* \"contracts/onepage.sol\":2186:2207  pairs[tokenA][tokenB] */\n      0x00\n        /* \"contracts/onepage.sol\":2200:2206  tokenB */\n      dup5\n        /* \"contracts/onepage.sol\":2186:2207  pairs[tokenA][tokenB] */\n      0xffffffffffffffffffffffffffffffffffffffff\n      and\n      0xffffffffffffffffffffffffffffffffffffffff\n      and\n      dup2\n      mstore\n      0x20\n      add\n      swap1\n      dup2\n      mstore\n      0x20\n      add\n      0x00\n      keccak256\n        /* \"contracts/onepage.sol\":2186:2241  pairs[tokenA][tokenB] = Pair(tokenA, tokenB, 0, 0, fee) */\n      0x00\n      dup3\n      add\n      mload\n      dup2\n      0x00\n      add\n      exp(0x0100, 0x00)\n      dup2\n      sload\n      dup2\n      0xffffffffffffffffffffffffffffffffffffffff\n      mul\n      not\n      and\n      swap1\n      dup4\n      0xffffffffffffffffffffffffffffffffffffffff\n      and\n      mul\n      or\n      swap1\n      sstore\n      pop\n      0x20\n      dup3\n      add\n      mload\n      dup2\n      0x01\n      add\n      exp(0x0100, 0x00)\n      dup2\n      sload\n      dup2\n      0xffffffffffffffffffffffffffffffffffffffff\n      mul\n      not\n      and\n      swap1\n      dup4\n      0xffffffffffffffffffffffffffffffffffffffff\n      and\n      mul\n      or\n      swap1\n      sstore\n      pop\n      0x40\n      dup3\n      add\n      mload\n      dup2\n      0x02\n      add\n      sstore\n      0x60\n      dup3\n      add\n      mload\n      dup2\n      0x03\n      add\n      sstore\n      0x80\n      dup3\n      add\n      mload\n      dup2\n      0x04\n      add\n      sstore\n      swap1\n      pop\n      pop\n        /* \"contracts/onepage.sol\":2252:2260  pairKeys */\n      0x05\n        /* \"contracts/onepage.sol\":2266:2289  PairKey(tokenA, tokenB) */\n      mload(0x40)\n      dup1\n      0x40\n      add\n      0x40\n      mstore\n      dup1\n        /* \"contracts/onepage.sol\":2274:2280  tokenA */\n      dup6\n        /* \"contracts/onepage.sol\":2266:2289  PairKey(tokenA, tokenB) */\n      0xffffffffffffffffffffffffffffffffffffffff\n      and\n      dup2\n      mstore\n      0x20\n      add\n        /* \"contracts/onepage.sol\":2282:2288  tokenB */\n      dup5\n        /* \"contracts/onepage.sol\":2266:2289  PairKey(tokenA, tokenB) */\n      0xffffffffffffffffffffffffffffffffffffffff\n      and\n      dup2\n      mstore\n      pop\n        /* \"contracts/onepage.sol\":2252:2290  pairKeys.push(PairKey(tokenA, tokenB)) */\n      swap1\n      dup1\n      0x01\n      dup2\n      sload\n      add\n      dup1\n      dup3\n      sstore\n      dup1\n      swap2\n      pop\n      pop\n      0x01\n      swap1\n      sub\n      swap1\n      0x00\n      mstore\n      keccak256(0x00, 0x20)\n      swap1\n      0x02\n      mul\n      add\n      0x00\n      swap1\n      swap2\n      swap1\n      swap2\n      swap1\n      swap2\n      pop\n      0x00\n      dup3\n      add\n      mload\n      dup2\n      0x00\n      add\n      exp(0x0100, 0x00)\n      dup2\n      sload\n      dup2\n      0xffffffffffffffffffffffffffffffffffffffff\n      mul\n      not\n      and\n      swap1\n      dup4\n      0xffffffffffffffffffffffffffffffffffffffff\n      and\n      mul\n      or\n      swap1\n      sstore\n      pop\n      0x20\n      dup3\n      add\n      mload\n      dup2\n      0x01\n      add\n      exp(0x0100, 0x00)\n      dup2\n      sload\n      dup2\n      0xffffffffffffffffffffffffffffffffffffffff\n      mul\n      not\n      and\n      swap1\n      dup4\n      0xffffffffffffffffffffffffffffffffffffffff\n      and\n      mul\n      or\n      swap1\n      sstore\n      pop\n      pop\n      pop\n        /* \"contracts/onepage.sol\":2326:2332  tokenB */\n      dup2\n        /* \"contracts/onepage.sol\":2308:2338  PairAdded(tokenA, tokenB, fee) */\n      0xffffffffffffffffffffffffffffffffffffffff\n      and\n        /* \"contracts/onepage.sol\":2318:2324  tokenA */\n      dup4\n        /* \"contracts/onepage.sol\":2308:2338  PairAdded(tokenA, tokenB, fee) */\n      0xffffffffffffffffffffffffffffffffffffffff\n      and\n      0xedd4b700a2980a33a301ad39ced5dbc1c98a786ecb28da5bf3926d5165005d1b\n        /* \"contracts/onepage.sol\":2334:2337  fee */\n      dup4\n        /* \"contracts/onepage.sol\":2308:2338  PairAdded(tokenA, tokenB, fee) */\n      mload(0x40)\n      tag_136\n      swap2\n      swap1\n      tag_47\n      jump\t// in\n    tag_136:\n      mload(0x40)\n      dup1\n      swap2\n      sub\n      swap1\n      log3\n        /* \"contracts/onepage.sol\":1823:2346  function addPair(address tokenA, address tokenB, uint256 fee) external onlyCreator {... */\n      pop\n      pop\n      pop\n      jump\t// out\n        /* \"contracts/onepage.sol\":3091:3863  function depositLiquidity(address tokenA, address tokenB, uint256 amountA, uint256 amountB) external onlyCreator nonReentrant {... */\n    tag_43:\n        /* \"contracts/onepage.sol\":1410:1417  creator */\n      0x01\n      0x00\n      swap1\n      sload\n      swap1\n      0x0100\n      exp\n      swap1\n      div\n      0xffffffffffffffffffffffffffffffffffffffff\n      and\n        /* \"contracts/onepage.sol\":1396:1417  msg.sender == creator */\n      0xffffffffffffffffffffffffffffffffffffffff\n      and\n        /* \"contracts/onepage.sol\":1396:1406  msg.sender */\n      caller\n        /* \"contracts/onepage.sol\":1396:1417  msg.sender == creator */\n      0xffffffffffffffffffffffffffffffffffffffff\n      and\n      eq\n        /* \"contracts/onepage.sol\":1388:1457  require(msg.sender == creator, \"Only creator can call this function\") */\n      tag_138\n      jumpi\n      mload(0x40)\n      0x08c379a000000000000000000000000000000000000000000000000000000000\n      dup2\n      mstore\n      0x04\n      add\n      tag_139\n      swap1\n      tag_57\n      jump\t// in\n    tag_139:\n      mload(0x40)\n      dup1\n      swap2\n      sub\n      swap1\n      revert\n    tag_138:\n        /* \"@openzeppelin/contracts/security/ReentrancyGuard.sol\":2261:2282  _nonReentrantBefore() */\n      tag_141\n        /* \"@openzeppelin/contracts/security/ReentrancyGuard.sol\":2261:2280  _nonReentrantBefore */\n      tag_60\n        /* \"@openzeppelin/contracts/security/ReentrancyGuard.sol\":2261:2282  _nonReentrantBefore() */\n      jump\t// in\n    tag_141:\n        /* \"contracts/onepage.sol\":3246:3247  0 */\n      0x00\n        /* \"contracts/onepage.sol\":3236:3243  amountA */\n      dup3\n        /* \"contracts/onepage.sol\":3236:3247  amountA > 0 */\n      gt\n        /* \"contracts/onepage.sol\":3236:3262  amountA > 0 && amountB > 0 */\n      dup1\n      iszero\n      tag_143\n      jumpi\n      pop\n        /* \"contracts/onepage.sol\":3261:3262  0 */\n      0x00\n        /* \"contracts/onepage.sol\":3251:3258  amountB */\n      dup2\n        /* \"contracts/onepage.sol\":3251:3262  amountB > 0 */\n      gt\n        /* \"contracts/onepage.sol\":3236:3262  amountA > 0 && amountB > 0 */\n    tag_143:\n        /* \"contracts/onepage.sol\":3228:3300  require(amountA > 0 && amountB > 0, \"Amounts must be greater than zero\") */\n      tag_144\n      jumpi\n      mload(0x40)\n      0x08c379a000000000000000000000000000000000000000000000000000000000\n      dup2\n      mstore\n      0x04\n      add\n      tag_145\n      swap1\n      tag_146\n      jump\t// in\n    tag_145:\n      mload(0x40)\n      dup1\n      swap2\n      sub\n      swap1\n      revert\n    tag_144:\n        /* \"contracts/onepage.sol\":3324:3330  tokenB */\n      dup3\n        /* \"contracts/onepage.sol\":3315:3330  tokenA > tokenB */\n      0xffffffffffffffffffffffffffffffffffffffff\n      and\n        /* \"contracts/onepage.sol\":3315:3321  tokenA */\n      dup5\n        /* \"contracts/onepage.sol\":3315:3330  tokenA > tokenB */\n      0xffffffffffffffffffffffffffffffffffffffff\n      and\n      gt\n        /* \"contracts/onepage.sol\":3311:3448  if (tokenA > tokenB) {... */\n      iszero\n      tag_147\n      jumpi\n        /* \"contracts/onepage.sol\":3367:3373  tokenB */\n      dup3\n        /* \"contracts/onepage.sol\":3375:3381  tokenA */\n      dup5\n        /* \"contracts/onepage.sol\":3347:3382  (tokenA, tokenB) = (tokenB, tokenA) */\n      dup1\n      swap5\n      pop\n      dup2\n      swap6\n      pop\n      pop\n      pop\n        /* \"contracts/onepage.sol\":3419:3426  amountB */\n      dup1\n        /* \"contracts/onepage.sol\":3428:3435  amountA */\n      dup3\n        /* \"contracts/onepage.sol\":3397:3436  (amountA, amountB) = (amountB, amountA) */\n      dup1\n      swap3\n      pop\n      dup2\n      swap4\n      pop\n      pop\n      pop\n        /* \"contracts/onepage.sol\":3311:3448  if (tokenA > tokenB) {... */\n    tag_147:\n        /* \"contracts/onepage.sol\":3458:3475  Pair storage pair */\n      0x00\n        /* \"contracts/onepage.sol\":3478:3483  pairs */\n      0x04\n        /* \"contracts/onepage.sol\":3478:3491  pairs[tokenA] */\n      0x00\n        /* \"contracts/onepage.sol\":3484:3490  tokenA */\n      dup7\n        /* \"contracts/onepage.sol\":3478:3491  pairs[tokenA] */\n      0xffffffffffffffffffffffffffffffffffffffff\n      and\n      0xffffffffffffffffffffffffffffffffffffffff\n      and\n      dup2\n      mstore\n      0x20\n      add\n      swap1\n      dup2\n      mstore\n      0x20\n      add\n      0x00\n      keccak256\n        /* \"contracts/onepage.sol\":3478:3499  pairs[tokenA][tokenB] */\n      0x00\n        /* \"contracts/onepage.sol\":3492:3498  tokenB */\n      dup6\n        /* \"contracts/onepage.sol\":3478:3499  pairs[tokenA][tokenB] */\n      0xffffffffffffffffffffffffffffffffffffffff\n      and\n      0xffffffffffffffffffffffffffffffffffffffff\n      and\n      dup2\n      mstore\n      0x20\n      add\n      swap1\n      dup2\n      mstore\n      0x20\n      add\n      0x00\n      keccak256\n        /* \"contracts/onepage.sol\":3458:3499  Pair storage pair = pairs[tokenA][tokenB] */\n      swap1\n      pop\n        /* \"contracts/onepage.sol\":3533:3539  tokenA */\n      dup5\n        /* \"contracts/onepage.sol\":3518:3539  pair.tokenA == tokenA */\n      0xffffffffffffffffffffffffffffffffffffffff\n      and\n        /* \"contracts/onepage.sol\":3518:3522  pair */\n      dup2\n        /* \"contracts/onepage.sol\":3518:3529  pair.tokenA */\n      0x00\n      add\n      0x00\n      swap1\n      sload\n      swap1\n      0x0100\n      exp\n      swap1\n      div\n      0xffffffffffffffffffffffffffffffffffffffff\n      and\n        /* \"contracts/onepage.sol\":3518:3539  pair.tokenA == tokenA */\n      0xffffffffffffffffffffffffffffffffffffffff\n      and\n      eq\n        /* \"contracts/onepage.sol\":3510:3563  require(pair.tokenA == tokenA, \"Pair does not exist\") */\n      tag_148\n      jumpi\n      mload(0x40)\n      0x08c379a000000000000000000000000000000000000000000000000000000000\n      dup2\n      mstore\n      0x04\n      add\n      tag_149\n      swap1\n      tag_97\n      jump\t// in\n    tag_149:\n      mload(0x40)\n      dup1\n      swap2\n      sub\n      swap1\n      revert\n    tag_148:\n        /* \"contracts/onepage.sol\":3583:3589  tokenA */\n      dup5\n        /* \"contracts/onepage.sol\":3576:3603  IERC20(tokenA).transferFrom */\n      0xffffffffffffffffffffffffffffffffffffffff\n      and\n      0x23b872dd\n        /* \"contracts/onepage.sol\":3604:3614  msg.sender */\n      caller\n        /* \"contracts/onepage.sol\":3624:3628  this */\n      address\n        /* \"contracts/onepage.sol\":3631:3638  amountA */\n      dup7\n        /* \"contracts/onepage.sol\":3576:3639  IERC20(tokenA).transferFrom(msg.sender, address(this), amountA) */\n      mload(0x40)\n      dup5\n      0xffffffff\n      and\n      0xe0\n      shl\n      dup2\n      mstore\n      0x04\n      add\n      tag_150\n      swap4\n      swap3\n      swap2\n      swap1\n      tag_151\n      jump\t// in\n    tag_150:\n      0x20\n      mload(0x40)\n      dup1\n      dup4\n      sub\n      dup2\n      0x00\n      dup8\n      gas\n      call\n      iszero\n      dup1\n      iszero\n      tag_153\n      jumpi\n      returndatasize\n      0x00\n      dup1\n      returndatacopy\n      revert(0x00, returndatasize)\n    tag_153:\n      pop\n      pop\n      pop\n      pop\n      mload(0x40)\n      returndatasize\n      not(0x1f)\n      0x1f\n      dup3\n      add\n      and\n      dup3\n      add\n      dup1\n      0x40\n      mstore\n      pop\n      dup2\n      add\n      swap1\n      tag_154\n      swap2\n      swap1\n      tag_81\n      jump\t// in\n    tag_154:\n      pop\n        /* \"contracts/onepage.sol\":3657:3663  tokenB */\n      dup4\n        /* \"contracts/onepage.sol\":3650:3677  IERC20(tokenB).transferFrom */\n      0xffffffffffffffffffffffffffffffffffffffff\n      and\n      0x23b872dd\n        /* \"contracts/onepage.sol\":3678:3688  msg.sender */\n      caller\n        /* \"contracts/onepage.sol\":3698:3702  this */\n      address\n        /* \"contracts/onepage.sol\":3705:3712  amountB */\n      dup6\n        /* \"contracts/onepage.sol\":3650:3713  IERC20(tokenB).transferFrom(msg.sender, address(this), amountB) */\n      mload(0x40)\n      dup5\n      0xffffffff\n      and\n      0xe0\n      shl\n      dup2\n      mstore\n      0x04\n      add\n      tag_155\n      swap4\n      swap3\n      swap2\n      swap1\n      tag_151\n      jump\t// in\n    tag_155:\n      0x20\n      mload(0x40)\n      dup1\n      dup4\n      sub\n      dup2\n      0x00\n      dup8\n      gas\n      call\n      iszero\n      dup1\n      iszero\n      tag_157\n      jumpi\n      returndatasize\n      0x00\n      dup1\n      returndatacopy\n      revert(0x00, returndatasize)\n    tag_157:\n      pop\n      pop\n      pop\n      pop\n      mload(0x40)\n      returndatasize\n      not(0x1f)\n      0x1f\n      dup3\n      add\n      and\n      dup3\n      add\n      dup1\n      0x40\n      mstore\n      pop\n      dup2\n      add\n      swap1\n      tag_158\n      swap2\n      swap1\n      tag_81\n      jump\t// in\n    tag_158:\n      pop\n        /* \"contracts/onepage.sol\":3743:3750  amountA */\n      dup3\n        /* \"contracts/onepage.sol\":3726:3730  pair */\n      dup2\n        /* \"contracts/onepage.sol\":3726:3739  pair.reserveA */\n      0x02\n      add\n      0x00\n        /* \"contracts/onepage.sol\":3726:3750  pair.reserveA += amountA */\n      dup3\n      dup3\n      sload\n      tag_159\n      swap2\n      swap1\n      tag_160\n      jump\t// in\n    tag_159:\n      swap3\n      pop\n      pop\n      dup2\n      swap1\n      sstore\n      pop\n        /* \"contracts/onepage.sol\":3778:3785  amountB */\n      dup2\n        /* \"contracts/onepage.sol\":3761:3765  pair */\n      dup2\n        /* \"contracts/onepage.sol\":3761:3774  pair.reserveB */\n      0x03\n      add\n      0x00\n        /* \"contracts/onepage.sol\":3761:3785  pair.reserveB += amountB */\n      dup3\n      dup3\n      sload\n      tag_161\n      swap2\n      swap1\n      tag_160\n      jump\t// in\n    tag_161:\n      swap3\n      pop\n      pop\n      dup2\n      swap1\n      sstore\n      pop\n        /* \"contracts/onepage.sol\":3830:3836  tokenB */\n      dup4\n        /* \"contracts/onepage.sol\":3803:3855  LiquidityDeposited(tokenA, tokenB, amountA, amountB) */\n      0xffffffffffffffffffffffffffffffffffffffff\n      and\n        /* \"contracts/onepage.sol\":3822:3828  tokenA */\n      dup6\n        /* \"contracts/onepage.sol\":3803:3855  LiquidityDeposited(tokenA, tokenB, amountA, amountB) */\n      0xffffffffffffffffffffffffffffffffffffffff\n      and\n      0x44504979f82d498dad8a0687fc02e140be70b1b4ab3b9e23c6ffc1d04410194a\n        /* \"contracts/onepage.sol\":3838:3845  amountA */\n      dup6\n        /* \"contracts/onepage.sol\":3847:3854  amountB */\n      dup6\n        /* \"contracts/onepage.sol\":3803:3855  LiquidityDeposited(tokenA, tokenB, amountA, amountB) */\n      mload(0x40)\n      tag_162\n      swap3\n      swap2\n      swap1\n      tag_87\n      jump\t// in\n    tag_162:\n      mload(0x40)\n      dup1\n      swap2\n      sub\n      swap1\n      log3\n        /* \"contracts/onepage.sol\":3217:3863  {... */\n      pop\n        /* \"@openzeppelin/contracts/security/ReentrancyGuard.sol\":2303:2323  _nonReentrantAfter() */\n      tag_163\n        /* \"@openzeppelin/contracts/security/ReentrancyGuard.sol\":2303:2321  _nonReentrantAfter */\n      tag_89\n        /* \"@openzeppelin/contracts/security/ReentrancyGuard.sol\":2303:2323  _nonReentrantAfter() */\n      jump\t// in\n    tag_163:\n        /* \"contracts/onepage.sol\":3091:3863  function depositLiquidity(address tokenA, address tokenB, uint256 amountA, uint256 amountB) external onlyCreator nonReentrant {... */\n      pop\n      pop\n      pop\n      pop\n      jump\t// out\n        /* \"contracts/onepage.sol\":346:375  uint256 public platformFeeBPS */\n    tag_45:\n      sload(0x03)\n      dup2\n      jump\t// out\n        /* \"contracts/onepage.sol\":265:294  address public platformWallet */\n    tag_49:\n      0x02\n      0x00\n      swap1\n      sload\n      swap1\n      0x0100\n      exp\n      swap1\n      div\n      0xffffffffffffffffffffffffffffffffffffffff\n      and\n      dup2\n      jump\t// out\n        /* \"contracts/onepage.sol\":3905:5630  function swap(address tokenIn, address tokenOut, uint256 amountIn, uint256 minAmountOut) external nonReentrant {... */\n    tag_53:\n        /* \"@openzeppelin/contracts/security/ReentrancyGuard.sol\":2261:2282  _nonReentrantBefore() */\n      tag_165\n        /* \"@openzeppelin/contracts/security/ReentrancyGuard.sol\":2261:2280  _nonReentrantBefore */\n      tag_60\n        /* \"@openzeppelin/contracts/security/ReentrancyGuard.sol\":2261:2282  _nonReentrantBefore() */\n      jump\t// in\n    tag_165:\n        /* \"contracts/onepage.sol\":4046:4047  0 */\n      0x00\n        /* \"contracts/onepage.sol\":4035:4043  amountIn */\n      dup3\n        /* \"contracts/onepage.sol\":4035:4047  amountIn > 0 */\n      gt\n        /* \"contracts/onepage.sol\":4027:4087  require(amountIn > 0, \"Amount in must be greater than zero\") */\n      tag_167\n      jumpi\n      mload(0x40)\n      0x08c379a000000000000000000000000000000000000000000000000000000000\n      dup2\n      mstore\n      0x04\n      add\n      tag_168\n      swap1\n      tag_169\n      jump\t// in\n    tag_168:\n      mload(0x40)\n      dup1\n      swap2\n      sub\n      swap1\n      revert\n    tag_167:\n        /* \"contracts/onepage.sol\":4098:4112  address tokenA */\n      0x00\n        /* \"contracts/onepage.sol\":4125:4133  tokenOut */\n      dup4\n        /* \"contracts/onepage.sol\":4115:4133  tokenIn < tokenOut */\n      0xffffffffffffffffffffffffffffffffffffffff\n      and\n        /* \"contracts/onepage.sol\":4115:4122  tokenIn */\n      dup6\n        /* \"contracts/onepage.sol\":4115:4133  tokenIn < tokenOut */\n      0xffffffffffffffffffffffffffffffffffffffff\n      and\n      lt\n        /* \"contracts/onepage.sol\":4115:4154  tokenIn < tokenOut ? tokenIn : tokenOut */\n      tag_170\n      jumpi\n        /* \"contracts/onepage.sol\":4146:4154  tokenOut */\n      dup4\n        /* \"contracts/onepage.sol\":4115:4154  tokenIn < tokenOut ? tokenIn : tokenOut */\n      jump(tag_171)\n    tag_170:\n        /* \"contracts/onepage.sol\":4136:4143  tokenIn */\n      dup5\n        /* \"contracts/onepage.sol\":4115:4154  tokenIn < tokenOut ? tokenIn : tokenOut */\n    tag_171:\n        /* \"contracts/onepage.sol\":4098:4154  address tokenA = tokenIn < tokenOut ? tokenIn : tokenOut */\n      swap1\n      pop\n        /* \"contracts/onepage.sol\":4165:4179  address tokenB */\n      0x00\n        /* \"contracts/onepage.sol\":4192:4200  tokenOut */\n      dup5\n        /* \"contracts/onepage.sol\":4182:4200  tokenIn < tokenOut */\n      0xffffffffffffffffffffffffffffffffffffffff\n      and\n        /* \"contracts/onepage.sol\":4182:4189  tokenIn */\n      dup7\n        /* \"contracts/onepage.sol\":4182:4200  tokenIn < tokenOut */\n      0xffffffffffffffffffffffffffffffffffffffff\n      and\n      lt\n        /* \"contracts/onepage.sol\":4182:4221  tokenIn < tokenOut ? tokenOut : tokenIn */\n      tag_172\n      jumpi\n        /* \"contracts/onepage.sol\":4214:4221  tokenIn */\n      dup6\n        /* \"contracts/onepage.sol\":4182:4221  tokenIn < tokenOut ? tokenOut : tokenIn */\n      jump(tag_173)\n    tag_172:\n        /* \"contracts/onepage.sol\":4203:4211  tokenOut */\n      dup5\n        /* \"contracts/onepage.sol\":4182:4221  tokenIn < tokenOut ? tokenOut : tokenIn */\n    tag_173:\n        /* \"contracts/onepage.sol\":4165:4221  address tokenB = tokenIn < tokenOut ? tokenOut : tokenIn */\n      swap1\n      pop\n        /* \"contracts/onepage.sol\":4232:4249  Pair storage pair */\n      0x00\n        /* \"contracts/onepage.sol\":4252:4257  pairs */\n      0x04\n        /* \"contracts/onepage.sol\":4252:4265  pairs[tokenA] */\n      0x00\n        /* \"contracts/onepage.sol\":4258:4264  tokenA */\n      dup5\n        /* \"contracts/onepage.sol\":4252:4265  pairs[tokenA] */\n      0xffffffffffffffffffffffffffffffffffffffff\n      and\n      0xffffffffffffffffffffffffffffffffffffffff\n      and\n      dup2\n      mstore\n      0x20\n      add\n      swap1\n      dup2\n      mstore\n      0x20\n      add\n      0x00\n      keccak256\n        /* \"contracts/onepage.sol\":4252:4273  pairs[tokenA][tokenB] */\n      0x00\n        /* \"contracts/onepage.sol\":4266:4272  tokenB */\n      dup4\n        /* \"contracts/onepage.sol\":4252:4273  pairs[tokenA][tokenB] */\n      0xffffffffffffffffffffffffffffffffffffffff\n      and\n      0xffffffffffffffffffffffffffffffffffffffff\n      and\n      dup2\n      mstore\n      0x20\n      add\n      swap1\n      dup2\n      mstore\n      0x20\n      add\n      0x00\n      keccak256\n        /* \"contracts/onepage.sol\":4232:4273  Pair storage pair = pairs[tokenA][tokenB] */\n      swap1\n      pop\n        /* \"contracts/onepage.sol\":4307:4313  tokenA */\n      dup3\n        /* \"contracts/onepage.sol\":4292:4313  pair.tokenA == tokenA */\n      0xffffffffffffffffffffffffffffffffffffffff\n      and\n        /* \"contracts/onepage.sol\":4292:4296  pair */\n      dup2\n        /* \"contracts/onepage.sol\":4292:4303  pair.tokenA */\n      0x00\n      add\n      0x00\n      swap1\n      sload\n      swap1\n      0x0100\n      exp\n      swap1\n      div\n      0xffffffffffffffffffffffffffffffffffffffff\n      and\n        /* \"contracts/onepage.sol\":4292:4313  pair.tokenA == tokenA */\n      0xffffffffffffffffffffffffffffffffffffffff\n      and\n      eq\n        /* \"contracts/onepage.sol\":4292:4338  pair.tokenA == tokenA && pair.tokenB == tokenB */\n      dup1\n      iszero\n      tag_174\n      jumpi\n      pop\n        /* \"contracts/onepage.sol\":4332:4338  tokenB */\n      dup2\n        /* \"contracts/onepage.sol\":4317:4338  pair.tokenB == tokenB */\n      0xffffffffffffffffffffffffffffffffffffffff\n      and\n        /* \"contracts/onepage.sol\":4317:4321  pair */\n      dup2\n        /* \"contracts/onepage.sol\":4317:4328  pair.tokenB */\n      0x01\n      add\n      0x00\n      swap1\n      sload\n      swap1\n      0x0100\n      exp\n      swap1\n      div\n      0xffffffffffffffffffffffffffffffffffffffff\n      and\n        /* \"contracts/onepage.sol\":4317:4338  pair.tokenB == tokenB */\n      0xffffffffffffffffffffffffffffffffffffffff\n      and\n      eq\n        /* \"contracts/onepage.sol\":4292:4338  pair.tokenA == tokenA && pair.tokenB == tokenB */\n    tag_174:\n        /* \"contracts/onepage.sol\":4284:4362  require(pair.tokenA == tokenA && pair.tokenB == tokenB, \"Pair does not exist\") */\n      tag_175\n      jumpi\n      mload(0x40)\n      0x08c379a000000000000000000000000000000000000000000000000000000000\n      dup2\n      mstore\n      0x04\n      add\n      tag_176\n      swap1\n      tag_97\n      jump\t// in\n    tag_176:\n      mload(0x40)\n      dup1\n      swap2\n      sub\n      swap1\n      revert\n    tag_175:\n        /* \"contracts/onepage.sol\":4375:4392  uint256 reserveIn */\n      0x00\n        /* \"contracts/onepage.sol\":4406:4412  tokenA */\n      dup4\n        /* \"contracts/onepage.sol\":4395:4412  tokenIn == tokenA */\n      0xffffffffffffffffffffffffffffffffffffffff\n      and\n        /* \"contracts/onepage.sol\":4395:4402  tokenIn */\n      dup9\n        /* \"contracts/onepage.sol\":4395:4412  tokenIn == tokenA */\n      0xffffffffffffffffffffffffffffffffffffffff\n      and\n      eq\n        /* \"contracts/onepage.sol\":4395:4444  tokenIn == tokenA ? pair.reserveA : pair.reserveB */\n      tag_177\n      jumpi\n        /* \"contracts/onepage.sol\":4431:4435  pair */\n      dup2\n        /* \"contracts/onepage.sol\":4431:4444  pair.reserveB */\n      0x03\n      add\n      sload\n        /* \"contracts/onepage.sol\":4395:4444  tokenIn == tokenA ? pair.reserveA : pair.reserveB */\n      jump(tag_178)\n    tag_177:\n        /* \"contracts/onepage.sol\":4415:4419  pair */\n      dup2\n        /* \"contracts/onepage.sol\":4415:4428  pair.reserveA */\n      0x02\n      add\n      sload\n        /* \"contracts/onepage.sol\":4395:4444  tokenIn == tokenA ? pair.reserveA : pair.reserveB */\n    tag_178:\n        /* \"contracts/onepage.sol\":4375:4444  uint256 reserveIn = tokenIn == tokenA ? pair.reserveA : pair.reserveB */\n      swap1\n      pop\n        /* \"contracts/onepage.sol\":4455:4473  uint256 reserveOut */\n      0x00\n        /* \"contracts/onepage.sol\":4487:4493  tokenA */\n      dup5\n        /* \"contracts/onepage.sol\":4476:4493  tokenIn == tokenA */\n      0xffffffffffffffffffffffffffffffffffffffff\n      and\n        /* \"contracts/onepage.sol\":4476:4483  tokenIn */\n      dup10\n        /* \"contracts/onepage.sol\":4476:4493  tokenIn == tokenA */\n      0xffffffffffffffffffffffffffffffffffffffff\n      and\n      eq\n        /* \"contracts/onepage.sol\":4476:4525  tokenIn == tokenA ? pair.reserveB : pair.reserveA */\n      tag_179\n      jumpi\n        /* \"contracts/onepage.sol\":4512:4516  pair */\n      dup3\n        /* \"contracts/onepage.sol\":4512:4525  pair.reserveA */\n      0x02\n      add\n      sload\n        /* \"contracts/onepage.sol\":4476:4525  tokenIn == tokenA ? pair.reserveB : pair.reserveA */\n      jump(tag_180)\n    tag_179:\n        /* \"contracts/onepage.sol\":4496:4500  pair */\n      dup3\n        /* \"contracts/onepage.sol\":4496:4509  pair.reserveB */\n      0x03\n      add\n      sload\n        /* \"contracts/onepage.sol\":4476:4525  tokenIn == tokenA ? pair.reserveB : pair.reserveA */\n    tag_180:\n        /* \"contracts/onepage.sol\":4455:4525  uint256 reserveOut = tokenIn == tokenA ? pair.reserveB : pair.reserveA */\n      swap1\n      pop\n        /* \"contracts/onepage.sol\":4556:4557  0 */\n      0x00\n        /* \"contracts/onepage.sol\":4544:4553  reserveIn */\n      dup3\n        /* \"contracts/onepage.sol\":4544:4557  reserveIn > 0 */\n      gt\n        /* \"contracts/onepage.sol\":4544:4575  reserveIn > 0 && reserveOut > 0 */\n      dup1\n      iszero\n      tag_181\n      jumpi\n      pop\n        /* \"contracts/onepage.sol\":4574:4575  0 */\n      0x00\n        /* \"contracts/onepage.sol\":4561:4571  reserveOut */\n      dup2\n        /* \"contracts/onepage.sol\":4561:4575  reserveOut > 0 */\n      gt\n        /* \"contracts/onepage.sol\":4544:4575  reserveIn > 0 && reserveOut > 0 */\n    tag_181:\n        /* \"contracts/onepage.sol\":4536:4594  require(reserveIn > 0 && reserveOut > 0, \"Empty reserves\") */\n      tag_182\n      jumpi\n      mload(0x40)\n      0x08c379a000000000000000000000000000000000000000000000000000000000\n      dup2\n      mstore\n      0x04\n      add\n      tag_183\n      swap1\n      tag_184\n      jump\t// in\n    tag_183:\n      mload(0x40)\n      dup1\n      swap2\n      sub\n      swap1\n      revert\n    tag_182:\n        /* \"contracts/onepage.sol\":4607:4632  uint256 effectiveAmountIn */\n      0x00\n        /* \"contracts/onepage.sol\":4707:4712  10000 */\n      0x2710\n        /* \"contracts/onepage.sol\":4689:4703  platformFeeBPS */\n      sload(0x03)\n        /* \"contracts/onepage.sol\":4678:4686  amountIn */\n      dup10\n        /* \"contracts/onepage.sol\":4678:4703  amountIn * platformFeeBPS */\n      tag_185\n      swap2\n      swap1\n      tag_186\n      jump\t// in\n    tag_185:\n        /* \"contracts/onepage.sol\":4677:4712  (amountIn * platformFeeBPS) / 10000 */\n      tag_187\n      swap2\n      swap1\n      tag_188\n      jump\t// in\n    tag_187:\n        /* \"contracts/onepage.sol\":4669:4674  10000 */\n      0x2710\n        /* \"contracts/onepage.sol\":4656:4660  pair */\n      dup6\n        /* \"contracts/onepage.sol\":4656:4664  pair.fee */\n      0x04\n      add\n      sload\n        /* \"contracts/onepage.sol\":4648:4653  10000 */\n      0x2710\n        /* \"contracts/onepage.sol\":4648:4664  10000 - pair.fee */\n      tag_189\n      swap2\n      swap1\n      tag_74\n      jump\t// in\n    tag_189:\n        /* \"contracts/onepage.sol\":4636:4644  amountIn */\n      dup11\n        /* \"contracts/onepage.sol\":4636:4665  amountIn * (10000 - pair.fee) */\n      tag_190\n      swap2\n      swap1\n      tag_186\n      jump\t// in\n    tag_190:\n        /* \"contracts/onepage.sol\":4635:4674  (amountIn * (10000 - pair.fee)) / 10000 */\n      tag_191\n      swap2\n      swap1\n      tag_188\n      jump\t// in\n    tag_191:\n        /* \"contracts/onepage.sol\":4635:4712  (amountIn * (10000 - pair.fee)) / 10000 - (amountIn * platformFeeBPS) / 10000 */\n      tag_192\n      swap2\n      swap1\n      tag_74\n      jump\t// in\n    tag_192:\n        /* \"contracts/onepage.sol\":4607:4712  uint256 effectiveAmountIn = (amountIn * (10000 - pair.fee)) / 10000 - (amountIn * platformFeeBPS) / 10000 */\n      swap1\n      pop\n        /* \"contracts/onepage.sol\":4751:4752  0 */\n      0x00\n        /* \"contracts/onepage.sol\":4731:4748  effectiveAmountIn */\n      dup2\n        /* \"contracts/onepage.sol\":4731:4752  effectiveAmountIn > 0 */\n      gt\n        /* \"contracts/onepage.sol\":4723:4781  require(effectiveAmountIn > 0, \"Effective amount too low\") */\n      tag_193\n      jumpi\n      mload(0x40)\n      0x08c379a000000000000000000000000000000000000000000000000000000000\n      dup2\n      mstore\n      0x04\n      add\n      tag_194\n      swap1\n      tag_195\n      jump\t// in\n    tag_194:\n      mload(0x40)\n      dup1\n      swap2\n      sub\n      swap1\n      revert\n    tag_193:\n        /* \"contracts/onepage.sol\":4794:4811  uint256 amountOut */\n      0x00\n        /* \"contracts/onepage.sol\":4872:4889  effectiveAmountIn */\n      dup2\n        /* \"contracts/onepage.sol\":4863:4868  10000 */\n      0x2710\n        /* \"contracts/onepage.sol\":4851:4860  reserveIn */\n      dup6\n        /* \"contracts/onepage.sol\":4851:4868  reserveIn * 10000 */\n      tag_196\n      swap2\n      swap1\n      tag_186\n      jump\t// in\n    tag_196:\n        /* \"contracts/onepage.sol\":4850:4889  (reserveIn * 10000) + effectiveAmountIn */\n      tag_197\n      swap2\n      swap1\n      tag_160\n      jump\t// in\n    tag_197:\n        /* \"contracts/onepage.sol\":4835:4845  reserveOut */\n      dup4\n        /* \"contracts/onepage.sol\":4815:4832  effectiveAmountIn */\n      dup4\n        /* \"contracts/onepage.sol\":4815:4845  effectiveAmountIn * reserveOut */\n      tag_198\n      swap2\n      swap1\n      tag_186\n      jump\t// in\n    tag_198:\n        /* \"contracts/onepage.sol\":4814:4890  (effectiveAmountIn * reserveOut) / ((reserveIn * 10000) + effectiveAmountIn) */\n      tag_199\n      swap2\n      swap1\n      tag_188\n      jump\t// in\n    tag_199:\n        /* \"contracts/onepage.sol\":4794:4890  uint256 amountOut = (effectiveAmountIn * reserveOut) / ((reserveIn * 10000) + effectiveAmountIn) */\n      swap1\n      pop\n        /* \"contracts/onepage.sol\":4922:4934  minAmountOut */\n      dup8\n        /* \"contracts/onepage.sol\":4909:4918  amountOut */\n      dup2\n        /* \"contracts/onepage.sol\":4909:4934  amountOut >= minAmountOut */\n      lt\n      iszero\n        /* \"contracts/onepage.sol\":4901:4962  require(amountOut >= minAmountOut, \"Slippage limit exceeded\") */\n      tag_200\n      jumpi\n      mload(0x40)\n      0x08c379a000000000000000000000000000000000000000000000000000000000\n      dup2\n      mstore\n      0x04\n      add\n      tag_201\n      swap1\n      tag_202\n      jump\t// in\n    tag_201:\n      mload(0x40)\n      dup1\n      swap2\n      sub\n      swap1\n      revert\n    tag_200:\n        /* \"contracts/onepage.sol\":4995:5004  amountOut */\n      dup1\n        /* \"contracts/onepage.sol\":4981:4991  reserveOut */\n      dup4\n        /* \"contracts/onepage.sol\":4981:5004  reserveOut >= amountOut */\n      lt\n      iszero\n        /* \"contracts/onepage.sol\":4973:5031  require(reserveOut >= amountOut, \"Insufficient liquidity\") */\n      tag_203\n      jumpi\n      mload(0x40)\n      0x08c379a000000000000000000000000000000000000000000000000000000000\n      dup2\n      mstore\n      0x04\n      add\n      tag_204\n      swap1\n      tag_205\n      jump\t// in\n    tag_204:\n      mload(0x40)\n      dup1\n      swap2\n      sub\n      swap1\n      revert\n    tag_203:\n        /* \"contracts/onepage.sol\":5051:5058  tokenIn */\n      dup11\n        /* \"contracts/onepage.sol\":5044:5072  IERC20(tokenIn).transferFrom */\n      0xffffffffffffffffffffffffffffffffffffffff\n      and\n      0x23b872dd\n        /* \"contracts/onepage.sol\":5073:5083  msg.sender */\n      caller\n        /* \"contracts/onepage.sol\":5093:5097  this */\n      address\n        /* \"contracts/onepage.sol\":5100:5108  amountIn */\n      dup13\n        /* \"contracts/onepage.sol\":5044:5109  IERC20(tokenIn).transferFrom(msg.sender, address(this), amountIn) */\n      mload(0x40)\n      dup5\n      0xffffffff\n      and\n      0xe0\n      shl\n      dup2\n      mstore\n      0x04\n      add\n      tag_206\n      swap4\n      swap3\n      swap2\n      swap1\n      tag_151\n      jump\t// in\n    tag_206:\n      0x20\n      mload(0x40)\n      dup1\n      dup4\n      sub\n      dup2\n      0x00\n      dup8\n      gas\n      call\n      iszero\n      dup1\n      iszero\n      tag_208\n      jumpi\n      returndatasize\n      0x00\n      dup1\n      returndatacopy\n      revert(0x00, returndatasize)\n    tag_208:\n      pop\n      pop\n      pop\n      pop\n      mload(0x40)\n      returndatasize\n      not(0x1f)\n      0x1f\n      dup3\n      add\n      and\n      dup3\n      add\n      dup1\n      0x40\n      mstore\n      pop\n      dup2\n      add\n      swap1\n      tag_209\n      swap2\n      swap1\n      tag_81\n      jump\t// in\n    tag_209:\n      pop\n        /* \"contracts/onepage.sol\":5120:5139  uint256 platformFee */\n      0x00\n        /* \"contracts/onepage.sol\":5172:5177  10000 */\n      0x2710\n        /* \"contracts/onepage.sol\":5154:5168  platformFeeBPS */\n      sload(0x03)\n        /* \"contracts/onepage.sol\":5143:5151  amountIn */\n      dup12\n        /* \"contracts/onepage.sol\":5143:5168  amountIn * platformFeeBPS */\n      tag_210\n      swap2\n      swap1\n      tag_186\n      jump\t// in\n    tag_210:\n        /* \"contracts/onepage.sol\":5142:5177  (amountIn * platformFeeBPS) / 10000 */\n      tag_211\n      swap2\n      swap1\n      tag_188\n      jump\t// in\n    tag_211:\n        /* \"contracts/onepage.sol\":5120:5177  uint256 platformFee = (amountIn * platformFeeBPS) / 10000 */\n      swap1\n      pop\n        /* \"contracts/onepage.sol\":5195:5202  tokenIn */\n      dup12\n        /* \"contracts/onepage.sol\":5188:5212  IERC20(tokenIn).transfer */\n      0xffffffffffffffffffffffffffffffffffffffff\n      and\n      0xa9059cbb\n        /* \"contracts/onepage.sol\":5213:5227  platformWallet */\n      0x02\n      0x00\n      swap1\n      sload\n      swap1\n      0x0100\n      exp\n      swap1\n      div\n      0xffffffffffffffffffffffffffffffffffffffff\n      and\n        /* \"contracts/onepage.sol\":5229:5240  platformFee */\n      dup4\n        /* \"contracts/onepage.sol\":5188:5241  IERC20(tokenIn).transfer(platformWallet, platformFee) */\n      mload(0x40)\n      dup4\n      0xffffffff\n      and\n      0xe0\n      shl\n      dup2\n      mstore\n      0x04\n      add\n      tag_212\n      swap3\n      swap2\n      swap1\n      tag_77\n      jump\t// in\n    tag_212:\n      0x20\n      mload(0x40)\n      dup1\n      dup4\n      sub\n      dup2\n      0x00\n      dup8\n      gas\n      call\n      iszero\n      dup1\n      iszero\n      tag_214\n      jumpi\n      returndatasize\n      0x00\n      dup1\n      returndatacopy\n      revert(0x00, returndatasize)\n    tag_214:\n      pop\n      pop\n      pop\n      pop\n      mload(0x40)\n      returndatasize\n      not(0x1f)\n      0x1f\n      dup3\n      add\n      and\n      dup3\n      add\n      dup1\n      0x40\n      mstore\n      pop\n      dup2\n      add\n      swap1\n      tag_215\n      swap2\n      swap1\n      tag_81\n      jump\t// in\n    tag_215:\n      pop\n        /* \"contracts/onepage.sol\":5259:5267  tokenOut */\n      dup11\n        /* \"contracts/onepage.sol\":5252:5277  IERC20(tokenOut).transfer */\n      0xffffffffffffffffffffffffffffffffffffffff\n      and\n      0xa9059cbb\n        /* \"contracts/onepage.sol\":5278:5288  msg.sender */\n      caller\n        /* \"contracts/onepage.sol\":5290:5299  amountOut */\n      dup5\n        /* \"contracts/onepage.sol\":5252:5300  IERC20(tokenOut).transfer(msg.sender, amountOut) */\n      mload(0x40)\n      dup4\n      0xffffffff\n      and\n      0xe0\n      shl\n      dup2\n      mstore\n      0x04\n      add\n      tag_216\n      swap3\n      swap2\n      swap1\n      tag_77\n      jump\t// in\n    tag_216:\n      0x20\n      mload(0x40)\n      dup1\n      dup4\n      sub\n      dup2\n      0x00\n      dup8\n      gas\n      call\n      iszero\n      dup1\n      iszero\n      tag_218\n      jumpi\n      returndatasize\n      0x00\n      dup1\n      returndatacopy\n      revert(0x00, returndatasize)\n    tag_218:\n      pop\n      pop\n      pop\n      pop\n      mload(0x40)\n      returndatasize\n      not(0x1f)\n      0x1f\n      dup3\n      add\n      and\n      dup3\n      add\n      dup1\n      0x40\n      mstore\n      pop\n      dup2\n      add\n      swap1\n      tag_219\n      swap2\n      swap1\n      tag_81\n      jump\t// in\n    tag_219:\n      pop\n        /* \"contracts/onepage.sol\":5328:5334  tokenA */\n      dup8\n        /* \"contracts/onepage.sol\":5317:5334  tokenIn == tokenA */\n      0xffffffffffffffffffffffffffffffffffffffff\n      and\n        /* \"contracts/onepage.sol\":5317:5324  tokenIn */\n      dup13\n        /* \"contracts/onepage.sol\":5317:5334  tokenIn == tokenA */\n      0xffffffffffffffffffffffffffffffffffffffff\n      and\n      sub\n        /* \"contracts/onepage.sol\":5313:5546  if (tokenIn == tokenA) {... */\n      tag_220\n      jumpi\n        /* \"contracts/onepage.sol\":5368:5385  effectiveAmountIn */\n      dup3\n        /* \"contracts/onepage.sol\":5351:5355  pair */\n      dup7\n        /* \"contracts/onepage.sol\":5351:5364  pair.reserveA */\n      0x02\n      add\n      0x00\n        /* \"contracts/onepage.sol\":5351:5385  pair.reserveA += effectiveAmountIn */\n      dup3\n      dup3\n      sload\n      tag_221\n      swap2\n      swap1\n      tag_160\n      jump\t// in\n    tag_221:\n      swap3\n      pop\n      pop\n      dup2\n      swap1\n      sstore\n      pop\n        /* \"contracts/onepage.sol\":5417:5426  amountOut */\n      dup2\n        /* \"contracts/onepage.sol\":5400:5404  pair */\n      dup7\n        /* \"contracts/onepage.sol\":5400:5413  pair.reserveB */\n      0x03\n      add\n      0x00\n        /* \"contracts/onepage.sol\":5400:5426  pair.reserveB -= amountOut */\n      dup3\n      dup3\n      sload\n      tag_222\n      swap2\n      swap1\n      tag_74\n      jump\t// in\n    tag_222:\n      swap3\n      pop\n      pop\n      dup2\n      swap1\n      sstore\n      pop\n        /* \"contracts/onepage.sol\":5313:5546  if (tokenIn == tokenA) {... */\n      jump(tag_223)\n    tag_220:\n        /* \"contracts/onepage.sol\":5476:5493  effectiveAmountIn */\n      dup3\n        /* \"contracts/onepage.sol\":5459:5463  pair */\n      dup7\n        /* \"contracts/onepage.sol\":5459:5472  pair.reserveB */\n      0x03\n      add\n      0x00\n        /* \"contracts/onepage.sol\":5459:5493  pair.reserveB += effectiveAmountIn */\n      dup3\n      dup3\n      sload\n      tag_224\n      swap2\n      swap1\n      tag_160\n      jump\t// in\n    tag_224:\n      swap3\n      pop\n      pop\n      dup2\n      swap1\n      sstore\n      pop\n        /* \"contracts/onepage.sol\":5525:5534  amountOut */\n      dup2\n        /* \"contracts/onepage.sol\":5508:5512  pair */\n      dup7\n        /* \"contracts/onepage.sol\":5508:5521  pair.reserveA */\n      0x02\n      add\n      0x00\n        /* \"contracts/onepage.sol\":5508:5534  pair.reserveA -= amountOut */\n      dup3\n      dup3\n      sload\n      tag_225\n      swap2\n      swap1\n      tag_74\n      jump\t// in\n    tag_225:\n      swap3\n      pop\n      pop\n      dup2\n      swap1\n      sstore\n      pop\n        /* \"contracts/onepage.sol\":5313:5546  if (tokenIn == tokenA) {... */\n    tag_223:\n        /* \"contracts/onepage.sol\":5571:5581  msg.sender */\n      caller\n        /* \"contracts/onepage.sol\":5563:5622  Swapped(msg.sender, tokenIn, tokenOut, amountIn, amountOut) */\n      0xffffffffffffffffffffffffffffffffffffffff\n      and\n      0x6782190c91d4a7e8ad2a867deed6ec0a970cab8ff137ae2bd4abd92b3810f4d3\n        /* \"contracts/onepage.sol\":5583:5590  tokenIn */\n      dup14\n        /* \"contracts/onepage.sol\":5592:5600  tokenOut */\n      dup14\n        /* \"contracts/onepage.sol\":5602:5610  amountIn */\n      dup14\n        /* \"contracts/onepage.sol\":5612:5621  amountOut */\n      dup7\n        /* \"contracts/onepage.sol\":5563:5622  Swapped(msg.sender, tokenIn, tokenOut, amountIn, amountOut) */\n      mload(0x40)\n      tag_226\n      swap5\n      swap4\n      swap3\n      swap2\n      swap1\n      tag_227\n      jump\t// in\n    tag_226:\n      mload(0x40)\n      dup1\n      swap2\n      sub\n      swap1\n      log2\n        /* \"contracts/onepage.sol\":4016:5630  {... */\n      pop\n      pop\n      pop\n      pop\n      pop\n      pop\n      pop\n      pop\n        /* \"@openzeppelin/contracts/security/ReentrancyGuard.sol\":2303:2323  _nonReentrantAfter() */\n      tag_228\n        /* \"@openzeppelin/contracts/security/ReentrancyGuard.sol\":2303:2321  _nonReentrantAfter */\n      tag_89\n        /* \"@openzeppelin/contracts/security/ReentrancyGuard.sol\":2303:2323  _nonReentrantAfter() */\n      jump\t// in\n    tag_228:\n        /* \"contracts/onepage.sol\":3905:5630  function swap(address tokenIn, address tokenOut, uint256 amountIn, uint256 minAmountOut) external nonReentrant {... */\n      pop\n      pop\n      pop\n      pop\n      jump\t// out\n        /* \"@openzeppelin/contracts/security/ReentrancyGuard.sol\":2336:2623  function _nonReentrantBefore() private {... */\n    tag_60:\n        /* \"@openzeppelin/contracts/security/ReentrancyGuard.sol\":1759:1760  2 */\n      0x02\n        /* \"@openzeppelin/contracts/security/ReentrancyGuard.sol\":2468:2475  _status */\n      sload(0x00)\n        /* \"@openzeppelin/contracts/security/ReentrancyGuard.sol\":2468:2487  _status != _ENTERED */\n      sub\n        /* \"@openzeppelin/contracts/security/ReentrancyGuard.sol\":2460:2523  require(_status != _ENTERED, \"ReentrancyGuard: reentrant call\") */\n      tag_230\n      jumpi\n      mload(0x40)\n      0x08c379a000000000000000000000000000000000000000000000000000000000\n      dup2\n      mstore\n      0x04\n      add\n      tag_231\n      swap1\n      tag_232\n      jump\t// in\n    tag_231:\n      mload(0x40)\n      dup1\n      swap2\n      sub\n      swap1\n      revert\n    tag_230:\n        /* \"@openzeppelin/contracts/security/ReentrancyGuard.sol\":1759:1760  2 */\n      0x02\n        /* \"@openzeppelin/contracts/security/ReentrancyGuard.sol\":2598:2605  _status */\n      0x00\n        /* \"@openzeppelin/contracts/security/ReentrancyGuard.sol\":2598:2616  _status = _ENTERED */\n      dup2\n      swap1\n      sstore\n      pop\n        /* \"@openzeppelin/contracts/security/ReentrancyGuard.sol\":2336:2623  function _nonReentrantBefore() private {... */\n      jump\t// out\n        /* \"@openzeppelin/contracts/security/ReentrancyGuard.sol\":2629:2838  function _nonReentrantAfter() private {... */\n    tag_89:\n        /* \"@openzeppelin/contracts/security/ReentrancyGuard.sol\":1716:1717  1 */\n      0x01\n        /* \"@openzeppelin/contracts/security/ReentrancyGuard.sol\":2809:2816  _status */\n      0x00\n        /* \"@openzeppelin/contracts/security/ReentrancyGuard.sol\":2809:2831  _status = _NOT_ENTERED */\n      dup2\n      swap1\n      sstore\n      pop\n        /* \"@openzeppelin/contracts/security/ReentrancyGuard.sol\":2629:2838  function _nonReentrantAfter() private {... */\n      jump\t// out\n        /* \"#utility.yul\":7:133   */\n    tag_234:\n        /* \"#utility.yul\":44:51   */\n      0x00\n        /* \"#utility.yul\":84:126   */\n      0xffffffffffffffffffffffffffffffffffffffff\n        /* \"#utility.yul\":77:82   */\n      dup3\n        /* \"#utility.yul\":73:127   */\n      and\n        /* \"#utility.yul\":62:127   */\n      swap1\n      pop\n        /* \"#utility.yul\":7:133   */\n      swap2\n      swap1\n      pop\n      jump\t// out\n        /* \"#utility.yul\":139:235   */\n    tag_235:\n        /* \"#utility.yul\":176:183   */\n      0x00\n        /* \"#utility.yul\":205:229   */\n      tag_283\n        /* \"#utility.yul\":223:228   */\n      dup3\n        /* \"#utility.yul\":205:229   */\n      tag_234\n      jump\t// in\n    tag_283:\n        /* \"#utility.yul\":194:229   */\n      swap1\n      pop\n        /* \"#utility.yul\":139:235   */\n      swap2\n      swap1\n      pop\n      jump\t// out\n        /* \"#utility.yul\":241:359   */\n    tag_236:\n        /* \"#utility.yul\":328:352   */\n      tag_285\n        /* \"#utility.yul\":346:351   */\n      dup2\n        /* \"#utility.yul\":328:352   */\n      tag_235\n      jump\t// in\n    tag_285:\n        /* \"#utility.yul\":323:326   */\n      dup3\n        /* \"#utility.yul\":316:353   */\n      mstore\n        /* \"#utility.yul\":241:359   */\n      pop\n      pop\n      jump\t// out\n        /* \"#utility.yul\":365:587   */\n    tag_17:\n        /* \"#utility.yul\":458:462   */\n      0x00\n        /* \"#utility.yul\":496:498   */\n      0x20\n        /* \"#utility.yul\":485:494   */\n      dup3\n        /* \"#utility.yul\":481:499   */\n      add\n        /* \"#utility.yul\":473:499   */\n      swap1\n      pop\n        /* \"#utility.yul\":509:580   */\n      tag_287\n        /* \"#utility.yul\":577:578   */\n      0x00\n        /* \"#utility.yul\":566:575   */\n      dup4\n        /* \"#utility.yul\":562:579   */\n      add\n        /* \"#utility.yul\":553:559   */\n      dup5\n        /* \"#utility.yul\":509:580   */\n      tag_236\n      jump\t// in\n    tag_287:\n        /* \"#utility.yul\":365:587   */\n      swap3\n      swap2\n      pop\n      pop\n      jump\t// out\n        /* \"#utility.yul\":674:791   */\n    tag_238:\n        /* \"#utility.yul\":783:784   */\n      0x00\n        /* \"#utility.yul\":780:781   */\n      dup1\n        /* \"#utility.yul\":773:785   */\n      revert\n        /* \"#utility.yul\":920:1042   */\n    tag_240:\n        /* \"#utility.yul\":993:1017   */\n      tag_292\n        /* \"#utility.yul\":1011:1016   */\n      dup2\n        /* \"#utility.yul\":993:1017   */\n      tag_235\n      jump\t// in\n    tag_292:\n        /* \"#utility.yul\":986:991   */\n      dup2\n        /* \"#utility.yul\":983:1018   */\n      eq\n        /* \"#utility.yul\":973:1036   */\n      tag_293\n      jumpi\n        /* \"#utility.yul\":1032:1033   */\n      0x00\n        /* \"#utility.yul\":1029:1030   */\n      dup1\n        /* \"#utility.yul\":1022:1034   */\n      revert\n        /* \"#utility.yul\":973:1036   */\n    tag_293:\n        /* \"#utility.yul\":920:1042   */\n      pop\n      jump\t// out\n        /* \"#utility.yul\":1048:1187   */\n    tag_241:\n        /* \"#utility.yul\":1094:1099   */\n      0x00\n        /* \"#utility.yul\":1132:1138   */\n      dup2\n        /* \"#utility.yul\":1119:1139   */\n      calldataload\n        /* \"#utility.yul\":1110:1139   */\n      swap1\n      pop\n        /* \"#utility.yul\":1148:1181   */\n      tag_295\n        /* \"#utility.yul\":1175:1180   */\n      dup2\n        /* \"#utility.yul\":1148:1181   */\n      tag_240\n      jump\t// in\n    tag_295:\n        /* \"#utility.yul\":1048:1187   */\n      swap3\n      swap2\n      pop\n      pop\n      jump\t// out\n        /* \"#utility.yul\":1193:1270   */\n    tag_242:\n        /* \"#utility.yul\":1230:1237   */\n      0x00\n        /* \"#utility.yul\":1259:1264   */\n      dup2\n        /* \"#utility.yul\":1248:1264   */\n      swap1\n      pop\n        /* \"#utility.yul\":1193:1270   */\n      swap2\n      swap1\n      pop\n      jump\t// out\n        /* \"#utility.yul\":1276:1398   */\n    tag_243:\n        /* \"#utility.yul\":1349:1373   */\n      tag_298\n        /* \"#utility.yul\":1367:1372   */\n      dup2\n        /* \"#utility.yul\":1349:1373   */\n      tag_242\n      jump\t// in\n    tag_298:\n        /* \"#utility.yul\":1342:1347   */\n      dup2\n        /* \"#utility.yul\":1339:1374   */\n      eq\n        /* \"#utility.yul\":1329:1392   */\n      tag_299\n      jumpi\n        /* \"#utility.yul\":1388:1389   */\n      0x00\n        /* \"#utility.yul\":1385:1386   */\n      dup1\n        /* \"#utility.yul\":1378:1390   */\n      revert\n        /* \"#utility.yul\":1329:1392   */\n    tag_299:\n        /* \"#utility.yul\":1276:1398   */\n      pop\n      jump\t// out\n        /* \"#utility.yul\":1404:1543   */\n    tag_244:\n        /* \"#utility.yul\":1450:1455   */\n      0x00\n        /* \"#utility.yul\":1488:1494   */\n      dup2\n        /* \"#utility.yul\":1475:1495   */\n      calldataload\n        /* \"#utility.yul\":1466:1495   */\n      swap1\n      pop\n        /* \"#utility.yul\":1504:1537   */\n      tag_301\n        /* \"#utility.yul\":1531:1536   */\n      dup2\n        /* \"#utility.yul\":1504:1537   */\n      tag_243\n      jump\t// in\n    tag_301:\n        /* \"#utility.yul\":1404:1543   */\n      swap3\n      swap2\n      pop\n      pop\n      jump\t// out\n        /* \"#utility.yul\":1549:2314   */\n    tag_20:\n        /* \"#utility.yul\":1635:1641   */\n      0x00\n        /* \"#utility.yul\":1643:1649   */\n      dup1\n        /* \"#utility.yul\":1651:1657   */\n      0x00\n        /* \"#utility.yul\":1659:1665   */\n      dup1\n        /* \"#utility.yul\":1708:1711   */\n      0x80\n        /* \"#utility.yul\":1696:1705   */\n      dup6\n        /* \"#utility.yul\":1687:1694   */\n      dup8\n        /* \"#utility.yul\":1683:1706   */\n      sub\n        /* \"#utility.yul\":1679:1712   */\n      slt\n        /* \"#utility.yul\":1676:1796   */\n      iszero\n      tag_303\n      jumpi\n        /* \"#utility.yul\":1715:1794   */\n      tag_304\n      tag_238\n      jump\t// in\n    tag_304:\n        /* \"#utility.yul\":1676:1796   */\n    tag_303:\n        /* \"#utility.yul\":1835:1836   */\n      0x00\n        /* \"#utility.yul\":1860:1913   */\n      tag_305\n        /* \"#utility.yul\":1905:1912   */\n      dup8\n        /* \"#utility.yul\":1896:1902   */\n      dup3\n        /* \"#utility.yul\":1885:1894   */\n      dup9\n        /* \"#utility.yul\":1881:1903   */\n      add\n        /* \"#utility.yul\":1860:1913   */\n      tag_241\n      jump\t// in\n    tag_305:\n        /* \"#utility.yul\":1850:1913   */\n      swap5\n      pop\n        /* \"#utility.yul\":1806:1923   */\n      pop\n        /* \"#utility.yul\":1962:1964   */\n      0x20\n        /* \"#utility.yul\":1988:2041   */\n      tag_306\n        /* \"#utility.yul\":2033:2040   */\n      dup8\n        /* \"#utility.yul\":2024:2030   */\n      dup3\n        /* \"#utility.yul\":2013:2022   */\n      dup9\n        /* \"#utility.yul\":2009:2031   */\n      add\n        /* \"#utility.yul\":1988:2041   */\n      tag_241\n      jump\t// in\n    tag_306:\n        /* \"#utility.yul\":1978:2041   */\n      swap4\n      pop\n        /* \"#utility.yul\":1933:2051   */\n      pop\n        /* \"#utility.yul\":2090:2092   */\n      0x40\n        /* \"#utility.yul\":2116:2169   */\n      tag_307\n        /* \"#utility.yul\":2161:2168   */\n      dup8\n        /* \"#utility.yul\":2152:2158   */\n      dup3\n        /* \"#utility.yul\":2141:2150   */\n      dup9\n        /* \"#utility.yul\":2137:2159   */\n      add\n        /* \"#utility.yul\":2116:2169   */\n      tag_244\n      jump\t// in\n    tag_307:\n        /* \"#utility.yul\":2106:2169   */\n      swap3\n      pop\n        /* \"#utility.yul\":2061:2179   */\n      pop\n        /* \"#utility.yul\":2218:2220   */\n      0x60\n        /* \"#utility.yul\":2244:2297   */\n      tag_308\n        /* \"#utility.yul\":2289:2296   */\n      dup8\n        /* \"#utility.yul\":2280:2286   */\n      dup3\n        /* \"#utility.yul\":2269:2278   */\n      dup9\n        /* \"#utility.yul\":2265:2287   */\n      add\n        /* \"#utility.yul\":2244:2297   */\n      tag_244\n      jump\t// in\n    tag_308:\n        /* \"#utility.yul\":2234:2297   */\n      swap2\n      pop\n        /* \"#utility.yul\":2189:2307   */\n      pop\n        /* \"#utility.yul\":1549:2314   */\n      swap3\n      swap6\n      swap2\n      swap5\n      pop\n      swap3\n      pop\n      jump\t// out\n        /* \"#utility.yul\":2320:2794   */\n    tag_24:\n        /* \"#utility.yul\":2388:2394   */\n      0x00\n        /* \"#utility.yul\":2396:2402   */\n      dup1\n        /* \"#utility.yul\":2445:2447   */\n      0x40\n        /* \"#utility.yul\":2433:2442   */\n      dup4\n        /* \"#utility.yul\":2424:2431   */\n      dup6\n        /* \"#utility.yul\":2420:2443   */\n      sub\n        /* \"#utility.yul\":2416:2448   */\n      slt\n        /* \"#utility.yul\":2413:2532   */\n      iszero\n      tag_310\n      jumpi\n        /* \"#utility.yul\":2451:2530   */\n      tag_311\n      tag_238\n      jump\t// in\n    tag_311:\n        /* \"#utility.yul\":2413:2532   */\n    tag_310:\n        /* \"#utility.yul\":2571:2572   */\n      0x00\n        /* \"#utility.yul\":2596:2649   */\n      tag_312\n        /* \"#utility.yul\":2641:2648   */\n      dup6\n        /* \"#utility.yul\":2632:2638   */\n      dup3\n        /* \"#utility.yul\":2621:2630   */\n      dup7\n        /* \"#utility.yul\":2617:2639   */\n      add\n        /* \"#utility.yul\":2596:2649   */\n      tag_241\n      jump\t// in\n    tag_312:\n        /* \"#utility.yul\":2586:2649   */\n      swap3\n      pop\n        /* \"#utility.yul\":2542:2659   */\n      pop\n        /* \"#utility.yul\":2698:2700   */\n      0x20\n        /* \"#utility.yul\":2724:2777   */\n      tag_313\n        /* \"#utility.yul\":2769:2776   */\n      dup6\n        /* \"#utility.yul\":2760:2766   */\n      dup3\n        /* \"#utility.yul\":2749:2758   */\n      dup7\n        /* \"#utility.yul\":2745:2767   */\n      add\n        /* \"#utility.yul\":2724:2777   */\n      tag_241\n      jump\t// in\n    tag_313:\n        /* \"#utility.yul\":2714:2777   */\n      swap2\n      pop\n        /* \"#utility.yul\":2669:2787   */\n      pop\n        /* \"#utility.yul\":2320:2794   */\n      swap3\n      pop\n      swap3\n      swap1\n      pop\n      jump\t// out\n        /* \"#utility.yul\":2800:2918   */\n    tag_245:\n        /* \"#utility.yul\":2887:2911   */\n      tag_315\n        /* \"#utility.yul\":2905:2910   */\n      dup2\n        /* \"#utility.yul\":2887:2911   */\n      tag_242\n      jump\t// in\n    tag_315:\n        /* \"#utility.yul\":2882:2885   */\n      dup3\n        /* \"#utility.yul\":2875:2912   */\n      mstore\n        /* \"#utility.yul\":2800:2918   */\n      pop\n      pop\n      jump\t// out\n        /* \"#utility.yul\":2924:3588   */\n    tag_30:\n        /* \"#utility.yul\":3129:3133   */\n      0x00\n        /* \"#utility.yul\":3167:3170   */\n      0xa0\n        /* \"#utility.yul\":3156:3165   */\n      dup3\n        /* \"#utility.yul\":3152:3171   */\n      add\n        /* \"#utility.yul\":3144:3171   */\n      swap1\n      pop\n        /* \"#utility.yul\":3181:3252   */\n      tag_317\n        /* \"#utility.yul\":3249:3250   */\n      0x00\n        /* \"#utility.yul\":3238:3247   */\n      dup4\n        /* \"#utility.yul\":3234:3251   */\n      add\n        /* \"#utility.yul\":3225:3231   */\n      dup9\n        /* \"#utility.yul\":3181:3252   */\n      tag_236\n      jump\t// in\n    tag_317:\n        /* \"#utility.yul\":3262:3334   */\n      tag_318\n        /* \"#utility.yul\":3330:3332   */\n      0x20\n        /* \"#utility.yul\":3319:3328   */\n      dup4\n        /* \"#utility.yul\":3315:3333   */\n      add\n        /* \"#utility.yul\":3306:3312   */\n      dup8\n        /* \"#utility.yul\":3262:3334   */\n      tag_236\n      jump\t// in\n    tag_318:\n        /* \"#utility.yul\":3344:3416   */\n      tag_319\n        /* \"#utility.yul\":3412:3414   */\n      0x40\n        /* \"#utility.yul\":3401:3410   */\n      dup4\n        /* \"#utility.yul\":3397:3415   */\n      add\n        /* \"#utility.yul\":3388:3394   */\n      dup7\n        /* \"#utility.yul\":3344:3416   */\n      tag_245\n      jump\t// in\n    tag_319:\n        /* \"#utility.yul\":3426:3498   */\n      tag_320\n        /* \"#utility.yul\":3494:3496   */\n      0x60\n        /* \"#utility.yul\":3483:3492   */\n      dup4\n        /* \"#utility.yul\":3479:3497   */\n      add\n        /* \"#utility.yul\":3470:3476   */\n      dup6\n        /* \"#utility.yul\":3426:3498   */\n      tag_245\n      jump\t// in\n    tag_320:\n        /* \"#utility.yul\":3508:3581   */\n      tag_321\n        /* \"#utility.yul\":3576:3579   */\n      0x80\n        /* \"#utility.yul\":3565:3574   */\n      dup4\n        /* \"#utility.yul\":3561:3580   */\n      add\n        /* \"#utility.yul\":3552:3558   */\n      dup5\n        /* \"#utility.yul\":3508:3581   */\n      tag_245\n      jump\t// in\n    tag_321:\n        /* \"#utility.yul\":2924:3588   */\n      swap7\n      swap6\n      pop\n      pop\n      pop\n      pop\n      pop\n      pop\n      jump\t// out\n        /* \"#utility.yul\":3594:3923   */\n    tag_33:\n        /* \"#utility.yul\":3653:3659   */\n      0x00\n        /* \"#utility.yul\":3702:3704   */\n      0x20\n        /* \"#utility.yul\":3690:3699   */\n      dup3\n        /* \"#utility.yul\":3681:3688   */\n      dup5\n        /* \"#utility.yul\":3677:3700   */\n      sub\n        /* \"#utility.yul\":3673:3705   */\n      slt\n        /* \"#utility.yul\":3670:3789   */\n      iszero\n      tag_323\n      jumpi\n        /* \"#utility.yul\":3708:3787   */\n      tag_324\n      tag_238\n      jump\t// in\n    tag_324:\n        /* \"#utility.yul\":3670:3789   */\n    tag_323:\n        /* \"#utility.yul\":3828:3829   */\n      0x00\n        /* \"#utility.yul\":3853:3906   */\n      tag_325\n        /* \"#utility.yul\":3898:3905   */\n      dup5\n        /* \"#utility.yul\":3889:3895   */\n      dup3\n        /* \"#utility.yul\":3878:3887   */\n      dup6\n        /* \"#utility.yul\":3874:3896   */\n      add\n        /* \"#utility.yul\":3853:3906   */\n      tag_244\n      jump\t// in\n    tag_325:\n        /* \"#utility.yul\":3843:3906   */\n      swap2\n      pop\n        /* \"#utility.yul\":3799:3916   */\n      pop\n        /* \"#utility.yul\":3594:3923   */\n      swap3\n      swap2\n      pop\n      pop\n      jump\t// out\n        /* \"#utility.yul\":3929:4261   */\n    tag_36:\n        /* \"#utility.yul\":4050:4054   */\n      0x00\n        /* \"#utility.yul\":4088:4090   */\n      0x40\n        /* \"#utility.yul\":4077:4086   */\n      dup3\n        /* \"#utility.yul\":4073:4091   */\n      add\n        /* \"#utility.yul\":4065:4091   */\n      swap1\n      pop\n        /* \"#utility.yul\":4101:4172   */\n      tag_327\n        /* \"#utility.yul\":4169:4170   */\n      0x00\n        /* \"#utility.yul\":4158:4167   */\n      dup4\n        /* \"#utility.yul\":4154:4171   */\n      add\n        /* \"#utility.yul\":4145:4151   */\n      dup6\n        /* \"#utility.yul\":4101:4172   */\n      tag_236\n      jump\t// in\n    tag_327:\n        /* \"#utility.yul\":4182:4254   */\n      tag_328\n        /* \"#utility.yul\":4250:4252   */\n      0x20\n        /* \"#utility.yul\":4239:4248   */\n      dup4\n        /* \"#utility.yul\":4235:4253   */\n      add\n        /* \"#utility.yul\":4226:4232   */\n      dup5\n        /* \"#utility.yul\":4182:4254   */\n      tag_236\n      jump\t// in\n    tag_328:\n        /* \"#utility.yul\":3929:4261   */\n      swap4\n      swap3\n      pop\n      pop\n      pop\n      jump\t// out\n        /* \"#utility.yul\":4267:4886   */\n    tag_39:\n        /* \"#utility.yul\":4344:4350   */\n      0x00\n        /* \"#utility.yul\":4352:4358   */\n      dup1\n        /* \"#utility.yul\":4360:4366   */\n      0x00\n        /* \"#utility.yul\":4409:4411   */\n      0x60\n        /* \"#utility.yul\":4397:4406   */\n      dup5\n        /* \"#utility.yul\":4388:4395   */\n      dup7\n        /* \"#utility.yul\":4384:4407   */\n      sub\n        /* \"#utility.yul\":4380:4412   */\n      slt\n        /* \"#utility.yul\":4377:4496   */\n      iszero\n      tag_330\n      jumpi\n        /* \"#utility.yul\":4415:4494   */\n      tag_331\n      tag_238\n      jump\t// in\n    tag_331:\n        /* \"#utility.yul\":4377:4496   */\n    tag_330:\n        /* \"#utility.yul\":4535:4536   */\n      0x00\n        /* \"#utility.yul\":4560:4613   */\n      tag_332\n        /* \"#utility.yul\":4605:4612   */\n      dup7\n        /* \"#utility.yul\":4596:4602   */\n      dup3\n        /* \"#utility.yul\":4585:4594   */\n      dup8\n        /* \"#utility.yul\":4581:4603   */\n      add\n        /* \"#utility.yul\":4560:4613   */\n      tag_241\n      jump\t// in\n    tag_332:\n        /* \"#utility.yul\":4550:4613   */\n      swap4\n      pop\n        /* \"#utility.yul\":4506:4623   */\n      pop\n        /* \"#utility.yul\":4662:4664   */\n      0x20\n        /* \"#utility.yul\":4688:4741   */\n      tag_333\n        /* \"#utility.yul\":4733:4740   */\n      dup7\n        /* \"#utility.yul\":4724:4730   */\n      dup3\n        /* \"#utility.yul\":4713:4722   */\n      dup8\n        /* \"#utility.yul\":4709:4731   */\n      add\n        /* \"#utility.yul\":4688:4741   */\n      tag_241\n      jump\t// in\n    tag_333:\n        /* \"#utility.yul\":4678:4741   */\n      swap3\n      pop\n        /* \"#utility.yul\":4633:4751   */\n      pop\n        /* \"#utility.yul\":4790:4792   */\n      0x40\n        /* \"#utility.yul\":4816:4869   */\n      tag_334\n        /* \"#utility.yul\":4861:4868   */\n      dup7\n        /* \"#utility.yul\":4852:4858   */\n      dup3\n        /* \"#utility.yul\":4841:4850   */\n      dup8\n        /* \"#utility.yul\":4837:4859   */\n      add\n        /* \"#utility.yul\":4816:4869   */\n      tag_244\n      jump\t// in\n    tag_334:\n        /* \"#utility.yul\":4806:4869   */\n      swap2\n      pop\n        /* \"#utility.yul\":4761:4879   */\n      pop\n        /* \"#utility.yul\":4267:4886   */\n      swap3\n      pop\n      swap3\n      pop\n      swap3\n      jump\t// out\n        /* \"#utility.yul\":4892:5114   */\n    tag_47:\n        /* \"#utility.yul\":4985:4989   */\n      0x00\n        /* \"#utility.yul\":5023:5025   */\n      0x20\n        /* \"#utility.yul\":5012:5021   */\n      dup3\n        /* \"#utility.yul\":5008:5026   */\n      add\n        /* \"#utility.yul\":5000:5026   */\n      swap1\n      pop\n        /* \"#utility.yul\":5036:5107   */\n      tag_336\n        /* \"#utility.yul\":5104:5105   */\n      0x00\n        /* \"#utility.yul\":5093:5102   */\n      dup4\n        /* \"#utility.yul\":5089:5106   */\n      add\n        /* \"#utility.yul\":5080:5086   */\n      dup5\n        /* \"#utility.yul\":5036:5107   */\n      tag_245\n      jump\t// in\n    tag_336:\n        /* \"#utility.yul\":4892:5114   */\n      swap3\n      swap2\n      pop\n      pop\n      jump\t// out\n        /* \"#utility.yul\":5120:5289   */\n    tag_246:\n        /* \"#utility.yul\":5204:5215   */\n      0x00\n        /* \"#utility.yul\":5238:5244   */\n      dup3\n        /* \"#utility.yul\":5233:5236   */\n      dup3\n        /* \"#utility.yul\":5226:5245   */\n      mstore\n        /* \"#utility.yul\":5278:5282   */\n      0x20\n        /* \"#utility.yul\":5273:5276   */\n      dup3\n        /* \"#utility.yul\":5269:5283   */\n      add\n        /* \"#utility.yul\":5254:5283   */\n      swap1\n      pop\n        /* \"#utility.yul\":5120:5289   */\n      swap3\n      swap2\n      pop\n      pop\n      jump\t// out\n        /* \"#utility.yul\":5295:5517   */\n    tag_247:\n        /* \"#utility.yul\":5435:5469   */\n      0x4f6e6c792063726561746f722063616e2063616c6c20746869732066756e6374\n        /* \"#utility.yul\":5431:5432   */\n      0x00\n        /* \"#utility.yul\":5423:5429   */\n      dup3\n        /* \"#utility.yul\":5419:5433   */\n      add\n        /* \"#utility.yul\":5412:5470   */\n      mstore\n        /* \"#utility.yul\":5504:5509   */\n      0x696f6e0000000000000000000000000000000000000000000000000000000000\n        /* \"#utility.yul\":5499:5501   */\n      0x20\n        /* \"#utility.yul\":5491:5497   */\n      dup3\n        /* \"#utility.yul\":5487:5502   */\n      add\n        /* \"#utility.yul\":5480:5510   */\n      mstore\n        /* \"#utility.yul\":5295:5517   */\n      pop\n      jump\t// out\n        /* \"#utility.yul\":5523:5889   */\n    tag_248:\n        /* \"#utility.yul\":5665:5668   */\n      0x00\n        /* \"#utility.yul\":5686:5753   */\n      tag_340\n        /* \"#utility.yul\":5750:5752   */\n      0x23\n        /* \"#utility.yul\":5745:5748   */\n      dup4\n        /* \"#utility.yul\":5686:5753   */\n      tag_246\n      jump\t// in\n    tag_340:\n        /* \"#utility.yul\":5679:5753   */\n      swap2\n      pop\n        /* \"#utility.yul\":5762:5855   */\n      tag_341\n        /* \"#utility.yul\":5851:5854   */\n      dup3\n        /* \"#utility.yul\":5762:5855   */\n      tag_247\n      jump\t// in\n    tag_341:\n        /* \"#utility.yul\":5880:5882   */\n      0x40\n        /* \"#utility.yul\":5875:5878   */\n      dup3\n        /* \"#utility.yul\":5871:5883   */\n      add\n        /* \"#utility.yul\":5864:5883   */\n      swap1\n      pop\n        /* \"#utility.yul\":5523:5889   */\n      swap2\n      swap1\n      pop\n      jump\t// out\n        /* \"#utility.yul\":5895:6314   */\n    tag_57:\n        /* \"#utility.yul\":6061:6065   */\n      0x00\n        /* \"#utility.yul\":6099:6101   */\n      0x20\n        /* \"#utility.yul\":6088:6097   */\n      dup3\n        /* \"#utility.yul\":6084:6102   */\n      add\n        /* \"#utility.yul\":6076:6102   */\n      swap1\n      pop\n        /* \"#utility.yul\":6148:6157   */\n      dup2\n        /* \"#utility.yul\":6142:6146   */\n      dup2\n        /* \"#utility.yul\":6138:6158   */\n      sub\n        /* \"#utility.yul\":6134:6135   */\n      0x00\n        /* \"#utility.yul\":6123:6132   */\n      dup4\n        /* \"#utility.yul\":6119:6136   */\n      add\n        /* \"#utility.yul\":6112:6159   */\n      mstore\n        /* \"#utility.yul\":6176:6307   */\n      tag_343\n        /* \"#utility.yul\":6302:6306   */\n      dup2\n        /* \"#utility.yul\":6176:6307   */\n      tag_248\n      jump\t// in\n    tag_343:\n        /* \"#utility.yul\":6168:6307   */\n      swap1\n      pop\n        /* \"#utility.yul\":5895:6314   */\n      swap2\n      swap1\n      pop\n      jump\t// out\n        /* \"#utility.yul\":6320:6551   */\n    tag_249:\n        /* \"#utility.yul\":6460:6494   */\n      0x5769746864726177616c20616d6f756e7473206d757374206265206772656174\n        /* \"#utility.yul\":6456:6457   */\n      0x00\n        /* \"#utility.yul\":6448:6454   */\n      dup3\n        /* \"#utility.yul\":6444:6458   */\n      add\n        /* \"#utility.yul\":6437:6495   */\n      mstore\n        /* \"#utility.yul\":6529:6543   */\n      0x6572207468616e207a65726f0000000000000000000000000000000000000000\n        /* \"#utility.yul\":6524:6526   */\n      0x20\n        /* \"#utility.yul\":6516:6522   */\n      dup3\n        /* \"#utility.yul\":6512:6527   */\n      add\n        /* \"#utility.yul\":6505:6544   */\n      mstore\n        /* \"#utility.yul\":6320:6551   */\n      pop\n      jump\t// out\n        /* \"#utility.yul\":6557:6923   */\n    tag_250:\n        /* \"#utility.yul\":6699:6702   */\n      0x00\n        /* \"#utility.yul\":6720:6787   */\n      tag_346\n        /* \"#utility.yul\":6784:6786   */\n      0x2c\n        /* \"#utility.yul\":6779:6782   */\n      dup4\n        /* \"#utility.yul\":6720:6787   */\n      tag_246\n      jump\t// in\n    tag_346:\n        /* \"#utility.yul\":6713:6787   */\n      swap2\n      pop\n        /* \"#utility.yul\":6796:6889   */\n      tag_347\n        /* \"#utility.yul\":6885:6888   */\n      dup3\n        /* \"#utility.yul\":6796:6889   */\n      tag_249\n      jump\t// in\n    tag_347:\n        /* \"#utility.yul\":6914:6916   */\n      0x40\n        /* \"#utility.yul\":6909:6912   */\n      dup3\n        /* \"#utility.yul\":6905:6917   */\n      add\n        /* \"#utility.yul\":6898:6917   */\n      swap1\n      pop\n        /* \"#utility.yul\":6557:6923   */\n      swap2\n      swap1\n      pop\n      jump\t// out\n        /* \"#utility.yul\":6929:7348   */\n    tag_65:\n        /* \"#utility.yul\":7095:7099   */\n      0x00\n        /* \"#utility.yul\":7133:7135   */\n      0x20\n        /* \"#utility.yul\":7122:7131   */\n      dup3\n        /* \"#utility.yul\":7118:7136   */\n      add\n        /* \"#utility.yul\":7110:7136   */\n      swap1\n      pop\n        /* \"#utility.yul\":7182:7191   */\n      dup2\n        /* \"#utility.yul\":7176:7180   */\n      dup2\n        /* \"#utility.yul\":7172:7192   */\n      sub\n        /* \"#utility.yul\":7168:7169   */\n      0x00\n        /* \"#utility.yul\":7157:7166   */\n      dup4\n        /* \"#utility.yul\":7153:7170   */\n      add\n        /* \"#utility.yul\":7146:7193   */\n      mstore\n        /* \"#utility.yul\":7210:7341   */\n      tag_349\n        /* \"#utility.yul\":7336:7340   */\n      dup2\n        /* \"#utility.yul\":7210:7341   */\n      tag_250\n      jump\t// in\n    tag_349:\n        /* \"#utility.yul\":7202:7341   */\n      swap1\n      pop\n        /* \"#utility.yul\":6929:7348   */\n      swap2\n      swap1\n      pop\n      jump\t// out\n        /* \"#utility.yul\":7354:7574   */\n    tag_251:\n        /* \"#utility.yul\":7494:7528   */\n      0x496e73756666696369656e74206c697175696469747920666f7220746f6b656e\n        /* \"#utility.yul\":7490:7491   */\n      0x00\n        /* \"#utility.yul\":7482:7488   */\n      dup3\n        /* \"#utility.yul\":7478:7492   */\n      add\n        /* \"#utility.yul\":7471:7529   */\n      mstore\n        /* \"#utility.yul\":7563:7566   */\n      0x4100000000000000000000000000000000000000000000000000000000000000\n        /* \"#utility.yul\":7558:7560   */\n      0x20\n        /* \"#utility.yul\":7550:7556   */\n      dup3\n        /* \"#utility.yul\":7546:7561   */\n      add\n        /* \"#utility.yul\":7539:7567   */\n      mstore\n        /* \"#utility.yul\":7354:7574   */\n      pop\n      jump\t// out\n        /* \"#utility.yul\":7580:7946   */\n    tag_252:\n        /* \"#utility.yul\":7722:7725   */\n      0x00\n        /* \"#utility.yul\":7743:7810   */\n      tag_352\n        /* \"#utility.yul\":7807:7809   */\n      0x21\n        /* \"#utility.yul\":7802:7805   */\n      dup4\n        /* \"#utility.yul\":7743:7810   */\n      tag_246\n      jump\t// in\n    tag_352:\n        /* \"#utility.yul\":7736:7810   */\n      swap2\n      pop\n        /* \"#utility.yul\":7819:7912   */\n      tag_353\n        /* \"#utility.yul\":7908:7911   */\n      dup3\n        /* \"#utility.yul\":7819:7912   */\n      tag_251\n      jump\t// in\n    tag_353:\n        /* \"#utility.yul\":7937:7939   */\n      0x40\n        /* \"#utility.yul\":7932:7935   */\n      dup3\n        /* \"#utility.yul\":7928:7940   */\n      add\n        /* \"#utility.yul\":7921:7940   */\n      swap1\n      pop\n        /* \"#utility.yul\":7580:7946   */\n      swap2\n      swap1\n      pop\n      jump\t// out\n        /* \"#utility.yul\":7952:8371   */\n    tag_69:\n        /* \"#utility.yul\":8118:8122   */\n      0x00\n        /* \"#utility.yul\":8156:8158   */\n      0x20\n        /* \"#utility.yul\":8145:8154   */\n      dup3\n        /* \"#utility.yul\":8141:8159   */\n      add\n        /* \"#utility.yul\":8133:8159   */\n      swap1\n      pop\n        /* \"#utility.yul\":8205:8214   */\n      dup2\n        /* \"#utility.yul\":8199:8203   */\n      dup2\n        /* \"#utility.yul\":8195:8215   */\n      sub\n        /* \"#utility.yul\":8191:8192   */\n      0x00\n        /* \"#utility.yul\":8180:8189   */\n      dup4\n        /* \"#utility.yul\":8176:8193   */\n      add\n        /* \"#utility.yul\":8169:8216   */\n      mstore\n        /* \"#utility.yul\":8233:8364   */\n      tag_355\n        /* \"#utility.yul\":8359:8363   */\n      dup2\n        /* \"#utility.yul\":8233:8364   */\n      tag_252\n      jump\t// in\n    tag_355:\n        /* \"#utility.yul\":8225:8364   */\n      swap1\n      pop\n        /* \"#utility.yul\":7952:8371   */\n      swap2\n      swap1\n      pop\n      jump\t// out\n        /* \"#utility.yul\":8377:8597   */\n    tag_253:\n        /* \"#utility.yul\":8517:8551   */\n      0x496e73756666696369656e74206c697175696469747920666f7220746f6b656e\n        /* \"#utility.yul\":8513:8514   */\n      0x00\n        /* \"#utility.yul\":8505:8511   */\n      dup3\n        /* \"#utility.yul\":8501:8515   */\n      add\n        /* \"#utility.yul\":8494:8552   */\n      mstore\n        /* \"#utility.yul\":8586:8589   */\n      0x4200000000000000000000000000000000000000000000000000000000000000\n        /* \"#utility.yul\":8581:8583   */\n      0x20\n        /* \"#utility.yul\":8573:8579   */\n      dup3\n        /* \"#utility.yul\":8569:8584   */\n      add\n        /* \"#utility.yul\":8562:8590   */\n      mstore\n        /* \"#utility.yul\":8377:8597   */\n      pop\n      jump\t// out\n        /* \"#utility.yul\":8603:8969   */\n    tag_254:\n        /* \"#utility.yul\":8745:8748   */\n      0x00\n        /* \"#utility.yul\":8766:8833   */\n      tag_358\n        /* \"#utility.yul\":8830:8832   */\n      0x21\n        /* \"#utility.yul\":8825:8828   */\n      dup4\n        /* \"#utility.yul\":8766:8833   */\n      tag_246\n      jump\t// in\n    tag_358:\n        /* \"#utility.yul\":8759:8833   */\n      swap2\n      pop\n        /* \"#utility.yul\":8842:8935   */\n      tag_359\n        /* \"#utility.yul\":8931:8934   */\n      dup3\n        /* \"#utility.yul\":8842:8935   */\n      tag_253\n      jump\t// in\n    tag_359:\n        /* \"#utility.yul\":8960:8962   */\n      0x40\n        /* \"#utility.yul\":8955:8958   */\n      dup3\n        /* \"#utility.yul\":8951:8963   */\n      add\n        /* \"#utility.yul\":8944:8963   */\n      swap1\n      pop\n        /* \"#utility.yul\":8603:8969   */\n      swap2\n      swap1\n      pop\n      jump\t// out\n        /* \"#utility.yul\":8975:9394   */\n    tag_72:\n        /* \"#utility.yul\":9141:9145   */\n      0x00\n        /* \"#utility.yul\":9179:9181   */\n      0x20\n        /* \"#utility.yul\":9168:9177   */\n      dup3\n        /* \"#utility.yul\":9164:9182   */\n      add\n        /* \"#utility.yul\":9156:9182   */\n      swap1\n      pop\n        /* \"#utility.yul\":9228:9237   */\n      dup2\n        /* \"#utility.yul\":9222:9226   */\n      dup2\n        /* \"#utility.yul\":9218:9238   */\n      sub\n        /* \"#utility.yul\":9214:9215   */\n      0x00\n        /* \"#utility.yul\":9203:9212   */\n      dup4\n        /* \"#utility.yul\":9199:9216   */\n      add\n        /* \"#utility.yul\":9192:9239   */\n      mstore\n        /* \"#utility.yul\":9256:9387   */\n      tag_361\n        /* \"#utility.yul\":9382:9386   */\n      dup2\n        /* \"#utility.yul\":9256:9387   */\n      tag_254\n      jump\t// in\n    tag_361:\n        /* \"#utility.yul\":9248:9387   */\n      swap1\n      pop\n        /* \"#utility.yul\":8975:9394   */\n      swap2\n      swap1\n      pop\n      jump\t// out\n        /* \"#utility.yul\":9400:9580   */\n    tag_255:\n        /* \"#utility.yul\":9448:9525   */\n      0x4e487b7100000000000000000000000000000000000000000000000000000000\n        /* \"#utility.yul\":9445:9446   */\n      0x00\n        /* \"#utility.yul\":9438:9526   */\n      mstore\n        /* \"#utility.yul\":9545:9549   */\n      0x11\n        /* \"#utility.yul\":9542:9543   */\n      0x04\n        /* \"#utility.yul\":9535:9550   */\n      mstore\n        /* \"#utility.yul\":9569:9573   */\n      0x24\n        /* \"#utility.yul\":9566:9567   */\n      0x00\n        /* \"#utility.yul\":9559:9574   */\n      revert\n        /* \"#utility.yul\":9586:9780   */\n    tag_74:\n        /* \"#utility.yul\":9626:9630   */\n      0x00\n        /* \"#utility.yul\":9646:9666   */\n      tag_364\n        /* \"#utility.yul\":9664:9665   */\n      dup3\n        /* \"#utility.yul\":9646:9666   */\n      tag_242\n      jump\t// in\n    tag_364:\n        /* \"#utility.yul\":9641:9666   */\n      swap2\n      pop\n        /* \"#utility.yul\":9680:9700   */\n      tag_365\n        /* \"#utility.yul\":9698:9699   */\n      dup4\n        /* \"#utility.yul\":9680:9700   */\n      tag_242\n      jump\t// in\n    tag_365:\n        /* \"#utility.yul\":9675:9700   */\n      swap3\n      pop\n        /* \"#utility.yul\":9724:9725   */\n      dup3\n        /* \"#utility.yul\":9721:9722   */\n      dup3\n        /* \"#utility.yul\":9717:9726   */\n      sub\n        /* \"#utility.yul\":9709:9726   */\n      swap1\n      pop\n        /* \"#utility.yul\":9748:9749   */\n      dup2\n        /* \"#utility.yul\":9742:9746   */\n      dup2\n        /* \"#utility.yul\":9739:9750   */\n      gt\n        /* \"#utility.yul\":9736:9773   */\n      iszero\n      tag_366\n      jumpi\n        /* \"#utility.yul\":9753:9771   */\n      tag_367\n      tag_255\n      jump\t// in\n    tag_367:\n        /* \"#utility.yul\":9736:9773   */\n    tag_366:\n        /* \"#utility.yul\":9586:9780   */\n      swap3\n      swap2\n      pop\n      pop\n      jump\t// out\n        /* \"#utility.yul\":9786:10118   */\n    tag_77:\n        /* \"#utility.yul\":9907:9911   */\n      0x00\n        /* \"#utility.yul\":9945:9947   */\n      0x40\n        /* \"#utility.yul\":9934:9943   */\n      dup3\n        /* \"#utility.yul\":9930:9948   */\n      add\n        /* \"#utility.yul\":9922:9948   */\n      swap1\n      pop\n        /* \"#utility.yul\":9958:10029   */\n      tag_369\n        /* \"#utility.yul\":10026:10027   */\n      0x00\n        /* \"#utility.yul\":10015:10024   */\n      dup4\n        /* \"#utility.yul\":10011:10028   */\n      add\n        /* \"#utility.yul\":10002:10008   */\n      dup6\n        /* \"#utility.yul\":9958:10029   */\n      tag_236\n      jump\t// in\n    tag_369:\n        /* \"#utility.yul\":10039:10111   */\n      tag_370\n        /* \"#utility.yul\":10107:10109   */\n      0x20\n        /* \"#utility.yul\":10096:10105   */\n      dup4\n        /* \"#utility.yul\":10092:10110   */\n      add\n        /* \"#utility.yul\":10083:10089   */\n      dup5\n        /* \"#utility.yul\":10039:10111   */\n      tag_245\n      jump\t// in\n    tag_370:\n        /* \"#utility.yul\":9786:10118   */\n      swap4\n      swap3\n      pop\n      pop\n      pop\n      jump\t// out\n        /* \"#utility.yul\":10124:10214   */\n    tag_256:\n        /* \"#utility.yul\":10158:10165   */\n      0x00\n        /* \"#utility.yul\":10201:10206   */\n      dup2\n        /* \"#utility.yul\":10194:10207   */\n      iszero\n        /* \"#utility.yul\":10187:10208   */\n      iszero\n        /* \"#utility.yul\":10176:10208   */\n      swap1\n      pop\n        /* \"#utility.yul\":10124:10214   */\n      swap2\n      swap1\n      pop\n      jump\t// out\n        /* \"#utility.yul\":10220:10336   */\n    tag_257:\n        /* \"#utility.yul\":10290:10311   */\n      tag_373\n        /* \"#utility.yul\":10305:10310   */\n      dup2\n        /* \"#utility.yul\":10290:10311   */\n      tag_256\n      jump\t// in\n    tag_373:\n        /* \"#utility.yul\":10283:10288   */\n      dup2\n        /* \"#utility.yul\":10280:10312   */\n      eq\n        /* \"#utility.yul\":10270:10330   */\n      tag_374\n      jumpi\n        /* \"#utility.yul\":10326:10327   */\n      0x00\n        /* \"#utility.yul\":10323:10324   */\n      dup1\n        /* \"#utility.yul\":10316:10328   */\n      revert\n        /* \"#utility.yul\":10270:10330   */\n    tag_374:\n        /* \"#utility.yul\":10220:10336   */\n      pop\n      jump\t// out\n        /* \"#utility.yul\":10342:10479   */\n    tag_258:\n        /* \"#utility.yul\":10396:10401   */\n      0x00\n        /* \"#utility.yul\":10427:10433   */\n      dup2\n        /* \"#utility.yul\":10421:10434   */\n      mload\n        /* \"#utility.yul\":10412:10434   */\n      swap1\n      pop\n        /* \"#utility.yul\":10443:10473   */\n      tag_376\n        /* \"#utility.yul\":10467:10472   */\n      dup2\n        /* \"#utility.yul\":10443:10473   */\n      tag_257\n      jump\t// in\n    tag_376:\n        /* \"#utility.yul\":10342:10479   */\n      swap3\n      swap2\n      pop\n      pop\n      jump\t// out\n        /* \"#utility.yul\":10485:10830   */\n    tag_81:\n        /* \"#utility.yul\":10552:10558   */\n      0x00\n        /* \"#utility.yul\":10601:10603   */\n      0x20\n        /* \"#utility.yul\":10589:10598   */\n      dup3\n        /* \"#utility.yul\":10580:10587   */\n      dup5\n        /* \"#utility.yul\":10576:10599   */\n      sub\n        /* \"#utility.yul\":10572:10604   */\n      slt\n        /* \"#utility.yul\":10569:10688   */\n      iszero\n      tag_378\n      jumpi\n        /* \"#utility.yul\":10607:10686   */\n      tag_379\n      tag_238\n      jump\t// in\n    tag_379:\n        /* \"#utility.yul\":10569:10688   */\n    tag_378:\n        /* \"#utility.yul\":10727:10728   */\n      0x00\n        /* \"#utility.yul\":10752:10813   */\n      tag_380\n        /* \"#utility.yul\":10805:10812   */\n      dup5\n        /* \"#utility.yul\":10796:10802   */\n      dup3\n        /* \"#utility.yul\":10785:10794   */\n      dup6\n        /* \"#utility.yul\":10781:10803   */\n      add\n        /* \"#utility.yul\":10752:10813   */\n      tag_258\n      jump\t// in\n    tag_380:\n        /* \"#utility.yul\":10742:10813   */\n      swap2\n      pop\n        /* \"#utility.yul\":10698:10823   */\n      pop\n        /* \"#utility.yul\":10485:10830   */\n      swap3\n      swap2\n      pop\n      pop\n      jump\t// out\n        /* \"#utility.yul\":10836:11168   */\n    tag_87:\n        /* \"#utility.yul\":10957:10961   */\n      0x00\n        /* \"#utility.yul\":10995:10997   */\n      0x40\n        /* \"#utility.yul\":10984:10993   */\n      dup3\n        /* \"#utility.yul\":10980:10998   */\n      add\n        /* \"#utility.yul\":10972:10998   */\n      swap1\n      pop\n        /* \"#utility.yul\":11008:11079   */\n      tag_382\n        /* \"#utility.yul\":11076:11077   */\n      0x00\n        /* \"#utility.yul\":11065:11074   */\n      dup4\n        /* \"#utility.yul\":11061:11078   */\n      add\n        /* \"#utility.yul\":11052:11058   */\n      dup6\n        /* \"#utility.yul\":11008:11079   */\n      tag_245\n      jump\t// in\n    tag_382:\n        /* \"#utility.yul\":11089:11161   */\n      tag_383\n        /* \"#utility.yul\":11157:11159   */\n      0x20\n        /* \"#utility.yul\":11146:11155   */\n      dup4\n        /* \"#utility.yul\":11142:11160   */\n      add\n        /* \"#utility.yul\":11133:11139   */\n      dup5\n        /* \"#utility.yul\":11089:11161   */\n      tag_245\n      jump\t// in\n    tag_383:\n        /* \"#utility.yul\":10836:11168   */\n      swap4\n      swap3\n      pop\n      pop\n      pop\n      jump\t// out\n        /* \"#utility.yul\":11174:11343   */\n    tag_259:\n        /* \"#utility.yul\":11314:11335   */\n      0x5061697220646f6573206e6f7420657869737400000000000000000000000000\n        /* \"#utility.yul\":11310:11311   */\n      0x00\n        /* \"#utility.yul\":11302:11308   */\n      dup3\n        /* \"#utility.yul\":11298:11312   */\n      add\n        /* \"#utility.yul\":11291:11336   */\n      mstore\n        /* \"#utility.yul\":11174:11343   */\n      pop\n      jump\t// out\n        /* \"#utility.yul\":11349:11715   */\n    tag_260:\n        /* \"#utility.yul\":11491:11494   */\n      0x00\n        /* \"#utility.yul\":11512:11579   */\n      tag_386\n        /* \"#utility.yul\":11576:11578   */\n      0x13\n        /* \"#utility.yul\":11571:11574   */\n      dup4\n        /* \"#utility.yul\":11512:11579   */\n      tag_246\n      jump\t// in\n    tag_386:\n        /* \"#utility.yul\":11505:11579   */\n      swap2\n      pop\n        /* \"#utility.yul\":11588:11681   */\n      tag_387\n        /* \"#utility.yul\":11677:11680   */\n      dup3\n        /* \"#utility.yul\":11588:11681   */\n      tag_259\n      jump\t// in\n    tag_387:\n        /* \"#utility.yul\":11706:11708   */\n      0x20\n        /* \"#utility.yul\":11701:11704   */\n      dup3\n        /* \"#utility.yul\":11697:11709   */\n      add\n        /* \"#utility.yul\":11690:11709   */\n      swap1\n      pop\n        /* \"#utility.yul\":11349:11715   */\n      swap2\n      swap1\n      pop\n      jump\t// out\n        /* \"#utility.yul\":11721:12140   */\n    tag_97:\n        /* \"#utility.yul\":11887:11891   */\n      0x00\n        /* \"#utility.yul\":11925:11927   */\n      0x20\n        /* \"#utility.yul\":11914:11923   */\n      dup3\n        /* \"#utility.yul\":11910:11928   */\n      add\n        /* \"#utility.yul\":11902:11928   */\n      swap1\n      pop\n        /* \"#utility.yul\":11974:11983   */\n      dup2\n        /* \"#utility.yul\":11968:11972   */\n      dup2\n        /* \"#utility.yul\":11964:11984   */\n      sub\n        /* \"#utility.yul\":11960:11961   */\n      0x00\n        /* \"#utility.yul\":11949:11958   */\n      dup4\n        /* \"#utility.yul\":11945:11962   */\n      add\n        /* \"#utility.yul\":11938:11985   */\n      mstore\n        /* \"#utility.yul\":12002:12133   */\n      tag_389\n        /* \"#utility.yul\":12128:12132   */\n      dup2\n        /* \"#utility.yul\":12002:12133   */\n      tag_260\n      jump\t// in\n    tag_389:\n        /* \"#utility.yul\":11994:12133   */\n      swap1\n      pop\n        /* \"#utility.yul\":11721:12140   */\n      swap2\n      swap1\n      pop\n      jump\t// out\n        /* \"#utility.yul\":12146:12326   */\n    tag_103:\n        /* \"#utility.yul\":12194:12271   */\n      0x4e487b7100000000000000000000000000000000000000000000000000000000\n        /* \"#utility.yul\":12191:12192   */\n      0x00\n        /* \"#utility.yul\":12184:12272   */\n      mstore\n        /* \"#utility.yul\":12291:12295   */\n      0x32\n        /* \"#utility.yul\":12288:12289   */\n      0x04\n        /* \"#utility.yul\":12281:12296   */\n      mstore\n        /* \"#utility.yul\":12315:12319   */\n      0x24\n        /* \"#utility.yul\":12312:12313   */\n      0x00\n        /* \"#utility.yul\":12305:12320   */\n      revert\n        /* \"#utility.yul\":12332:12512   */\n    tag_119:\n        /* \"#utility.yul\":12380:12457   */\n      0x4e487b7100000000000000000000000000000000000000000000000000000000\n        /* \"#utility.yul\":12377:12378   */\n      0x00\n        /* \"#utility.yul\":12370:12458   */\n      mstore\n        /* \"#utility.yul\":12477:12481   */\n      0x31\n        /* \"#utility.yul\":12474:12475   */\n      0x04\n        /* \"#utility.yul\":12467:12482   */\n      mstore\n        /* \"#utility.yul\":12501:12505   */\n      0x24\n        /* \"#utility.yul\":12498:12499   */\n      0x00\n        /* \"#utility.yul\":12491:12506   */\n      revert\n        /* \"#utility.yul\":12518:12689   */\n    tag_261:\n        /* \"#utility.yul\":12658:12681   */\n      0x496e76616c696420746f6b656e20616464726573730000000000000000000000\n        /* \"#utility.yul\":12654:12655   */\n      0x00\n        /* \"#utility.yul\":12646:12652   */\n      dup3\n        /* \"#utility.yul\":12642:12656   */\n      add\n        /* \"#utility.yul\":12635:12682   */\n      mstore\n        /* \"#utility.yul\":12518:12689   */\n      pop\n      jump\t// out\n        /* \"#utility.yul\":12695:13061   */\n    tag_262:\n        /* \"#utility.yul\":12837:12840   */\n      0x00\n        /* \"#utility.yul\":12858:12925   */\n      tag_394\n        /* \"#utility.yul\":12922:12924   */\n      0x15\n        /* \"#utility.yul\":12917:12920   */\n      dup4\n        /* \"#utility.yul\":12858:12925   */\n      tag_246\n      jump\t// in\n    tag_394:\n        /* \"#utility.yul\":12851:12925   */\n      swap2\n      pop\n        /* \"#utility.yul\":12934:13027   */\n      tag_395\n        /* \"#utility.yul\":13023:13026   */\n      dup3\n        /* \"#utility.yul\":12934:13027   */\n      tag_261\n      jump\t// in\n    tag_395:\n        /* \"#utility.yul\":13052:13054   */\n      0x20\n        /* \"#utility.yul\":13047:13050   */\n      dup3\n        /* \"#utility.yul\":13043:13055   */\n      add\n        /* \"#utility.yul\":13036:13055   */\n      swap1\n      pop\n        /* \"#utility.yul\":12695:13061   */\n      swap2\n      swap1\n      pop\n      jump\t// out\n        /* \"#utility.yul\":13067:13486   */\n    tag_130:\n        /* \"#utility.yul\":13233:13237   */\n      0x00\n        /* \"#utility.yul\":13271:13273   */\n      0x20\n        /* \"#utility.yul\":13260:13269   */\n      dup3\n        /* \"#utility.yul\":13256:13274   */\n      add\n        /* \"#utility.yul\":13248:13274   */\n      swap1\n      pop\n        /* \"#utility.yul\":13320:13329   */\n      dup2\n        /* \"#utility.yul\":13314:13318   */\n      dup2\n        /* \"#utility.yul\":13310:13330   */\n      sub\n        /* \"#utility.yul\":13306:13307   */\n      0x00\n        /* \"#utility.yul\":13295:13304   */\n      dup4\n        /* \"#utility.yul\":13291:13308   */\n      add\n        /* \"#utility.yul\":13284:13331   */\n      mstore\n        /* \"#utility.yul\":13348:13479   */\n      tag_397\n        /* \"#utility.yul\":13474:13478   */\n      dup2\n        /* \"#utility.yul\":13348:13479   */\n      tag_262\n      jump\t// in\n    tag_397:\n        /* \"#utility.yul\":13340:13479   */\n      swap1\n      pop\n        /* \"#utility.yul\":13067:13486   */\n      swap2\n      swap1\n      pop\n      jump\t// out\n        /* \"#utility.yul\":13492:13661   */\n    tag_263:\n        /* \"#utility.yul\":13632:13653   */\n      0x5061697220616c72656164792065786973747300000000000000000000000000\n        /* \"#utility.yul\":13628:13629   */\n      0x00\n        /* \"#utility.yul\":13620:13626   */\n      dup3\n        /* \"#utility.yul\":13616:13630   */\n      add\n        /* \"#utility.yul\":13609:13654   */\n      mstore\n        /* \"#utility.yul\":13492:13661   */\n      pop\n      jump\t// out\n        /* \"#utility.yul\":13667:14033   */\n    tag_264:\n        /* \"#utility.yul\":13809:13812   */\n      0x00\n        /* \"#utility.yul\":13830:13897   */\n      tag_400\n        /* \"#utility.yul\":13894:13896   */\n      0x13\n        /* \"#utility.yul\":13889:13892   */\n      dup4\n        /* \"#utility.yul\":13830:13897   */\n      tag_246\n      jump\t// in\n    tag_400:\n        /* \"#utility.yul\":13823:13897   */\n      swap2\n      pop\n        /* \"#utility.yul\":13906:13999   */\n      tag_401\n        /* \"#utility.yul\":13995:13998   */\n      dup3\n        /* \"#utility.yul\":13906:13999   */\n      tag_263\n      jump\t// in\n    tag_401:\n        /* \"#utility.yul\":14024:14026   */\n      0x20\n        /* \"#utility.yul\":14019:14022   */\n      dup3\n        /* \"#utility.yul\":14015:14027   */\n      add\n        /* \"#utility.yul\":14008:14027   */\n      swap1\n      pop\n        /* \"#utility.yul\":13667:14033   */\n      swap2\n      swap1\n      pop\n      jump\t// out\n        /* \"#utility.yul\":14039:14458   */\n    tag_134:\n        /* \"#utility.yul\":14205:14209   */\n      0x00\n        /* \"#utility.yul\":14243:14245   */\n      0x20\n        /* \"#utility.yul\":14232:14241   */\n      dup3\n        /* \"#utility.yul\":14228:14246   */\n      add\n        /* \"#utility.yul\":14220:14246   */\n      swap1\n      pop\n        /* \"#utility.yul\":14292:14301   */\n      dup2\n        /* \"#utility.yul\":14286:14290   */\n      dup2\n        /* \"#utility.yul\":14282:14302   */\n      sub\n        /* \"#utility.yul\":14278:14279   */\n      0x00\n        /* \"#utility.yul\":14267:14276   */\n      dup4\n        /* \"#utility.yul\":14263:14280   */\n      add\n        /* \"#utility.yul\":14256:14303   */\n      mstore\n        /* \"#utility.yul\":14320:14451   */\n      tag_403\n        /* \"#utility.yul\":14446:14450   */\n      dup2\n        /* \"#utility.yul\":14320:14451   */\n      tag_264\n      jump\t// in\n    tag_403:\n        /* \"#utility.yul\":14312:14451   */\n      swap1\n      pop\n        /* \"#utility.yul\":14039:14458   */\n      swap2\n      swap1\n      pop\n      jump\t// out\n        /* \"#utility.yul\":14464:14684   */\n    tag_265:\n        /* \"#utility.yul\":14604:14638   */\n      0x416d6f756e7473206d7573742062652067726561746572207468616e207a6572\n        /* \"#utility.yul\":14600:14601   */\n      0x00\n        /* \"#utility.yul\":14592:14598   */\n      dup3\n        /* \"#utility.yul\":14588:14602   */\n      add\n        /* \"#utility.yul\":14581:14639   */\n      mstore\n        /* \"#utility.yul\":14673:14676   */\n      0x6f00000000000000000000000000000000000000000000000000000000000000\n        /* \"#utility.yul\":14668:14670   */\n      0x20\n        /* \"#utility.yul\":14660:14666   */\n      dup3\n        /* \"#utility.yul\":14656:14671   */\n      add\n        /* \"#utility.yul\":14649:14677   */\n      mstore\n        /* \"#utility.yul\":14464:14684   */\n      pop\n      jump\t// out\n        /* \"#utility.yul\":14690:15056   */\n    tag_266:\n        /* \"#utility.yul\":14832:14835   */\n      0x00\n        /* \"#utility.yul\":14853:14920   */\n      tag_406\n        /* \"#utility.yul\":14917:14919   */\n      0x21\n        /* \"#utility.yul\":14912:14915   */\n      dup4\n        /* \"#utility.yul\":14853:14920   */\n      tag_246\n      jump\t// in\n    tag_406:\n        /* \"#utility.yul\":14846:14920   */\n      swap2\n      pop\n        /* \"#utility.yul\":14929:15022   */\n      tag_407\n        /* \"#utility.yul\":15018:15021   */\n      dup3\n        /* \"#utility.yul\":14929:15022   */\n      tag_265\n      jump\t// in\n    tag_407:\n        /* \"#utility.yul\":15047:15049   */\n      0x40\n        /* \"#utility.yul\":15042:15045   */\n      dup3\n        /* \"#utility.yul\":15038:15050   */\n      add\n        /* \"#utility.yul\":15031:15050   */\n      swap1\n      pop\n        /* \"#utility.yul\":14690:15056   */\n      swap2\n      swap1\n      pop\n      jump\t// out\n        /* \"#utility.yul\":15062:15481   */\n    tag_146:\n        /* \"#utility.yul\":15228:15232   */\n      0x00\n        /* \"#utility.yul\":15266:15268   */\n      0x20\n        /* \"#utility.yul\":15255:15264   */\n      dup3\n        /* \"#utility.yul\":15251:15269   */\n      add\n        /* \"#utility.yul\":15243:15269   */\n      swap1\n      pop\n        /* \"#utility.yul\":15315:15324   */\n      dup2\n        /* \"#utility.yul\":15309:15313   */\n      dup2\n        /* \"#utility.yul\":15305:15325   */\n      sub\n        /* \"#utility.yul\":15301:15302   */\n      0x00\n        /* \"#utility.yul\":15290:15299   */\n      dup4\n        /* \"#utility.yul\":15286:15303   */\n      add\n        /* \"#utility.yul\":15279:15326   */\n      mstore\n        /* \"#utility.yul\":15343:15474   */\n      tag_409\n        /* \"#utility.yul\":15469:15473   */\n      dup2\n        /* \"#utility.yul\":15343:15474   */\n      tag_266\n      jump\t// in\n    tag_409:\n        /* \"#utility.yul\":15335:15474   */\n      swap1\n      pop\n        /* \"#utility.yul\":15062:15481   */\n      swap2\n      swap1\n      pop\n      jump\t// out\n        /* \"#utility.yul\":15487:15929   */\n    tag_151:\n        /* \"#utility.yul\":15636:15640   */\n      0x00\n        /* \"#utility.yul\":15674:15676   */\n      0x60\n        /* \"#utility.yul\":15663:15672   */\n      dup3\n        /* \"#utility.yul\":15659:15677   */\n      add\n        /* \"#utility.yul\":15651:15677   */\n      swap1\n      pop\n        /* \"#utility.yul\":15687:15758   */\n      tag_411\n        /* \"#utility.yul\":15755:15756   */\n      0x00\n        /* \"#utility.yul\":15744:15753   */\n      dup4\n        /* \"#utility.yul\":15740:15757   */\n      add\n        /* \"#utility.yul\":15731:15737   */\n      dup7\n        /* \"#utility.yul\":15687:15758   */\n      tag_236\n      jump\t// in\n    tag_411:\n        /* \"#utility.yul\":15768:15840   */\n      tag_412\n        /* \"#utility.yul\":15836:15838   */\n      0x20\n        /* \"#utility.yul\":15825:15834   */\n      dup4\n        /* \"#utility.yul\":15821:15839   */\n      add\n        /* \"#utility.yul\":15812:15818   */\n      dup6\n        /* \"#utility.yul\":15768:15840   */\n      tag_236\n      jump\t// in\n    tag_412:\n        /* \"#utility.yul\":15850:15922   */\n      tag_413\n        /* \"#utility.yul\":15918:15920   */\n      0x40\n        /* \"#utility.yul\":15907:15916   */\n      dup4\n        /* \"#utility.yul\":15903:15921   */\n      add\n        /* \"#utility.yul\":15894:15900   */\n      dup5\n        /* \"#utility.yul\":15850:15922   */\n      tag_245\n      jump\t// in\n    tag_413:\n        /* \"#utility.yul\":15487:15929   */\n      swap5\n      swap4\n      pop\n      pop\n      pop\n      pop\n      jump\t// out\n        /* \"#utility.yul\":15935:16126   */\n    tag_160:\n        /* \"#utility.yul\":15975:15978   */\n      0x00\n        /* \"#utility.yul\":15994:16014   */\n      tag_415\n        /* \"#utility.yul\":16012:16013   */\n      dup3\n        /* \"#utility.yul\":15994:16014   */\n      tag_242\n      jump\t// in\n    tag_415:\n        /* \"#utility.yul\":15989:16014   */\n      swap2\n      pop\n        /* \"#utility.yul\":16028:16048   */\n      tag_416\n        /* \"#utility.yul\":16046:16047   */\n      dup4\n        /* \"#utility.yul\":16028:16048   */\n      tag_242\n      jump\t// in\n    tag_416:\n        /* \"#utility.yul\":16023:16048   */\n      swap3\n      pop\n        /* \"#utility.yul\":16071:16072   */\n      dup3\n        /* \"#utility.yul\":16068:16069   */\n      dup3\n        /* \"#utility.yul\":16064:16073   */\n      add\n        /* \"#utility.yul\":16057:16073   */\n      swap1\n      pop\n        /* \"#utility.yul\":16092:16095   */\n      dup1\n        /* \"#utility.yul\":16089:16090   */\n      dup3\n        /* \"#utility.yul\":16086:16096   */\n      gt\n        /* \"#utility.yul\":16083:16119   */\n      iszero\n      tag_417\n      jumpi\n        /* \"#utility.yul\":16099:16117   */\n      tag_418\n      tag_255\n      jump\t// in\n    tag_418:\n        /* \"#utility.yul\":16083:16119   */\n    tag_417:\n        /* \"#utility.yul\":15935:16126   */\n      swap3\n      swap2\n      pop\n      pop\n      jump\t// out\n        /* \"#utility.yul\":16132:16354   */\n    tag_267:\n        /* \"#utility.yul\":16272:16306   */\n      0x416d6f756e7420696e206d7573742062652067726561746572207468616e207a\n        /* \"#utility.yul\":16268:16269   */\n      0x00\n        /* \"#utility.yul\":16260:16266   */\n      dup3\n        /* \"#utility.yul\":16256:16270   */\n      add\n        /* \"#utility.yul\":16249:16307   */\n      mstore\n        /* \"#utility.yul\":16341:16346   */\n      0x65726f0000000000000000000000000000000000000000000000000000000000\n        /* \"#utility.yul\":16336:16338   */\n      0x20\n        /* \"#utility.yul\":16328:16334   */\n      dup3\n        /* \"#utility.yul\":16324:16339   */\n      add\n        /* \"#utility.yul\":16317:16347   */\n      mstore\n        /* \"#utility.yul\":16132:16354   */\n      pop\n      jump\t// out\n        /* \"#utility.yul\":16360:16726   */\n    tag_268:\n        /* \"#utility.yul\":16502:16505   */\n      0x00\n        /* \"#utility.yul\":16523:16590   */\n      tag_421\n        /* \"#utility.yul\":16587:16589   */\n      0x23\n        /* \"#utility.yul\":16582:16585   */\n      dup4\n        /* \"#utility.yul\":16523:16590   */\n      tag_246\n      jump\t// in\n    tag_421:\n        /* \"#utility.yul\":16516:16590   */\n      swap2\n      pop\n        /* \"#utility.yul\":16599:16692   */\n      tag_422\n        /* \"#utility.yul\":16688:16691   */\n      dup3\n        /* \"#utility.yul\":16599:16692   */\n      tag_267\n      jump\t// in\n    tag_422:\n        /* \"#utility.yul\":16717:16719   */\n      0x40\n        /* \"#utility.yul\":16712:16715   */\n      dup3\n        /* \"#utility.yul\":16708:16720   */\n      add\n        /* \"#utility.yul\":16701:16720   */\n      swap1\n      pop\n        /* \"#utility.yul\":16360:16726   */\n      swap2\n      swap1\n      pop\n      jump\t// out\n        /* \"#utility.yul\":16732:17151   */\n    tag_169:\n        /* \"#utility.yul\":16898:16902   */\n      0x00\n        /* \"#utility.yul\":16936:16938   */\n      0x20\n        /* \"#utility.yul\":16925:16934   */\n      dup3\n        /* \"#utility.yul\":16921:16939   */\n      add\n        /* \"#utility.yul\":16913:16939   */\n      swap1\n      pop\n        /* \"#utility.yul\":16985:16994   */\n      dup2\n        /* \"#utility.yul\":16979:16983   */\n      dup2\n        /* \"#utility.yul\":16975:16995   */\n      sub\n        /* \"#utility.yul\":16971:16972   */\n      0x00\n        /* \"#utility.yul\":16960:16969   */\n      dup4\n        /* \"#utility.yul\":16956:16973   */\n      add\n        /* \"#utility.yul\":16949:16996   */\n      mstore\n        /* \"#utility.yul\":17013:17144   */\n      tag_424\n        /* \"#utility.yul\":17139:17143   */\n      dup2\n        /* \"#utility.yul\":17013:17144   */\n      tag_268\n      jump\t// in\n    tag_424:\n        /* \"#utility.yul\":17005:17144   */\n      swap1\n      pop\n        /* \"#utility.yul\":16732:17151   */\n      swap2\n      swap1\n      pop\n      jump\t// out\n        /* \"#utility.yul\":17157:17321   */\n    tag_269:\n        /* \"#utility.yul\":17297:17313   */\n      0x456d707479207265736572766573000000000000000000000000000000000000\n        /* \"#utility.yul\":17293:17294   */\n      0x00\n        /* \"#utility.yul\":17285:17291   */\n      dup3\n        /* \"#utility.yul\":17281:17295   */\n      add\n        /* \"#utility.yul\":17274:17314   */\n      mstore\n        /* \"#utility.yul\":17157:17321   */\n      pop\n      jump\t// out\n        /* \"#utility.yul\":17327:17693   */\n    tag_270:\n        /* \"#utility.yul\":17469:17472   */\n      0x00\n        /* \"#utility.yul\":17490:17557   */\n      tag_427\n        /* \"#utility.yul\":17554:17556   */\n      0x0e\n        /* \"#utility.yul\":17549:17552   */\n      dup4\n        /* \"#utility.yul\":17490:17557   */\n      tag_246\n      jump\t// in\n    tag_427:\n        /* \"#utility.yul\":17483:17557   */\n      swap2\n      pop\n        /* \"#utility.yul\":17566:17659   */\n      tag_428\n        /* \"#utility.yul\":17655:17658   */\n      dup3\n        /* \"#utility.yul\":17566:17659   */\n      tag_269\n      jump\t// in\n    tag_428:\n        /* \"#utility.yul\":17684:17686   */\n      0x20\n        /* \"#utility.yul\":17679:17682   */\n      dup3\n        /* \"#utility.yul\":17675:17687   */\n      add\n        /* \"#utility.yul\":17668:17687   */\n      swap1\n      pop\n        /* \"#utility.yul\":17327:17693   */\n      swap2\n      swap1\n      pop\n      jump\t// out\n        /* \"#utility.yul\":17699:18118   */\n    tag_184:\n        /* \"#utility.yul\":17865:17869   */\n      0x00\n        /* \"#utility.yul\":17903:17905   */\n      0x20\n        /* \"#utility.yul\":17892:17901   */\n      dup3\n        /* \"#utility.yul\":17888:17906   */\n      add\n        /* \"#utility.yul\":17880:17906   */\n      swap1\n      pop\n        /* \"#utility.yul\":17952:17961   */\n      dup2\n        /* \"#utility.yul\":17946:17950   */\n      dup2\n        /* \"#utility.yul\":17942:17962   */\n      sub\n        /* \"#utility.yul\":17938:17939   */\n      0x00\n        /* \"#utility.yul\":17927:17936   */\n      dup4\n        /* \"#utility.yul\":17923:17940   */\n      add\n        /* \"#utility.yul\":17916:17963   */\n      mstore\n        /* \"#utility.yul\":17980:18111   */\n      tag_430\n        /* \"#utility.yul\":18106:18110   */\n      dup2\n        /* \"#utility.yul\":17980:18111   */\n      tag_270\n      jump\t// in\n    tag_430:\n        /* \"#utility.yul\":17972:18111   */\n      swap1\n      pop\n        /* \"#utility.yul\":17699:18118   */\n      swap2\n      swap1\n      pop\n      jump\t// out\n        /* \"#utility.yul\":18124:18534   */\n    tag_186:\n        /* \"#utility.yul\":18164:18171   */\n      0x00\n        /* \"#utility.yul\":18187:18207   */\n      tag_432\n        /* \"#utility.yul\":18205:18206   */\n      dup3\n        /* \"#utility.yul\":18187:18207   */\n      tag_242\n      jump\t// in\n    tag_432:\n        /* \"#utility.yul\":18182:18207   */\n      swap2\n      pop\n        /* \"#utility.yul\":18221:18241   */\n      tag_433\n        /* \"#utility.yul\":18239:18240   */\n      dup4\n        /* \"#utility.yul\":18221:18241   */\n      tag_242\n      jump\t// in\n    tag_433:\n        /* \"#utility.yul\":18216:18241   */\n      swap3\n      pop\n        /* \"#utility.yul\":18276:18277   */\n      dup3\n        /* \"#utility.yul\":18273:18274   */\n      dup3\n        /* \"#utility.yul\":18269:18278   */\n      mul\n        /* \"#utility.yul\":18298:18328   */\n      tag_434\n        /* \"#utility.yul\":18316:18327   */\n      dup2\n        /* \"#utility.yul\":18298:18328   */\n      tag_242\n      jump\t// in\n    tag_434:\n        /* \"#utility.yul\":18287:18328   */\n      swap2\n      pop\n        /* \"#utility.yul\":18477:18478   */\n      dup3\n        /* \"#utility.yul\":18468:18475   */\n      dup3\n        /* \"#utility.yul\":18464:18479   */\n      div\n        /* \"#utility.yul\":18461:18462   */\n      dup5\n        /* \"#utility.yul\":18458:18480   */\n      eq\n        /* \"#utility.yul\":18438:18439   */\n      dup4\n        /* \"#utility.yul\":18431:18440   */\n      iszero\n        /* \"#utility.yul\":18411:18494   */\n      or\n        /* \"#utility.yul\":18388:18527   */\n      tag_435\n      jumpi\n        /* \"#utility.yul\":18507:18525   */\n      tag_436\n      tag_255\n      jump\t// in\n    tag_436:\n        /* \"#utility.yul\":18388:18527   */\n    tag_435:\n        /* \"#utility.yul\":18172:18534   */\n      pop\n        /* \"#utility.yul\":18124:18534   */\n      swap3\n      swap2\n      pop\n      pop\n      jump\t// out\n        /* \"#utility.yul\":18540:18720   */\n    tag_271:\n        /* \"#utility.yul\":18588:18665   */\n      0x4e487b7100000000000000000000000000000000000000000000000000000000\n        /* \"#utility.yul\":18585:18586   */\n      0x00\n        /* \"#utility.yul\":18578:18666   */\n      mstore\n        /* \"#utility.yul\":18685:18689   */\n      0x12\n        /* \"#utility.yul\":18682:18683   */\n      0x04\n        /* \"#utility.yul\":18675:18690   */\n      mstore\n        /* \"#utility.yul\":18709:18713   */\n      0x24\n        /* \"#utility.yul\":18706:18707   */\n      0x00\n        /* \"#utility.yul\":18699:18714   */\n      revert\n        /* \"#utility.yul\":18726:18911   */\n    tag_188:\n        /* \"#utility.yul\":18766:18767   */\n      0x00\n        /* \"#utility.yul\":18783:18803   */\n      tag_439\n        /* \"#utility.yul\":18801:18802   */\n      dup3\n        /* \"#utility.yul\":18783:18803   */\n      tag_242\n      jump\t// in\n    tag_439:\n        /* \"#utility.yul\":18778:18803   */\n      swap2\n      pop\n        /* \"#utility.yul\":18817:18837   */\n      tag_440\n        /* \"#utility.yul\":18835:18836   */\n      dup4\n        /* \"#utility.yul\":18817:18837   */\n      tag_242\n      jump\t// in\n    tag_440:\n        /* \"#utility.yul\":18812:18837   */\n      swap3\n      pop\n        /* \"#utility.yul\":18856:18857   */\n      dup3\n        /* \"#utility.yul\":18846:18881   */\n      tag_441\n      jumpi\n        /* \"#utility.yul\":18861:18879   */\n      tag_442\n      tag_271\n      jump\t// in\n    tag_442:\n        /* \"#utility.yul\":18846:18881   */\n    tag_441:\n        /* \"#utility.yul\":18903:18904   */\n      dup3\n        /* \"#utility.yul\":18900:18901   */\n      dup3\n        /* \"#utility.yul\":18896:18905   */\n      div\n        /* \"#utility.yul\":18891:18905   */\n      swap1\n      pop\n        /* \"#utility.yul\":18726:18911   */\n      swap3\n      swap2\n      pop\n      pop\n      jump\t// out\n        /* \"#utility.yul\":18917:19091   */\n    tag_272:\n        /* \"#utility.yul\":19057:19083   */\n      0x45666665637469766520616d6f756e7420746f6f206c6f770000000000000000\n        /* \"#utility.yul\":19053:19054   */\n      0x00\n        /* \"#utility.yul\":19045:19051   */\n      dup3\n        /* \"#utility.yul\":19041:19055   */\n      add\n        /* \"#utility.yul\":19034:19084   */\n      mstore\n        /* \"#utility.yul\":18917:19091   */\n      pop\n      jump\t// out\n        /* \"#utility.yul\":19097:19463   */\n    tag_273:\n        /* \"#utility.yul\":19239:19242   */\n      0x00\n        /* \"#utility.yul\":19260:19327   */\n      tag_445\n        /* \"#utility.yul\":19324:19326   */\n      0x18\n        /* \"#utility.yul\":19319:19322   */\n      dup4\n        /* \"#utility.yul\":19260:19327   */\n      tag_246\n      jump\t// in\n    tag_445:\n        /* \"#utility.yul\":19253:19327   */\n      swap2\n      pop\n        /* \"#utility.yul\":19336:19429   */\n      tag_446\n        /* \"#utility.yul\":19425:19428   */\n      dup3\n        /* \"#utility.yul\":19336:19429   */\n      tag_272\n      jump\t// in\n    tag_446:\n        /* \"#utility.yul\":19454:19456   */\n      0x20\n        /* \"#utility.yul\":19449:19452   */\n      dup3\n        /* \"#utility.yul\":19445:19457   */\n      add\n        /* \"#utility.yul\":19438:19457   */\n      swap1\n      pop\n        /* \"#utility.yul\":19097:19463   */\n      swap2\n      swap1\n      pop\n      jump\t// out\n        /* \"#utility.yul\":19469:19888   */\n    tag_195:\n        /* \"#utility.yul\":19635:19639   */\n      0x00\n        /* \"#utility.yul\":19673:19675   */\n      0x20\n        /* \"#utility.yul\":19662:19671   */\n      dup3\n        /* \"#utility.yul\":19658:19676   */\n      add\n        /* \"#utility.yul\":19650:19676   */\n      swap1\n      pop\n        /* \"#utility.yul\":19722:19731   */\n      dup2\n        /* \"#utility.yul\":19716:19720   */\n      dup2\n        /* \"#utility.yul\":19712:19732   */\n      sub\n        /* \"#utility.yul\":19708:19709   */\n      0x00\n        /* \"#utility.yul\":19697:19706   */\n      dup4\n        /* \"#utility.yul\":19693:19710   */\n      add\n        /* \"#utility.yul\":19686:19733   */\n      mstore\n        /* \"#utility.yul\":19750:19881   */\n      tag_448\n        /* \"#utility.yul\":19876:19880   */\n      dup2\n        /* \"#utility.yul\":19750:19881   */\n      tag_273\n      jump\t// in\n    tag_448:\n        /* \"#utility.yul\":19742:19881   */\n      swap1\n      pop\n        /* \"#utility.yul\":19469:19888   */\n      swap2\n      swap1\n      pop\n      jump\t// out\n        /* \"#utility.yul\":19894:20067   */\n    tag_274:\n        /* \"#utility.yul\":20034:20059   */\n      0x536c697070616765206c696d6974206578636565646564000000000000000000\n        /* \"#utility.yul\":20030:20031   */\n      0x00\n        /* \"#utility.yul\":20022:20028   */\n      dup3\n        /* \"#utility.yul\":20018:20032   */\n      add\n        /* \"#utility.yul\":20011:20060   */\n      mstore\n        /* \"#utility.yul\":19894:20067   */\n      pop\n      jump\t// out\n        /* \"#utility.yul\":20073:20439   */\n    tag_275:\n        /* \"#utility.yul\":20215:20218   */\n      0x00\n        /* \"#utility.yul\":20236:20303   */\n      tag_451\n        /* \"#utility.yul\":20300:20302   */\n      0x17\n        /* \"#utility.yul\":20295:20298   */\n      dup4\n        /* \"#utility.yul\":20236:20303   */\n      tag_246\n      jump\t// in\n    tag_451:\n        /* \"#utility.yul\":20229:20303   */\n      swap2\n      pop\n        /* \"#utility.yul\":20312:20405   */\n      tag_452\n        /* \"#utility.yul\":20401:20404   */\n      dup3\n        /* \"#utility.yul\":20312:20405   */\n      tag_274\n      jump\t// in\n    tag_452:\n        /* \"#utility.yul\":20430:20432   */\n      0x20\n        /* \"#utility.yul\":20425:20428   */\n      dup3\n        /* \"#utility.yul\":20421:20433   */\n      add\n        /* \"#utility.yul\":20414:20433   */\n      swap1\n      pop\n        /* \"#utility.yul\":20073:20439   */\n      swap2\n      swap1\n      pop\n      jump\t// out\n        /* \"#utility.yul\":20445:20864   */\n    tag_202:\n        /* \"#utility.yul\":20611:20615   */\n      0x00\n        /* \"#utility.yul\":20649:20651   */\n      0x20\n        /* \"#utility.yul\":20638:20647   */\n      dup3\n        /* \"#utility.yul\":20634:20652   */\n      add\n        /* \"#utility.yul\":20626:20652   */\n      swap1\n      pop\n        /* \"#utility.yul\":20698:20707   */\n      dup2\n        /* \"#utility.yul\":20692:20696   */\n      dup2\n        /* \"#utility.yul\":20688:20708   */\n      sub\n        /* \"#utility.yul\":20684:20685   */\n      0x00\n        /* \"#utility.yul\":20673:20682   */\n      dup4\n        /* \"#utility.yul\":20669:20686   */\n      add\n        /* \"#utility.yul\":20662:20709   */\n      mstore\n        /* \"#utility.yul\":20726:20857   */\n      tag_454\n        /* \"#utility.yul\":20852:20856   */\n      dup2\n        /* \"#utility.yul\":20726:20857   */\n      tag_275\n      jump\t// in\n    tag_454:\n        /* \"#utility.yul\":20718:20857   */\n      swap1\n      pop\n        /* \"#utility.yul\":20445:20864   */\n      swap2\n      swap1\n      pop\n      jump\t// out\n        /* \"#utility.yul\":20870:21042   */\n    tag_276:\n        /* \"#utility.yul\":21010:21034   */\n      0x496e73756666696369656e74206c697175696469747900000000000000000000\n        /* \"#utility.yul\":21006:21007   */\n      0x00\n        /* \"#utility.yul\":20998:21004   */\n      dup3\n        /* \"#utility.yul\":20994:21008   */\n      add\n        /* \"#utility.yul\":20987:21035   */\n      mstore\n        /* \"#utility.yul\":20870:21042   */\n      pop\n      jump\t// out\n        /* \"#utility.yul\":21048:21414   */\n    tag_277:\n        /* \"#utility.yul\":21190:21193   */\n      0x00\n        /* \"#utility.yul\":21211:21278   */\n      tag_457\n        /* \"#utility.yul\":21275:21277   */\n      0x16\n        /* \"#utility.yul\":21270:21273   */\n      dup4\n        /* \"#utility.yul\":21211:21278   */\n      tag_246\n      jump\t// in\n    tag_457:\n        /* \"#utility.yul\":21204:21278   */\n      swap2\n      pop\n        /* \"#utility.yul\":21287:21380   */\n      tag_458\n        /* \"#utility.yul\":21376:21379   */\n      dup3\n        /* \"#utility.yul\":21287:21380   */\n      tag_276\n      jump\t// in\n    tag_458:\n        /* \"#utility.yul\":21405:21407   */\n      0x20\n        /* \"#utility.yul\":21400:21403   */\n      dup3\n        /* \"#utility.yul\":21396:21408   */\n      add\n        /* \"#utility.yul\":21389:21408   */\n      swap1\n      pop\n        /* \"#utility.yul\":21048:21414   */\n      swap2\n      swap1\n      pop\n      jump\t// out\n        /* \"#utility.yul\":21420:21839   */\n    tag_205:\n        /* \"#utility.yul\":21586:21590   */\n      0x00\n        /* \"#utility.yul\":21624:21626   */\n      0x20\n        /* \"#utility.yul\":21613:21622   */\n      dup3\n        /* \"#utility.yul\":21609:21627   */\n      add\n        /* \"#utility.yul\":21601:21627   */\n      swap1\n      pop\n        /* \"#utility.yul\":21673:21682   */\n      dup2\n        /* \"#utility.yul\":21667:21671   */\n      dup2\n        /* \"#utility.yul\":21663:21683   */\n      sub\n        /* \"#utility.yul\":21659:21660   */\n      0x00\n        /* \"#utility.yul\":21648:21657   */\n      dup4\n        /* \"#utility.yul\":21644:21661   */\n      add\n        /* \"#utility.yul\":21637:21684   */\n      mstore\n        /* \"#utility.yul\":21701:21832   */\n      tag_460\n        /* \"#utility.yul\":21827:21831   */\n      dup2\n        /* \"#utility.yul\":21701:21832   */\n      tag_277\n      jump\t// in\n    tag_460:\n        /* \"#utility.yul\":21693:21832   */\n      swap1\n      pop\n        /* \"#utility.yul\":21420:21839   */\n      swap2\n      swap1\n      pop\n      jump\t// out\n        /* \"#utility.yul\":21845:22398   */\n    tag_227:\n        /* \"#utility.yul\":22022:22026   */\n      0x00\n        /* \"#utility.yul\":22060:22063   */\n      0x80\n        /* \"#utility.yul\":22049:22058   */\n      dup3\n        /* \"#utility.yul\":22045:22064   */\n      add\n        /* \"#utility.yul\":22037:22064   */\n      swap1\n      pop\n        /* \"#utility.yul\":22074:22145   */\n      tag_462\n        /* \"#utility.yul\":22142:22143   */\n      0x00\n        /* \"#utility.yul\":22131:22140   */\n      dup4\n        /* \"#utility.yul\":22127:22144   */\n      add\n        /* \"#utility.yul\":22118:22124   */\n      dup8\n        /* \"#utility.yul\":22074:22145   */\n      tag_236\n      jump\t// in\n    tag_462:\n        /* \"#utility.yul\":22155:22227   */\n      tag_463\n        /* \"#utility.yul\":22223:22225   */\n      0x20\n        /* \"#utility.yul\":22212:22221   */\n      dup4\n        /* \"#utility.yul\":22208:22226   */\n      add\n        /* \"#utility.yul\":22199:22205   */\n      dup7\n        /* \"#utility.yul\":22155:22227   */\n      tag_236\n      jump\t// in\n    tag_463:\n        /* \"#utility.yul\":22237:22309   */\n      tag_464\n        /* \"#utility.yul\":22305:22307   */\n      0x40\n        /* \"#utility.yul\":22294:22303   */\n      dup4\n        /* \"#utility.yul\":22290:22308   */\n      add\n        /* \"#utility.yul\":22281:22287   */\n      dup6\n        /* \"#utility.yul\":22237:22309   */\n      tag_245\n      jump\t// in\n    tag_464:\n        /* \"#utility.yul\":22319:22391   */\n      tag_465\n        /* \"#utility.yul\":22387:22389   */\n      0x60\n        /* \"#utility.yul\":22376:22385   */\n      dup4\n        /* \"#utility.yul\":22372:22390   */\n      add\n        /* \"#utility.yul\":22363:22369   */\n      dup5\n        /* \"#utility.yul\":22319:22391   */\n      tag_245\n      jump\t// in\n    tag_465:\n        /* \"#utility.yul\":21845:22398   */\n      swap6\n      swap5\n      pop\n      pop\n      pop\n      pop\n      pop\n      jump\t// out\n        /* \"#utility.yul\":22404:22585   */\n    tag_278:\n        /* \"#utility.yul\":22544:22577   */\n      0x5265656e7472616e637947756172643a207265656e7472616e742063616c6c00\n        /* \"#utility.yul\":22540:22541   */\n      0x00\n        /* \"#utility.yul\":22532:22538   */\n      dup3\n        /* \"#utility.yul\":22528:22542   */\n      add\n        /* \"#utility.yul\":22521:22578   */\n      mstore\n        /* \"#utility.yul\":22404:22585   */\n      pop\n      jump\t// out\n        /* \"#utility.yul\":22591:22957   */\n    tag_279:\n        /* \"#utility.yul\":22733:22736   */\n      0x00\n        /* \"#utility.yul\":22754:22821   */\n      tag_468\n        /* \"#utility.yul\":22818:22820   */\n      0x1f\n        /* \"#utility.yul\":22813:22816   */\n      dup4\n        /* \"#utility.yul\":22754:22821   */\n      tag_246\n      jump\t// in\n    tag_468:\n        /* \"#utility.yul\":22747:22821   */\n      swap2\n      pop\n        /* \"#utility.yul\":22830:22923   */\n      tag_469\n        /* \"#utility.yul\":22919:22922   */\n      dup3\n        /* \"#utility.yul\":22830:22923   */\n      tag_278\n      jump\t// in\n    tag_469:\n        /* \"#utility.yul\":22948:22950   */\n      0x20\n        /* \"#utility.yul\":22943:22946   */\n      dup3\n        /* \"#utility.yul\":22939:22951   */\n      add\n        /* \"#utility.yul\":22932:22951   */\n      swap1\n      pop\n        /* \"#utility.yul\":22591:22957   */\n      swap2\n      swap1\n      pop\n      jump\t// out\n        /* \"#utility.yul\":22963:23382   */\n    tag_232:\n        /* \"#utility.yul\":23129:23133   */\n      0x00\n        /* \"#utility.yul\":23167:23169   */\n      0x20\n        /* \"#utility.yul\":23156:23165   */\n      dup3\n        /* \"#utility.yul\":23152:23170   */\n      add\n        /* \"#utility.yul\":23144:23170   */\n      swap1\n      pop\n        /* \"#utility.yul\":23216:23225   */\n      dup2\n        /* \"#utility.yul\":23210:23214   */\n      dup2\n        /* \"#utility.yul\":23206:23226   */\n      sub\n        /* \"#utility.yul\":23202:23203   */\n      0x00\n        /* \"#utility.yul\":23191:23200   */\n      dup4\n        /* \"#utility.yul\":23187:23204   */\n      add\n        /* \"#utility.yul\":23180:23227   */\n      mstore\n        /* \"#utility.yul\":23244:23375   */\n      tag_471\n        /* \"#utility.yul\":23370:23374   */\n      dup2\n        /* \"#utility.yul\":23244:23375   */\n      tag_279\n      jump\t// in\n    tag_471:\n        /* \"#utility.yul\":23236:23375   */\n      swap1\n      pop\n        /* \"#utility.yul\":22963:23382   */\n      swap2\n      swap1\n      pop\n      jump\t// out\n\n    auxdata: 0xa264697066735822122020905840f6265f751f3b0423d4d480b4100b19e32e98000f274401bcc8d59e6464736f6c634300081a0033\n}\n",
				"bytecode": {
					"linkReferences": {},
					"object": "608060405234801561000f575f80fd5b50604051612c4b380380612c4b833981810160405281019061003191906101ff565b60015f819055505f73ffffffffffffffffffffffffffffffffffffffff168373ffffffffffffffffffffffffffffffffffffffff16141580156100a057505f73ffffffffffffffffffffffffffffffffffffffff168273ffffffffffffffffffffffffffffffffffffffff1614155b6100df576040517f08c379a00000000000000000000000000000000000000000000000000000000081526004016100d6906102a9565b60405180910390fd5b8260015f6101000a81548173ffffffffffffffffffffffffffffffffffffffff021916908373ffffffffffffffffffffffffffffffffffffffff1602179055508160025f6101000a81548173ffffffffffffffffffffffffffffffffffffffff021916908373ffffffffffffffffffffffffffffffffffffffff160217905550806003819055505050506102c7565b5f80fd5b5f73ffffffffffffffffffffffffffffffffffffffff82169050919050565b5f61019b82610172565b9050919050565b6101ab81610191565b81146101b5575f80fd5b50565b5f815190506101c6816101a2565b92915050565b5f819050919050565b6101de816101cc565b81146101e8575f80fd5b50565b5f815190506101f9816101d5565b92915050565b5f805f606084860312156102165761021561016e565b5b5f610223868287016101b8565b9350506020610234868287016101b8565b9250506040610245868287016101eb565b9150509250925092565b5f82825260208201905092915050565b7f496e76616c6964206164647265737300000000000000000000000000000000005f82015250565b5f610293600f8361024f565b915061029e8261025f565b602082019050919050565b5f6020820190508181035f8301526102c081610287565b9050919050565b612977806102d45f395ff3fe608060405234801561000f575f80fd5b506004361061009c575f3560e01c8063b5acfa6211610064578063b5acfa621461015b578063bd50a3d414610177578063ebaaa3a114610193578063fa2af9da146101b1578063fe029156146101cf5761009c565b806302d05d3f146100a057806327efb5a7146100be5780635861b227146100da57806369454b86146100f6578063ad8c56681461012a575b5f80fd5b6100a86101eb565b6040516100b59190611db5565b60405180910390f35b6100d860048036038101906100d39190611e2f565b610210565b005b6100f460048036038101906100ef9190611e93565b610620565b005b610110600480360381019061010b9190611e93565b610bce565b604051610121959493929190611ee0565b60405180910390f35b610144600480360381019061013f9190611f31565b610c49565b604051610152929190611f5c565b60405180910390f35b61017560048036038101906101709190611f83565b610cb6565b005b610191600480360381019061018c9190611e2f565b611207565b005b61019b6115e5565b6040516101a89190611fd3565b60405180910390f35b6101b96115eb565b6040516101c69190611db5565b60405180910390f35b6101e960048036038101906101e49190611e2f565b611610565b005b60015f9054906101000a900473ffffffffffffffffffffffffffffffffffffffff1681565b60015f9054906101000a900473ffffffffffffffffffffffffffffffffffffffff1673ffffffffffffffffffffffffffffffffffffffff163373ffffffffffffffffffffffffffffffffffffffff161461029f576040517f08c379a00000000000000000000000000000000000000000000000000000000081526004016102969061206c565b60405180910390fd5b6102a7611d20565b5f821180156102b557505f81115b6102f4576040517f08c379a00000000000000000000000000000000000000000000000000000000081526004016102eb906120fa565b60405180910390fd5b8273ffffffffffffffffffffffffffffffffffffffff168473ffffffffffffffffffffffffffffffffffffffff16111561033357828480945081955050505b5f60045f8673ffffffffffffffffffffffffffffffffffffffff1673ffffffffffffffffffffffffffffffffffffffff1681526020019081526020015f205f8573ffffffffffffffffffffffffffffffffffffffff1673ffffffffffffffffffffffffffffffffffffffff1681526020019081526020015f20905082816002015410156103f5576040517f08c379a00000000000000000000000000000000000000000000000000000000081526004016103ec90612188565b60405180910390fd5b818160030154101561043c576040517f08c379a000000000000000000000000000000000000000000000000000000000815260040161043390612216565b60405180910390fd5b82816002015f82825461044f9190612261565b9250508190555081816003015f8282546104699190612261565b925050819055508473ffffffffffffffffffffffffffffffffffffffff1663a9059cbb60015f9054906101000a900473ffffffffffffffffffffffffffffffffffffffff16856040518363ffffffff1660e01b81526004016104cc929190612294565b6020604051808303815f875af11580156104e8573d5f803e3d5ffd5b505050506040513d601f19601f8201168201806040525081019061050c91906122f0565b508373ffffffffffffffffffffffffffffffffffffffff1663a9059cbb60015f9054906101000a900473ffffffffffffffffffffffffffffffffffffffff16846040518363ffffffff1660e01b8152600401610569929190612294565b6020604051808303815f875af1158015610585573d5f803e3d5ffd5b505050506040513d601f19601f820116820180604052508101906105a991906122f0565b508373ffffffffffffffffffffffffffffffffffffffff168573ffffffffffffffffffffffffffffffffffffffff167fba0b893b2f314a229997e335266881b5ac6b290bd350d2c23cc57160b77882b8858560405161060992919061231b565b60405180910390a35061061a611d6d565b50505050565b60015f9054906101000a900473ffffffffffffffffffffffffffffffffffffffff1673ffffffffffffffffffffffffffffffffffffffff163373ffffffffffffffffffffffffffffffffffffffff16146106af576040517f08c379a00000000000000000000000000000000000000000000000000000000081526004016106a69061206c565b60405180910390fd5b8073ffffffffffffffffffffffffffffffffffffffff168273ffffffffffffffffffffffffffffffffffffffff1611156106ee57808280925081935050505b5f73ffffffffffffffffffffffffffffffffffffffff1660045f8473ffffffffffffffffffffffffffffffffffffffff1673ffffffffffffffffffffffffffffffffffffffff1681526020019081526020015f205f8373ffffffffffffffffffffffffffffffffffffffff1673ffffffffffffffffffffffffffffffffffffffff1681526020019081526020015f205f015f9054906101000a900473ffffffffffffffffffffffffffffffffffffffff1673ffffffffffffffffffffffffffffffffffffffff16036107f5576040517f08c379a00000000000000000000000000000000000000000000000000000000081526004016107ec9061238c565b60405180910390fd5b60045f8373ffffffffffffffffffffffffffffffffffffffff1673ffffffffffffffffffffffffffffffffffffffff1681526020019081526020015f205f8273ffffffffffffffffffffffffffffffffffffffff1673ffffffffffffffffffffffffffffffffffffffff1681526020019081526020015f205f8082015f6101000a81549073ffffffffffffffffffffffffffffffffffffffff0219169055600182015f6101000a81549073ffffffffffffffffffffffffffffffffffffffff0219169055600282015f9055600382015f9055600482015f905550505f60058054905090505f5b81811015610b6e578373ffffffffffffffffffffffffffffffffffffffff166005828154811061090e5761090d6123aa565b5b905f5260205f2090600202015f015f9054906101000a900473ffffffffffffffffffffffffffffffffffffffff1673ffffffffffffffffffffffffffffffffffffffff161480156109cc57508273ffffffffffffffffffffffffffffffffffffffff1660058281548110610985576109846123aa565b5b905f5260205f2090600202016001015f9054906101000a900473ffffffffffffffffffffffffffffffffffffffff1673ffffffffffffffffffffffffffffffffffffffff16145b15610b615760056001836109e09190612261565b815481106109f1576109f06123aa565b5b905f5260205f20906002020160058281548110610a1157610a106123aa565b5b905f5260205f2090600202015f82015f9054906101000a900473ffffffffffffffffffffffffffffffffffffffff16815f015f6101000a81548173ffffffffffffffffffffffffffffffffffffffff021916908373ffffffffffffffffffffffffffffffffffffffff160217905550600182015f9054906101000a900473ffffffffffffffffffffffffffffffffffffffff16816001015f6101000a81548173ffffffffffffffffffffffffffffffffffffffff021916908373ffffffffffffffffffffffffffffffffffffffff1602179055509050506005805480610afa57610af96123d7565b5b600190038181905f5260205f2090600202015f8082015f6101000a81549073ffffffffffffffffffffffffffffffffffffffff0219169055600182015f6101000a81549073ffffffffffffffffffffffffffffffffffffffff021916905550509055610b6e565b80806001019150506108db565b508173ffffffffffffffffffffffffffffffffffffffff168373ffffffffffffffffffffffffffffffffffffffff167fcfacf9d602eaae62e56c577b2340ef89b971ff33287fa964a1d17027e8ea2d4260405160405180910390a3505050565b6004602052815f5260405f20602052805f5260405f205f9150915050805f015f9054906101000a900473ffffffffffffffffffffffffffffffffffffffff1690806001015f9054906101000a900473ffffffffffffffffffffffffffffffffffffffff16908060020154908060030154908060040154905085565b60058181548110610c58575f80fd5b905f5260205f2090600202015f91509050805f015f9054906101000a900473ffffffffffffffffffffffffffffffffffffffff1690806001015f9054906101000a900473ffffffffffffffffffffffffffffffffffffffff16905082565b60015f9054906101000a900473ffffffffffffffffffffffffffffffffffffffff1673ffffffffffffffffffffffffffffffffffffffff163373ffffffffffffffffffffffffffffffffffffffff1614610d45576040517f08c379a0000000000000000000000000000000000000000000000000000000008152600401610d3c9061206c565b60405180910390fd5b5f73ffffffffffffffffffffffffffffffffffffffff168373ffffffffffffffffffffffffffffffffffffffff1614158015610dad57505f73ffffffffffffffffffffffffffffffffffffffff168273ffffffffffffffffffffffffffffffffffffffff1614155b610dec576040517f08c379a0000000000000000000000000000000000000000000000000000000008152600401610de39061244e565b60405180910390fd5b8173ffffffffffffffffffffffffffffffffffffffff168373ffffffffffffffffffffffffffffffffffffffff161115610e2b57818380935081945050505b5f73ffffffffffffffffffffffffffffffffffffffff1660045f8573ffffffffffffffffffffffffffffffffffffffff1673ffffffffffffffffffffffffffffffffffffffff1681526020019081526020015f205f8473ffffffffffffffffffffffffffffffffffffffff1673ffffffffffffffffffffffffffffffffffffffff1681526020019081526020015f205f015f9054906101000a900473ffffffffffffffffffffffffffffffffffffffff1673ffffffffffffffffffffffffffffffffffffffff1614610f32576040517f08c379a0000000000000000000000000000000000000000000000000000000008152600401610f29906124b6565b60405180910390fd5b6040518060a001604052808473ffffffffffffffffffffffffffffffffffffffff1681526020018373ffffffffffffffffffffffffffffffffffffffff1681526020015f81526020015f81526020018281525060045f8573ffffffffffffffffffffffffffffffffffffffff1673ffffffffffffffffffffffffffffffffffffffff1681526020019081526020015f205f8473ffffffffffffffffffffffffffffffffffffffff1673ffffffffffffffffffffffffffffffffffffffff1681526020019081526020015f205f820151815f015f6101000a81548173ffffffffffffffffffffffffffffffffffffffff021916908373ffffffffffffffffffffffffffffffffffffffff1602179055506020820151816001015f6101000a81548173ffffffffffffffffffffffffffffffffffffffff021916908373ffffffffffffffffffffffffffffffffffffffff160217905550604082015181600201556060820151816003015560808201518160040155905050600560405180604001604052808573ffffffffffffffffffffffffffffffffffffffff1681526020018473ffffffffffffffffffffffffffffffffffffffff16815250908060018154018082558091505060019003905f5260205f2090600202015f909190919091505f820151815f015f6101000a81548173ffffffffffffffffffffffffffffffffffffffff021916908373ffffffffffffffffffffffffffffffffffffffff1602179055506020820151816001015f6101000a81548173ffffffffffffffffffffffffffffffffffffffff021916908373ffffffffffffffffffffffffffffffffffffffff16021790555050508173ffffffffffffffffffffffffffffffffffffffff168373ffffffffffffffffffffffffffffffffffffffff167fedd4b700a2980a33a301ad39ced5dbc1c98a786ecb28da5bf3926d5165005d1b836040516111fa9190611fd3565b60405180910390a3505050565b60015f9054906101000a900473ffffffffffffffffffffffffffffffffffffffff1673ffffffffffffffffffffffffffffffffffffffff163373ffffffffffffffffffffffffffffffffffffffff1614611296576040517f08c379a000000000000000000000000000000000000000000000000000000000815260040161128d9061206c565b60405180910390fd5b61129e611d20565b5f821180156112ac57505f81115b6112eb576040517f08c379a00000000000000000000000000000000000000000000000000000000081526004016112e290612544565b60405180910390fd5b8273ffffffffffffffffffffffffffffffffffffffff168473ffffffffffffffffffffffffffffffffffffffff1611156113345782848094508195505050808280925081935050505b5f60045f8673ffffffffffffffffffffffffffffffffffffffff1673ffffffffffffffffffffffffffffffffffffffff1681526020019081526020015f205f8573ffffffffffffffffffffffffffffffffffffffff1673ffffffffffffffffffffffffffffffffffffffff1681526020019081526020015f2090508473ffffffffffffffffffffffffffffffffffffffff16815f015f9054906101000a900473ffffffffffffffffffffffffffffffffffffffff1673ffffffffffffffffffffffffffffffffffffffff161461143f576040517f08c379a00000000000000000000000000000000000000000000000000000000081526004016114369061238c565b60405180910390fd5b8473ffffffffffffffffffffffffffffffffffffffff166323b872dd3330866040518463ffffffff1660e01b815260040161147c93929190612562565b6020604051808303815f875af1158015611498573d5f803e3d5ffd5b505050506040513d601f19601f820116820180604052508101906114bc91906122f0565b508373ffffffffffffffffffffffffffffffffffffffff166323b872dd3330856040518463ffffffff1660e01b81526004016114fa93929190612562565b6020604051808303815f875af1158015611516573d5f803e3d5ffd5b505050506040513d601f19601f8201168201806040525081019061153a91906122f0565b5082816002015f82825461154e9190612597565b9250508190555081816003015f8282546115689190612597565b925050819055508373ffffffffffffffffffffffffffffffffffffffff168573ffffffffffffffffffffffffffffffffffffffff167f44504979f82d498dad8a0687fc02e140be70b1b4ab3b9e23c6ffc1d04410194a85856040516115ce92919061231b565b60405180910390a3506115df611d6d565b50505050565b60035481565b60025f9054906101000a900473ffffffffffffffffffffffffffffffffffffffff1681565b611618611d20565b5f821161165a576040517f08c379a00000000000000000000000000000000000000000000000000000000081526004016116519061263a565b60405180910390fd5b5f8373ffffffffffffffffffffffffffffffffffffffff168573ffffffffffffffffffffffffffffffffffffffff16106116945783611696565b845b90505f8473ffffffffffffffffffffffffffffffffffffffff168673ffffffffffffffffffffffffffffffffffffffff16106116d257856116d4565b845b90505f60045f8473ffffffffffffffffffffffffffffffffffffffff1673ffffffffffffffffffffffffffffffffffffffff1681526020019081526020015f205f8373ffffffffffffffffffffffffffffffffffffffff1673ffffffffffffffffffffffffffffffffffffffff1681526020019081526020015f2090508273ffffffffffffffffffffffffffffffffffffffff16815f015f9054906101000a900473ffffffffffffffffffffffffffffffffffffffff1673ffffffffffffffffffffffffffffffffffffffff161480156117fc57508173ffffffffffffffffffffffffffffffffffffffff16816001015f9054906101000a900473ffffffffffffffffffffffffffffffffffffffff1673ffffffffffffffffffffffffffffffffffffffff16145b61183b576040517f08c379a00000000000000000000000000000000000000000000000000000000081526004016118329061238c565b60405180910390fd5b5f8373ffffffffffffffffffffffffffffffffffffffff168873ffffffffffffffffffffffffffffffffffffffff161461187957816003015461187f565b81600201545b90505f8473ffffffffffffffffffffffffffffffffffffffff168973ffffffffffffffffffffffffffffffffffffffff16146118bf5782600201546118c5565b82600301545b90505f821180156118d557505f81115b611914576040517f08c379a000000000000000000000000000000000000000000000000000000000815260040161190b906126a2565b60405180910390fd5b5f6127106003548961192691906126c0565b611930919061272e565b61271085600401546127106119459190612261565b8a61195091906126c0565b61195a919061272e565b6119649190612261565b90505f81116119a8576040517f08c379a000000000000000000000000000000000000000000000000000000000815260040161199f906127a8565b60405180910390fd5b5f81612710856119b891906126c0565b6119c29190612597565b83836119ce91906126c0565b6119d8919061272e565b905087811015611a1d576040517f08c379a0000000000000000000000000000000000000000000000000000000008152600401611a1490612810565b60405180910390fd5b80831015611a60576040517f08c379a0000000000000000000000000000000000000000000000000000000008152600401611a5790612878565b60405180910390fd5b8a73ffffffffffffffffffffffffffffffffffffffff166323b872dd33308c6040518463ffffffff1660e01b8152600401611a9d93929190612562565b6020604051808303815f875af1158015611ab9573d5f803e3d5ffd5b505050506040513d601f19601f82011682018060405250810190611add91906122f0565b505f6127106003548b611af091906126c0565b611afa919061272e565b90508b73ffffffffffffffffffffffffffffffffffffffff1663a9059cbb60025f9054906101000a900473ffffffffffffffffffffffffffffffffffffffff16836040518363ffffffff1660e01b8152600401611b58929190612294565b6020604051808303815f875af1158015611b74573d5f803e3d5ffd5b505050506040513d601f19601f82011682018060405250810190611b9891906122f0565b508a73ffffffffffffffffffffffffffffffffffffffff1663a9059cbb33846040518363ffffffff1660e01b8152600401611bd4929190612294565b6020604051808303815f875af1158015611bf0573d5f803e3d5ffd5b505050506040513d601f19601f82011682018060405250810190611c1491906122f0565b508773ffffffffffffffffffffffffffffffffffffffff168c73ffffffffffffffffffffffffffffffffffffffff1603611c815782866002015f828254611c5b9190612597565b9250508190555081866003015f828254611c759190612261565b92505081905550611cb6565b82866003015f828254611c949190612597565b9250508190555081866002015f828254611cae9190612261565b925050819055505b3373ffffffffffffffffffffffffffffffffffffffff167f6782190c91d4a7e8ad2a867deed6ec0a970cab8ff137ae2bd4abd92b3810f4d38d8d8d86604051611d029493929190612896565b60405180910390a25050505050505050611d1a611d6d565b50505050565b60025f5403611d64576040517f08c379a0000000000000000000000000000000000000000000000000000000008152600401611d5b90612923565b60405180910390fd5b60025f81905550565b60015f81905550565b5f73ffffffffffffffffffffffffffffffffffffffff82169050919050565b5f611d9f82611d76565b9050919050565b611daf81611d95565b82525050565b5f602082019050611dc85f830184611da6565b92915050565b5f80fd5b611ddb81611d95565b8114611de5575f80fd5b50565b5f81359050611df681611dd2565b92915050565b5f819050919050565b611e0e81611dfc565b8114611e18575f80fd5b50565b5f81359050611e2981611e05565b92915050565b5f805f8060808587031215611e4757611e46611dce565b5b5f611e5487828801611de8565b9450506020611e6587828801611de8565b9350506040611e7687828801611e1b565b9250506060611e8787828801611e1b565b91505092959194509250565b5f8060408385031215611ea957611ea8611dce565b5b5f611eb685828601611de8565b9250506020611ec785828601611de8565b9150509250929050565b611eda81611dfc565b82525050565b5f60a082019050611ef35f830188611da6565b611f006020830187611da6565b611f0d6040830186611ed1565b611f1a6060830185611ed1565b611f276080830184611ed1565b9695505050505050565b5f60208284031215611f4657611f45611dce565b5b5f611f5384828501611e1b565b91505092915050565b5f604082019050611f6f5f830185611da6565b611f7c6020830184611da6565b9392505050565b5f805f60608486031215611f9a57611f99611dce565b5b5f611fa786828701611de8565b9350506020611fb886828701611de8565b9250506040611fc986828701611e1b565b9150509250925092565b5f602082019050611fe65f830184611ed1565b92915050565b5f82825260208201905092915050565b7f4f6e6c792063726561746f722063616e2063616c6c20746869732066756e63745f8201527f696f6e0000000000000000000000000000000000000000000000000000000000602082015250565b5f612056602383611fec565b915061206182611ffc565b604082019050919050565b5f6020820190508181035f8301526120838161204a565b9050919050565b7f5769746864726177616c20616d6f756e7473206d7573742062652067726561745f8201527f6572207468616e207a65726f0000000000000000000000000000000000000000602082015250565b5f6120e4602c83611fec565b91506120ef8261208a565b604082019050919050565b5f6020820190508181035f830152612111816120d8565b9050919050565b7f496e73756666696369656e74206c697175696469747920666f7220746f6b656e5f8201527f4100000000000000000000000000000000000000000000000000000000000000602082015250565b5f612172602183611fec565b915061217d82612118565b604082019050919050565b5f6020820190508181035f83015261219f81612166565b9050919050565b7f496e73756666696369656e74206c697175696469747920666f7220746f6b656e5f8201527f4200000000000000000000000000000000000000000000000000000000000000602082015250565b5f612200602183611fec565b915061220b826121a6565b604082019050919050565b5f6020820190508181035f83015261222d816121f4565b9050919050565b7f4e487b71000000000000000000000000000000000000000000000000000000005f52601160045260245ffd5b5f61226b82611dfc565b915061227683611dfc565b925082820390508181111561228e5761228d612234565b5b92915050565b5f6040820190506122a75f830185611da6565b6122b46020830184611ed1565b9392505050565b5f8115159050919050565b6122cf816122bb565b81146122d9575f80fd5b50565b5f815190506122ea816122c6565b92915050565b5f6020828403121561230557612304611dce565b5b5f612312848285016122dc565b91505092915050565b5f60408201905061232e5f830185611ed1565b61233b6020830184611ed1565b9392505050565b7f5061697220646f6573206e6f74206578697374000000000000000000000000005f82015250565b5f612376601383611fec565b915061238182612342565b602082019050919050565b5f6020820190508181035f8301526123a38161236a565b9050919050565b7f4e487b71000000000000000000000000000000000000000000000000000000005f52603260045260245ffd5b7f4e487b71000000000000000000000000000000000000000000000000000000005f52603160045260245ffd5b7f496e76616c696420746f6b656e206164647265737300000000000000000000005f82015250565b5f612438601583611fec565b915061244382612404565b602082019050919050565b5f6020820190508181035f8301526124658161242c565b9050919050565b7f5061697220616c726561647920657869737473000000000000000000000000005f82015250565b5f6124a0601383611fec565b91506124ab8261246c565b602082019050919050565b5f6020820190508181035f8301526124cd81612494565b9050919050565b7f416d6f756e7473206d7573742062652067726561746572207468616e207a65725f8201527f6f00000000000000000000000000000000000000000000000000000000000000602082015250565b5f61252e602183611fec565b9150612539826124d4565b604082019050919050565b5f6020820190508181035f83015261255b81612522565b9050919050565b5f6060820190506125755f830186611da6565b6125826020830185611da6565b61258f6040830184611ed1565b949350505050565b5f6125a182611dfc565b91506125ac83611dfc565b92508282019050808211156125c4576125c3612234565b5b92915050565b7f416d6f756e7420696e206d7573742062652067726561746572207468616e207a5f8201527f65726f0000000000000000000000000000000000000000000000000000000000602082015250565b5f612624602383611fec565b915061262f826125ca565b604082019050919050565b5f6020820190508181035f83015261265181612618565b9050919050565b7f456d7074792072657365727665730000000000000000000000000000000000005f82015250565b5f61268c600e83611fec565b915061269782612658565b602082019050919050565b5f6020820190508181035f8301526126b981612680565b9050919050565b5f6126ca82611dfc565b91506126d583611dfc565b92508282026126e381611dfc565b915082820484148315176126fa576126f9612234565b5b5092915050565b7f4e487b71000000000000000000000000000000000000000000000000000000005f52601260045260245ffd5b5f61273882611dfc565b915061274383611dfc565b92508261275357612752612701565b5b828204905092915050565b7f45666665637469766520616d6f756e7420746f6f206c6f7700000000000000005f82015250565b5f612792601883611fec565b915061279d8261275e565b602082019050919050565b5f6020820190508181035f8301526127bf81612786565b9050919050565b7f536c697070616765206c696d69742065786365656465640000000000000000005f82015250565b5f6127fa601783611fec565b9150612805826127c6565b602082019050919050565b5f6020820190508181035f830152612827816127ee565b9050919050565b7f496e73756666696369656e74206c6971756964697479000000000000000000005f82015250565b5f612862601683611fec565b915061286d8261282e565b602082019050919050565b5f6020820190508181035f83015261288f81612856565b9050919050565b5f6080820190506128a95f830187611da6565b6128b66020830186611da6565b6128c36040830185611ed1565b6128d06060830184611ed1565b95945050505050565b7f5265656e7472616e637947756172643a207265656e7472616e742063616c6c005f82015250565b5f61290d601f83611fec565b9150612918826128d9565b602082019050919050565b5f6020820190508181035f83015261293a81612901565b905091905056fea264697066735822122020905840f6265f751f3b0423d4d480b4100b19e32e98000f274401bcc8d59e6464736f6c634300081a0033",
					"opcodes": "PUSH1 0x80 PUSH1 0x40 MSTORE CALLVALUE DUP1 ISZERO PUSH2 0xF JUMPI PUSH0 DUP1 REVERT JUMPDEST POP PUSH1 0x40 MLOAD PUSH2 0x2C4B CODESIZE SUB DUP1 PUSH2 0x2C4B DUP4 CODECOPY DUP2 DUP2 ADD PUSH1 0x40 MSTORE DUP2 ADD SWAP1 PUSH2 0x31 SWAP2 SWAP1 PUSH2 0x1FF JUMP JUMPDEST PUSH1 0x1 PUSH0 DUP2 SWAP1 SSTORE POP PUSH0 PUSH20 0xFFFFFFFFFFFFFFFFFFFFFFFFFFFFFFFFFFFFFFFF AND DUP4 PUSH20 0xFFFFFFFFFFFFFFFFFFFFFFFFFFFFFFFFFFFFFFFF AND EQ ISZERO DUP1 ISZERO PUSH2 0xA0 JUMPI POP PUSH0 PUSH20 0xFFFFFFFFFFFFFFFFFFFFFFFFFFFFFFFFFFFFFFFF AND DUP3 PUSH20 0xFFFFFFFFFFFFFFFFFFFFFFFFFFFFFFFFFFFFFFFF AND EQ ISZERO JUMPDEST PUSH2 0xDF JUMPI PUSH1 0x40 MLOAD PUSH32 0x8C379A000000000000000000000000000000000000000000000000000000000 DUP2 MSTORE PUSH1 0x4 ADD PUSH2 0xD6 SWAP1 PUSH2 0x2A9 JUMP JUMPDEST PUSH1 0x40 MLOAD DUP1 SWAP2 SUB SWAP1 REVERT JUMPDEST DUP3 PUSH1 0x1 PUSH0 PUSH2 0x100 EXP DUP2 SLOAD DUP2 PUSH20 0xFFFFFFFFFFFFFFFFFFFFFFFFFFFFFFFFFFFFFFFF MUL NOT AND SWAP1 DUP4 PUSH20 0xFFFFFFFFFFFFFFFFFFFFFFFFFFFFFFFFFFFFFFFF AND MUL OR SWAP1 SSTORE POP DUP2 PUSH1 0x2 PUSH0 PUSH2 0x100 EXP DUP2 SLOAD DUP2 PUSH20 0xFFFFFFFFFFFFFFFFFFFFFFFFFFFFFFFFFFFFFFFF MUL NOT AND SWAP1 DUP4 PUSH20 0xFFFFFFFFFFFFFFFFFFFFFFFFFFFFFFFFFFFFFFFF AND MUL OR SWAP1 SSTORE POP DUP1 PUSH1 0x3 DUP2 SWAP1 SSTORE POP POP POP POP PUSH2 0x2C7 JUMP JUMPDEST PUSH0 DUP1 REVERT JUMPDEST PUSH0 PUSH20 0xFFFFFFFFFFFFFFFFFFFFFFFFFFFFFFFFFFFFFFFF DUP3 AND SWAP1 POP SWAP2 SWAP1 POP JUMP JUMPDEST PUSH0 PUSH2 0x19B DUP3 PUSH2 0x172 JUMP JUMPDEST SWAP1 POP SWAP2 SWAP1 POP JUMP JUMPDEST PUSH2 0x1AB DUP2 PUSH2 0x191 JUMP JUMPDEST DUP2 EQ PUSH2 0x1B5 JUMPI PUSH0 DUP1 REVERT JUMPDEST POP JUMP JUMPDEST PUSH0 DUP2 MLOAD SWAP1 POP PUSH2 0x1C6 DUP2 PUSH2 0x1A2 JUMP JUMPDEST SWAP3 SWAP2 POP POP JUMP JUMPDEST PUSH0 DUP2 SWAP1 POP SWAP2 SWAP1 POP JUMP JUMPDEST PUSH2 0x1DE DUP2 PUSH2 0x1CC JUMP JUMPDEST DUP2 EQ PUSH2 0x1E8 JUMPI PUSH0 DUP1 REVERT JUMPDEST POP JUMP JUMPDEST PUSH0 DUP2 MLOAD SWAP1 POP PUSH2 0x1F9 DUP2 PUSH2 0x1D5 JUMP JUMPDEST SWAP3 SWAP2 POP POP JUMP JUMPDEST PUSH0 DUP1 PUSH0 PUSH1 0x60 DUP5 DUP7 SUB SLT ISZERO PUSH2 0x216 JUMPI PUSH2 0x215 PUSH2 0x16E JUMP JUMPDEST JUMPDEST PUSH0 PUSH2 0x223 DUP7 DUP3 DUP8 ADD PUSH2 0x1B8 JUMP JUMPDEST SWAP4 POP POP PUSH1 0x20 PUSH2 0x234 DUP7 DUP3 DUP8 ADD PUSH2 0x1B8 JUMP JUMPDEST SWAP3 POP POP PUSH1 0x40 PUSH2 0x245 DUP7 DUP3 DUP8 ADD PUSH2 0x1EB JUMP JUMPDEST SWAP2 POP POP SWAP3 POP SWAP3 POP SWAP3 JUMP JUMPDEST PUSH0 DUP3 DUP3 MSTORE PUSH1 0x20 DUP3 ADD SWAP1 POP SWAP3 SWAP2 POP POP JUMP JUMPDEST PUSH32 0x496E76616C696420616464726573730000000000000000000000000000000000 PUSH0 DUP3 ADD MSTORE POP JUMP JUMPDEST PUSH0 PUSH2 0x293 PUSH1 0xF DUP4 PUSH2 0x24F JUMP JUMPDEST SWAP2 POP PUSH2 0x29E DUP3 PUSH2 0x25F JUMP JUMPDEST PUSH1 0x20 DUP3 ADD SWAP1 POP SWAP2 SWAP1 POP JUMP JUMPDEST PUSH0 PUSH1 0x20 DUP3 ADD SWAP1 POP DUP2 DUP2 SUB PUSH0 DUP4 ADD MSTORE PUSH2 0x2C0 DUP2 PUSH2 0x287 JUMP JUMPDEST SWAP1 POP SWAP2 SWAP1 POP JUMP JUMPDEST PUSH2 0x2977 DUP1 PUSH2 0x2D4 PUSH0 CODECOPY PUSH0 RETURN INVALID PUSH1 0x80 PUSH1 0x40 MSTORE CALLVALUE DUP1 ISZERO PUSH2 0xF JUMPI PUSH0 DUP1 REVERT JUMPDEST POP PUSH1 0x4 CALLDATASIZE LT PUSH2 0x9C JUMPI PUSH0 CALLDATALOAD PUSH1 0xE0 SHR DUP1 PUSH4 0xB5ACFA62 GT PUSH2 0x64 JUMPI DUP1 PUSH4 0xB5ACFA62 EQ PUSH2 0x15B JUMPI DUP1 PUSH4 0xBD50A3D4 EQ PUSH2 0x177 JUMPI DUP1 PUSH4 0xEBAAA3A1 EQ PUSH2 0x193 JUMPI DUP1 PUSH4 0xFA2AF9DA EQ PUSH2 0x1B1 JUMPI DUP1 PUSH4 0xFE029156 EQ PUSH2 0x1CF JUMPI PUSH2 0x9C JUMP JUMPDEST DUP1 PUSH4 0x2D05D3F EQ PUSH2 0xA0 JUMPI DUP1 PUSH4 0x27EFB5A7 EQ PUSH2 0xBE JUMPI DUP1 PUSH4 0x5861B227 EQ PUSH2 0xDA JUMPI DUP1 PUSH4 0x69454B86 EQ PUSH2 0xF6 JUMPI DUP1 PUSH4 0xAD8C5668 EQ PUSH2 0x12A JUMPI JUMPDEST PUSH0 DUP1 REVERT JUMPDEST PUSH2 0xA8 PUSH2 0x1EB JUMP JUMPDEST PUSH1 0x40 MLOAD PUSH2 0xB5 SWAP2 SWAP1 PUSH2 0x1DB5 JUMP JUMPDEST PUSH1 0x40 MLOAD DUP1 SWAP2 SUB SWAP1 RETURN JUMPDEST PUSH2 0xD8 PUSH1 0x4 DUP1 CALLDATASIZE SUB DUP2 ADD SWAP1 PUSH2 0xD3 SWAP2 SWAP1 PUSH2 0x1E2F JUMP JUMPDEST PUSH2 0x210 JUMP JUMPDEST STOP JUMPDEST PUSH2 0xF4 PUSH1 0x4 DUP1 CALLDATASIZE SUB DUP2 ADD SWAP1 PUSH2 0xEF SWAP2 SWAP1 PUSH2 0x1E93 JUMP JUMPDEST PUSH2 0x620 JUMP JUMPDEST STOP JUMPDEST PUSH2 0x110 PUSH1 0x4 DUP1 CALLDATASIZE SUB DUP2 ADD SWAP1 PUSH2 0x10B SWAP2 SWAP1 PUSH2 0x1E93 JUMP JUMPDEST PUSH2 0xBCE JUMP JUMPDEST PUSH1 0x40 MLOAD PUSH2 0x121 SWAP6 SWAP5 SWAP4 SWAP3 SWAP2 SWAP1 PUSH2 0x1EE0 JUMP JUMPDEST PUSH1 0x40 MLOAD DUP1 SWAP2 SUB SWAP1 RETURN JUMPDEST PUSH2 0x144 PUSH1 0x4 DUP1 CALLDATASIZE SUB DUP2 ADD SWAP1 PUSH2 0x13F SWAP2 SWAP1 PUSH2 0x1F31 JUMP JUMPDEST PUSH2 0xC49 JUMP JUMPDEST PUSH1 0x40 MLOAD PUSH2 0x152 SWAP3 SWAP2 SWAP1 PUSH2 0x1F5C JUMP JUMPDEST PUSH1 0x40 MLOAD DUP1 SWAP2 SUB SWAP1 RETURN JUMPDEST PUSH2 0x175 PUSH1 0x4 DUP1 CALLDATASIZE SUB DUP2 ADD SWAP1 PUSH2 0x170 SWAP2 SWAP1 PUSH2 0x1F83 JUMP JUMPDEST PUSH2 0xCB6 JUMP JUMPDEST STOP JUMPDEST PUSH2 0x191 PUSH1 0x4 DUP1 CALLDATASIZE SUB DUP2 ADD SWAP1 PUSH2 0x18C SWAP2 SWAP1 PUSH2 0x1E2F JUMP JUMPDEST PUSH2 0x1207 JUMP JUMPDEST STOP JUMPDEST PUSH2 0x19B PUSH2 0x15E5 JUMP JUMPDEST PUSH1 0x40 MLOAD PUSH2 0x1A8 SWAP2 SWAP1 PUSH2 0x1FD3 JUMP JUMPDEST PUSH1 0x40 MLOAD DUP1 SWAP2 SUB SWAP1 RETURN JUMPDEST PUSH2 0x1B9 PUSH2 0x15EB JUMP JUMPDEST PUSH1 0x40 MLOAD PUSH2 0x1C6 SWAP2 SWAP1 PUSH2 0x1DB5 JUMP JUMPDEST PUSH1 0x40 MLOAD DUP1 SWAP2 SUB SWAP1 RETURN JUMPDEST PUSH2 0x1E9 PUSH1 0x4 DUP1 CALLDATASIZE SUB DUP2 ADD SWAP1 PUSH2 0x1E4 SWAP2 SWAP1 PUSH2 0x1E2F JUMP JUMPDEST PUSH2 0x1610 JUMP JUMPDEST STOP JUMPDEST PUSH1 0x1 PUSH0 SWAP1 SLOAD SWAP1 PUSH2 0x100 EXP SWAP1 DIV PUSH20 0xFFFFFFFFFFFFFFFFFFFFFFFFFFFFFFFFFFFFFFFF AND DUP2 JUMP JUMPDEST PUSH1 0x1 PUSH0 SWAP1 SLOAD SWAP1 PUSH2 0x100 EXP SWAP1 DIV PUSH20 0xFFFFFFFFFFFFFFFFFFFFFFFFFFFFFFFFFFFFFFFF AND PUSH20 0xFFFFFFFFFFFFFFFFFFFFFFFFFFFFFFFFFFFFFFFF AND CALLER PUSH20 0xFFFFFFFFFFFFFFFFFFFFFFFFFFFFFFFFFFFFFFFF AND EQ PUSH2 0x29F JUMPI PUSH1 0x40 MLOAD PUSH32 0x8C379A000000000000000000000000000000000000000000000000000000000 DUP2 MSTORE PUSH1 0x4 ADD PUSH2 0x296 SWAP1 PUSH2 0x206C JUMP JUMPDEST PUSH1 0x40 MLOAD DUP1 SWAP2 SUB SWAP1 REVERT JUMPDEST PUSH2 0x2A7 PUSH2 0x1D20 JUMP JUMPDEST PUSH0 DUP3 GT DUP1 ISZERO PUSH2 0x2B5 JUMPI POP PUSH0 DUP2 GT JUMPDEST PUSH2 0x2F4 JUMPI PUSH1 0x40 MLOAD PUSH32 0x8C379A000000000000000000000000000000000000000000000000000000000 DUP2 MSTORE PUSH1 0x4 ADD PUSH2 0x2EB SWAP1 PUSH2 0x20FA JUMP JUMPDEST PUSH1 0x40 MLOAD DUP1 SWAP2 SUB SWAP1 REVERT JUMPDEST DUP3 PUSH20 0xFFFFFFFFFFFFFFFFFFFFFFFFFFFFFFFFFFFFFFFF AND DUP5 PUSH20 0xFFFFFFFFFFFFFFFFFFFFFFFFFFFFFFFFFFFFFFFF AND GT ISZERO PUSH2 0x333 JUMPI DUP3 DUP5 DUP1 SWAP5 POP DUP2 SWAP6 POP POP POP JUMPDEST PUSH0 PUSH1 0x4 PUSH0 DUP7 PUSH20 0xFFFFFFFFFFFFFFFFFFFFFFFFFFFFFFFFFFFFFFFF AND PUSH20 0xFFFFFFFFFFFFFFFFFFFFFFFFFFFFFFFFFFFFFFFF AND DUP2 MSTORE PUSH1 0x20 ADD SWAP1 DUP2 MSTORE PUSH1 0x20 ADD PUSH0 KECCAK256 PUSH0 DUP6 PUSH20 0xFFFFFFFFFFFFFFFFFFFFFFFFFFFFFFFFFFFFFFFF AND PUSH20 0xFFFFFFFFFFFFFFFFFFFFFFFFFFFFFFFFFFFFFFFF AND DUP2 MSTORE PUSH1 0x20 ADD SWAP1 DUP2 MSTORE PUSH1 0x20 ADD PUSH0 KECCAK256 SWAP1 POP DUP3 DUP2 PUSH1 0x2 ADD SLOAD LT ISZERO PUSH2 0x3F5 JUMPI PUSH1 0x40 MLOAD PUSH32 0x8C379A000000000000000000000000000000000000000000000000000000000 DUP2 MSTORE PUSH1 0x4 ADD PUSH2 0x3EC SWAP1 PUSH2 0x2188 JUMP JUMPDEST PUSH1 0x40 MLOAD DUP1 SWAP2 SUB SWAP1 REVERT JUMPDEST DUP2 DUP2 PUSH1 0x3 ADD SLOAD LT ISZERO PUSH2 0x43C JUMPI PUSH1 0x40 MLOAD PUSH32 0x8C379A000000000000000000000000000000000000000000000000000000000 DUP2 MSTORE PUSH1 0x4 ADD PUSH2 0x433 SWAP1 PUSH2 0x2216 JUMP JUMPDEST PUSH1 0x40 MLOAD DUP1 SWAP2 SUB SWAP1 REVERT JUMPDEST DUP3 DUP2 PUSH1 0x2 ADD PUSH0 DUP3 DUP3 SLOAD PUSH2 0x44F SWAP2 SWAP1 PUSH2 0x2261 JUMP JUMPDEST SWAP3 POP POP DUP2 SWAP1 SSTORE POP DUP2 DUP2 PUSH1 0x3 ADD PUSH0 DUP3 DUP3 SLOAD PUSH2 0x469 SWAP2 SWAP1 PUSH2 0x2261 JUMP JUMPDEST SWAP3 POP POP DUP2 SWAP1 SSTORE POP DUP5 PUSH20 0xFFFFFFFFFFFFFFFFFFFFFFFFFFFFFFFFFFFFFFFF AND PUSH4 0xA9059CBB PUSH1 0x1 PUSH0 SWAP1 SLOAD SWAP1 PUSH2 0x100 EXP SWAP1 DIV PUSH20 0xFFFFFFFFFFFFFFFFFFFFFFFFFFFFFFFFFFFFFFFF AND DUP6 PUSH1 0x40 MLOAD DUP4 PUSH4 0xFFFFFFFF AND PUSH1 0xE0 SHL DUP2 MSTORE PUSH1 0x4 ADD PUSH2 0x4CC SWAP3 SWAP2 SWAP1 PUSH2 0x2294 JUMP JUMPDEST PUSH1 0x20 PUSH1 0x40 MLOAD DUP1 DUP4 SUB DUP2 PUSH0 DUP8 GAS CALL ISZERO DUP1 ISZERO PUSH2 0x4E8 JUMPI RETURNDATASIZE PUSH0 DUP1 RETURNDATACOPY RETURNDATASIZE PUSH0 REVERT JUMPDEST POP POP POP POP PUSH1 0x40 MLOAD RETURNDATASIZE PUSH1 0x1F NOT PUSH1 0x1F DUP3 ADD AND DUP3 ADD DUP1 PUSH1 0x40 MSTORE POP DUP2 ADD SWAP1 PUSH2 0x50C SWAP2 SWAP1 PUSH2 0x22F0 JUMP JUMPDEST POP DUP4 PUSH20 0xFFFFFFFFFFFFFFFFFFFFFFFFFFFFFFFFFFFFFFFF AND PUSH4 0xA9059CBB PUSH1 0x1 PUSH0 SWAP1 SLOAD SWAP1 PUSH2 0x100 EXP SWAP1 DIV PUSH20 0xFFFFFFFFFFFFFFFFFFFFFFFFFFFFFFFFFFFFFFFF AND DUP5 PUSH1 0x40 MLOAD DUP4 PUSH4 0xFFFFFFFF AND PUSH1 0xE0 SHL DUP2 MSTORE PUSH1 0x4 ADD PUSH2 0x569 SWAP3 SWAP2 SWAP1 PUSH2 0x2294 JUMP JUMPDEST PUSH1 0x20 PUSH1 0x40 MLOAD DUP1 DUP4 SUB DUP2 PUSH0 DUP8 GAS CALL ISZERO DUP1 ISZERO PUSH2 0x585 JUMPI RETURNDATASIZE PUSH0 DUP1 RETURNDATACOPY RETURNDATASIZE PUSH0 REVERT JUMPDEST POP POP POP POP PUSH1 0x40 MLOAD RETURNDATASIZE PUSH1 0x1F NOT PUSH1 0x1F DUP3 ADD AND DUP3 ADD DUP1 PUSH1 0x40 MSTORE POP DUP2 ADD SWAP1 PUSH2 0x5A9 SWAP2 SWAP1 PUSH2 0x22F0 JUMP JUMPDEST POP DUP4 PUSH20 0xFFFFFFFFFFFFFFFFFFFFFFFFFFFFFFFFFFFFFFFF AND DUP6 PUSH20 0xFFFFFFFFFFFFFFFFFFFFFFFFFFFFFFFFFFFFFFFF AND PUSH32 0xBA0B893B2F314A229997E335266881B5AC6B290BD350D2C23CC57160B77882B8 DUP6 DUP6 PUSH1 0x40 MLOAD PUSH2 0x609 SWAP3 SWAP2 SWAP1 PUSH2 0x231B JUMP JUMPDEST PUSH1 0x40 MLOAD DUP1 SWAP2 SUB SWAP1 LOG3 POP PUSH2 0x61A PUSH2 0x1D6D JUMP JUMPDEST POP POP POP POP JUMP JUMPDEST PUSH1 0x1 PUSH0 SWAP1 SLOAD SWAP1 PUSH2 0x100 EXP SWAP1 DIV PUSH20 0xFFFFFFFFFFFFFFFFFFFFFFFFFFFFFFFFFFFFFFFF AND PUSH20 0xFFFFFFFFFFFFFFFFFFFFFFFFFFFFFFFFFFFFFFFF AND CALLER PUSH20 0xFFFFFFFFFFFFFFFFFFFFFFFFFFFFFFFFFFFFFFFF AND EQ PUSH2 0x6AF JUMPI PUSH1 0x40 MLOAD PUSH32 0x8C379A000000000000000000000000000000000000000000000000000000000 DUP2 MSTORE PUSH1 0x4 ADD PUSH2 0x6A6 SWAP1 PUSH2 0x206C JUMP JUMPDEST PUSH1 0x40 MLOAD DUP1 SWAP2 SUB SWAP1 REVERT JUMPDEST DUP1 PUSH20 0xFFFFFFFFFFFFFFFFFFFFFFFFFFFFFFFFFFFFFFFF AND DUP3 PUSH20 0xFFFFFFFFFFFFFFFFFFFFFFFFFFFFFFFFFFFFFFFF AND GT ISZERO PUSH2 0x6EE JUMPI DUP1 DUP3 DUP1 SWAP3 POP DUP2 SWAP4 POP POP POP JUMPDEST PUSH0 PUSH20 0xFFFFFFFFFFFFFFFFFFFFFFFFFFFFFFFFFFFFFFFF AND PUSH1 0x4 PUSH0 DUP5 PUSH20 0xFFFFFFFFFFFFFFFFFFFFFFFFFFFFFFFFFFFFFFFF AND PUSH20 0xFFFFFFFFFFFFFFFFFFFFFFFFFFFFFFFFFFFFFFFF AND DUP2 MSTORE PUSH1 0x20 ADD SWAP1 DUP2 MSTORE PUSH1 0x20 ADD PUSH0 KECCAK256 PUSH0 DUP4 PUSH20 0xFFFFFFFFFFFFFFFFFFFFFFFFFFFFFFFFFFFFFFFF AND PUSH20 0xFFFFFFFFFFFFFFFFFFFFFFFFFFFFFFFFFFFFFFFF AND DUP2 MSTORE PUSH1 0x20 ADD SWAP1 DUP2 MSTORE PUSH1 0x20 ADD PUSH0 KECCAK256 PUSH0 ADD PUSH0 SWAP1 SLOAD SWAP1 PUSH2 0x100 EXP SWAP1 DIV PUSH20 0xFFFFFFFFFFFFFFFFFFFFFFFFFFFFFFFFFFFFFFFF AND PUSH20 0xFFFFFFFFFFFFFFFFFFFFFFFFFFFFFFFFFFFFFFFF AND SUB PUSH2 0x7F5 JUMPI PUSH1 0x40 MLOAD PUSH32 0x8C379A000000000000000000000000000000000000000000000000000000000 DUP2 MSTORE PUSH1 0x4 ADD PUSH2 0x7EC SWAP1 PUSH2 0x238C JUMP JUMPDEST PUSH1 0x40 MLOAD DUP1 SWAP2 SUB SWAP1 REVERT JUMPDEST PUSH1 0x4 PUSH0 DUP4 PUSH20 0xFFFFFFFFFFFFFFFFFFFFFFFFFFFFFFFFFFFFFFFF AND PUSH20 0xFFFFFFFFFFFFFFFFFFFFFFFFFFFFFFFFFFFFFFFF AND DUP2 MSTORE PUSH1 0x20 ADD SWAP1 DUP2 MSTORE PUSH1 0x20 ADD PUSH0 KECCAK256 PUSH0 DUP3 PUSH20 0xFFFFFFFFFFFFFFFFFFFFFFFFFFFFFFFFFFFFFFFF AND PUSH20 0xFFFFFFFFFFFFFFFFFFFFFFFFFFFFFFFFFFFFFFFF AND DUP2 MSTORE PUSH1 0x20 ADD SWAP1 DUP2 MSTORE PUSH1 0x20 ADD PUSH0 KECCAK256 PUSH0 DUP1 DUP3 ADD PUSH0 PUSH2 0x100 EXP DUP2 SLOAD SWAP1 PUSH20 0xFFFFFFFFFFFFFFFFFFFFFFFFFFFFFFFFFFFFFFFF MUL NOT AND SWAP1 SSTORE PUSH1 0x1 DUP3 ADD PUSH0 PUSH2 0x100 EXP DUP2 SLOAD SWAP1 PUSH20 0xFFFFFFFFFFFFFFFFFFFFFFFFFFFFFFFFFFFFFFFF MUL NOT AND SWAP1 SSTORE PUSH1 0x2 DUP3 ADD PUSH0 SWAP1 SSTORE PUSH1 0x3 DUP3 ADD PUSH0 SWAP1 SSTORE PUSH1 0x4 DUP3 ADD PUSH0 SWAP1 SSTORE POP POP PUSH0 PUSH1 0x5 DUP1 SLOAD SWAP1 POP SWAP1 POP PUSH0 JUMPDEST DUP2 DUP2 LT ISZERO PUSH2 0xB6E JUMPI DUP4 PUSH20 0xFFFFFFFFFFFFFFFFFFFFFFFFFFFFFFFFFFFFFFFF AND PUSH1 0x5 DUP3 DUP2 SLOAD DUP2 LT PUSH2 0x90E JUMPI PUSH2 0x90D PUSH2 0x23AA JUMP JUMPDEST JUMPDEST SWAP1 PUSH0 MSTORE PUSH1 0x20 PUSH0 KECCAK256 SWAP1 PUSH1 0x2 MUL ADD PUSH0 ADD PUSH0 SWAP1 SLOAD SWAP1 PUSH2 0x100 EXP SWAP1 DIV PUSH20 0xFFFFFFFFFFFFFFFFFFFFFFFFFFFFFFFFFFFFFFFF AND PUSH20 0xFFFFFFFFFFFFFFFFFFFFFFFFFFFFFFFFFFFFFFFF AND EQ DUP1 ISZERO PUSH2 0x9CC JUMPI POP DUP3 PUSH20 0xFFFFFFFFFFFFFFFFFFFFFFFFFFFFFFFFFFFFFFFF AND PUSH1 0x5 DUP3 DUP2 SLOAD DUP2 LT PUSH2 0x985 JUMPI PUSH2 0x984 PUSH2 0x23AA JUMP JUMPDEST JUMPDEST SWAP1 PUSH0 MSTORE PUSH1 0x20 PUSH0 KECCAK256 SWAP1 PUSH1 0x2 MUL ADD PUSH1 0x1 ADD PUSH0 SWAP1 SLOAD SWAP1 PUSH2 0x100 EXP SWAP1 DIV PUSH20 0xFFFFFFFFFFFFFFFFFFFFFFFFFFFFFFFFFFFFFFFF AND PUSH20 0xFFFFFFFFFFFFFFFFFFFFFFFFFFFFFFFFFFFFFFFF AND EQ JUMPDEST ISZERO PUSH2 0xB61 JUMPI PUSH1 0x5 PUSH1 0x1 DUP4 PUSH2 0x9E0 SWAP2 SWAP1 PUSH2 0x2261 JUMP JUMPDEST DUP2 SLOAD DUP2 LT PUSH2 0x9F1 JUMPI PUSH2 0x9F0 PUSH2 0x23AA JUMP JUMPDEST JUMPDEST SWAP1 PUSH0 MSTORE PUSH1 0x20 PUSH0 KECCAK256 SWAP1 PUSH1 0x2 MUL ADD PUSH1 0x5 DUP3 DUP2 SLOAD DUP2 LT PUSH2 0xA11 JUMPI PUSH2 0xA10 PUSH2 0x23AA JUMP JUMPDEST JUMPDEST SWAP1 PUSH0 MSTORE PUSH1 0x20 PUSH0 KECCAK256 SWAP1 PUSH1 0x2 MUL ADD PUSH0 DUP3 ADD PUSH0 SWAP1 SLOAD SWAP1 PUSH2 0x100 EXP SWAP1 DIV PUSH20 0xFFFFFFFFFFFFFFFFFFFFFFFFFFFFFFFFFFFFFFFF AND DUP2 PUSH0 ADD PUSH0 PUSH2 0x100 EXP DUP2 SLOAD DUP2 PUSH20 0xFFFFFFFFFFFFFFFFFFFFFFFFFFFFFFFFFFFFFFFF MUL NOT AND SWAP1 DUP4 PUSH20 0xFFFFFFFFFFFFFFFFFFFFFFFFFFFFFFFFFFFFFFFF AND MUL OR SWAP1 SSTORE POP PUSH1 0x1 DUP3 ADD PUSH0 SWAP1 SLOAD SWAP1 PUSH2 0x100 EXP SWAP1 DIV PUSH20 0xFFFFFFFFFFFFFFFFFFFFFFFFFFFFFFFFFFFFFFFF AND DUP2 PUSH1 0x1 ADD PUSH0 PUSH2 0x100 EXP DUP2 SLOAD DUP2 PUSH20 0xFFFFFFFFFFFFFFFFFFFFFFFFFFFFFFFFFFFFFFFF MUL NOT AND SWAP1 DUP4 PUSH20 0xFFFFFFFFFFFFFFFFFFFFFFFFFFFFFFFFFFFFFFFF AND MUL OR SWAP1 SSTORE POP SWAP1 POP POP PUSH1 0x5 DUP1 SLOAD DUP1 PUSH2 0xAFA JUMPI PUSH2 0xAF9 PUSH2 0x23D7 JUMP JUMPDEST JUMPDEST PUSH1 0x1 SWAP1 SUB DUP2 DUP2 SWAP1 PUSH0 MSTORE PUSH1 0x20 PUSH0 KECCAK256 SWAP1 PUSH1 0x2 MUL ADD PUSH0 DUP1 DUP3 ADD PUSH0 PUSH2 0x100 EXP DUP2 SLOAD SWAP1 PUSH20 0xFFFFFFFFFFFFFFFFFFFFFFFFFFFFFFFFFFFFFFFF MUL NOT AND SWAP1 SSTORE PUSH1 0x1 DUP3 ADD PUSH0 PUSH2 0x100 EXP DUP2 SLOAD SWAP1 PUSH20 0xFFFFFFFFFFFFFFFFFFFFFFFFFFFFFFFFFFFFFFFF MUL NOT AND SWAP1 SSTORE POP POP SWAP1 SSTORE PUSH2 0xB6E JUMP JUMPDEST DUP1 DUP1 PUSH1 0x1 ADD SWAP2 POP POP PUSH2 0x8DB JUMP JUMPDEST POP DUP2 PUSH20 0xFFFFFFFFFFFFFFFFFFFFFFFFFFFFFFFFFFFFFFFF AND DUP4 PUSH20 0xFFFFFFFFFFFFFFFFFFFFFFFFFFFFFFFFFFFFFFFF AND PUSH32 0xCFACF9D602EAAE62E56C577B2340EF89B971FF33287FA964A1D17027E8EA2D42 PUSH1 0x40 MLOAD PUSH1 0x40 MLOAD DUP1 SWAP2 SUB SWAP1 LOG3 POP POP POP JUMP JUMPDEST PUSH1 0x4 PUSH1 0x20 MSTORE DUP2 PUSH0 MSTORE PUSH1 0x40 PUSH0 KECCAK256 PUSH1 0x20 MSTORE DUP1 PUSH0 MSTORE PUSH1 0x40 PUSH0 KECCAK256 PUSH0 SWAP2 POP SWAP2 POP POP DUP1 PUSH0 ADD PUSH0 SWAP1 SLOAD SWAP1 PUSH2 0x100 EXP SWAP1 DIV PUSH20 0xFFFFFFFFFFFFFFFFFFFFFFFFFFFFFFFFFFFFFFFF AND SWAP1 DUP1 PUSH1 0x1 ADD PUSH0 SWAP1 SLOAD SWAP1 PUSH2 0x100 EXP SWAP1 DIV PUSH20 0xFFFFFFFFFFFFFFFFFFFFFFFFFFFFFFFFFFFFFFFF AND SWAP1 DUP1 PUSH1 0x2 ADD SLOAD SWAP1 DUP1 PUSH1 0x3 ADD SLOAD SWAP1 DUP1 PUSH1 0x4 ADD SLOAD SWAP1 POP DUP6 JUMP JUMPDEST PUSH1 0x5 DUP2 DUP2 SLOAD DUP2 LT PUSH2 0xC58 JUMPI PUSH0 DUP1 REVERT JUMPDEST SWAP1 PUSH0 MSTORE PUSH1 0x20 PUSH0 KECCAK256 SWAP1 PUSH1 0x2 MUL ADD PUSH0 SWAP2 POP SWAP1 POP DUP1 PUSH0 ADD PUSH0 SWAP1 SLOAD SWAP1 PUSH2 0x100 EXP SWAP1 DIV PUSH20 0xFFFFFFFFFFFFFFFFFFFFFFFFFFFFFFFFFFFFFFFF AND SWAP1 DUP1 PUSH1 0x1 ADD PUSH0 SWAP1 SLOAD SWAP1 PUSH2 0x100 EXP SWAP1 DIV PUSH20 0xFFFFFFFFFFFFFFFFFFFFFFFFFFFFFFFFFFFFFFFF AND SWAP1 POP DUP3 JUMP JUMPDEST PUSH1 0x1 PUSH0 SWAP1 SLOAD SWAP1 PUSH2 0x100 EXP SWAP1 DIV PUSH20 0xFFFFFFFFFFFFFFFFFFFFFFFFFFFFFFFFFFFFFFFF AND PUSH20 0xFFFFFFFFFFFFFFFFFFFFFFFFFFFFFFFFFFFFFFFF AND CALLER PUSH20 0xFFFFFFFFFFFFFFFFFFFFFFFFFFFFFFFFFFFFFFFF AND EQ PUSH2 0xD45 JUMPI PUSH1 0x40 MLOAD PUSH32 0x8C379A000000000000000000000000000000000000000000000000000000000 DUP2 MSTORE PUSH1 0x4 ADD PUSH2 0xD3C SWAP1 PUSH2 0x206C JUMP JUMPDEST PUSH1 0x40 MLOAD DUP1 SWAP2 SUB SWAP1 REVERT JUMPDEST PUSH0 PUSH20 0xFFFFFFFFFFFFFFFFFFFFFFFFFFFFFFFFFFFFFFFF AND DUP4 PUSH20 0xFFFFFFFFFFFFFFFFFFFFFFFFFFFFFFFFFFFFFFFF AND EQ ISZERO DUP1 ISZERO PUSH2 0xDAD JUMPI POP PUSH0 PUSH20 0xFFFFFFFFFFFFFFFFFFFFFFFFFFFFFFFFFFFFFFFF AND DUP3 PUSH20 0xFFFFFFFFFFFFFFFFFFFFFFFFFFFFFFFFFFFFFFFF AND EQ ISZERO JUMPDEST PUSH2 0xDEC JUMPI PUSH1 0x40 MLOAD PUSH32 0x8C379A000000000000000000000000000000000000000000000000000000000 DUP2 MSTORE PUSH1 0x4 ADD PUSH2 0xDE3 SWAP1 PUSH2 0x244E JUMP JUMPDEST PUSH1 0x40 MLOAD DUP1 SWAP2 SUB SWAP1 REVERT JUMPDEST DUP2 PUSH20 0xFFFFFFFFFFFFFFFFFFFFFFFFFFFFFFFFFFFFFFFF AND DUP4 PUSH20 0xFFFFFFFFFFFFFFFFFFFFFFFFFFFFFFFFFFFFFFFF AND GT ISZERO PUSH2 0xE2B JUMPI DUP2 DUP4 DUP1 SWAP4 POP DUP2 SWAP5 POP POP POP JUMPDEST PUSH0 PUSH20 0xFFFFFFFFFFFFFFFFFFFFFFFFFFFFFFFFFFFFFFFF AND PUSH1 0x4 PUSH0 DUP6 PUSH20 0xFFFFFFFFFFFFFFFFFFFFFFFFFFFFFFFFFFFFFFFF AND PUSH20 0xFFFFFFFFFFFFFFFFFFFFFFFFFFFFFFFFFFFFFFFF AND DUP2 MSTORE PUSH1 0x20 ADD SWAP1 DUP2 MSTORE PUSH1 0x20 ADD PUSH0 KECCAK256 PUSH0 DUP5 PUSH20 0xFFFFFFFFFFFFFFFFFFFFFFFFFFFFFFFFFFFFFFFF AND PUSH20 0xFFFFFFFFFFFFFFFFFFFFFFFFFFFFFFFFFFFFFFFF AND DUP2 MSTORE PUSH1 0x20 ADD SWAP1 DUP2 MSTORE PUSH1 0x20 ADD PUSH0 KECCAK256 PUSH0 ADD PUSH0 SWAP1 SLOAD SWAP1 PUSH2 0x100 EXP SWAP1 DIV PUSH20 0xFFFFFFFFFFFFFFFFFFFFFFFFFFFFFFFFFFFFFFFF AND PUSH20 0xFFFFFFFFFFFFFFFFFFFFFFFFFFFFFFFFFFFFFFFF AND EQ PUSH2 0xF32 JUMPI PUSH1 0x40 MLOAD PUSH32 0x8C379A000000000000000000000000000000000000000000000000000000000 DUP2 MSTORE PUSH1 0x4 ADD PUSH2 0xF29 SWAP1 PUSH2 0x24B6 JUMP JUMPDEST PUSH1 0x40 MLOAD DUP1 SWAP2 SUB SWAP1 REVERT JUMPDEST PUSH1 0x40 MLOAD DUP1 PUSH1 0xA0 ADD PUSH1 0x40 MSTORE DUP1 DUP5 PUSH20 0xFFFFFFFFFFFFFFFFFFFFFFFFFFFFFFFFFFFFFFFF AND DUP2 MSTORE PUSH1 0x20 ADD DUP4 PUSH20 0xFFFFFFFFFFFFFFFFFFFFFFFFFFFFFFFFFFFFFFFF AND DUP2 MSTORE PUSH1 0x20 ADD PUSH0 DUP2 MSTORE PUSH1 0x20 ADD PUSH0 DUP2 MSTORE PUSH1 0x20 ADD DUP3 DUP2 MSTORE POP PUSH1 0x4 PUSH0 DUP6 PUSH20 0xFFFFFFFFFFFFFFFFFFFFFFFFFFFFFFFFFFFFFFFF AND PUSH20 0xFFFFFFFFFFFFFFFFFFFFFFFFFFFFFFFFFFFFFFFF AND DUP2 MSTORE PUSH1 0x20 ADD SWAP1 DUP2 MSTORE PUSH1 0x20 ADD PUSH0 KECCAK256 PUSH0 DUP5 PUSH20 0xFFFFFFFFFFFFFFFFFFFFFFFFFFFFFFFFFFFFFFFF AND PUSH20 0xFFFFFFFFFFFFFFFFFFFFFFFFFFFFFFFFFFFFFFFF AND DUP2 MSTORE PUSH1 0x20 ADD SWAP1 DUP2 MSTORE PUSH1 0x20 ADD PUSH0 KECCAK256 PUSH0 DUP3 ADD MLOAD DUP2 PUSH0 ADD PUSH0 PUSH2 0x100 EXP DUP2 SLOAD DUP2 PUSH20 0xFFFFFFFFFFFFFFFFFFFFFFFFFFFFFFFFFFFFFFFF MUL NOT AND SWAP1 DUP4 PUSH20 0xFFFFFFFFFFFFFFFFFFFFFFFFFFFFFFFFFFFFFFFF AND MUL OR SWAP1 SSTORE POP PUSH1 0x20 DUP3 ADD MLOAD DUP2 PUSH1 0x1 ADD PUSH0 PUSH2 0x100 EXP DUP2 SLOAD DUP2 PUSH20 0xFFFFFFFFFFFFFFFFFFFFFFFFFFFFFFFFFFFFFFFF MUL NOT AND SWAP1 DUP4 PUSH20 0xFFFFFFFFFFFFFFFFFFFFFFFFFFFFFFFFFFFFFFFF AND MUL OR SWAP1 SSTORE POP PUSH1 0x40 DUP3 ADD MLOAD DUP2 PUSH1 0x2 ADD SSTORE PUSH1 0x60 DUP3 ADD MLOAD DUP2 PUSH1 0x3 ADD SSTORE PUSH1 0x80 DUP3 ADD MLOAD DUP2 PUSH1 0x4 ADD SSTORE SWAP1 POP POP PUSH1 0x5 PUSH1 0x40 MLOAD DUP1 PUSH1 0x40 ADD PUSH1 0x40 MSTORE DUP1 DUP6 PUSH20 0xFFFFFFFFFFFFFFFFFFFFFFFFFFFFFFFFFFFFFFFF AND DUP2 MSTORE PUSH1 0x20 ADD DUP5 PUSH20 0xFFFFFFFFFFFFFFFFFFFFFFFFFFFFFFFFFFFFFFFF AND DUP2 MSTORE POP SWAP1 DUP1 PUSH1 0x1 DUP2 SLOAD ADD DUP1 DUP3 SSTORE DUP1 SWAP2 POP POP PUSH1 0x1 SWAP1 SUB SWAP1 PUSH0 MSTORE PUSH1 0x20 PUSH0 KECCAK256 SWAP1 PUSH1 0x2 MUL ADD PUSH0 SWAP1 SWAP2 SWAP1 SWAP2 SWAP1 SWAP2 POP PUSH0 DUP3 ADD MLOAD DUP2 PUSH0 ADD PUSH0 PUSH2 0x100 EXP DUP2 SLOAD DUP2 PUSH20 0xFFFFFFFFFFFFFFFFFFFFFFFFFFFFFFFFFFFFFFFF MUL NOT AND SWAP1 DUP4 PUSH20 0xFFFFFFFFFFFFFFFFFFFFFFFFFFFFFFFFFFFFFFFF AND MUL OR SWAP1 SSTORE POP PUSH1 0x20 DUP3 ADD MLOAD DUP2 PUSH1 0x1 ADD PUSH0 PUSH2 0x100 EXP DUP2 SLOAD DUP2 PUSH20 0xFFFFFFFFFFFFFFFFFFFFFFFFFFFFFFFFFFFFFFFF MUL NOT AND SWAP1 DUP4 PUSH20 0xFFFFFFFFFFFFFFFFFFFFFFFFFFFFFFFFFFFFFFFF AND MUL OR SWAP1 SSTORE POP POP POP DUP2 PUSH20 0xFFFFFFFFFFFFFFFFFFFFFFFFFFFFFFFFFFFFFFFF AND DUP4 PUSH20 0xFFFFFFFFFFFFFFFFFFFFFFFFFFFFFFFFFFFFFFFF AND PUSH32 0xEDD4B700A2980A33A301AD39CED5DBC1C98A786ECB28DA5BF3926D5165005D1B DUP4 PUSH1 0x40 MLOAD PUSH2 0x11FA SWAP2 SWAP1 PUSH2 0x1FD3 JUMP JUMPDEST PUSH1 0x40 MLOAD DUP1 SWAP2 SUB SWAP1 LOG3 POP POP POP JUMP JUMPDEST PUSH1 0x1 PUSH0 SWAP1 SLOAD SWAP1 PUSH2 0x100 EXP SWAP1 DIV PUSH20 0xFFFFFFFFFFFFFFFFFFFFFFFFFFFFFFFFFFFFFFFF AND PUSH20 0xFFFFFFFFFFFFFFFFFFFFFFFFFFFFFFFFFFFFFFFF AND CALLER PUSH20 0xFFFFFFFFFFFFFFFFFFFFFFFFFFFFFFFFFFFFFFFF AND EQ PUSH2 0x1296 JUMPI PUSH1 0x40 MLOAD PUSH32 0x8C379A000000000000000000000000000000000000000000000000000000000 DUP2 MSTORE PUSH1 0x4 ADD PUSH2 0x128D SWAP1 PUSH2 0x206C JUMP JUMPDEST PUSH1 0x40 MLOAD DUP1 SWAP2 SUB SWAP1 REVERT JUMPDEST PUSH2 0x129E PUSH2 0x1D20 JUMP JUMPDEST PUSH0 DUP3 GT DUP1 ISZERO PUSH2 0x12AC JUMPI POP PUSH0 DUP2 GT JUMPDEST PUSH2 0x12EB JUMPI PUSH1 0x40 MLOAD PUSH32 0x8C379A000000000000000000000000000000000000000000000000000000000 DUP2 MSTORE PUSH1 0x4 ADD PUSH2 0x12E2 SWAP1 PUSH2 0x2544 JUMP JUMPDEST PUSH1 0x40 MLOAD DUP1 SWAP2 SUB SWAP1 REVERT JUMPDEST DUP3 PUSH20 0xFFFFFFFFFFFFFFFFFFFFFFFFFFFFFFFFFFFFFFFF AND DUP5 PUSH20 0xFFFFFFFFFFFFFFFFFFFFFFFFFFFFFFFFFFFFFFFF AND GT ISZERO PUSH2 0x1334 JUMPI DUP3 DUP5 DUP1 SWAP5 POP DUP2 SWAP6 POP POP POP DUP1 DUP3 DUP1 SWAP3 POP DUP2 SWAP4 POP POP POP JUMPDEST PUSH0 PUSH1 0x4 PUSH0 DUP7 PUSH20 0xFFFFFFFFFFFFFFFFFFFFFFFFFFFFFFFFFFFFFFFF AND PUSH20 0xFFFFFFFFFFFFFFFFFFFFFFFFFFFFFFFFFFFFFFFF AND DUP2 MSTORE PUSH1 0x20 ADD SWAP1 DUP2 MSTORE PUSH1 0x20 ADD PUSH0 KECCAK256 PUSH0 DUP6 PUSH20 0xFFFFFFFFFFFFFFFFFFFFFFFFFFFFFFFFFFFFFFFF AND PUSH20 0xFFFFFFFFFFFFFFFFFFFFFFFFFFFFFFFFFFFFFFFF AND DUP2 MSTORE PUSH1 0x20 ADD SWAP1 DUP2 MSTORE PUSH1 0x20 ADD PUSH0 KECCAK256 SWAP1 POP DUP5 PUSH20 0xFFFFFFFFFFFFFFFFFFFFFFFFFFFFFFFFFFFFFFFF AND DUP2 PUSH0 ADD PUSH0 SWAP1 SLOAD SWAP1 PUSH2 0x100 EXP SWAP1 DIV PUSH20 0xFFFFFFFFFFFFFFFFFFFFFFFFFFFFFFFFFFFFFFFF AND PUSH20 0xFFFFFFFFFFFFFFFFFFFFFFFFFFFFFFFFFFFFFFFF AND EQ PUSH2 0x143F JUMPI PUSH1 0x40 MLOAD PUSH32 0x8C379A000000000000000000000000000000000000000000000000000000000 DUP2 MSTORE PUSH1 0x4 ADD PUSH2 0x1436 SWAP1 PUSH2 0x238C JUMP JUMPDEST PUSH1 0x40 MLOAD DUP1 SWAP2 SUB SWAP1 REVERT JUMPDEST DUP5 PUSH20 0xFFFFFFFFFFFFFFFFFFFFFFFFFFFFFFFFFFFFFFFF AND PUSH4 0x23B872DD CALLER ADDRESS DUP7 PUSH1 0x40 MLOAD DUP5 PUSH4 0xFFFFFFFF AND PUSH1 0xE0 SHL DUP2 MSTORE PUSH1 0x4 ADD PUSH2 0x147C SWAP4 SWAP3 SWAP2 SWAP1 PUSH2 0x2562 JUMP JUMPDEST PUSH1 0x20 PUSH1 0x40 MLOAD DUP1 DUP4 SUB DUP2 PUSH0 DUP8 GAS CALL ISZERO DUP1 ISZERO PUSH2 0x1498 JUMPI RETURNDATASIZE PUSH0 DUP1 RETURNDATACOPY RETURNDATASIZE PUSH0 REVERT JUMPDEST POP POP POP POP PUSH1 0x40 MLOAD RETURNDATASIZE PUSH1 0x1F NOT PUSH1 0x1F DUP3 ADD AND DUP3 ADD DUP1 PUSH1 0x40 MSTORE POP DUP2 ADD SWAP1 PUSH2 0x14BC SWAP2 SWAP1 PUSH2 0x22F0 JUMP JUMPDEST POP DUP4 PUSH20 0xFFFFFFFFFFFFFFFFFFFFFFFFFFFFFFFFFFFFFFFF AND PUSH4 0x23B872DD CALLER ADDRESS DUP6 PUSH1 0x40 MLOAD DUP5 PUSH4 0xFFFFFFFF AND PUSH1 0xE0 SHL DUP2 MSTORE PUSH1 0x4 ADD PUSH2 0x14FA SWAP4 SWAP3 SWAP2 SWAP1 PUSH2 0x2562 JUMP JUMPDEST PUSH1 0x20 PUSH1 0x40 MLOAD DUP1 DUP4 SUB DUP2 PUSH0 DUP8 GAS CALL ISZERO DUP1 ISZERO PUSH2 0x1516 JUMPI RETURNDATASIZE PUSH0 DUP1 RETURNDATACOPY RETURNDATASIZE PUSH0 REVERT JUMPDEST POP POP POP POP PUSH1 0x40 MLOAD RETURNDATASIZE PUSH1 0x1F NOT PUSH1 0x1F DUP3 ADD AND DUP3 ADD DUP1 PUSH1 0x40 MSTORE POP DUP2 ADD SWAP1 PUSH2 0x153A SWAP2 SWAP1 PUSH2 0x22F0 JUMP JUMPDEST POP DUP3 DUP2 PUSH1 0x2 ADD PUSH0 DUP3 DUP3 SLOAD PUSH2 0x154E SWAP2 SWAP1 PUSH2 0x2597 JUMP JUMPDEST SWAP3 POP POP DUP2 SWAP1 SSTORE POP DUP2 DUP2 PUSH1 0x3 ADD PUSH0 DUP3 DUP3 SLOAD PUSH2 0x1568 SWAP2 SWAP1 PUSH2 0x2597 JUMP JUMPDEST SWAP3 POP POP DUP2 SWAP1 SSTORE POP DUP4 PUSH20 0xFFFFFFFFFFFFFFFFFFFFFFFFFFFFFFFFFFFFFFFF AND DUP6 PUSH20 0xFFFFFFFFFFFFFFFFFFFFFFFFFFFFFFFFFFFFFFFF AND PUSH32 0x44504979F82D498DAD8A0687FC02E140BE70B1B4AB3B9E23C6FFC1D04410194A DUP6 DUP6 PUSH1 0x40 MLOAD PUSH2 0x15CE SWAP3 SWAP2 SWAP1 PUSH2 0x231B JUMP JUMPDEST PUSH1 0x40 MLOAD DUP1 SWAP2 SUB SWAP1 LOG3 POP PUSH2 0x15DF PUSH2 0x1D6D JUMP JUMPDEST POP POP POP POP JUMP JUMPDEST PUSH1 0x3 SLOAD DUP2 JUMP JUMPDEST PUSH1 0x2 PUSH0 SWAP1 SLOAD SWAP1 PUSH2 0x100 EXP SWAP1 DIV PUSH20 0xFFFFFFFFFFFFFFFFFFFFFFFFFFFFFFFFFFFFFFFF AND DUP2 JUMP JUMPDEST PUSH2 0x1618 PUSH2 0x1D20 JUMP JUMPDEST PUSH0 DUP3 GT PUSH2 0x165A JUMPI PUSH1 0x40 MLOAD PUSH32 0x8C379A000000000000000000000000000000000000000000000000000000000 DUP2 MSTORE PUSH1 0x4 ADD PUSH2 0x1651 SWAP1 PUSH2 0x263A JUMP JUMPDEST PUSH1 0x40 MLOAD DUP1 SWAP2 SUB SWAP1 REVERT JUMPDEST PUSH0 DUP4 PUSH20 0xFFFFFFFFFFFFFFFFFFFFFFFFFFFFFFFFFFFFFFFF AND DUP6 PUSH20 0xFFFFFFFFFFFFFFFFFFFFFFFFFFFFFFFFFFFFFFFF AND LT PUSH2 0x1694 JUMPI DUP4 PUSH2 0x1696 JUMP JUMPDEST DUP5 JUMPDEST SWAP1 POP PUSH0 DUP5 PUSH20 0xFFFFFFFFFFFFFFFFFFFFFFFFFFFFFFFFFFFFFFFF AND DUP7 PUSH20 0xFFFFFFFFFFFFFFFFFFFFFFFFFFFFFFFFFFFFFFFF AND LT PUSH2 0x16D2 JUMPI DUP6 PUSH2 0x16D4 JUMP JUMPDEST DUP5 JUMPDEST SWAP1 POP PUSH0 PUSH1 0x4 PUSH0 DUP5 PUSH20 0xFFFFFFFFFFFFFFFFFFFFFFFFFFFFFFFFFFFFFFFF AND PUSH20 0xFFFFFFFFFFFFFFFFFFFFFFFFFFFFFFFFFFFFFFFF AND DUP2 MSTORE PUSH1 0x20 ADD SWAP1 DUP2 MSTORE PUSH1 0x20 ADD PUSH0 KECCAK256 PUSH0 DUP4 PUSH20 0xFFFFFFFFFFFFFFFFFFFFFFFFFFFFFFFFFFFFFFFF AND PUSH20 0xFFFFFFFFFFFFFFFFFFFFFFFFFFFFFFFFFFFFFFFF AND DUP2 MSTORE PUSH1 0x20 ADD SWAP1 DUP2 MSTORE PUSH1 0x20 ADD PUSH0 KECCAK256 SWAP1 POP DUP3 PUSH20 0xFFFFFFFFFFFFFFFFFFFFFFFFFFFFFFFFFFFFFFFF AND DUP2 PUSH0 ADD PUSH0 SWAP1 SLOAD SWAP1 PUSH2 0x100 EXP SWAP1 DIV PUSH20 0xFFFFFFFFFFFFFFFFFFFFFFFFFFFFFFFFFFFFFFFF AND PUSH20 0xFFFFFFFFFFFFFFFFFFFFFFFFFFFFFFFFFFFFFFFF AND EQ DUP1 ISZERO PUSH2 0x17FC JUMPI POP DUP2 PUSH20 0xFFFFFFFFFFFFFFFFFFFFFFFFFFFFFFFFFFFFFFFF AND DUP2 PUSH1 0x1 ADD PUSH0 SWAP1 SLOAD SWAP1 PUSH2 0x100 EXP SWAP1 DIV PUSH20 0xFFFFFFFFFFFFFFFFFFFFFFFFFFFFFFFFFFFFFFFF AND PUSH20 0xFFFFFFFFFFFFFFFFFFFFFFFFFFFFFFFFFFFFFFFF AND EQ JUMPDEST PUSH2 0x183B JUMPI PUSH1 0x40 MLOAD PUSH32 0x8C379A000000000000000000000000000000000000000000000000000000000 DUP2 MSTORE PUSH1 0x4 ADD PUSH2 0x1832 SWAP1 PUSH2 0x238C JUMP JUMPDEST PUSH1 0x40 MLOAD DUP1 SWAP2 SUB SWAP1 REVERT JUMPDEST PUSH0 DUP4 PUSH20 0xFFFFFFFFFFFFFFFFFFFFFFFFFFFFFFFFFFFFFFFF AND DUP9 PUSH20 0xFFFFFFFFFFFFFFFFFFFFFFFFFFFFFFFFFFFFFFFF AND EQ PUSH2 0x1879 JUMPI DUP2 PUSH1 0x3 ADD SLOAD PUSH2 0x187F JUMP JUMPDEST DUP2 PUSH1 0x2 ADD SLOAD JUMPDEST SWAP1 POP PUSH0 DUP5 PUSH20 0xFFFFFFFFFFFFFFFFFFFFFFFFFFFFFFFFFFFFFFFF AND DUP10 PUSH20 0xFFFFFFFFFFFFFFFFFFFFFFFFFFFFFFFFFFFFFFFF AND EQ PUSH2 0x18BF JUMPI DUP3 PUSH1 0x2 ADD SLOAD PUSH2 0x18C5 JUMP JUMPDEST DUP3 PUSH1 0x3 ADD SLOAD JUMPDEST SWAP1 POP PUSH0 DUP3 GT DUP1 ISZERO PUSH2 0x18D5 JUMPI POP PUSH0 DUP2 GT JUMPDEST PUSH2 0x1914 JUMPI PUSH1 0x40 MLOAD PUSH32 0x8C379A000000000000000000000000000000000000000000000000000000000 DUP2 MSTORE PUSH1 0x4 ADD PUSH2 0x190B SWAP1 PUSH2 0x26A2 JUMP JUMPDEST PUSH1 0x40 MLOAD DUP1 SWAP2 SUB SWAP1 REVERT JUMPDEST PUSH0 PUSH2 0x2710 PUSH1 0x3 SLOAD DUP10 PUSH2 0x1926 SWAP2 SWAP1 PUSH2 0x26C0 JUMP JUMPDEST PUSH2 0x1930 SWAP2 SWAP1 PUSH2 0x272E JUMP JUMPDEST PUSH2 0x2710 DUP6 PUSH1 0x4 ADD SLOAD PUSH2 0x2710 PUSH2 0x1945 SWAP2 SWAP1 PUSH2 0x2261 JUMP JUMPDEST DUP11 PUSH2 0x1950 SWAP2 SWAP1 PUSH2 0x26C0 JUMP JUMPDEST PUSH2 0x195A SWAP2 SWAP1 PUSH2 0x272E JUMP JUMPDEST PUSH2 0x1964 SWAP2 SWAP1 PUSH2 0x2261 JUMP JUMPDEST SWAP1 POP PUSH0 DUP2 GT PUSH2 0x19A8 JUMPI PUSH1 0x40 MLOAD PUSH32 0x8C379A000000000000000000000000000000000000000000000000000000000 DUP2 MSTORE PUSH1 0x4 ADD PUSH2 0x199F SWAP1 PUSH2 0x27A8 JUMP JUMPDEST PUSH1 0x40 MLOAD DUP1 SWAP2 SUB SWAP1 REVERT JUMPDEST PUSH0 DUP2 PUSH2 0x2710 DUP6 PUSH2 0x19B8 SWAP2 SWAP1 PUSH2 0x26C0 JUMP JUMPDEST PUSH2 0x19C2 SWAP2 SWAP1 PUSH2 0x2597 JUMP JUMPDEST DUP4 DUP4 PUSH2 0x19CE SWAP2 SWAP1 PUSH2 0x26C0 JUMP JUMPDEST PUSH2 0x19D8 SWAP2 SWAP1 PUSH2 0x272E JUMP JUMPDEST SWAP1 POP DUP8 DUP2 LT ISZERO PUSH2 0x1A1D JUMPI PUSH1 0x40 MLOAD PUSH32 0x8C379A000000000000000000000000000000000000000000000000000000000 DUP2 MSTORE PUSH1 0x4 ADD PUSH2 0x1A14 SWAP1 PUSH2 0x2810 JUMP JUMPDEST PUSH1 0x40 MLOAD DUP1 SWAP2 SUB SWAP1 REVERT JUMPDEST DUP1 DUP4 LT ISZERO PUSH2 0x1A60 JUMPI PUSH1 0x40 MLOAD PUSH32 0x8C379A000000000000000000000000000000000000000000000000000000000 DUP2 MSTORE PUSH1 0x4 ADD PUSH2 0x1A57 SWAP1 PUSH2 0x2878 JUMP JUMPDEST PUSH1 0x40 MLOAD DUP1 SWAP2 SUB SWAP1 REVERT JUMPDEST DUP11 PUSH20 0xFFFFFFFFFFFFFFFFFFFFFFFFFFFFFFFFFFFFFFFF AND PUSH4 0x23B872DD CALLER ADDRESS DUP13 PUSH1 0x40 MLOAD DUP5 PUSH4 0xFFFFFFFF AND PUSH1 0xE0 SHL DUP2 MSTORE PUSH1 0x4 ADD PUSH2 0x1A9D SWAP4 SWAP3 SWAP2 SWAP1 PUSH2 0x2562 JUMP JUMPDEST PUSH1 0x20 PUSH1 0x40 MLOAD DUP1 DUP4 SUB DUP2 PUSH0 DUP8 GAS CALL ISZERO DUP1 ISZERO PUSH2 0x1AB9 JUMPI RETURNDATASIZE PUSH0 DUP1 RETURNDATACOPY RETURNDATASIZE PUSH0 REVERT JUMPDEST POP POP POP POP PUSH1 0x40 MLOAD RETURNDATASIZE PUSH1 0x1F NOT PUSH1 0x1F DUP3 ADD AND DUP3 ADD DUP1 PUSH1 0x40 MSTORE POP DUP2 ADD SWAP1 PUSH2 0x1ADD SWAP2 SWAP1 PUSH2 0x22F0 JUMP JUMPDEST POP PUSH0 PUSH2 0x2710 PUSH1 0x3 SLOAD DUP12 PUSH2 0x1AF0 SWAP2 SWAP1 PUSH2 0x26C0 JUMP JUMPDEST PUSH2 0x1AFA SWAP2 SWAP1 PUSH2 0x272E JUMP JUMPDEST SWAP1 POP DUP12 PUSH20 0xFFFFFFFFFFFFFFFFFFFFFFFFFFFFFFFFFFFFFFFF AND PUSH4 0xA9059CBB PUSH1 0x2 PUSH0 SWAP1 SLOAD SWAP1 PUSH2 0x100 EXP SWAP1 DIV PUSH20 0xFFFFFFFFFFFFFFFFFFFFFFFFFFFFFFFFFFFFFFFF AND DUP4 PUSH1 0x40 MLOAD DUP4 PUSH4 0xFFFFFFFF AND PUSH1 0xE0 SHL DUP2 MSTORE PUSH1 0x4 ADD PUSH2 0x1B58 SWAP3 SWAP2 SWAP1 PUSH2 0x2294 JUMP JUMPDEST PUSH1 0x20 PUSH1 0x40 MLOAD DUP1 DUP4 SUB DUP2 PUSH0 DUP8 GAS CALL ISZERO DUP1 ISZERO PUSH2 0x1B74 JUMPI RETURNDATASIZE PUSH0 DUP1 RETURNDATACOPY RETURNDATASIZE PUSH0 REVERT JUMPDEST POP POP POP POP PUSH1 0x40 MLOAD RETURNDATASIZE PUSH1 0x1F NOT PUSH1 0x1F DUP3 ADD AND DUP3 ADD DUP1 PUSH1 0x40 MSTORE POP DUP2 ADD SWAP1 PUSH2 0x1B98 SWAP2 SWAP1 PUSH2 0x22F0 JUMP JUMPDEST POP DUP11 PUSH20 0xFFFFFFFFFFFFFFFFFFFFFFFFFFFFFFFFFFFFFFFF AND PUSH4 0xA9059CBB CALLER DUP5 PUSH1 0x40 MLOAD DUP4 PUSH4 0xFFFFFFFF AND PUSH1 0xE0 SHL DUP2 MSTORE PUSH1 0x4 ADD PUSH2 0x1BD4 SWAP3 SWAP2 SWAP1 PUSH2 0x2294 JUMP JUMPDEST PUSH1 0x20 PUSH1 0x40 MLOAD DUP1 DUP4 SUB DUP2 PUSH0 DUP8 GAS CALL ISZERO DUP1 ISZERO PUSH2 0x1BF0 JUMPI RETURNDATASIZE PUSH0 DUP1 RETURNDATACOPY RETURNDATASIZE PUSH0 REVERT JUMPDEST POP POP POP POP PUSH1 0x40 MLOAD RETURNDATASIZE PUSH1 0x1F NOT PUSH1 0x1F DUP3 ADD AND DUP3 ADD DUP1 PUSH1 0x40 MSTORE POP DUP2 ADD SWAP1 PUSH2 0x1C14 SWAP2 SWAP1 PUSH2 0x22F0 JUMP JUMPDEST POP DUP8 PUSH20 0xFFFFFFFFFFFFFFFFFFFFFFFFFFFFFFFFFFFFFFFF AND DUP13 PUSH20 0xFFFFFFFFFFFFFFFFFFFFFFFFFFFFFFFFFFFFFFFF AND SUB PUSH2 0x1C81 JUMPI DUP3 DUP7 PUSH1 0x2 ADD PUSH0 DUP3 DUP3 SLOAD PUSH2 0x1C5B SWAP2 SWAP1 PUSH2 0x2597 JUMP JUMPDEST SWAP3 POP POP DUP2 SWAP1 SSTORE POP DUP2 DUP7 PUSH1 0x3 ADD PUSH0 DUP3 DUP3 SLOAD PUSH2 0x1C75 SWAP2 SWAP1 PUSH2 0x2261 JUMP JUMPDEST SWAP3 POP POP DUP2 SWAP1 SSTORE POP PUSH2 0x1CB6 JUMP JUMPDEST DUP3 DUP7 PUSH1 0x3 ADD PUSH0 DUP3 DUP3 SLOAD PUSH2 0x1C94 SWAP2 SWAP1 PUSH2 0x2597 JUMP JUMPDEST SWAP3 POP POP DUP2 SWAP1 SSTORE POP DUP2 DUP7 PUSH1 0x2 ADD PUSH0 DUP3 DUP3 SLOAD PUSH2 0x1CAE SWAP2 SWAP1 PUSH2 0x2261 JUMP JUMPDEST SWAP3 POP POP DUP2 SWAP1 SSTORE POP JUMPDEST CALLER PUSH20 0xFFFFFFFFFFFFFFFFFFFFFFFFFFFFFFFFFFFFFFFF AND PUSH32 0x6782190C91D4A7E8AD2A867DEED6EC0A970CAB8FF137AE2BD4ABD92B3810F4D3 DUP14 DUP14 DUP14 DUP7 PUSH1 0x40 MLOAD PUSH2 0x1D02 SWAP5 SWAP4 SWAP3 SWAP2 SWAP1 PUSH2 0x2896 JUMP JUMPDEST PUSH1 0x40 MLOAD DUP1 SWAP2 SUB SWAP1 LOG2 POP POP POP POP POP POP POP POP PUSH2 0x1D1A PUSH2 0x1D6D JUMP JUMPDEST POP POP POP POP JUMP JUMPDEST PUSH1 0x2 PUSH0 SLOAD SUB PUSH2 0x1D64 JUMPI PUSH1 0x40 MLOAD PUSH32 0x8C379A000000000000000000000000000000000000000000000000000000000 DUP2 MSTORE PUSH1 0x4 ADD PUSH2 0x1D5B SWAP1 PUSH2 0x2923 JUMP JUMPDEST PUSH1 0x40 MLOAD DUP1 SWAP2 SUB SWAP1 REVERT JUMPDEST PUSH1 0x2 PUSH0 DUP2 SWAP1 SSTORE POP JUMP JUMPDEST PUSH1 0x1 PUSH0 DUP2 SWAP1 SSTORE POP JUMP JUMPDEST PUSH0 PUSH20 0xFFFFFFFFFFFFFFFFFFFFFFFFFFFFFFFFFFFFFFFF DUP3 AND SWAP1 POP SWAP2 SWAP1 POP JUMP JUMPDEST PUSH0 PUSH2 0x1D9F DUP3 PUSH2 0x1D76 JUMP JUMPDEST SWAP1 POP SWAP2 SWAP1 POP JUMP JUMPDEST PUSH2 0x1DAF DUP2 PUSH2 0x1D95 JUMP JUMPDEST DUP3 MSTORE POP POP JUMP JUMPDEST PUSH0 PUSH1 0x20 DUP3 ADD SWAP1 POP PUSH2 0x1DC8 PUSH0 DUP4 ADD DUP5 PUSH2 0x1DA6 JUMP JUMPDEST SWAP3 SWAP2 POP POP JUMP JUMPDEST PUSH0 DUP1 REVERT JUMPDEST PUSH2 0x1DDB DUP2 PUSH2 0x1D95 JUMP JUMPDEST DUP2 EQ PUSH2 0x1DE5 JUMPI PUSH0 DUP1 REVERT JUMPDEST POP JUMP JUMPDEST PUSH0 DUP2 CALLDATALOAD SWAP1 POP PUSH2 0x1DF6 DUP2 PUSH2 0x1DD2 JUMP JUMPDEST SWAP3 SWAP2 POP POP JUMP JUMPDEST PUSH0 DUP2 SWAP1 POP SWAP2 SWAP1 POP JUMP JUMPDEST PUSH2 0x1E0E DUP2 PUSH2 0x1DFC JUMP JUMPDEST DUP2 EQ PUSH2 0x1E18 JUMPI PUSH0 DUP1 REVERT JUMPDEST POP JUMP JUMPDEST PUSH0 DUP2 CALLDATALOAD SWAP1 POP PUSH2 0x1E29 DUP2 PUSH2 0x1E05 JUMP JUMPDEST SWAP3 SWAP2 POP POP JUMP JUMPDEST PUSH0 DUP1 PUSH0 DUP1 PUSH1 0x80 DUP6 DUP8 SUB SLT ISZERO PUSH2 0x1E47 JUMPI PUSH2 0x1E46 PUSH2 0x1DCE JUMP JUMPDEST JUMPDEST PUSH0 PUSH2 0x1E54 DUP8 DUP3 DUP9 ADD PUSH2 0x1DE8 JUMP JUMPDEST SWAP5 POP POP PUSH1 0x20 PUSH2 0x1E65 DUP8 DUP3 DUP9 ADD PUSH2 0x1DE8 JUMP JUMPDEST SWAP4 POP POP PUSH1 0x40 PUSH2 0x1E76 DUP8 DUP3 DUP9 ADD PUSH2 0x1E1B JUMP JUMPDEST SWAP3 POP POP PUSH1 0x60 PUSH2 0x1E87 DUP8 DUP3 DUP9 ADD PUSH2 0x1E1B JUMP JUMPDEST SWAP2 POP POP SWAP3 SWAP6 SWAP2 SWAP5 POP SWAP3 POP JUMP JUMPDEST PUSH0 DUP1 PUSH1 0x40 DUP4 DUP6 SUB SLT ISZERO PUSH2 0x1EA9 JUMPI PUSH2 0x1EA8 PUSH2 0x1DCE JUMP JUMPDEST JUMPDEST PUSH0 PUSH2 0x1EB6 DUP6 DUP3 DUP7 ADD PUSH2 0x1DE8 JUMP JUMPDEST SWAP3 POP POP PUSH1 0x20 PUSH2 0x1EC7 DUP6 DUP3 DUP7 ADD PUSH2 0x1DE8 JUMP JUMPDEST SWAP2 POP POP SWAP3 POP SWAP3 SWAP1 POP JUMP JUMPDEST PUSH2 0x1EDA DUP2 PUSH2 0x1DFC JUMP JUMPDEST DUP3 MSTORE POP POP JUMP JUMPDEST PUSH0 PUSH1 0xA0 DUP3 ADD SWAP1 POP PUSH2 0x1EF3 PUSH0 DUP4 ADD DUP9 PUSH2 0x1DA6 JUMP JUMPDEST PUSH2 0x1F00 PUSH1 0x20 DUP4 ADD DUP8 PUSH2 0x1DA6 JUMP JUMPDEST PUSH2 0x1F0D PUSH1 0x40 DUP4 ADD DUP7 PUSH2 0x1ED1 JUMP JUMPDEST PUSH2 0x1F1A PUSH1 0x60 DUP4 ADD DUP6 PUSH2 0x1ED1 JUMP JUMPDEST PUSH2 0x1F27 PUSH1 0x80 DUP4 ADD DUP5 PUSH2 0x1ED1 JUMP JUMPDEST SWAP7 SWAP6 POP POP POP POP POP POP JUMP JUMPDEST PUSH0 PUSH1 0x20 DUP3 DUP5 SUB SLT ISZERO PUSH2 0x1F46 JUMPI PUSH2 0x1F45 PUSH2 0x1DCE JUMP JUMPDEST JUMPDEST PUSH0 PUSH2 0x1F53 DUP5 DUP3 DUP6 ADD PUSH2 0x1E1B JUMP JUMPDEST SWAP2 POP POP SWAP3 SWAP2 POP POP JUMP JUMPDEST PUSH0 PUSH1 0x40 DUP3 ADD SWAP1 POP PUSH2 0x1F6F PUSH0 DUP4 ADD DUP6 PUSH2 0x1DA6 JUMP JUMPDEST PUSH2 0x1F7C PUSH1 0x20 DUP4 ADD DUP5 PUSH2 0x1DA6 JUMP JUMPDEST SWAP4 SWAP3 POP POP POP JUMP JUMPDEST PUSH0 DUP1 PUSH0 PUSH1 0x60 DUP5 DUP7 SUB SLT ISZERO PUSH2 0x1F9A JUMPI PUSH2 0x1F99 PUSH2 0x1DCE JUMP JUMPDEST JUMPDEST PUSH0 PUSH2 0x1FA7 DUP7 DUP3 DUP8 ADD PUSH2 0x1DE8 JUMP JUMPDEST SWAP4 POP POP PUSH1 0x20 PUSH2 0x1FB8 DUP7 DUP3 DUP8 ADD PUSH2 0x1DE8 JUMP JUMPDEST SWAP3 POP POP PUSH1 0x40 PUSH2 0x1FC9 DUP7 DUP3 DUP8 ADD PUSH2 0x1E1B JUMP JUMPDEST SWAP2 POP POP SWAP3 POP SWAP3 POP SWAP3 JUMP JUMPDEST PUSH0 PUSH1 0x20 DUP3 ADD SWAP1 POP PUSH2 0x1FE6 PUSH0 DUP4 ADD DUP5 PUSH2 0x1ED1 JUMP JUMPDEST SWAP3 SWAP2 POP POP JUMP JUMPDEST PUSH0 DUP3 DUP3 MSTORE PUSH1 0x20 DUP3 ADD SWAP1 POP SWAP3 SWAP2 POP POP JUMP JUMPDEST PUSH32 0x4F6E6C792063726561746F722063616E2063616C6C20746869732066756E6374 PUSH0 DUP3 ADD MSTORE PUSH32 0x696F6E0000000000000000000000000000000000000000000000000000000000 PUSH1 0x20 DUP3 ADD MSTORE POP JUMP JUMPDEST PUSH0 PUSH2 0x2056 PUSH1 0x23 DUP4 PUSH2 0x1FEC JUMP JUMPDEST SWAP2 POP PUSH2 0x2061 DUP3 PUSH2 0x1FFC JUMP JUMPDEST PUSH1 0x40 DUP3 ADD SWAP1 POP SWAP2 SWAP1 POP JUMP JUMPDEST PUSH0 PUSH1 0x20 DUP3 ADD SWAP1 POP DUP2 DUP2 SUB PUSH0 DUP4 ADD MSTORE PUSH2 0x2083 DUP2 PUSH2 0x204A JUMP JUMPDEST SWAP1 POP SWAP2 SWAP1 POP JUMP JUMPDEST PUSH32 0x5769746864726177616C20616D6F756E7473206D757374206265206772656174 PUSH0 DUP3 ADD MSTORE PUSH32 0x6572207468616E207A65726F0000000000000000000000000000000000000000 PUSH1 0x20 DUP3 ADD MSTORE POP JUMP JUMPDEST PUSH0 PUSH2 0x20E4 PUSH1 0x2C DUP4 PUSH2 0x1FEC JUMP JUMPDEST SWAP2 POP PUSH2 0x20EF DUP3 PUSH2 0x208A JUMP JUMPDEST PUSH1 0x40 DUP3 ADD SWAP1 POP SWAP2 SWAP1 POP JUMP JUMPDEST PUSH0 PUSH1 0x20 DUP3 ADD SWAP1 POP DUP2 DUP2 SUB PUSH0 DUP4 ADD MSTORE PUSH2 0x2111 DUP2 PUSH2 0x20D8 JUMP JUMPDEST SWAP1 POP SWAP2 SWAP1 POP JUMP JUMPDEST PUSH32 0x496E73756666696369656E74206C697175696469747920666F7220746F6B656E PUSH0 DUP3 ADD MSTORE PUSH32 0x4100000000000000000000000000000000000000000000000000000000000000 PUSH1 0x20 DUP3 ADD MSTORE POP JUMP JUMPDEST PUSH0 PUSH2 0x2172 PUSH1 0x21 DUP4 PUSH2 0x1FEC JUMP JUMPDEST SWAP2 POP PUSH2 0x217D DUP3 PUSH2 0x2118 JUMP JUMPDEST PUSH1 0x40 DUP3 ADD SWAP1 POP SWAP2 SWAP1 POP JUMP JUMPDEST PUSH0 PUSH1 0x20 DUP3 ADD SWAP1 POP DUP2 DUP2 SUB PUSH0 DUP4 ADD MSTORE PUSH2 0x219F DUP2 PUSH2 0x2166 JUMP JUMPDEST SWAP1 POP SWAP2 SWAP1 POP JUMP JUMPDEST PUSH32 0x496E73756666696369656E74206C697175696469747920666F7220746F6B656E PUSH0 DUP3 ADD MSTORE PUSH32 0x4200000000000000000000000000000000000000000000000000000000000000 PUSH1 0x20 DUP3 ADD MSTORE POP JUMP JUMPDEST PUSH0 PUSH2 0x2200 PUSH1 0x21 DUP4 PUSH2 0x1FEC JUMP JUMPDEST SWAP2 POP PUSH2 0x220B DUP3 PUSH2 0x21A6 JUMP JUMPDEST PUSH1 0x40 DUP3 ADD SWAP1 POP SWAP2 SWAP1 POP JUMP JUMPDEST PUSH0 PUSH1 0x20 DUP3 ADD SWAP1 POP DUP2 DUP2 SUB PUSH0 DUP4 ADD MSTORE PUSH2 0x222D DUP2 PUSH2 0x21F4 JUMP JUMPDEST SWAP1 POP SWAP2 SWAP1 POP JUMP JUMPDEST PUSH32 0x4E487B7100000000000000000000000000000000000000000000000000000000 PUSH0 MSTORE PUSH1 0x11 PUSH1 0x4 MSTORE PUSH1 0x24 PUSH0 REVERT JUMPDEST PUSH0 PUSH2 0x226B DUP3 PUSH2 0x1DFC JUMP JUMPDEST SWAP2 POP PUSH2 0x2276 DUP4 PUSH2 0x1DFC JUMP JUMPDEST SWAP3 POP DUP3 DUP3 SUB SWAP1 POP DUP2 DUP2 GT ISZERO PUSH2 0x228E JUMPI PUSH2 0x228D PUSH2 0x2234 JUMP JUMPDEST JUMPDEST SWAP3 SWAP2 POP POP JUMP JUMPDEST PUSH0 PUSH1 0x40 DUP3 ADD SWAP1 POP PUSH2 0x22A7 PUSH0 DUP4 ADD DUP6 PUSH2 0x1DA6 JUMP JUMPDEST PUSH2 0x22B4 PUSH1 0x20 DUP4 ADD DUP5 PUSH2 0x1ED1 JUMP JUMPDEST SWAP4 SWAP3 POP POP POP JUMP JUMPDEST PUSH0 DUP2 ISZERO ISZERO SWAP1 POP SWAP2 SWAP1 POP JUMP JUMPDEST PUSH2 0x22CF DUP2 PUSH2 0x22BB JUMP JUMPDEST DUP2 EQ PUSH2 0x22D9 JUMPI PUSH0 DUP1 REVERT JUMPDEST POP JUMP JUMPDEST PUSH0 DUP2 MLOAD SWAP1 POP PUSH2 0x22EA DUP2 PUSH2 0x22C6 JUMP JUMPDEST SWAP3 SWAP2 POP POP JUMP JUMPDEST PUSH0 PUSH1 0x20 DUP3 DUP5 SUB SLT ISZERO PUSH2 0x2305 JUMPI PUSH2 0x2304 PUSH2 0x1DCE JUMP JUMPDEST JUMPDEST PUSH0 PUSH2 0x2312 DUP5 DUP3 DUP6 ADD PUSH2 0x22DC JUMP JUMPDEST SWAP2 POP POP SWAP3 SWAP2 POP POP JUMP JUMPDEST PUSH0 PUSH1 0x40 DUP3 ADD SWAP1 POP PUSH2 0x232E PUSH0 DUP4 ADD DUP6 PUSH2 0x1ED1 JUMP JUMPDEST PUSH2 0x233B PUSH1 0x20 DUP4 ADD DUP5 PUSH2 0x1ED1 JUMP JUMPDEST SWAP4 SWAP3 POP POP POP JUMP JUMPDEST PUSH32 0x5061697220646F6573206E6F7420657869737400000000000000000000000000 PUSH0 DUP3 ADD MSTORE POP JUMP JUMPDEST PUSH0 PUSH2 0x2376 PUSH1 0x13 DUP4 PUSH2 0x1FEC JUMP JUMPDEST SWAP2 POP PUSH2 0x2381 DUP3 PUSH2 0x2342 JUMP JUMPDEST PUSH1 0x20 DUP3 ADD SWAP1 POP SWAP2 SWAP1 POP JUMP JUMPDEST PUSH0 PUSH1 0x20 DUP3 ADD SWAP1 POP DUP2 DUP2 SUB PUSH0 DUP4 ADD MSTORE PUSH2 0x23A3 DUP2 PUSH2 0x236A JUMP JUMPDEST SWAP1 POP SWAP2 SWAP1 POP JUMP JUMPDEST PUSH32 0x4E487B7100000000000000000000000000000000000000000000000000000000 PUSH0 MSTORE PUSH1 0x32 PUSH1 0x4 MSTORE PUSH1 0x24 PUSH0 REVERT JUMPDEST PUSH32 0x4E487B7100000000000000000000000000000000000000000000000000000000 PUSH0 MSTORE PUSH1 0x31 PUSH1 0x4 MSTORE PUSH1 0x24 PUSH0 REVERT JUMPDEST PUSH32 0x496E76616C696420746F6B656E20616464726573730000000000000000000000 PUSH0 DUP3 ADD MSTORE POP JUMP JUMPDEST PUSH0 PUSH2 0x2438 PUSH1 0x15 DUP4 PUSH2 0x1FEC JUMP JUMPDEST SWAP2 POP PUSH2 0x2443 DUP3 PUSH2 0x2404 JUMP JUMPDEST PUSH1 0x20 DUP3 ADD SWAP1 POP SWAP2 SWAP1 POP JUMP JUMPDEST PUSH0 PUSH1 0x20 DUP3 ADD SWAP1 POP DUP2 DUP2 SUB PUSH0 DUP4 ADD MSTORE PUSH2 0x2465 DUP2 PUSH2 0x242C JUMP JUMPDEST SWAP1 POP SWAP2 SWAP1 POP JUMP JUMPDEST PUSH32 0x5061697220616C72656164792065786973747300000000000000000000000000 PUSH0 DUP3 ADD MSTORE POP JUMP JUMPDEST PUSH0 PUSH2 0x24A0 PUSH1 0x13 DUP4 PUSH2 0x1FEC JUMP JUMPDEST SWAP2 POP PUSH2 0x24AB DUP3 PUSH2 0x246C JUMP JUMPDEST PUSH1 0x20 DUP3 ADD SWAP1 POP SWAP2 SWAP1 POP JUMP JUMPDEST PUSH0 PUSH1 0x20 DUP3 ADD SWAP1 POP DUP2 DUP2 SUB PUSH0 DUP4 ADD MSTORE PUSH2 0x24CD DUP2 PUSH2 0x2494 JUMP JUMPDEST SWAP1 POP SWAP2 SWAP1 POP JUMP JUMPDEST PUSH32 0x416D6F756E7473206D7573742062652067726561746572207468616E207A6572 PUSH0 DUP3 ADD MSTORE PUSH32 0x6F00000000000000000000000000000000000000000000000000000000000000 PUSH1 0x20 DUP3 ADD MSTORE POP JUMP JUMPDEST PUSH0 PUSH2 0x252E PUSH1 0x21 DUP4 PUSH2 0x1FEC JUMP JUMPDEST SWAP2 POP PUSH2 0x2539 DUP3 PUSH2 0x24D4 JUMP JUMPDEST PUSH1 0x40 DUP3 ADD SWAP1 POP SWAP2 SWAP1 POP JUMP JUMPDEST PUSH0 PUSH1 0x20 DUP3 ADD SWAP1 POP DUP2 DUP2 SUB PUSH0 DUP4 ADD MSTORE PUSH2 0x255B DUP2 PUSH2 0x2522 JUMP JUMPDEST SWAP1 POP SWAP2 SWAP1 POP JUMP JUMPDEST PUSH0 PUSH1 0x60 DUP3 ADD SWAP1 POP PUSH2 0x2575 PUSH0 DUP4 ADD DUP7 PUSH2 0x1DA6 JUMP JUMPDEST PUSH2 0x2582 PUSH1 0x20 DUP4 ADD DUP6 PUSH2 0x1DA6 JUMP JUMPDEST PUSH2 0x258F PUSH1 0x40 DUP4 ADD DUP5 PUSH2 0x1ED1 JUMP JUMPDEST SWAP5 SWAP4 POP POP POP POP JUMP JUMPDEST PUSH0 PUSH2 0x25A1 DUP3 PUSH2 0x1DFC JUMP JUMPDEST SWAP2 POP PUSH2 0x25AC DUP4 PUSH2 0x1DFC JUMP JUMPDEST SWAP3 POP DUP3 DUP3 ADD SWAP1 POP DUP1 DUP3 GT ISZERO PUSH2 0x25C4 JUMPI PUSH2 0x25C3 PUSH2 0x2234 JUMP JUMPDEST JUMPDEST SWAP3 SWAP2 POP POP JUMP JUMPDEST PUSH32 0x416D6F756E7420696E206D7573742062652067726561746572207468616E207A PUSH0 DUP3 ADD MSTORE PUSH32 0x65726F0000000000000000000000000000000000000000000000000000000000 PUSH1 0x20 DUP3 ADD MSTORE POP JUMP JUMPDEST PUSH0 PUSH2 0x2624 PUSH1 0x23 DUP4 PUSH2 0x1FEC JUMP JUMPDEST SWAP2 POP PUSH2 0x262F DUP3 PUSH2 0x25CA JUMP JUMPDEST PUSH1 0x40 DUP3 ADD SWAP1 POP SWAP2 SWAP1 POP JUMP JUMPDEST PUSH0 PUSH1 0x20 DUP3 ADD SWAP1 POP DUP2 DUP2 SUB PUSH0 DUP4 ADD MSTORE PUSH2 0x2651 DUP2 PUSH2 0x2618 JUMP JUMPDEST SWAP1 POP SWAP2 SWAP1 POP JUMP JUMPDEST PUSH32 0x456D707479207265736572766573000000000000000000000000000000000000 PUSH0 DUP3 ADD MSTORE POP JUMP JUMPDEST PUSH0 PUSH2 0x268C PUSH1 0xE DUP4 PUSH2 0x1FEC JUMP JUMPDEST SWAP2 POP PUSH2 0x2697 DUP3 PUSH2 0x2658 JUMP JUMPDEST PUSH1 0x20 DUP3 ADD SWAP1 POP SWAP2 SWAP1 POP JUMP JUMPDEST PUSH0 PUSH1 0x20 DUP3 ADD SWAP1 POP DUP2 DUP2 SUB PUSH0 DUP4 ADD MSTORE PUSH2 0x26B9 DUP2 PUSH2 0x2680 JUMP JUMPDEST SWAP1 POP SWAP2 SWAP1 POP JUMP JUMPDEST PUSH0 PUSH2 0x26CA DUP3 PUSH2 0x1DFC JUMP JUMPDEST SWAP2 POP PUSH2 0x26D5 DUP4 PUSH2 0x1DFC JUMP JUMPDEST SWAP3 POP DUP3 DUP3 MUL PUSH2 0x26E3 DUP2 PUSH2 0x1DFC JUMP JUMPDEST SWAP2 POP DUP3 DUP3 DIV DUP5 EQ DUP4 ISZERO OR PUSH2 0x26FA JUMPI PUSH2 0x26F9 PUSH2 0x2234 JUMP JUMPDEST JUMPDEST POP SWAP3 SWAP2 POP POP JUMP JUMPDEST PUSH32 0x4E487B7100000000000000000000000000000000000000000000000000000000 PUSH0 MSTORE PUSH1 0x12 PUSH1 0x4 MSTORE PUSH1 0x24 PUSH0 REVERT JUMPDEST PUSH0 PUSH2 0x2738 DUP3 PUSH2 0x1DFC JUMP JUMPDEST SWAP2 POP PUSH2 0x2743 DUP4 PUSH2 0x1DFC JUMP JUMPDEST SWAP3 POP DUP3 PUSH2 0x2753 JUMPI PUSH2 0x2752 PUSH2 0x2701 JUMP JUMPDEST JUMPDEST DUP3 DUP3 DIV SWAP1 POP SWAP3 SWAP2 POP POP JUMP JUMPDEST PUSH32 0x45666665637469766520616D6F756E7420746F6F206C6F770000000000000000 PUSH0 DUP3 ADD MSTORE POP JUMP JUMPDEST PUSH0 PUSH2 0x2792 PUSH1 0x18 DUP4 PUSH2 0x1FEC JUMP JUMPDEST SWAP2 POP PUSH2 0x279D DUP3 PUSH2 0x275E JUMP JUMPDEST PUSH1 0x20 DUP3 ADD SWAP1 POP SWAP2 SWAP1 POP JUMP JUMPDEST PUSH0 PUSH1 0x20 DUP3 ADD SWAP1 POP DUP2 DUP2 SUB PUSH0 DUP4 ADD MSTORE PUSH2 0x27BF DUP2 PUSH2 0x2786 JUMP JUMPDEST SWAP1 POP SWAP2 SWAP1 POP JUMP JUMPDEST PUSH32 0x536C697070616765206C696D6974206578636565646564000000000000000000 PUSH0 DUP3 ADD MSTORE POP JUMP JUMPDEST PUSH0 PUSH2 0x27FA PUSH1 0x17 DUP4 PUSH2 0x1FEC JUMP JUMPDEST SWAP2 POP PUSH2 0x2805 DUP3 PUSH2 0x27C6 JUMP JUMPDEST PUSH1 0x20 DUP3 ADD SWAP1 POP SWAP2 SWAP1 POP JUMP JUMPDEST PUSH0 PUSH1 0x20 DUP3 ADD SWAP1 POP DUP2 DUP2 SUB PUSH0 DUP4 ADD MSTORE PUSH2 0x2827 DUP2 PUSH2 0x27EE JUMP JUMPDEST SWAP1 POP SWAP2 SWAP1 POP JUMP JUMPDEST PUSH32 0x496E73756666696369656E74206C697175696469747900000000000000000000 PUSH0 DUP3 ADD MSTORE POP JUMP JUMPDEST PUSH0 PUSH2 0x2862 PUSH1 0x16 DUP4 PUSH2 0x1FEC JUMP JUMPDEST SWAP2 POP PUSH2 0x286D DUP3 PUSH2 0x282E JUMP JUMPDEST PUSH1 0x20 DUP3 ADD SWAP1 POP SWAP2 SWAP1 POP JUMP JUMPDEST PUSH0 PUSH1 0x20 DUP3 ADD SWAP1 POP DUP2 DUP2 SUB PUSH0 DUP4 ADD MSTORE PUSH2 0x288F DUP2 PUSH2 0x2856 JUMP JUMPDEST SWAP1 POP SWAP2 SWAP1 POP JUMP JUMPDEST PUSH0 PUSH1 0x80 DUP3 ADD SWAP1 POP PUSH2 0x28A9 PUSH0 DUP4 ADD DUP8 PUSH2 0x1DA6 JUMP JUMPDEST PUSH2 0x28B6 PUSH1 0x20 DUP4 ADD DUP7 PUSH2 0x1DA6 JUMP JUMPDEST PUSH2 0x28C3 PUSH1 0x40 DUP4 ADD DUP6 PUSH2 0x1ED1 JUMP JUMPDEST PUSH2 0x28D0 PUSH1 0x60 DUP4 ADD DUP5 PUSH2 0x1ED1 JUMP JUMPDEST SWAP6 SWAP5 POP POP POP POP POP JUMP JUMPDEST PUSH32 0x5265656E7472616E637947756172643A207265656E7472616E742063616C6C00 PUSH0 DUP3 ADD MSTORE POP JUMP JUMPDEST PUSH0 PUSH2 0x290D PUSH1 0x1F DUP4 PUSH2 0x1FEC JUMP JUMPDEST SWAP2 POP PUSH2 0x2918 DUP3 PUSH2 0x28D9 JUMP JUMPDEST PUSH1 0x20 DUP3 ADD SWAP1 POP SWAP2 SWAP1 POP JUMP JUMPDEST PUSH0 PUSH1 0x20 DUP3 ADD SWAP1 POP DUP2 DUP2 SUB PUSH0 DUP4 ADD MSTORE PUSH2 0x293A DUP2 PUSH2 0x2901 JUMP JUMPDEST SWAP1 POP SWAP2 SWAP1 POP JUMP INVALID LOG2 PUSH5 0x6970667358 0x22 SLT KECCAK256 KECCAK256 SWAP1 PC BLOCKHASH 0xF6 0x26 PUSH0 PUSH22 0x1F3B0423D4D480B4100B19E32E98000F274401BCC8D5 SWAP15 PUSH5 0x64736F6C63 NUMBER STOP ADDMOD BYTE STOP CALLER "
				},
				"gasEstimates": {
					"creation": {
						"codeDepositCost": "2123000",
						"executionCost": "infinite",
						"totalCost": "infinite"
					},
					"external": {
						"addPair(address,address,uint256)": "infinite",
						"creator()": "2509",
						"depositLiquidity(address,address,uint256,uint256)": "infinite",
						"pairKeys(uint256)": "infinite",
						"pairs(address,address)": "infinite",
						"platformFeeBPS()": "2469",
						"platformWallet()": "2574",
						"removePair(address,address)": "infinite",
						"swap(address,address,uint256,uint256)": "infinite",
						"withdrawFromPair(address,address,uint256,uint256)": "infinite"
					}
				},
				"methodIdentifiers": {
					"addPair(address,address,uint256)": "b5acfa62",
					"creator()": "02d05d3f",
					"depositLiquidity(address,address,uint256,uint256)": "bd50a3d4",
					"pairKeys(uint256)": "ad8c5668",
					"pairs(address,address)": "69454b86",
					"platformFeeBPS()": "ebaaa3a1",
					"platformWallet()": "fa2af9da",
					"removePair(address,address)": "5861b227",
					"swap(address,address,uint256,uint256)": "fe029156",
					"withdrawFromPair(address,address,uint256,uint256)": "27efb5a7"
				}
			},
			"storageLayout": {
				"storage": [
					{
						"astId": 10,
						"contract": "contracts/onepage.sol:OnePageLiquidity",
						"label": "_status",
						"offset": 0,
						"slot": "0",
						"type": "t_uint256"
					},
					{
						"astId": 150,
						"contract": "contracts/onepage.sol:OnePageLiquidity",
						"label": "creator",
						"offset": 0,
						"slot": "1",
						"type": "t_address"
					},
					{
						"astId": 152,
						"contract": "contracts/onepage.sol:OnePageLiquidity",
						"label": "platformWallet",
						"offset": 0,
						"slot": "2",
						"type": "t_address"
					},
					{
						"astId": 154,
						"contract": "contracts/onepage.sol:OnePageLiquidity",
						"label": "platformFeeBPS",
						"offset": 0,
						"slot": "3",
						"type": "t_uint256"
					},
					{
						"astId": 223,
						"contract": "contracts/onepage.sol:OnePageLiquidity",
						"label": "pairs",
						"offset": 0,
						"slot": "4",
						"type": "t_mapping(t_address,t_mapping(t_address,t_struct(Pair)211_storage))"
					},
					{
						"astId": 227,
						"contract": "contracts/onepage.sol:OnePageLiquidity",
						"label": "pairKeys",
						"offset": 0,
						"slot": "5",
						"type": "t_array(t_struct(PairKey)216_storage)dyn_storage"
					}
				],
				"types": {
					"t_address": {
						"encoding": "inplace",
						"label": "address",
						"numberOfBytes": "20"
					},
					"t_array(t_struct(PairKey)216_storage)dyn_storage": {
						"base": "t_struct(PairKey)216_storage",
						"encoding": "dynamic_array",
						"label": "struct OnePageLiquidity.PairKey[]",
						"numberOfBytes": "32"
					},
					"t_mapping(t_address,t_mapping(t_address,t_struct(Pair)211_storage))": {
						"encoding": "mapping",
						"key": "t_address",
						"label": "mapping(address => mapping(address => struct OnePageLiquidity.Pair))",
						"numberOfBytes": "32",
						"value": "t_mapping(t_address,t_struct(Pair)211_storage)"
					},
					"t_mapping(t_address,t_struct(Pair)211_storage)": {
						"encoding": "mapping",
						"key": "t_address",
						"label": "mapping(address => struct OnePageLiquidity.Pair)",
						"numberOfBytes": "32",
						"value": "t_struct(Pair)211_storage"
					},
					"t_struct(Pair)211_storage": {
						"encoding": "inplace",
						"label": "struct OnePageLiquidity.Pair",
						"members": [
							{
								"astId": 202,
								"contract": "contracts/onepage.sol:OnePageLiquidity",
								"label": "tokenA",
								"offset": 0,
								"slot": "0",
								"type": "t_address"
							},
							{
								"astId": 204,
								"contract": "contracts/onepage.sol:OnePageLiquidity",
								"label": "tokenB",
								"offset": 0,
								"slot": "1",
								"type": "t_address"
							},
							{
								"astId": 206,
								"contract": "contracts/onepage.sol:OnePageLiquidity",
								"label": "reserveA",
								"offset": 0,
								"slot": "2",
								"type": "t_uint256"
							},
							{
								"astId": 208,
								"contract": "contracts/onepage.sol:OnePageLiquidity",
								"label": "reserveB",
								"offset": 0,
								"slot": "3",
								"type": "t_uint256"
							},
							{
								"astId": 210,
								"contract": "contracts/onepage.sol:OnePageLiquidity",
								"label": "fee",
								"offset": 0,
								"slot": "4",
								"type": "t_uint256"
							}
						],
						"numberOfBytes": "160"
					},
					"t_struct(PairKey)216_storage": {
						"encoding": "inplace",
						"label": "struct OnePageLiquidity.PairKey",
						"members": [
							{
								"astId": 213,
								"contract": "contracts/onepage.sol:OnePageLiquidity",
								"label": "tokenA",
								"offset": 0,
								"slot": "0",
								"type": "t_address"
							},
							{
								"astId": 215,
								"contract": "contracts/onepage.sol:OnePageLiquidity",
								"label": "tokenB",
								"offset": 0,
								"slot": "1",
								"type": "t_address"
							}
						],
						"numberOfBytes": "64"
					},
					"t_uint256": {
						"encoding": "inplace",
						"label": "uint256",
						"numberOfBytes": "32"
					}
				}
			},
			"userdoc": {
				"kind": "user",
				"methods": {},
				"version": 1
			}
		}
	}
}