{
	"contracts/onepage.sol": {
		"OnePageLiquidity": {
			"abi": [
				{
					"inputs": [
						{
							"internalType": "address",
							"name": "_creator",
							"type": "address"
						},
						{
							"internalType": "address",
							"name": "_platformWallet",
							"type": "address"
						},
						{
							"internalType": "uint256",
							"name": "_platformFeeBPS",
							"type": "uint256"
						}
					],
					"stateMutability": "nonpayable",
					"type": "constructor"
				},
				{
					"anonymous": false,
					"inputs": [
						{
							"indexed": true,
							"internalType": "address",
							"name": "tokenA",
							"type": "address"
						},
						{
							"indexed": true,
							"internalType": "address",
							"name": "tokenB",
							"type": "address"
						},
						{
							"indexed": false,
							"internalType": "uint256",
							"name": "amountA",
							"type": "uint256"
						},
						{
							"indexed": false,
							"internalType": "uint256",
							"name": "amountB",
							"type": "uint256"
						}
					],
					"name": "LiquidityDeposited",
					"type": "event"
				},
				{
					"anonymous": false,
					"inputs": [
						{
							"indexed": true,
							"internalType": "address",
							"name": "tokenA",
							"type": "address"
						},
						{
							"indexed": true,
							"internalType": "address",
							"name": "tokenB",
							"type": "address"
						},
						{
							"indexed": false,
							"internalType": "uint256",
							"name": "amountA",
							"type": "uint256"
						},
						{
							"indexed": false,
							"internalType": "uint256",
							"name": "amountB",
							"type": "uint256"
						}
					],
					"name": "LiquidityWithdrawn",
					"type": "event"
				},
				{
					"anonymous": false,
					"inputs": [
						{
							"indexed": true,
							"internalType": "address",
							"name": "tokenA",
							"type": "address"
						},
						{
							"indexed": true,
							"internalType": "address",
							"name": "tokenB",
							"type": "address"
						},
						{
							"indexed": false,
							"internalType": "uint256",
							"name": "fee",
							"type": "uint256"
						}
					],
					"name": "PairAdded",
					"type": "event"
				},
				{
					"anonymous": false,
					"inputs": [
						{
							"indexed": true,
							"internalType": "address",
							"name": "user",
							"type": "address"
						},
						{
							"indexed": false,
							"internalType": "address",
							"name": "tokenIn",
							"type": "address"
						},
						{
							"indexed": false,
							"internalType": "address",
							"name": "tokenOut",
							"type": "address"
						},
						{
							"indexed": false,
							"internalType": "uint256",
							"name": "amountIn",
							"type": "uint256"
						},
						{
							"indexed": false,
							"internalType": "uint256",
							"name": "amountOut",
							"type": "uint256"
						}
					],
					"name": "Swapped",
					"type": "event"
				},
				{
					"inputs": [
						{
							"internalType": "address",
							"name": "tokenA",
							"type": "address"
						},
						{
							"internalType": "address",
							"name": "tokenB",
							"type": "address"
						},
						{
							"internalType": "uint256",
							"name": "fee",
							"type": "uint256"
						}
					],
					"name": "addPair",
					"outputs": [],
					"stateMutability": "nonpayable",
					"type": "function"
				},
				{
					"inputs": [],
					"name": "creator",
					"outputs": [
						{
							"internalType": "address",
							"name": "",
							"type": "address"
						}
					],
					"stateMutability": "view",
					"type": "function"
				},
				{
					"inputs": [
						{
							"internalType": "address",
							"name": "tokenA",
							"type": "address"
						},
						{
							"internalType": "address",
							"name": "tokenB",
							"type": "address"
						},
						{
							"internalType": "uint256",
							"name": "amountA",
							"type": "uint256"
						},
						{
							"internalType": "uint256",
							"name": "amountB",
							"type": "uint256"
						}
					],
					"name": "depositLiquidity",
					"outputs": [],
					"stateMutability": "nonpayable",
					"type": "function"
				},
				{
					"inputs": [
						{
							"internalType": "uint256",
							"name": "",
							"type": "uint256"
						}
					],
					"name": "pairKeys",
					"outputs": [
						{
							"internalType": "address",
							"name": "tokenA",
							"type": "address"
						},
						{
							"internalType": "address",
							"name": "tokenB",
							"type": "address"
						}
					],
					"stateMutability": "view",
					"type": "function"
				},
				{
					"inputs": [
						{
							"internalType": "address",
							"name": "",
							"type": "address"
						},
						{
							"internalType": "address",
							"name": "",
							"type": "address"
						}
					],
					"name": "pairs",
					"outputs": [
						{
							"internalType": "address",
							"name": "tokenA",
							"type": "address"
						},
						{
							"internalType": "address",
							"name": "tokenB",
							"type": "address"
						},
						{
							"internalType": "uint256",
							"name": "reserveA",
							"type": "uint256"
						},
						{
							"internalType": "uint256",
							"name": "reserveB",
							"type": "uint256"
						},
						{
							"internalType": "uint256",
							"name": "fee",
							"type": "uint256"
						}
					],
					"stateMutability": "view",
					"type": "function"
				},
				{
					"inputs": [],
					"name": "platformFeeBPS",
					"outputs": [
						{
							"internalType": "uint256",
							"name": "",
							"type": "uint256"
						}
					],
					"stateMutability": "view",
					"type": "function"
				},
				{
					"inputs": [],
					"name": "platformWallet",
					"outputs": [
						{
							"internalType": "address",
							"name": "",
							"type": "address"
						}
					],
					"stateMutability": "view",
					"type": "function"
				},
				{
					"inputs": [
						{
							"internalType": "address",
							"name": "tokenIn",
							"type": "address"
						},
						{
							"internalType": "address",
							"name": "tokenOut",
							"type": "address"
						},
						{
							"internalType": "uint256",
							"name": "amountIn",
							"type": "uint256"
						},
						{
							"internalType": "uint256",
							"name": "minAmountOut",
							"type": "uint256"
						}
					],
					"name": "swap",
					"outputs": [],
					"stateMutability": "nonpayable",
					"type": "function"
				},
				{
					"inputs": [
						{
							"internalType": "address",
							"name": "tokenA",
							"type": "address"
						},
						{
							"internalType": "address",
							"name": "tokenB",
							"type": "address"
						},
						{
							"internalType": "uint256",
							"name": "amountA",
							"type": "uint256"
						},
						{
							"internalType": "uint256",
							"name": "amountB",
							"type": "uint256"
						}
					],
					"name": "withdrawFromPair",
					"outputs": [],
					"stateMutability": "nonpayable",
					"type": "function"
				}
			],
			"devdoc": {
				"kind": "dev",
				"methods": {},
				"version": 1
			},
			"evm": {
				"assembly": "    /* \"contracts/onepage.sol\":120:6276  contract OnePageLiquidity {... */\n  mstore(0x40, 0x80)\n    /* \"contracts/onepage.sol\":1387:1684  constructor(address _creator, address _platformWallet, uint256 _platformFeeBPS) {... */\n  callvalue\n  dup1\n  iszero\n  tag_1\n  jumpi\n  0x00\n  dup1\n  revert\ntag_1:\n  pop\n  mload(0x40)\n  sub(codesize, bytecodeSize)\n  dup1\n  bytecodeSize\n  dup4\n  codecopy\n  dup2\n  dup2\n  add\n  0x40\n  mstore\n  dup2\n  add\n  swap1\n  tag_2\n  swap2\n  swap1\n  tag_3\n  jump\t// in\ntag_2:\n    /* \"contracts/onepage.sol\":1506:1507  0 */\n  0x00\n    /* \"contracts/onepage.sol\":1486:1508  _creator != address(0) */\n  0xffffffffffffffffffffffffffffffffffffffff\n  and\n    /* \"contracts/onepage.sol\":1486:1494  _creator */\n  dup4\n    /* \"contracts/onepage.sol\":1486:1508  _creator != address(0) */\n  0xffffffffffffffffffffffffffffffffffffffff\n  and\n  eq\n  iszero\n    /* \"contracts/onepage.sol\":1486:1541  _creator != address(0) && _platformWallet != address(0) */\n  dup1\n  iszero\n  tag_6\n  jumpi\n  pop\n    /* \"contracts/onepage.sol\":1539:1540  0 */\n  0x00\n    /* \"contracts/onepage.sol\":1512:1541  _platformWallet != address(0) */\n  0xffffffffffffffffffffffffffffffffffffffff\n  and\n    /* \"contracts/onepage.sol\":1512:1527  _platformWallet */\n  dup3\n    /* \"contracts/onepage.sol\":1512:1541  _platformWallet != address(0) */\n  0xffffffffffffffffffffffffffffffffffffffff\n  and\n  eq\n  iszero\n    /* \"contracts/onepage.sol\":1486:1541  _creator != address(0) && _platformWallet != address(0) */\ntag_6:\n    /* \"contracts/onepage.sol\":1478:1561  require(_creator != address(0) && _platformWallet != address(0), \"Invalid address\") */\n  tag_7\n  jumpi\n  mload(0x40)\n  0x08c379a000000000000000000000000000000000000000000000000000000000\n  dup2\n  mstore\n  0x04\n  add\n  tag_8\n  swap1\n  tag_9\n  jump\t// in\ntag_8:\n  mload(0x40)\n  dup1\n  swap2\n  sub\n  swap1\n  revert\ntag_7:\n    /* \"contracts/onepage.sol\":1582:1590  _creator */\n  dup3\n    /* \"contracts/onepage.sol\":1572:1579  creator */\n  0x00\n  dup1\n    /* \"contracts/onepage.sol\":1572:1590  creator = _creator */\n  0x0100\n  exp\n  dup2\n  sload\n  dup2\n  0xffffffffffffffffffffffffffffffffffffffff\n  mul\n  not\n  and\n  swap1\n  dup4\n  0xffffffffffffffffffffffffffffffffffffffff\n  and\n  mul\n  or\n  swap1\n  sstore\n  pop\n    /* \"contracts/onepage.sol\":1618:1633  _platformWallet */\n  dup2\n    /* \"contracts/onepage.sol\":1601:1615  platformWallet */\n  0x01\n  0x00\n    /* \"contracts/onepage.sol\":1601:1633  platformWallet = _platformWallet */\n  0x0100\n  exp\n  dup2\n  sload\n  dup2\n  0xffffffffffffffffffffffffffffffffffffffff\n  mul\n  not\n  and\n  swap1\n  dup4\n  0xffffffffffffffffffffffffffffffffffffffff\n  and\n  mul\n  or\n  swap1\n  sstore\n  pop\n    /* \"contracts/onepage.sol\":1661:1676  _platformFeeBPS */\n  dup1\n    /* \"contracts/onepage.sol\":1644:1658  platformFeeBPS */\n  0x02\n    /* \"contracts/onepage.sol\":1644:1676  platformFeeBPS = _platformFeeBPS */\n  dup2\n  swap1\n  sstore\n  pop\n    /* \"contracts/onepage.sol\":1387:1684  constructor(address _creator, address _platformWallet, uint256 _platformFeeBPS) {... */\n  pop\n  pop\n  pop\n    /* \"contracts/onepage.sol\":120:6276  contract OnePageLiquidity {... */\n  jump(tag_10)\n    /* \"#utility.yul\":88:205   */\ntag_12:\n    /* \"#utility.yul\":197:198   */\n  0x00\n    /* \"#utility.yul\":194:195   */\n  dup1\n    /* \"#utility.yul\":187:199   */\n  revert\n    /* \"#utility.yul\":334:460   */\ntag_14:\n    /* \"#utility.yul\":371:378   */\n  0x00\n    /* \"#utility.yul\":411:453   */\n  0xffffffffffffffffffffffffffffffffffffffff\n    /* \"#utility.yul\":404:409   */\n  dup3\n    /* \"#utility.yul\":400:454   */\n  and\n    /* \"#utility.yul\":389:454   */\n  swap1\n  pop\n    /* \"#utility.yul\":334:460   */\n  swap2\n  swap1\n  pop\n  jump\t// out\n    /* \"#utility.yul\":466:562   */\ntag_15:\n    /* \"#utility.yul\":503:510   */\n  0x00\n    /* \"#utility.yul\":532:556   */\n  tag_30\n    /* \"#utility.yul\":550:555   */\n  dup3\n    /* \"#utility.yul\":532:556   */\n  tag_14\n  jump\t// in\ntag_30:\n    /* \"#utility.yul\":521:556   */\n  swap1\n  pop\n    /* \"#utility.yul\":466:562   */\n  swap2\n  swap1\n  pop\n  jump\t// out\n    /* \"#utility.yul\":568:690   */\ntag_16:\n    /* \"#utility.yul\":641:665   */\n  tag_32\n    /* \"#utility.yul\":659:664   */\n  dup2\n    /* \"#utility.yul\":641:665   */\n  tag_15\n  jump\t// in\ntag_32:\n    /* \"#utility.yul\":634:639   */\n  dup2\n    /* \"#utility.yul\":631:666   */\n  eq\n    /* \"#utility.yul\":621:684   */\n  tag_33\n  jumpi\n    /* \"#utility.yul\":680:681   */\n  0x00\n    /* \"#utility.yul\":677:678   */\n  dup1\n    /* \"#utility.yul\":670:682   */\n  revert\n    /* \"#utility.yul\":621:684   */\ntag_33:\n    /* \"#utility.yul\":568:690   */\n  pop\n  jump\t// out\n    /* \"#utility.yul\":696:839   */\ntag_17:\n    /* \"#utility.yul\":753:758   */\n  0x00\n    /* \"#utility.yul\":784:790   */\n  dup2\n    /* \"#utility.yul\":778:791   */\n  mload\n    /* \"#utility.yul\":769:791   */\n  swap1\n  pop\n    /* \"#utility.yul\":800:833   */\n  tag_35\n    /* \"#utility.yul\":827:832   */\n  dup2\n    /* \"#utility.yul\":800:833   */\n  tag_16\n  jump\t// in\ntag_35:\n    /* \"#utility.yul\":696:839   */\n  swap3\n  swap2\n  pop\n  pop\n  jump\t// out\n    /* \"#utility.yul\":845:922   */\ntag_18:\n    /* \"#utility.yul\":882:889   */\n  0x00\n    /* \"#utility.yul\":911:916   */\n  dup2\n    /* \"#utility.yul\":900:916   */\n  swap1\n  pop\n    /* \"#utility.yul\":845:922   */\n  swap2\n  swap1\n  pop\n  jump\t// out\n    /* \"#utility.yul\":928:1050   */\ntag_19:\n    /* \"#utility.yul\":1001:1025   */\n  tag_38\n    /* \"#utility.yul\":1019:1024   */\n  dup2\n    /* \"#utility.yul\":1001:1025   */\n  tag_18\n  jump\t// in\ntag_38:\n    /* \"#utility.yul\":994:999   */\n  dup2\n    /* \"#utility.yul\":991:1026   */\n  eq\n    /* \"#utility.yul\":981:1044   */\n  tag_39\n  jumpi\n    /* \"#utility.yul\":1040:1041   */\n  0x00\n    /* \"#utility.yul\":1037:1038   */\n  dup1\n    /* \"#utility.yul\":1030:1042   */\n  revert\n    /* \"#utility.yul\":981:1044   */\ntag_39:\n    /* \"#utility.yul\":928:1050   */\n  pop\n  jump\t// out\n    /* \"#utility.yul\":1056:1199   */\ntag_20:\n    /* \"#utility.yul\":1113:1118   */\n  0x00\n    /* \"#utility.yul\":1144:1150   */\n  dup2\n    /* \"#utility.yul\":1138:1151   */\n  mload\n    /* \"#utility.yul\":1129:1151   */\n  swap1\n  pop\n    /* \"#utility.yul\":1160:1193   */\n  tag_41\n    /* \"#utility.yul\":1187:1192   */\n  dup2\n    /* \"#utility.yul\":1160:1193   */\n  tag_19\n  jump\t// in\ntag_41:\n    /* \"#utility.yul\":1056:1199   */\n  swap3\n  swap2\n  pop\n  pop\n  jump\t// out\n    /* \"#utility.yul\":1205:1868   */\ntag_3:\n    /* \"#utility.yul\":1293:1299   */\n  0x00\n    /* \"#utility.yul\":1301:1307   */\n  dup1\n    /* \"#utility.yul\":1309:1315   */\n  0x00\n    /* \"#utility.yul\":1358:1360   */\n  0x60\n    /* \"#utility.yul\":1346:1355   */\n  dup5\n    /* \"#utility.yul\":1337:1344   */\n  dup7\n    /* \"#utility.yul\":1333:1356   */\n  sub\n    /* \"#utility.yul\":1329:1361   */\n  slt\n    /* \"#utility.yul\":1326:1445   */\n  iszero\n  tag_43\n  jumpi\n    /* \"#utility.yul\":1364:1443   */\n  tag_44\n  tag_12\n  jump\t// in\ntag_44:\n    /* \"#utility.yul\":1326:1445   */\ntag_43:\n    /* \"#utility.yul\":1484:1485   */\n  0x00\n    /* \"#utility.yul\":1509:1573   */\n  tag_45\n    /* \"#utility.yul\":1565:1572   */\n  dup7\n    /* \"#utility.yul\":1556:1562   */\n  dup3\n    /* \"#utility.yul\":1545:1554   */\n  dup8\n    /* \"#utility.yul\":1541:1563   */\n  add\n    /* \"#utility.yul\":1509:1573   */\n  tag_17\n  jump\t// in\ntag_45:\n    /* \"#utility.yul\":1499:1573   */\n  swap4\n  pop\n    /* \"#utility.yul\":1455:1583   */\n  pop\n    /* \"#utility.yul\":1622:1624   */\n  0x20\n    /* \"#utility.yul\":1648:1712   */\n  tag_46\n    /* \"#utility.yul\":1704:1711   */\n  dup7\n    /* \"#utility.yul\":1695:1701   */\n  dup3\n    /* \"#utility.yul\":1684:1693   */\n  dup8\n    /* \"#utility.yul\":1680:1702   */\n  add\n    /* \"#utility.yul\":1648:1712   */\n  tag_17\n  jump\t// in\ntag_46:\n    /* \"#utility.yul\":1638:1712   */\n  swap3\n  pop\n    /* \"#utility.yul\":1593:1722   */\n  pop\n    /* \"#utility.yul\":1761:1763   */\n  0x40\n    /* \"#utility.yul\":1787:1851   */\n  tag_47\n    /* \"#utility.yul\":1843:1850   */\n  dup7\n    /* \"#utility.yul\":1834:1840   */\n  dup3\n    /* \"#utility.yul\":1823:1832   */\n  dup8\n    /* \"#utility.yul\":1819:1841   */\n  add\n    /* \"#utility.yul\":1787:1851   */\n  tag_20\n  jump\t// in\ntag_47:\n    /* \"#utility.yul\":1777:1851   */\n  swap2\n  pop\n    /* \"#utility.yul\":1732:1861   */\n  pop\n    /* \"#utility.yul\":1205:1868   */\n  swap3\n  pop\n  swap3\n  pop\n  swap3\n  jump\t// out\n    /* \"#utility.yul\":1874:2043   */\ntag_21:\n    /* \"#utility.yul\":1958:1969   */\n  0x00\n    /* \"#utility.yul\":1992:1998   */\n  dup3\n    /* \"#utility.yul\":1987:1990   */\n  dup3\n    /* \"#utility.yul\":1980:1999   */\n  mstore\n    /* \"#utility.yul\":2032:2036   */\n  0x20\n    /* \"#utility.yul\":2027:2030   */\n  dup3\n    /* \"#utility.yul\":2023:2037   */\n  add\n    /* \"#utility.yul\":2008:2037   */\n  swap1\n  pop\n    /* \"#utility.yul\":1874:2043   */\n  swap3\n  swap2\n  pop\n  pop\n  jump\t// out\n    /* \"#utility.yul\":2049:2214   */\ntag_22:\n    /* \"#utility.yul\":2189:2206   */\n  0x496e76616c696420616464726573730000000000000000000000000000000000\n    /* \"#utility.yul\":2185:2186   */\n  0x00\n    /* \"#utility.yul\":2177:2183   */\n  dup3\n    /* \"#utility.yul\":2173:2187   */\n  add\n    /* \"#utility.yul\":2166:2207   */\n  mstore\n    /* \"#utility.yul\":2049:2214   */\n  pop\n  jump\t// out\n    /* \"#utility.yul\":2220:2586   */\ntag_23:\n    /* \"#utility.yul\":2362:2365   */\n  0x00\n    /* \"#utility.yul\":2383:2450   */\n  tag_51\n    /* \"#utility.yul\":2447:2449   */\n  0x0f\n    /* \"#utility.yul\":2442:2445   */\n  dup4\n    /* \"#utility.yul\":2383:2450   */\n  tag_21\n  jump\t// in\ntag_51:\n    /* \"#utility.yul\":2376:2450   */\n  swap2\n  pop\n    /* \"#utility.yul\":2459:2552   */\n  tag_52\n    /* \"#utility.yul\":2548:2551   */\n  dup3\n    /* \"#utility.yul\":2459:2552   */\n  tag_22\n  jump\t// in\ntag_52:\n    /* \"#utility.yul\":2577:2579   */\n  0x20\n    /* \"#utility.yul\":2572:2575   */\n  dup3\n    /* \"#utility.yul\":2568:2580   */\n  add\n    /* \"#utility.yul\":2561:2580   */\n  swap1\n  pop\n    /* \"#utility.yul\":2220:2586   */\n  swap2\n  swap1\n  pop\n  jump\t// out\n    /* \"#utility.yul\":2592:3011   */\ntag_9:\n    /* \"#utility.yul\":2758:2762   */\n  0x00\n    /* \"#utility.yul\":2796:2798   */\n  0x20\n    /* \"#utility.yul\":2785:2794   */\n  dup3\n    /* \"#utility.yul\":2781:2799   */\n  add\n    /* \"#utility.yul\":2773:2799   */\n  swap1\n  pop\n    /* \"#utility.yul\":2845:2854   */\n  dup2\n    /* \"#utility.yul\":2839:2843   */\n  dup2\n    /* \"#utility.yul\":2835:2855   */\n  sub\n    /* \"#utility.yul\":2831:2832   */\n  0x00\n    /* \"#utility.yul\":2820:2829   */\n  dup4\n    /* \"#utility.yul\":2816:2833   */\n  add\n    /* \"#utility.yul\":2809:2856   */\n  mstore\n    /* \"#utility.yul\":2873:3004   */\n  tag_54\n    /* \"#utility.yul\":2999:3003   */\n  dup2\n    /* \"#utility.yul\":2873:3004   */\n  tag_23\n  jump\t// in\ntag_54:\n    /* \"#utility.yul\":2865:3004   */\n  swap1\n  pop\n    /* \"#utility.yul\":2592:3011   */\n  swap2\n  swap1\n  pop\n  jump\t// out\n    /* \"contracts/onepage.sol\":120:6276  contract OnePageLiquidity {... */\ntag_10:\n  dataSize(sub_0)\n  dup1\n  dataOffset(sub_0)\n  0x00\n  codecopy\n  0x00\n  return\nstop\n\nsub_0: assembly {\n        /* \"contracts/onepage.sol\":120:6276  contract OnePageLiquidity {... */\n      mstore(0x40, 0x80)\n      callvalue\n      dup1\n      iszero\n      tag_1\n      jumpi\n      0x00\n      dup1\n      revert\n    tag_1:\n      pop\n      jumpi(tag_2, lt(calldatasize, 0x04))\n      shr(0xe0, calldataload(0x00))\n      dup1\n      0xb5acfa62\n      gt\n      tag_12\n      jumpi\n      dup1\n      0xb5acfa62\n      eq\n      tag_7\n      jumpi\n      dup1\n      0xbd50a3d4\n      eq\n      tag_8\n      jumpi\n      dup1\n      0xebaaa3a1\n      eq\n      tag_9\n      jumpi\n      dup1\n      0xfa2af9da\n      eq\n      tag_10\n      jumpi\n      dup1\n      0xfe029156\n      eq\n      tag_11\n      jumpi\n      jump(tag_2)\n    tag_12:\n      dup1\n      0x02d05d3f\n      eq\n      tag_3\n      jumpi\n      dup1\n      0x27efb5a7\n      eq\n      tag_4\n      jumpi\n      dup1\n      0x69454b86\n      eq\n      tag_5\n      jumpi\n      dup1\n      0xad8c5668\n      eq\n      tag_6\n      jumpi\n    tag_2:\n      0x00\n      dup1\n      revert\n        /* \"contracts/onepage.sol\":153:175  address public creator */\n    tag_3:\n      tag_13\n      tag_14\n      jump\t// in\n    tag_13:\n      mload(0x40)\n      tag_15\n      swap2\n      swap1\n      tag_16\n      jump\t// in\n    tag_15:\n      mload(0x40)\n      dup1\n      swap2\n      sub\n      swap1\n      return\n        /* \"contracts/onepage.sol\":5503:6273  function withdrawFromPair(address tokenA, address tokenB, uint256 amountA, uint256 amountB) external onlyCreator {... */\n    tag_4:\n      tag_17\n      0x04\n      dup1\n      calldatasize\n      sub\n      dup2\n      add\n      swap1\n      tag_18\n      swap2\n      swap1\n      tag_19\n      jump\t// in\n    tag_18:\n      tag_20\n      jump\t// in\n    tag_17:\n      stop\n        /* \"contracts/onepage.sol\":1101:1158  mapping(address => mapping(address => Pair)) public pairs */\n    tag_5:\n      tag_21\n      0x04\n      dup1\n      calldatasize\n      sub\n      dup2\n      add\n      swap1\n      tag_22\n      swap2\n      swap1\n      tag_23\n      jump\t// in\n    tag_22:\n      tag_24\n      jump\t// in\n    tag_21:\n      mload(0x40)\n      tag_25\n      swap6\n      swap5\n      swap4\n      swap3\n      swap2\n      swap1\n      tag_26\n      jump\t// in\n    tag_25:\n      mload(0x40)\n      dup1\n      swap2\n      sub\n      swap1\n      return\n        /* \"contracts/onepage.sol\":1165:1190  PairKey[] public pairKeys */\n    tag_6:\n      tag_27\n      0x04\n      dup1\n      calldatasize\n      sub\n      dup2\n      add\n      swap1\n      tag_28\n      swap2\n      swap1\n      tag_29\n      jump\t// in\n    tag_28:\n      tag_30\n      jump\t// in\n    tag_27:\n      mload(0x40)\n      tag_31\n      swap3\n      swap2\n      swap1\n      tag_32\n      jump\t// in\n    tag_31:\n      mload(0x40)\n      dup1\n      swap2\n      sub\n      swap1\n      return\n        /* \"contracts/onepage.sol\":1725:2300  function addPair(address tokenA, address tokenB, uint256 fee) external onlyCreator {... */\n    tag_7:\n      tag_33\n      0x04\n      dup1\n      calldatasize\n      sub\n      dup2\n      add\n      swap1\n      tag_34\n      swap2\n      swap1\n      tag_35\n      jump\t// in\n    tag_34:\n      tag_36\n      jump\t// in\n    tag_33:\n      stop\n        /* \"contracts/onepage.sol\":2350:3200  function depositLiquidity(address tokenA, address tokenB, uint256 amountA, uint256 amountB) external onlyCreator {... */\n    tag_8:\n      tag_37\n      0x04\n      dup1\n      calldatasize\n      sub\n      dup2\n      add\n      swap1\n      tag_38\n      swap2\n      swap1\n      tag_19\n      jump\t// in\n    tag_38:\n      tag_39\n      jump\t// in\n    tag_37:\n      stop\n        /* \"contracts/onepage.sol\":263:292  uint256 public platformFeeBPS */\n    tag_9:\n      tag_40\n      tag_41\n      jump\t// in\n    tag_40:\n      mload(0x40)\n      tag_42\n      swap2\n      swap1\n      tag_43\n      jump\t// in\n    tag_42:\n      mload(0x40)\n      dup1\n      swap2\n      sub\n      swap1\n      return\n        /* \"contracts/onepage.sol\":182:211  address public platformWallet */\n    tag_10:\n      tag_44\n      tag_45\n      jump\t// in\n    tag_44:\n      mload(0x40)\n      tag_46\n      swap2\n      swap1\n      tag_16\n      jump\t// in\n    tag_46:\n      mload(0x40)\n      dup1\n      swap2\n      sub\n      swap1\n      return\n        /* \"contracts/onepage.sol\":3328:5452  function swap(address tokenIn, address tokenOut, uint256 amountIn, uint256 minAmountOut) external {... */\n    tag_11:\n      tag_47\n      0x04\n      dup1\n      calldatasize\n      sub\n      dup2\n      add\n      swap1\n      tag_48\n      swap2\n      swap1\n      tag_19\n      jump\t// in\n    tag_48:\n      tag_49\n      jump\t// in\n    tag_47:\n      stop\n        /* \"contracts/onepage.sol\":153:175  address public creator */\n    tag_14:\n      0x00\n      dup1\n      sload\n      swap1\n      0x0100\n      exp\n      swap1\n      div\n      0xffffffffffffffffffffffffffffffffffffffff\n      and\n      dup2\n      jump\t// out\n        /* \"contracts/onepage.sol\":5503:6273  function withdrawFromPair(address tokenA, address tokenB, uint256 amountA, uint256 amountB) external onlyCreator {... */\n    tag_20:\n        /* \"contracts/onepage.sol\":1312:1319  creator */\n      0x00\n      dup1\n      sload\n      swap1\n      0x0100\n      exp\n      swap1\n      div\n      0xffffffffffffffffffffffffffffffffffffffff\n      and\n        /* \"contracts/onepage.sol\":1298:1319  msg.sender == creator */\n      0xffffffffffffffffffffffffffffffffffffffff\n      and\n        /* \"contracts/onepage.sol\":1298:1308  msg.sender */\n      caller\n        /* \"contracts/onepage.sol\":1298:1319  msg.sender == creator */\n      0xffffffffffffffffffffffffffffffffffffffff\n      and\n      eq\n        /* \"contracts/onepage.sol\":1290:1359  require(msg.sender == creator, \"Only creator can call this function\") */\n      tag_51\n      jumpi\n      mload(0x40)\n      0x08c379a000000000000000000000000000000000000000000000000000000000\n      dup2\n      mstore\n      0x04\n      add\n      tag_52\n      swap1\n      tag_53\n      jump\t// in\n    tag_52:\n      mload(0x40)\n      dup1\n      swap2\n      sub\n      swap1\n      revert\n    tag_51:\n        /* \"contracts/onepage.sol\":5645:5646  0 */\n      0x00\n        /* \"contracts/onepage.sol\":5635:5642  amountA */\n      dup3\n        /* \"contracts/onepage.sol\":5635:5646  amountA > 0 */\n      gt\n        /* \"contracts/onepage.sol\":5635:5661  amountA > 0 && amountB > 0 */\n      dup1\n      iszero\n      tag_55\n      jumpi\n      pop\n        /* \"contracts/onepage.sol\":5660:5661  0 */\n      0x00\n        /* \"contracts/onepage.sol\":5650:5657  amountB */\n      dup2\n        /* \"contracts/onepage.sol\":5650:5661  amountB > 0 */\n      gt\n        /* \"contracts/onepage.sol\":5635:5661  amountA > 0 && amountB > 0 */\n    tag_55:\n        /* \"contracts/onepage.sol\":5627:5710  require(amountA > 0 && amountB > 0, \"Withdrawal amounts must be greater than zero\") */\n      tag_56\n      jumpi\n      mload(0x40)\n      0x08c379a000000000000000000000000000000000000000000000000000000000\n      dup2\n      mstore\n      0x04\n      add\n      tag_57\n      swap1\n      tag_58\n      jump\t// in\n    tag_57:\n      mload(0x40)\n      dup1\n      swap2\n      sub\n      swap1\n      revert\n    tag_56:\n        /* \"contracts/onepage.sol\":5734:5740  tokenB */\n      dup3\n        /* \"contracts/onepage.sol\":5725:5740  tokenA > tokenB */\n      0xffffffffffffffffffffffffffffffffffffffff\n      and\n        /* \"contracts/onepage.sol\":5725:5731  tokenA */\n      dup5\n        /* \"contracts/onepage.sol\":5725:5740  tokenA > tokenB */\n      0xffffffffffffffffffffffffffffffffffffffff\n      and\n      gt\n        /* \"contracts/onepage.sol\":5721:5804  if (tokenA > tokenB) {... */\n      iszero\n      tag_59\n      jumpi\n        /* \"contracts/onepage.sol\":5777:5783  tokenB */\n      dup3\n        /* \"contracts/onepage.sol\":5785:5791  tokenA */\n      dup5\n        /* \"contracts/onepage.sol\":5757:5792  (tokenA, tokenB) = (tokenB, tokenA) */\n      dup1\n      swap5\n      pop\n      dup2\n      swap6\n      pop\n      pop\n      pop\n        /* \"contracts/onepage.sol\":5721:5804  if (tokenA > tokenB) {... */\n    tag_59:\n        /* \"contracts/onepage.sol\":5814:5831  Pair storage pair */\n      0x00\n        /* \"contracts/onepage.sol\":5834:5839  pairs */\n      0x03\n        /* \"contracts/onepage.sol\":5834:5847  pairs[tokenA] */\n      0x00\n        /* \"contracts/onepage.sol\":5840:5846  tokenA */\n      dup7\n        /* \"contracts/onepage.sol\":5834:5847  pairs[tokenA] */\n      0xffffffffffffffffffffffffffffffffffffffff\n      and\n      0xffffffffffffffffffffffffffffffffffffffff\n      and\n      dup2\n      mstore\n      0x20\n      add\n      swap1\n      dup2\n      mstore\n      0x20\n      add\n      0x00\n      keccak256\n        /* \"contracts/onepage.sol\":5834:5855  pairs[tokenA][tokenB] */\n      0x00\n        /* \"contracts/onepage.sol\":5848:5854  tokenB */\n      dup6\n        /* \"contracts/onepage.sol\":5834:5855  pairs[tokenA][tokenB] */\n      0xffffffffffffffffffffffffffffffffffffffff\n      and\n      0xffffffffffffffffffffffffffffffffffffffff\n      and\n      dup2\n      mstore\n      0x20\n      add\n      swap1\n      dup2\n      mstore\n      0x20\n      add\n      0x00\n      keccak256\n        /* \"contracts/onepage.sol\":5814:5855  Pair storage pair = pairs[tokenA][tokenB] */\n      swap1\n      pop\n        /* \"contracts/onepage.sol\":5891:5898  amountA */\n      dup3\n        /* \"contracts/onepage.sol\":5874:5878  pair */\n      dup2\n        /* \"contracts/onepage.sol\":5874:5887  pair.reserveA */\n      0x02\n      add\n      sload\n        /* \"contracts/onepage.sol\":5874:5898  pair.reserveA >= amountA */\n      lt\n      iszero\n        /* \"contracts/onepage.sol\":5866:5936  require(pair.reserveA >= amountA, \"Insufficient liquidity for tokenA\") */\n      tag_60\n      jumpi\n      mload(0x40)\n      0x08c379a000000000000000000000000000000000000000000000000000000000\n      dup2\n      mstore\n      0x04\n      add\n      tag_61\n      swap1\n      tag_62\n      jump\t// in\n    tag_61:\n      mload(0x40)\n      dup1\n      swap2\n      sub\n      swap1\n      revert\n    tag_60:\n        /* \"contracts/onepage.sol\":5972:5979  amountB */\n      dup2\n        /* \"contracts/onepage.sol\":5955:5959  pair */\n      dup2\n        /* \"contracts/onepage.sol\":5955:5968  pair.reserveB */\n      0x03\n      add\n      sload\n        /* \"contracts/onepage.sol\":5955:5979  pair.reserveB >= amountB */\n      lt\n      iszero\n        /* \"contracts/onepage.sol\":5947:6017  require(pair.reserveB >= amountB, \"Insufficient liquidity for tokenB\") */\n      tag_63\n      jumpi\n      mload(0x40)\n      0x08c379a000000000000000000000000000000000000000000000000000000000\n      dup2\n      mstore\n      0x04\n      add\n      tag_64\n      swap1\n      tag_65\n      jump\t// in\n    tag_64:\n      mload(0x40)\n      dup1\n      swap2\n      sub\n      swap1\n      revert\n    tag_63:\n        /* \"contracts/onepage.sol\":6047:6054  amountA */\n      dup3\n        /* \"contracts/onepage.sol\":6030:6034  pair */\n      dup2\n        /* \"contracts/onepage.sol\":6030:6043  pair.reserveA */\n      0x02\n      add\n      0x00\n        /* \"contracts/onepage.sol\":6030:6054  pair.reserveA -= amountA */\n      dup3\n      dup3\n      sload\n      tag_66\n      swap2\n      swap1\n      tag_67\n      jump\t// in\n    tag_66:\n      swap3\n      pop\n      pop\n      dup2\n      swap1\n      sstore\n      pop\n        /* \"contracts/onepage.sol\":6082:6089  amountB */\n      dup2\n        /* \"contracts/onepage.sol\":6065:6069  pair */\n      dup2\n        /* \"contracts/onepage.sol\":6065:6078  pair.reserveB */\n      0x03\n      add\n      0x00\n        /* \"contracts/onepage.sol\":6065:6089  pair.reserveB -= amountB */\n      dup3\n      dup3\n      sload\n      tag_68\n      swap2\n      swap1\n      tag_67\n      jump\t// in\n    tag_68:\n      swap3\n      pop\n      pop\n      dup2\n      swap1\n      sstore\n      pop\n        /* \"contracts/onepage.sol\":6109:6115  tokenA */\n      dup5\n        /* \"contracts/onepage.sol\":6102:6125  IERC20(tokenA).transfer */\n      0xffffffffffffffffffffffffffffffffffffffff\n      and\n      0xa9059cbb\n        /* \"contracts/onepage.sol\":6126:6133  creator */\n      0x00\n      dup1\n      sload\n      swap1\n      0x0100\n      exp\n      swap1\n      div\n      0xffffffffffffffffffffffffffffffffffffffff\n      and\n        /* \"contracts/onepage.sol\":6135:6142  amountA */\n      dup6\n        /* \"contracts/onepage.sol\":6102:6143  IERC20(tokenA).transfer(creator, amountA) */\n      mload(0x40)\n      dup4\n      0xffffffff\n      and\n      0xe0\n      shl\n      dup2\n      mstore\n      0x04\n      add\n      tag_69\n      swap3\n      swap2\n      swap1\n      tag_70\n      jump\t// in\n    tag_69:\n      0x20\n      mload(0x40)\n      dup1\n      dup4\n      sub\n      dup2\n      0x00\n      dup8\n      gas\n      call\n      iszero\n      dup1\n      iszero\n      tag_72\n      jumpi\n      returndatasize\n      0x00\n      dup1\n      returndatacopy\n      revert(0x00, returndatasize)\n    tag_72:\n      pop\n      pop\n      pop\n      pop\n      mload(0x40)\n      returndatasize\n      not(0x1f)\n      0x1f\n      dup3\n      add\n      and\n      dup3\n      add\n      dup1\n      0x40\n      mstore\n      pop\n      dup2\n      add\n      swap1\n      tag_73\n      swap2\n      swap1\n      tag_74\n      jump\t// in\n    tag_73:\n      pop\n        /* \"contracts/onepage.sol\":6161:6167  tokenB */\n      dup4\n        /* \"contracts/onepage.sol\":6154:6177  IERC20(tokenB).transfer */\n      0xffffffffffffffffffffffffffffffffffffffff\n      and\n      0xa9059cbb\n        /* \"contracts/onepage.sol\":6178:6185  creator */\n      0x00\n      dup1\n      sload\n      swap1\n      0x0100\n      exp\n      swap1\n      div\n      0xffffffffffffffffffffffffffffffffffffffff\n      and\n        /* \"contracts/onepage.sol\":6187:6194  amountB */\n      dup5\n        /* \"contracts/onepage.sol\":6154:6195  IERC20(tokenB).transfer(creator, amountB) */\n      mload(0x40)\n      dup4\n      0xffffffff\n      and\n      0xe0\n      shl\n      dup2\n      mstore\n      0x04\n      add\n      tag_75\n      swap3\n      swap2\n      swap1\n      tag_70\n      jump\t// in\n    tag_75:\n      0x20\n      mload(0x40)\n      dup1\n      dup4\n      sub\n      dup2\n      0x00\n      dup8\n      gas\n      call\n      iszero\n      dup1\n      iszero\n      tag_77\n      jumpi\n      returndatasize\n      0x00\n      dup1\n      returndatacopy\n      revert(0x00, returndatasize)\n    tag_77:\n      pop\n      pop\n      pop\n      pop\n      mload(0x40)\n      returndatasize\n      not(0x1f)\n      0x1f\n      dup3\n      add\n      and\n      dup3\n      add\n      dup1\n      0x40\n      mstore\n      pop\n      dup2\n      add\n      swap1\n      tag_78\n      swap2\n      swap1\n      tag_74\n      jump\t// in\n    tag_78:\n      pop\n        /* \"contracts/onepage.sol\":6240:6246  tokenB */\n      dup4\n        /* \"contracts/onepage.sol\":6213:6265  LiquidityWithdrawn(tokenA, tokenB, amountA, amountB) */\n      0xffffffffffffffffffffffffffffffffffffffff\n      and\n        /* \"contracts/onepage.sol\":6232:6238  tokenA */\n      dup6\n        /* \"contracts/onepage.sol\":6213:6265  LiquidityWithdrawn(tokenA, tokenB, amountA, amountB) */\n      0xffffffffffffffffffffffffffffffffffffffff\n      and\n      0xba0b893b2f314a229997e335266881b5ac6b290bd350d2c23cc57160b77882b8\n        /* \"contracts/onepage.sol\":6248:6255  amountA */\n      dup6\n        /* \"contracts/onepage.sol\":6257:6264  amountB */\n      dup6\n        /* \"contracts/onepage.sol\":6213:6265  LiquidityWithdrawn(tokenA, tokenB, amountA, amountB) */\n      mload(0x40)\n      tag_79\n      swap3\n      swap2\n      swap1\n      tag_80\n      jump\t// in\n    tag_79:\n      mload(0x40)\n      dup1\n      swap2\n      sub\n      swap1\n      log3\n        /* \"contracts/onepage.sol\":5616:6273  {... */\n      pop\n        /* \"contracts/onepage.sol\":5503:6273  function withdrawFromPair(address tokenA, address tokenB, uint256 amountA, uint256 amountB) external onlyCreator {... */\n      pop\n      pop\n      pop\n      pop\n      jump\t// out\n        /* \"contracts/onepage.sol\":1101:1158  mapping(address => mapping(address => Pair)) public pairs */\n    tag_24:\n      mstore(0x20, 0x03)\n      dup2\n      0x00\n      mstore\n      mstore(0x20, keccak256(0x00, 0x40))\n      dup1\n      0x00\n      mstore\n      keccak256(0x00, 0x40)\n      0x00\n      swap2\n      pop\n      swap2\n      pop\n      pop\n      dup1\n      0x00\n      add\n      0x00\n      swap1\n      sload\n      swap1\n      0x0100\n      exp\n      swap1\n      div\n      0xffffffffffffffffffffffffffffffffffffffff\n      and\n      swap1\n      dup1\n      0x01\n      add\n      0x00\n      swap1\n      sload\n      swap1\n      0x0100\n      exp\n      swap1\n      div\n      0xffffffffffffffffffffffffffffffffffffffff\n      and\n      swap1\n      dup1\n      0x02\n      add\n      sload\n      swap1\n      dup1\n      0x03\n      add\n      sload\n      swap1\n      dup1\n      0x04\n      add\n      sload\n      swap1\n      pop\n      dup6\n      jump\t// out\n        /* \"contracts/onepage.sol\":1165:1190  PairKey[] public pairKeys */\n    tag_30:\n      0x04\n      dup2\n      dup2\n      sload\n      dup2\n      lt\n      tag_81\n      jumpi\n      0x00\n      dup1\n      revert\n    tag_81:\n      swap1\n      0x00\n      mstore\n      keccak256(0x00, 0x20)\n      swap1\n      0x02\n      mul\n      add\n      0x00\n      swap2\n      pop\n      swap1\n      pop\n      dup1\n      0x00\n      add\n      0x00\n      swap1\n      sload\n      swap1\n      0x0100\n      exp\n      swap1\n      div\n      0xffffffffffffffffffffffffffffffffffffffff\n      and\n      swap1\n      dup1\n      0x01\n      add\n      0x00\n      swap1\n      sload\n      swap1\n      0x0100\n      exp\n      swap1\n      div\n      0xffffffffffffffffffffffffffffffffffffffff\n      and\n      swap1\n      pop\n      dup3\n      jump\t// out\n        /* \"contracts/onepage.sol\":1725:2300  function addPair(address tokenA, address tokenB, uint256 fee) external onlyCreator {... */\n    tag_36:\n        /* \"contracts/onepage.sol\":1312:1319  creator */\n      0x00\n      dup1\n      sload\n      swap1\n      0x0100\n      exp\n      swap1\n      div\n      0xffffffffffffffffffffffffffffffffffffffff\n      and\n        /* \"contracts/onepage.sol\":1298:1319  msg.sender == creator */\n      0xffffffffffffffffffffffffffffffffffffffff\n      and\n        /* \"contracts/onepage.sol\":1298:1308  msg.sender */\n      caller\n        /* \"contracts/onepage.sol\":1298:1319  msg.sender == creator */\n      0xffffffffffffffffffffffffffffffffffffffff\n      and\n      eq\n        /* \"contracts/onepage.sol\":1290:1359  require(msg.sender == creator, \"Only creator can call this function\") */\n      tag_84\n      jumpi\n      mload(0x40)\n      0x08c379a000000000000000000000000000000000000000000000000000000000\n      dup2\n      mstore\n      0x04\n      add\n      tag_85\n      swap1\n      tag_53\n      jump\t// in\n    tag_85:\n      mload(0x40)\n      dup1\n      swap2\n      sub\n      swap1\n      revert\n    tag_84:\n        /* \"contracts/onepage.sol\":1845:1846  0 */\n      0x00\n        /* \"contracts/onepage.sol\":1827:1847  tokenA != address(0) */\n      0xffffffffffffffffffffffffffffffffffffffff\n      and\n        /* \"contracts/onepage.sol\":1827:1833  tokenA */\n      dup4\n        /* \"contracts/onepage.sol\":1827:1847  tokenA != address(0) */\n      0xffffffffffffffffffffffffffffffffffffffff\n      and\n      eq\n      iszero\n        /* \"contracts/onepage.sol\":1827:1871  tokenA != address(0) && tokenB != address(0) */\n      dup1\n      iszero\n      tag_87\n      jumpi\n      pop\n        /* \"contracts/onepage.sol\":1869:1870  0 */\n      0x00\n        /* \"contracts/onepage.sol\":1851:1871  tokenB != address(0) */\n      0xffffffffffffffffffffffffffffffffffffffff\n      and\n        /* \"contracts/onepage.sol\":1851:1857  tokenB */\n      dup3\n        /* \"contracts/onepage.sol\":1851:1871  tokenB != address(0) */\n      0xffffffffffffffffffffffffffffffffffffffff\n      and\n      eq\n      iszero\n        /* \"contracts/onepage.sol\":1827:1871  tokenA != address(0) && tokenB != address(0) */\n    tag_87:\n        /* \"contracts/onepage.sol\":1819:1897  require(tokenA != address(0) && tokenB != address(0), \"Invalid token address\") */\n      tag_88\n      jumpi\n      mload(0x40)\n      0x08c379a000000000000000000000000000000000000000000000000000000000\n      dup2\n      mstore\n      0x04\n      add\n      tag_89\n      swap1\n      tag_90\n      jump\t// in\n    tag_89:\n      mload(0x40)\n      dup1\n      swap2\n      sub\n      swap1\n      revert\n    tag_88:\n        /* \"contracts/onepage.sol\":1973:1979  tokenB */\n      dup2\n        /* \"contracts/onepage.sol\":1964:1979  tokenA > tokenB */\n      0xffffffffffffffffffffffffffffffffffffffff\n      and\n        /* \"contracts/onepage.sol\":1964:1970  tokenA */\n      dup4\n        /* \"contracts/onepage.sol\":1964:1979  tokenA > tokenB */\n      0xffffffffffffffffffffffffffffffffffffffff\n      and\n      gt\n        /* \"contracts/onepage.sol\":1960:2043  if (tokenA > tokenB) {... */\n      iszero\n      tag_91\n      jumpi\n        /* \"contracts/onepage.sol\":2016:2022  tokenB */\n      dup2\n        /* \"contracts/onepage.sol\":2024:2030  tokenA */\n      dup4\n        /* \"contracts/onepage.sol\":1996:2031  (tokenA, tokenB) = (tokenB, tokenA) */\n      dup1\n      swap4\n      pop\n      dup2\n      swap5\n      pop\n      pop\n      pop\n        /* \"contracts/onepage.sol\":1960:2043  if (tokenA > tokenB) {... */\n    tag_91:\n        /* \"contracts/onepage.sol\":2101:2102  0 */\n      0x00\n        /* \"contracts/onepage.sol\":2061:2103  pairs[tokenA][tokenB].tokenA == address(0) */\n      0xffffffffffffffffffffffffffffffffffffffff\n      and\n        /* \"contracts/onepage.sol\":2061:2066  pairs */\n      0x03\n        /* \"contracts/onepage.sol\":2061:2074  pairs[tokenA] */\n      0x00\n        /* \"contracts/onepage.sol\":2067:2073  tokenA */\n      dup6\n        /* \"contracts/onepage.sol\":2061:2074  pairs[tokenA] */\n      0xffffffffffffffffffffffffffffffffffffffff\n      and\n      0xffffffffffffffffffffffffffffffffffffffff\n      and\n      dup2\n      mstore\n      0x20\n      add\n      swap1\n      dup2\n      mstore\n      0x20\n      add\n      0x00\n      keccak256\n        /* \"contracts/onepage.sol\":2061:2082  pairs[tokenA][tokenB] */\n      0x00\n        /* \"contracts/onepage.sol\":2075:2081  tokenB */\n      dup5\n        /* \"contracts/onepage.sol\":2061:2082  pairs[tokenA][tokenB] */\n      0xffffffffffffffffffffffffffffffffffffffff\n      and\n      0xffffffffffffffffffffffffffffffffffffffff\n      and\n      dup2\n      mstore\n      0x20\n      add\n      swap1\n      dup2\n      mstore\n      0x20\n      add\n      0x00\n      keccak256\n        /* \"contracts/onepage.sol\":2061:2089  pairs[tokenA][tokenB].tokenA */\n      0x00\n      add\n      0x00\n      swap1\n      sload\n      swap1\n      0x0100\n      exp\n      swap1\n      div\n      0xffffffffffffffffffffffffffffffffffffffff\n      and\n        /* \"contracts/onepage.sol\":2061:2103  pairs[tokenA][tokenB].tokenA == address(0) */\n      0xffffffffffffffffffffffffffffffffffffffff\n      and\n      eq\n        /* \"contracts/onepage.sol\":2053:2127  require(pairs[tokenA][tokenB].tokenA == address(0), \"Pair already exists\") */\n      tag_92\n      jumpi\n      mload(0x40)\n      0x08c379a000000000000000000000000000000000000000000000000000000000\n      dup2\n      mstore\n      0x04\n      add\n      tag_93\n      swap1\n      tag_94\n      jump\t// in\n    tag_93:\n      mload(0x40)\n      dup1\n      swap2\n      sub\n      swap1\n      revert\n    tag_92:\n        /* \"contracts/onepage.sol\":2164:2195  Pair(tokenA, tokenB, 0, 0, fee) */\n      mload(0x40)\n      dup1\n      0xa0\n      add\n      0x40\n      mstore\n      dup1\n        /* \"contracts/onepage.sol\":2169:2175  tokenA */\n      dup5\n        /* \"contracts/onepage.sol\":2164:2195  Pair(tokenA, tokenB, 0, 0, fee) */\n      0xffffffffffffffffffffffffffffffffffffffff\n      and\n      dup2\n      mstore\n      0x20\n      add\n        /* \"contracts/onepage.sol\":2177:2183  tokenB */\n      dup4\n        /* \"contracts/onepage.sol\":2164:2195  Pair(tokenA, tokenB, 0, 0, fee) */\n      0xffffffffffffffffffffffffffffffffffffffff\n      and\n      dup2\n      mstore\n      0x20\n      add\n        /* \"contracts/onepage.sol\":2185:2186  0 */\n      0x00\n        /* \"contracts/onepage.sol\":2164:2195  Pair(tokenA, tokenB, 0, 0, fee) */\n      dup2\n      mstore\n      0x20\n      add\n        /* \"contracts/onepage.sol\":2188:2189  0 */\n      0x00\n        /* \"contracts/onepage.sol\":2164:2195  Pair(tokenA, tokenB, 0, 0, fee) */\n      dup2\n      mstore\n      0x20\n      add\n        /* \"contracts/onepage.sol\":2191:2194  fee */\n      dup3\n        /* \"contracts/onepage.sol\":2164:2195  Pair(tokenA, tokenB, 0, 0, fee) */\n      dup2\n      mstore\n      pop\n        /* \"contracts/onepage.sol\":2140:2145  pairs */\n      0x03\n        /* \"contracts/onepage.sol\":2140:2153  pairs[tokenA] */\n      0x00\n        /* \"contracts/onepage.sol\":2146:2152  tokenA */\n      dup6\n        /* \"contracts/onepage.sol\":2140:2153  pairs[tokenA] */\n      0xffffffffffffffffffffffffffffffffffffffff\n      and\n      0xffffffffffffffffffffffffffffffffffffffff\n      and\n      dup2\n      mstore\n      0x20\n      add\n      swap1\n      dup2\n      mstore\n      0x20\n      add\n      0x00\n      keccak256\n        /* \"contracts/onepage.sol\":2140:2161  pairs[tokenA][tokenB] */\n      0x00\n        /* \"contracts/onepage.sol\":2154:2160  tokenB */\n      dup5\n        /* \"contracts/onepage.sol\":2140:2161  pairs[tokenA][tokenB] */\n      0xffffffffffffffffffffffffffffffffffffffff\n      and\n      0xffffffffffffffffffffffffffffffffffffffff\n      and\n      dup2\n      mstore\n      0x20\n      add\n      swap1\n      dup2\n      mstore\n      0x20\n      add\n      0x00\n      keccak256\n        /* \"contracts/onepage.sol\":2140:2195  pairs[tokenA][tokenB] = Pair(tokenA, tokenB, 0, 0, fee) */\n      0x00\n      dup3\n      add\n      mload\n      dup2\n      0x00\n      add\n      exp(0x0100, 0x00)\n      dup2\n      sload\n      dup2\n      0xffffffffffffffffffffffffffffffffffffffff\n      mul\n      not\n      and\n      swap1\n      dup4\n      0xffffffffffffffffffffffffffffffffffffffff\n      and\n      mul\n      or\n      swap1\n      sstore\n      pop\n      0x20\n      dup3\n      add\n      mload\n      dup2\n      0x01\n      add\n      exp(0x0100, 0x00)\n      dup2\n      sload\n      dup2\n      0xffffffffffffffffffffffffffffffffffffffff\n      mul\n      not\n      and\n      swap1\n      dup4\n      0xffffffffffffffffffffffffffffffffffffffff\n      and\n      mul\n      or\n      swap1\n      sstore\n      pop\n      0x40\n      dup3\n      add\n      mload\n      dup2\n      0x02\n      add\n      sstore\n      0x60\n      dup3\n      add\n      mload\n      dup2\n      0x03\n      add\n      sstore\n      0x80\n      dup3\n      add\n      mload\n      dup2\n      0x04\n      add\n      sstore\n      swap1\n      pop\n      pop\n        /* \"contracts/onepage.sol\":2206:2214  pairKeys */\n      0x04\n        /* \"contracts/onepage.sol\":2220:2243  PairKey(tokenA, tokenB) */\n      mload(0x40)\n      dup1\n      0x40\n      add\n      0x40\n      mstore\n      dup1\n        /* \"contracts/onepage.sol\":2228:2234  tokenA */\n      dup6\n        /* \"contracts/onepage.sol\":2220:2243  PairKey(tokenA, tokenB) */\n      0xffffffffffffffffffffffffffffffffffffffff\n      and\n      dup2\n      mstore\n      0x20\n      add\n        /* \"contracts/onepage.sol\":2236:2242  tokenB */\n      dup5\n        /* \"contracts/onepage.sol\":2220:2243  PairKey(tokenA, tokenB) */\n      0xffffffffffffffffffffffffffffffffffffffff\n      and\n      dup2\n      mstore\n      pop\n        /* \"contracts/onepage.sol\":2206:2244  pairKeys.push(PairKey(tokenA, tokenB)) */\n      swap1\n      dup1\n      0x01\n      dup2\n      sload\n      add\n      dup1\n      dup3\n      sstore\n      dup1\n      swap2\n      pop\n      pop\n      0x01\n      swap1\n      sub\n      swap1\n      0x00\n      mstore\n      keccak256(0x00, 0x20)\n      swap1\n      0x02\n      mul\n      add\n      0x00\n      swap1\n      swap2\n      swap1\n      swap2\n      swap1\n      swap2\n      pop\n      0x00\n      dup3\n      add\n      mload\n      dup2\n      0x00\n      add\n      exp(0x0100, 0x00)\n      dup2\n      sload\n      dup2\n      0xffffffffffffffffffffffffffffffffffffffff\n      mul\n      not\n      and\n      swap1\n      dup4\n      0xffffffffffffffffffffffffffffffffffffffff\n      and\n      mul\n      or\n      swap1\n      sstore\n      pop\n      0x20\n      dup3\n      add\n      mload\n      dup2\n      0x01\n      add\n      exp(0x0100, 0x00)\n      dup2\n      sload\n      dup2\n      0xffffffffffffffffffffffffffffffffffffffff\n      mul\n      not\n      and\n      swap1\n      dup4\n      0xffffffffffffffffffffffffffffffffffffffff\n      and\n      mul\n      or\n      swap1\n      sstore\n      pop\n      pop\n      pop\n        /* \"contracts/onepage.sol\":2280:2286  tokenB */\n      dup2\n        /* \"contracts/onepage.sol\":2262:2292  PairAdded(tokenA, tokenB, fee) */\n      0xffffffffffffffffffffffffffffffffffffffff\n      and\n        /* \"contracts/onepage.sol\":2272:2278  tokenA */\n      dup4\n        /* \"contracts/onepage.sol\":2262:2292  PairAdded(tokenA, tokenB, fee) */\n      0xffffffffffffffffffffffffffffffffffffffff\n      and\n      0xedd4b700a2980a33a301ad39ced5dbc1c98a786ecb28da5bf3926d5165005d1b\n        /* \"contracts/onepage.sol\":2288:2291  fee */\n      dup4\n        /* \"contracts/onepage.sol\":2262:2292  PairAdded(tokenA, tokenB, fee) */\n      mload(0x40)\n      tag_96\n      swap2\n      swap1\n      tag_43\n      jump\t// in\n    tag_96:\n      mload(0x40)\n      dup1\n      swap2\n      sub\n      swap1\n      log3\n        /* \"contracts/onepage.sol\":1725:2300  function addPair(address tokenA, address tokenB, uint256 fee) external onlyCreator {... */\n      pop\n      pop\n      pop\n      jump\t// out\n        /* \"contracts/onepage.sol\":2350:3200  function depositLiquidity(address tokenA, address tokenB, uint256 amountA, uint256 amountB) external onlyCreator {... */\n    tag_39:\n        /* \"contracts/onepage.sol\":1312:1319  creator */\n      0x00\n      dup1\n      sload\n      swap1\n      0x0100\n      exp\n      swap1\n      div\n      0xffffffffffffffffffffffffffffffffffffffff\n      and\n        /* \"contracts/onepage.sol\":1298:1319  msg.sender == creator */\n      0xffffffffffffffffffffffffffffffffffffffff\n      and\n        /* \"contracts/onepage.sol\":1298:1308  msg.sender */\n      caller\n        /* \"contracts/onepage.sol\":1298:1319  msg.sender == creator */\n      0xffffffffffffffffffffffffffffffffffffffff\n      and\n      eq\n        /* \"contracts/onepage.sol\":1290:1359  require(msg.sender == creator, \"Only creator can call this function\") */\n      tag_98\n      jumpi\n      mload(0x40)\n      0x08c379a000000000000000000000000000000000000000000000000000000000\n      dup2\n      mstore\n      0x04\n      add\n      tag_99\n      swap1\n      tag_53\n      jump\t// in\n    tag_99:\n      mload(0x40)\n      dup1\n      swap2\n      sub\n      swap1\n      revert\n    tag_98:\n        /* \"contracts/onepage.sol\":2492:2493  0 */\n      0x00\n        /* \"contracts/onepage.sol\":2482:2489  amountA */\n      dup3\n        /* \"contracts/onepage.sol\":2482:2493  amountA > 0 */\n      gt\n        /* \"contracts/onepage.sol\":2482:2508  amountA > 0 && amountB > 0 */\n      dup1\n      iszero\n      tag_101\n      jumpi\n      pop\n        /* \"contracts/onepage.sol\":2507:2508  0 */\n      0x00\n        /* \"contracts/onepage.sol\":2497:2504  amountB */\n      dup2\n        /* \"contracts/onepage.sol\":2497:2508  amountB > 0 */\n      gt\n        /* \"contracts/onepage.sol\":2482:2508  amountA > 0 && amountB > 0 */\n    tag_101:\n        /* \"contracts/onepage.sol\":2474:2546  require(amountA > 0 && amountB > 0, \"Amounts must be greater than zero\") */\n      tag_102\n      jumpi\n      mload(0x40)\n      0x08c379a000000000000000000000000000000000000000000000000000000000\n      dup2\n      mstore\n      0x04\n      add\n      tag_103\n      swap1\n      tag_104\n      jump\t// in\n    tag_103:\n      mload(0x40)\n      dup1\n      swap2\n      sub\n      swap1\n      revert\n    tag_102:\n        /* \"contracts/onepage.sol\":2570:2576  tokenB */\n      dup3\n        /* \"contracts/onepage.sol\":2561:2576  tokenA > tokenB */\n      0xffffffffffffffffffffffffffffffffffffffff\n      and\n        /* \"contracts/onepage.sol\":2561:2567  tokenA */\n      dup5\n        /* \"contracts/onepage.sol\":2561:2576  tokenA > tokenB */\n      0xffffffffffffffffffffffffffffffffffffffff\n      and\n      gt\n        /* \"contracts/onepage.sol\":2557:2694  if (tokenA > tokenB) {... */\n      iszero\n      tag_105\n      jumpi\n        /* \"contracts/onepage.sol\":2613:2619  tokenB */\n      dup3\n        /* \"contracts/onepage.sol\":2621:2627  tokenA */\n      dup5\n        /* \"contracts/onepage.sol\":2593:2628  (tokenA, tokenB) = (tokenB, tokenA) */\n      dup1\n      swap5\n      pop\n      dup2\n      swap6\n      pop\n      pop\n      pop\n        /* \"contracts/onepage.sol\":2665:2672  amountB */\n      dup1\n        /* \"contracts/onepage.sol\":2674:2681  amountA */\n      dup3\n        /* \"contracts/onepage.sol\":2643:2682  (amountA, amountB) = (amountB, amountA) */\n      dup1\n      swap3\n      pop\n      dup2\n      swap4\n      pop\n      pop\n      pop\n        /* \"contracts/onepage.sol\":2557:2694  if (tokenA > tokenB) {... */\n    tag_105:\n        /* \"contracts/onepage.sol\":2704:2721  Pair storage pair */\n      0x00\n        /* \"contracts/onepage.sol\":2724:2729  pairs */\n      0x03\n        /* \"contracts/onepage.sol\":2724:2737  pairs[tokenA] */\n      0x00\n        /* \"contracts/onepage.sol\":2730:2736  tokenA */\n      dup7\n        /* \"contracts/onepage.sol\":2724:2737  pairs[tokenA] */\n      0xffffffffffffffffffffffffffffffffffffffff\n      and\n      0xffffffffffffffffffffffffffffffffffffffff\n      and\n      dup2\n      mstore\n      0x20\n      add\n      swap1\n      dup2\n      mstore\n      0x20\n      add\n      0x00\n      keccak256\n        /* \"contracts/onepage.sol\":2724:2745  pairs[tokenA][tokenB] */\n      0x00\n        /* \"contracts/onepage.sol\":2738:2744  tokenB */\n      dup6\n        /* \"contracts/onepage.sol\":2724:2745  pairs[tokenA][tokenB] */\n      0xffffffffffffffffffffffffffffffffffffffff\n      and\n      0xffffffffffffffffffffffffffffffffffffffff\n      and\n      dup2\n      mstore\n      0x20\n      add\n      swap1\n      dup2\n      mstore\n      0x20\n      add\n      0x00\n      keccak256\n        /* \"contracts/onepage.sol\":2704:2745  Pair storage pair = pairs[tokenA][tokenB] */\n      swap1\n      pop\n        /* \"contracts/onepage.sol\":2779:2785  tokenA */\n      dup5\n        /* \"contracts/onepage.sol\":2764:2785  pair.tokenA == tokenA */\n      0xffffffffffffffffffffffffffffffffffffffff\n      and\n        /* \"contracts/onepage.sol\":2764:2768  pair */\n      dup2\n        /* \"contracts/onepage.sol\":2764:2775  pair.tokenA */\n      0x00\n      add\n      0x00\n      swap1\n      sload\n      swap1\n      0x0100\n      exp\n      swap1\n      div\n      0xffffffffffffffffffffffffffffffffffffffff\n      and\n        /* \"contracts/onepage.sol\":2764:2785  pair.tokenA == tokenA */\n      0xffffffffffffffffffffffffffffffffffffffff\n      and\n      eq\n        /* \"contracts/onepage.sol\":2756:2809  require(pair.tokenA == tokenA, \"Pair does not exist\") */\n      tag_106\n      jumpi\n      mload(0x40)\n      0x08c379a000000000000000000000000000000000000000000000000000000000\n      dup2\n      mstore\n      0x04\n      add\n      tag_107\n      swap1\n      tag_108\n      jump\t// in\n    tag_107:\n      mload(0x40)\n      dup1\n      swap2\n      sub\n      swap1\n      revert\n    tag_106:\n        /* \"contracts/onepage.sol\":2882:2888  tokenA */\n      dup5\n        /* \"contracts/onepage.sol\":2875:2902  IERC20(tokenA).transferFrom */\n      0xffffffffffffffffffffffffffffffffffffffff\n      and\n      0x23b872dd\n        /* \"contracts/onepage.sol\":2903:2913  msg.sender */\n      caller\n        /* \"contracts/onepage.sol\":2923:2927  this */\n      address\n        /* \"contracts/onepage.sol\":2930:2937  amountA */\n      dup7\n        /* \"contracts/onepage.sol\":2875:2938  IERC20(tokenA).transferFrom(msg.sender, address(this), amountA) */\n      mload(0x40)\n      dup5\n      0xffffffff\n      and\n      0xe0\n      shl\n      dup2\n      mstore\n      0x04\n      add\n      tag_109\n      swap4\n      swap3\n      swap2\n      swap1\n      tag_110\n      jump\t// in\n    tag_109:\n      0x20\n      mload(0x40)\n      dup1\n      dup4\n      sub\n      dup2\n      0x00\n      dup8\n      gas\n      call\n      iszero\n      dup1\n      iszero\n      tag_112\n      jumpi\n      returndatasize\n      0x00\n      dup1\n      returndatacopy\n      revert(0x00, returndatasize)\n    tag_112:\n      pop\n      pop\n      pop\n      pop\n      mload(0x40)\n      returndatasize\n      not(0x1f)\n      0x1f\n      dup3\n      add\n      and\n      dup3\n      add\n      dup1\n      0x40\n      mstore\n      pop\n      dup2\n      add\n      swap1\n      tag_113\n      swap2\n      swap1\n      tag_74\n      jump\t// in\n    tag_113:\n      pop\n        /* \"contracts/onepage.sol\":2956:2962  tokenB */\n      dup4\n        /* \"contracts/onepage.sol\":2949:2976  IERC20(tokenB).transferFrom */\n      0xffffffffffffffffffffffffffffffffffffffff\n      and\n      0x23b872dd\n        /* \"contracts/onepage.sol\":2977:2987  msg.sender */\n      caller\n        /* \"contracts/onepage.sol\":2997:3001  this */\n      address\n        /* \"contracts/onepage.sol\":3004:3011  amountB */\n      dup6\n        /* \"contracts/onepage.sol\":2949:3012  IERC20(tokenB).transferFrom(msg.sender, address(this), amountB) */\n      mload(0x40)\n      dup5\n      0xffffffff\n      and\n      0xe0\n      shl\n      dup2\n      mstore\n      0x04\n      add\n      tag_114\n      swap4\n      swap3\n      swap2\n      swap1\n      tag_110\n      jump\t// in\n    tag_114:\n      0x20\n      mload(0x40)\n      dup1\n      dup4\n      sub\n      dup2\n      0x00\n      dup8\n      gas\n      call\n      iszero\n      dup1\n      iszero\n      tag_116\n      jumpi\n      returndatasize\n      0x00\n      dup1\n      returndatacopy\n      revert(0x00, returndatasize)\n    tag_116:\n      pop\n      pop\n      pop\n      pop\n      mload(0x40)\n      returndatasize\n      not(0x1f)\n      0x1f\n      dup3\n      add\n      and\n      dup3\n      add\n      dup1\n      0x40\n      mstore\n      pop\n      dup2\n      add\n      swap1\n      tag_117\n      swap2\n      swap1\n      tag_74\n      jump\t// in\n    tag_117:\n      pop\n        /* \"contracts/onepage.sol\":3080:3087  amountA */\n      dup3\n        /* \"contracts/onepage.sol\":3063:3067  pair */\n      dup2\n        /* \"contracts/onepage.sol\":3063:3076  pair.reserveA */\n      0x02\n      add\n      0x00\n        /* \"contracts/onepage.sol\":3063:3087  pair.reserveA += amountA */\n      dup3\n      dup3\n      sload\n      tag_118\n      swap2\n      swap1\n      tag_119\n      jump\t// in\n    tag_118:\n      swap3\n      pop\n      pop\n      dup2\n      swap1\n      sstore\n      pop\n        /* \"contracts/onepage.sol\":3115:3122  amountB */\n      dup2\n        /* \"contracts/onepage.sol\":3098:3102  pair */\n      dup2\n        /* \"contracts/onepage.sol\":3098:3111  pair.reserveB */\n      0x03\n      add\n      0x00\n        /* \"contracts/onepage.sol\":3098:3122  pair.reserveB += amountB */\n      dup3\n      dup3\n      sload\n      tag_120\n      swap2\n      swap1\n      tag_119\n      jump\t// in\n    tag_120:\n      swap3\n      pop\n      pop\n      dup2\n      swap1\n      sstore\n      pop\n        /* \"contracts/onepage.sol\":3167:3173  tokenB */\n      dup4\n        /* \"contracts/onepage.sol\":3140:3192  LiquidityDeposited(tokenA, tokenB, amountA, amountB) */\n      0xffffffffffffffffffffffffffffffffffffffff\n      and\n        /* \"contracts/onepage.sol\":3159:3165  tokenA */\n      dup6\n        /* \"contracts/onepage.sol\":3140:3192  LiquidityDeposited(tokenA, tokenB, amountA, amountB) */\n      0xffffffffffffffffffffffffffffffffffffffff\n      and\n      0x44504979f82d498dad8a0687fc02e140be70b1b4ab3b9e23c6ffc1d04410194a\n        /* \"contracts/onepage.sol\":3175:3182  amountA */\n      dup6\n        /* \"contracts/onepage.sol\":3184:3191  amountB */\n      dup6\n        /* \"contracts/onepage.sol\":3140:3192  LiquidityDeposited(tokenA, tokenB, amountA, amountB) */\n      mload(0x40)\n      tag_121\n      swap3\n      swap2\n      swap1\n      tag_80\n      jump\t// in\n    tag_121:\n      mload(0x40)\n      dup1\n      swap2\n      sub\n      swap1\n      log3\n        /* \"contracts/onepage.sol\":2463:3200  {... */\n      pop\n        /* \"contracts/onepage.sol\":2350:3200  function depositLiquidity(address tokenA, address tokenB, uint256 amountA, uint256 amountB) external onlyCreator {... */\n      pop\n      pop\n      pop\n      pop\n      jump\t// out\n        /* \"contracts/onepage.sol\":263:292  uint256 public platformFeeBPS */\n    tag_41:\n      sload(0x02)\n      dup2\n      jump\t// out\n        /* \"contracts/onepage.sol\":182:211  address public platformWallet */\n    tag_45:\n      0x01\n      0x00\n      swap1\n      sload\n      swap1\n      0x0100\n      exp\n      swap1\n      div\n      0xffffffffffffffffffffffffffffffffffffffff\n      and\n      dup2\n      jump\t// out\n        /* \"contracts/onepage.sol\":3328:5452  function swap(address tokenIn, address tokenOut, uint256 amountIn, uint256 minAmountOut) external {... */\n    tag_49:\n        /* \"contracts/onepage.sol\":3456:3457  0 */\n      0x00\n        /* \"contracts/onepage.sol\":3445:3453  amountIn */\n      dup3\n        /* \"contracts/onepage.sol\":3445:3457  amountIn > 0 */\n      gt\n        /* \"contracts/onepage.sol\":3437:3497  require(amountIn > 0, \"Amount in must be greater than zero\") */\n      tag_123\n      jumpi\n      mload(0x40)\n      0x08c379a000000000000000000000000000000000000000000000000000000000\n      dup2\n      mstore\n      0x04\n      add\n      tag_124\n      swap1\n      tag_125\n      jump\t// in\n    tag_124:\n      mload(0x40)\n      dup1\n      swap2\n      sub\n      swap1\n      revert\n    tag_123:\n        /* \"contracts/onepage.sol\":3545:3559  address tokenA */\n      0x00\n        /* \"contracts/onepage.sol\":3572:3580  tokenOut */\n      dup4\n        /* \"contracts/onepage.sol\":3562:3580  tokenIn < tokenOut */\n      0xffffffffffffffffffffffffffffffffffffffff\n      and\n        /* \"contracts/onepage.sol\":3562:3569  tokenIn */\n      dup6\n        /* \"contracts/onepage.sol\":3562:3580  tokenIn < tokenOut */\n      0xffffffffffffffffffffffffffffffffffffffff\n      and\n      lt\n        /* \"contracts/onepage.sol\":3562:3601  tokenIn < tokenOut ? tokenIn : tokenOut */\n      tag_126\n      jumpi\n        /* \"contracts/onepage.sol\":3593:3601  tokenOut */\n      dup4\n        /* \"contracts/onepage.sol\":3562:3601  tokenIn < tokenOut ? tokenIn : tokenOut */\n      jump(tag_127)\n    tag_126:\n        /* \"contracts/onepage.sol\":3583:3590  tokenIn */\n      dup5\n        /* \"contracts/onepage.sol\":3562:3601  tokenIn < tokenOut ? tokenIn : tokenOut */\n    tag_127:\n        /* \"contracts/onepage.sol\":3545:3601  address tokenA = tokenIn < tokenOut ? tokenIn : tokenOut */\n      swap1\n      pop\n        /* \"contracts/onepage.sol\":3612:3626  address tokenB */\n      0x00\n        /* \"contracts/onepage.sol\":3639:3647  tokenOut */\n      dup5\n        /* \"contracts/onepage.sol\":3629:3647  tokenIn < tokenOut */\n      0xffffffffffffffffffffffffffffffffffffffff\n      and\n        /* \"contracts/onepage.sol\":3629:3636  tokenIn */\n      dup7\n        /* \"contracts/onepage.sol\":3629:3647  tokenIn < tokenOut */\n      0xffffffffffffffffffffffffffffffffffffffff\n      and\n      lt\n        /* \"contracts/onepage.sol\":3629:3668  tokenIn < tokenOut ? tokenOut : tokenIn */\n      tag_128\n      jumpi\n        /* \"contracts/onepage.sol\":3661:3668  tokenIn */\n      dup6\n        /* \"contracts/onepage.sol\":3629:3668  tokenIn < tokenOut ? tokenOut : tokenIn */\n      jump(tag_129)\n    tag_128:\n        /* \"contracts/onepage.sol\":3650:3658  tokenOut */\n      dup5\n        /* \"contracts/onepage.sol\":3629:3668  tokenIn < tokenOut ? tokenOut : tokenIn */\n    tag_129:\n        /* \"contracts/onepage.sol\":3612:3668  address tokenB = tokenIn < tokenOut ? tokenOut : tokenIn */\n      swap1\n      pop\n        /* \"contracts/onepage.sol\":3679:3696  Pair storage pair */\n      0x00\n        /* \"contracts/onepage.sol\":3699:3704  pairs */\n      0x03\n        /* \"contracts/onepage.sol\":3699:3712  pairs[tokenA] */\n      0x00\n        /* \"contracts/onepage.sol\":3705:3711  tokenA */\n      dup5\n        /* \"contracts/onepage.sol\":3699:3712  pairs[tokenA] */\n      0xffffffffffffffffffffffffffffffffffffffff\n      and\n      0xffffffffffffffffffffffffffffffffffffffff\n      and\n      dup2\n      mstore\n      0x20\n      add\n      swap1\n      dup2\n      mstore\n      0x20\n      add\n      0x00\n      keccak256\n        /* \"contracts/onepage.sol\":3699:3720  pairs[tokenA][tokenB] */\n      0x00\n        /* \"contracts/onepage.sol\":3713:3719  tokenB */\n      dup4\n        /* \"contracts/onepage.sol\":3699:3720  pairs[tokenA][tokenB] */\n      0xffffffffffffffffffffffffffffffffffffffff\n      and\n      0xffffffffffffffffffffffffffffffffffffffff\n      and\n      dup2\n      mstore\n      0x20\n      add\n      swap1\n      dup2\n      mstore\n      0x20\n      add\n      0x00\n      keccak256\n        /* \"contracts/onepage.sol\":3679:3720  Pair storage pair = pairs[tokenA][tokenB] */\n      swap1\n      pop\n        /* \"contracts/onepage.sol\":3754:3760  tokenA */\n      dup3\n        /* \"contracts/onepage.sol\":3739:3760  pair.tokenA == tokenA */\n      0xffffffffffffffffffffffffffffffffffffffff\n      and\n        /* \"contracts/onepage.sol\":3739:3743  pair */\n      dup2\n        /* \"contracts/onepage.sol\":3739:3750  pair.tokenA */\n      0x00\n      add\n      0x00\n      swap1\n      sload\n      swap1\n      0x0100\n      exp\n      swap1\n      div\n      0xffffffffffffffffffffffffffffffffffffffff\n      and\n        /* \"contracts/onepage.sol\":3739:3760  pair.tokenA == tokenA */\n      0xffffffffffffffffffffffffffffffffffffffff\n      and\n      eq\n        /* \"contracts/onepage.sol\":3739:3785  pair.tokenA == tokenA && pair.tokenB == tokenB */\n      dup1\n      iszero\n      tag_130\n      jumpi\n      pop\n        /* \"contracts/onepage.sol\":3779:3785  tokenB */\n      dup2\n        /* \"contracts/onepage.sol\":3764:3785  pair.tokenB == tokenB */\n      0xffffffffffffffffffffffffffffffffffffffff\n      and\n        /* \"contracts/onepage.sol\":3764:3768  pair */\n      dup2\n        /* \"contracts/onepage.sol\":3764:3775  pair.tokenB */\n      0x01\n      add\n      0x00\n      swap1\n      sload\n      swap1\n      0x0100\n      exp\n      swap1\n      div\n      0xffffffffffffffffffffffffffffffffffffffff\n      and\n        /* \"contracts/onepage.sol\":3764:3785  pair.tokenB == tokenB */\n      0xffffffffffffffffffffffffffffffffffffffff\n      and\n      eq\n        /* \"contracts/onepage.sol\":3739:3785  pair.tokenA == tokenA && pair.tokenB == tokenB */\n    tag_130:\n        /* \"contracts/onepage.sol\":3731:3809  require(pair.tokenA == tokenA && pair.tokenB == tokenB, \"Pair does not exist\") */\n      tag_131\n      jumpi\n      mload(0x40)\n      0x08c379a000000000000000000000000000000000000000000000000000000000\n      dup2\n      mstore\n      0x04\n      add\n      tag_132\n      swap1\n      tag_108\n      jump\t// in\n    tag_132:\n      mload(0x40)\n      dup1\n      swap2\n      sub\n      swap1\n      revert\n    tag_131:\n        /* \"contracts/onepage.sol\":3912:3929  uint256 reserveIn */\n      0x00\n        /* \"contracts/onepage.sol\":3943:3949  tokenA */\n      dup4\n        /* \"contracts/onepage.sol\":3932:3949  tokenIn == tokenA */\n      0xffffffffffffffffffffffffffffffffffffffff\n      and\n        /* \"contracts/onepage.sol\":3932:3939  tokenIn */\n      dup9\n        /* \"contracts/onepage.sol\":3932:3949  tokenIn == tokenA */\n      0xffffffffffffffffffffffffffffffffffffffff\n      and\n      eq\n        /* \"contracts/onepage.sol\":3932:3981  tokenIn == tokenA ? pair.reserveA : pair.reserveB */\n      tag_133\n      jumpi\n        /* \"contracts/onepage.sol\":3968:3972  pair */\n      dup2\n        /* \"contracts/onepage.sol\":3968:3981  pair.reserveB */\n      0x03\n      add\n      sload\n        /* \"contracts/onepage.sol\":3932:3981  tokenIn == tokenA ? pair.reserveA : pair.reserveB */\n      jump(tag_134)\n    tag_133:\n        /* \"contracts/onepage.sol\":3952:3956  pair */\n      dup2\n        /* \"contracts/onepage.sol\":3952:3965  pair.reserveA */\n      0x02\n      add\n      sload\n        /* \"contracts/onepage.sol\":3932:3981  tokenIn == tokenA ? pair.reserveA : pair.reserveB */\n    tag_134:\n        /* \"contracts/onepage.sol\":3912:3981  uint256 reserveIn = tokenIn == tokenA ? pair.reserveA : pair.reserveB */\n      swap1\n      pop\n        /* \"contracts/onepage.sol\":3992:4010  uint256 reserveOut */\n      0x00\n        /* \"contracts/onepage.sol\":4024:4030  tokenA */\n      dup5\n        /* \"contracts/onepage.sol\":4013:4030  tokenIn == tokenA */\n      0xffffffffffffffffffffffffffffffffffffffff\n      and\n        /* \"contracts/onepage.sol\":4013:4020  tokenIn */\n      dup10\n        /* \"contracts/onepage.sol\":4013:4030  tokenIn == tokenA */\n      0xffffffffffffffffffffffffffffffffffffffff\n      and\n      eq\n        /* \"contracts/onepage.sol\":4013:4062  tokenIn == tokenA ? pair.reserveB : pair.reserveA */\n      tag_135\n      jumpi\n        /* \"contracts/onepage.sol\":4049:4053  pair */\n      dup3\n        /* \"contracts/onepage.sol\":4049:4062  pair.reserveA */\n      0x02\n      add\n      sload\n        /* \"contracts/onepage.sol\":4013:4062  tokenIn == tokenA ? pair.reserveB : pair.reserveA */\n      jump(tag_136)\n    tag_135:\n        /* \"contracts/onepage.sol\":4033:4037  pair */\n      dup3\n        /* \"contracts/onepage.sol\":4033:4046  pair.reserveB */\n      0x03\n      add\n      sload\n        /* \"contracts/onepage.sol\":4013:4062  tokenIn == tokenA ? pair.reserveB : pair.reserveA */\n    tag_136:\n        /* \"contracts/onepage.sol\":3992:4062  uint256 reserveOut = tokenIn == tokenA ? pair.reserveB : pair.reserveA */\n      swap1\n      pop\n        /* \"contracts/onepage.sol\":4093:4094  0 */\n      0x00\n        /* \"contracts/onepage.sol\":4081:4090  reserveIn */\n      dup3\n        /* \"contracts/onepage.sol\":4081:4094  reserveIn > 0 */\n      gt\n        /* \"contracts/onepage.sol\":4081:4112  reserveIn > 0 && reserveOut > 0 */\n      dup1\n      iszero\n      tag_137\n      jumpi\n      pop\n        /* \"contracts/onepage.sol\":4111:4112  0 */\n      0x00\n        /* \"contracts/onepage.sol\":4098:4108  reserveOut */\n      dup2\n        /* \"contracts/onepage.sol\":4098:4112  reserveOut > 0 */\n      gt\n        /* \"contracts/onepage.sol\":4081:4112  reserveIn > 0 && reserveOut > 0 */\n    tag_137:\n        /* \"contracts/onepage.sol\":4073:4131  require(reserveIn > 0 && reserveOut > 0, \"Empty reserves\") */\n      tag_138\n      jumpi\n      mload(0x40)\n      0x08c379a000000000000000000000000000000000000000000000000000000000\n      dup2\n      mstore\n      0x04\n      add\n      tag_139\n      swap1\n      tag_140\n      jump\t// in\n    tag_139:\n      mload(0x40)\n      dup1\n      swap2\n      sub\n      swap1\n      revert\n    tag_138:\n        /* \"contracts/onepage.sol\":4279:4304  uint256 effectiveAmountIn */\n      0x00\n        /* \"contracts/onepage.sol\":4379:4384  10000 */\n      0x2710\n        /* \"contracts/onepage.sol\":4361:4375  platformFeeBPS */\n      sload(0x02)\n        /* \"contracts/onepage.sol\":4350:4358  amountIn */\n      dup10\n        /* \"contracts/onepage.sol\":4350:4375  amountIn * platformFeeBPS */\n      tag_141\n      swap2\n      swap1\n      tag_142\n      jump\t// in\n    tag_141:\n        /* \"contracts/onepage.sol\":4349:4384  (amountIn * platformFeeBPS) / 10000 */\n      tag_143\n      swap2\n      swap1\n      tag_144\n      jump\t// in\n    tag_143:\n        /* \"contracts/onepage.sol\":4341:4346  10000 */\n      0x2710\n        /* \"contracts/onepage.sol\":4328:4332  pair */\n      dup6\n        /* \"contracts/onepage.sol\":4328:4336  pair.fee */\n      0x04\n      add\n      sload\n        /* \"contracts/onepage.sol\":4320:4325  10000 */\n      0x2710\n        /* \"contracts/onepage.sol\":4320:4336  10000 - pair.fee */\n      tag_145\n      swap2\n      swap1\n      tag_67\n      jump\t// in\n    tag_145:\n        /* \"contracts/onepage.sol\":4308:4316  amountIn */\n      dup11\n        /* \"contracts/onepage.sol\":4308:4337  amountIn * (10000 - pair.fee) */\n      tag_146\n      swap2\n      swap1\n      tag_142\n      jump\t// in\n    tag_146:\n        /* \"contracts/onepage.sol\":4307:4346  (amountIn * (10000 - pair.fee)) / 10000 */\n      tag_147\n      swap2\n      swap1\n      tag_144\n      jump\t// in\n    tag_147:\n        /* \"contracts/onepage.sol\":4307:4384  (amountIn * (10000 - pair.fee)) / 10000 - (amountIn * platformFeeBPS) / 10000 */\n      tag_148\n      swap2\n      swap1\n      tag_67\n      jump\t// in\n    tag_148:\n        /* \"contracts/onepage.sol\":4279:4384  uint256 effectiveAmountIn = (amountIn * (10000 - pair.fee)) / 10000 - (amountIn * platformFeeBPS) / 10000 */\n      swap1\n      pop\n        /* \"contracts/onepage.sol\":4423:4424  0 */\n      0x00\n        /* \"contracts/onepage.sol\":4403:4420  effectiveAmountIn */\n      dup2\n        /* \"contracts/onepage.sol\":4403:4424  effectiveAmountIn > 0 */\n      gt\n        /* \"contracts/onepage.sol\":4395:4453  require(effectiveAmountIn > 0, \"Effective amount too low\") */\n      tag_149\n      jumpi\n      mload(0x40)\n      0x08c379a000000000000000000000000000000000000000000000000000000000\n      dup2\n      mstore\n      0x04\n      add\n      tag_150\n      swap1\n      tag_151\n      jump\t// in\n    tag_150:\n      mload(0x40)\n      dup1\n      swap2\n      sub\n      swap1\n      revert\n    tag_149:\n        /* \"contracts/onepage.sol\":4537:4554  uint256 amountOut */\n      0x00\n        /* \"contracts/onepage.sol\":4615:4632  effectiveAmountIn */\n      dup2\n        /* \"contracts/onepage.sol\":4606:4611  10000 */\n      0x2710\n        /* \"contracts/onepage.sol\":4594:4603  reserveIn */\n      dup6\n        /* \"contracts/onepage.sol\":4594:4611  reserveIn * 10000 */\n      tag_152\n      swap2\n      swap1\n      tag_142\n      jump\t// in\n    tag_152:\n        /* \"contracts/onepage.sol\":4593:4632  (reserveIn * 10000) + effectiveAmountIn */\n      tag_153\n      swap2\n      swap1\n      tag_119\n      jump\t// in\n    tag_153:\n        /* \"contracts/onepage.sol\":4578:4588  reserveOut */\n      dup4\n        /* \"contracts/onepage.sol\":4558:4575  effectiveAmountIn */\n      dup4\n        /* \"contracts/onepage.sol\":4558:4588  effectiveAmountIn * reserveOut */\n      tag_154\n      swap2\n      swap1\n      tag_142\n      jump\t// in\n    tag_154:\n        /* \"contracts/onepage.sol\":4557:4633  (effectiveAmountIn * reserveOut) / ((reserveIn * 10000) + effectiveAmountIn) */\n      tag_155\n      swap2\n      swap1\n      tag_144\n      jump\t// in\n    tag_155:\n        /* \"contracts/onepage.sol\":4537:4633  uint256 amountOut = (effectiveAmountIn * reserveOut) / ((reserveIn * 10000) + effectiveAmountIn) */\n      swap1\n      pop\n        /* \"contracts/onepage.sol\":4665:4677  minAmountOut */\n      dup8\n        /* \"contracts/onepage.sol\":4652:4661  amountOut */\n      dup2\n        /* \"contracts/onepage.sol\":4652:4677  amountOut >= minAmountOut */\n      lt\n      iszero\n        /* \"contracts/onepage.sol\":4644:4705  require(amountOut >= minAmountOut, \"Slippage limit exceeded\") */\n      tag_156\n      jumpi\n      mload(0x40)\n      0x08c379a000000000000000000000000000000000000000000000000000000000\n      dup2\n      mstore\n      0x04\n      add\n      tag_157\n      swap1\n      tag_158\n      jump\t// in\n    tag_157:\n      mload(0x40)\n      dup1\n      swap2\n      sub\n      swap1\n      revert\n    tag_156:\n        /* \"contracts/onepage.sol\":4738:4747  amountOut */\n      dup1\n        /* \"contracts/onepage.sol\":4724:4734  reserveOut */\n      dup4\n        /* \"contracts/onepage.sol\":4724:4747  reserveOut >= amountOut */\n      lt\n      iszero\n        /* \"contracts/onepage.sol\":4716:4774  require(reserveOut >= amountOut, \"Insufficient liquidity\") */\n      tag_159\n      jumpi\n      mload(0x40)\n      0x08c379a000000000000000000000000000000000000000000000000000000000\n      dup2\n      mstore\n      0x04\n      add\n      tag_160\n      swap1\n      tag_161\n      jump\t// in\n    tag_160:\n      mload(0x40)\n      dup1\n      swap2\n      sub\n      swap1\n      revert\n    tag_159:\n        /* \"contracts/onepage.sol\":4824:4831  tokenIn */\n      dup11\n        /* \"contracts/onepage.sol\":4817:4845  IERC20(tokenIn).transferFrom */\n      0xffffffffffffffffffffffffffffffffffffffff\n      and\n      0x23b872dd\n        /* \"contracts/onepage.sol\":4846:4856  msg.sender */\n      caller\n        /* \"contracts/onepage.sol\":4866:4870  this */\n      address\n        /* \"contracts/onepage.sol\":4873:4881  amountIn */\n      dup13\n        /* \"contracts/onepage.sol\":4817:4882  IERC20(tokenIn).transferFrom(msg.sender, address(this), amountIn) */\n      mload(0x40)\n      dup5\n      0xffffffff\n      and\n      0xe0\n      shl\n      dup2\n      mstore\n      0x04\n      add\n      tag_162\n      swap4\n      swap3\n      swap2\n      swap1\n      tag_110\n      jump\t// in\n    tag_162:\n      0x20\n      mload(0x40)\n      dup1\n      dup4\n      sub\n      dup2\n      0x00\n      dup8\n      gas\n      call\n      iszero\n      dup1\n      iszero\n      tag_164\n      jumpi\n      returndatasize\n      0x00\n      dup1\n      returndatacopy\n      revert(0x00, returndatasize)\n    tag_164:\n      pop\n      pop\n      pop\n      pop\n      mload(0x40)\n      returndatasize\n      not(0x1f)\n      0x1f\n      dup3\n      add\n      and\n      dup3\n      add\n      dup1\n      0x40\n      mstore\n      pop\n      dup2\n      add\n      swap1\n      tag_165\n      swap2\n      swap1\n      tag_74\n      jump\t// in\n    tag_165:\n      pop\n        /* \"contracts/onepage.sol\":4893:4912  uint256 platformFee */\n      0x00\n        /* \"contracts/onepage.sol\":4945:4950  10000 */\n      0x2710\n        /* \"contracts/onepage.sol\":4927:4941  platformFeeBPS */\n      sload(0x02)\n        /* \"contracts/onepage.sol\":4916:4924  amountIn */\n      dup12\n        /* \"contracts/onepage.sol\":4916:4941  amountIn * platformFeeBPS */\n      tag_166\n      swap2\n      swap1\n      tag_142\n      jump\t// in\n    tag_166:\n        /* \"contracts/onepage.sol\":4915:4950  (amountIn * platformFeeBPS) / 10000 */\n      tag_167\n      swap2\n      swap1\n      tag_144\n      jump\t// in\n    tag_167:\n        /* \"contracts/onepage.sol\":4893:4950  uint256 platformFee = (amountIn * platformFeeBPS) / 10000 */\n      swap1\n      pop\n        /* \"contracts/onepage.sol\":4968:4975  tokenIn */\n      dup12\n        /* \"contracts/onepage.sol\":4961:4985  IERC20(tokenIn).transfer */\n      0xffffffffffffffffffffffffffffffffffffffff\n      and\n      0xa9059cbb\n        /* \"contracts/onepage.sol\":4986:5000  platformWallet */\n      0x01\n      0x00\n      swap1\n      sload\n      swap1\n      0x0100\n      exp\n      swap1\n      div\n      0xffffffffffffffffffffffffffffffffffffffff\n      and\n        /* \"contracts/onepage.sol\":5002:5013  platformFee */\n      dup4\n        /* \"contracts/onepage.sol\":4961:5014  IERC20(tokenIn).transfer(platformWallet, platformFee) */\n      mload(0x40)\n      dup4\n      0xffffffff\n      and\n      0xe0\n      shl\n      dup2\n      mstore\n      0x04\n      add\n      tag_168\n      swap3\n      swap2\n      swap1\n      tag_70\n      jump\t// in\n    tag_168:\n      0x20\n      mload(0x40)\n      dup1\n      dup4\n      sub\n      dup2\n      0x00\n      dup8\n      gas\n      call\n      iszero\n      dup1\n      iszero\n      tag_170\n      jumpi\n      returndatasize\n      0x00\n      dup1\n      returndatacopy\n      revert(0x00, returndatasize)\n    tag_170:\n      pop\n      pop\n      pop\n      pop\n      mload(0x40)\n      returndatasize\n      not(0x1f)\n      0x1f\n      dup3\n      add\n      and\n      dup3\n      add\n      dup1\n      0x40\n      mstore\n      pop\n      dup2\n      add\n      swap1\n      tag_171\n      swap2\n      swap1\n      tag_74\n      jump\t// in\n    tag_171:\n      pop\n        /* \"contracts/onepage.sol\":5032:5040  tokenOut */\n      dup11\n        /* \"contracts/onepage.sol\":5025:5050  IERC20(tokenOut).transfer */\n      0xffffffffffffffffffffffffffffffffffffffff\n      and\n      0xa9059cbb\n        /* \"contracts/onepage.sol\":5051:5061  msg.sender */\n      caller\n        /* \"contracts/onepage.sol\":5063:5072  amountOut */\n      dup5\n        /* \"contracts/onepage.sol\":5025:5073  IERC20(tokenOut).transfer(msg.sender, amountOut) */\n      mload(0x40)\n      dup4\n      0xffffffff\n      and\n      0xe0\n      shl\n      dup2\n      mstore\n      0x04\n      add\n      tag_172\n      swap3\n      swap2\n      swap1\n      tag_70\n      jump\t// in\n    tag_172:\n      0x20\n      mload(0x40)\n      dup1\n      dup4\n      sub\n      dup2\n      0x00\n      dup8\n      gas\n      call\n      iszero\n      dup1\n      iszero\n      tag_174\n      jumpi\n      returndatasize\n      0x00\n      dup1\n      returndatacopy\n      revert(0x00, returndatasize)\n    tag_174:\n      pop\n      pop\n      pop\n      pop\n      mload(0x40)\n      returndatasize\n      not(0x1f)\n      0x1f\n      dup3\n      add\n      and\n      dup3\n      add\n      dup1\n      0x40\n      mstore\n      pop\n      dup2\n      add\n      swap1\n      tag_175\n      swap2\n      swap1\n      tag_74\n      jump\t// in\n    tag_175:\n      pop\n        /* \"contracts/onepage.sol\":5150:5156  tokenA */\n      dup8\n        /* \"contracts/onepage.sol\":5139:5156  tokenIn == tokenA */\n      0xffffffffffffffffffffffffffffffffffffffff\n      and\n        /* \"contracts/onepage.sol\":5139:5146  tokenIn */\n      dup13\n        /* \"contracts/onepage.sol\":5139:5156  tokenIn == tokenA */\n      0xffffffffffffffffffffffffffffffffffffffff\n      and\n      sub\n        /* \"contracts/onepage.sol\":5135:5368  if (tokenIn == tokenA) {... */\n      tag_176\n      jumpi\n        /* \"contracts/onepage.sol\":5190:5207  effectiveAmountIn */\n      dup3\n        /* \"contracts/onepage.sol\":5173:5177  pair */\n      dup7\n        /* \"contracts/onepage.sol\":5173:5186  pair.reserveA */\n      0x02\n      add\n      0x00\n        /* \"contracts/onepage.sol\":5173:5207  pair.reserveA += effectiveAmountIn */\n      dup3\n      dup3\n      sload\n      tag_177\n      swap2\n      swap1\n      tag_119\n      jump\t// in\n    tag_177:\n      swap3\n      pop\n      pop\n      dup2\n      swap1\n      sstore\n      pop\n        /* \"contracts/onepage.sol\":5239:5248  amountOut */\n      dup2\n        /* \"contracts/onepage.sol\":5222:5226  pair */\n      dup7\n        /* \"contracts/onepage.sol\":5222:5235  pair.reserveB */\n      0x03\n      add\n      0x00\n        /* \"contracts/onepage.sol\":5222:5248  pair.reserveB -= amountOut */\n      dup3\n      dup3\n      sload\n      tag_178\n      swap2\n      swap1\n      tag_67\n      jump\t// in\n    tag_178:\n      swap3\n      pop\n      pop\n      dup2\n      swap1\n      sstore\n      pop\n        /* \"contracts/onepage.sol\":5135:5368  if (tokenIn == tokenA) {... */\n      jump(tag_179)\n    tag_176:\n        /* \"contracts/onepage.sol\":5298:5315  effectiveAmountIn */\n      dup3\n        /* \"contracts/onepage.sol\":5281:5285  pair */\n      dup7\n        /* \"contracts/onepage.sol\":5281:5294  pair.reserveB */\n      0x03\n      add\n      0x00\n        /* \"contracts/onepage.sol\":5281:5315  pair.reserveB += effectiveAmountIn */\n      dup3\n      dup3\n      sload\n      tag_180\n      swap2\n      swap1\n      tag_119\n      jump\t// in\n    tag_180:\n      swap3\n      pop\n      pop\n      dup2\n      swap1\n      sstore\n      pop\n        /* \"contracts/onepage.sol\":5347:5356  amountOut */\n      dup2\n        /* \"contracts/onepage.sol\":5330:5334  pair */\n      dup7\n        /* \"contracts/onepage.sol\":5330:5343  pair.reserveA */\n      0x02\n      add\n      0x00\n        /* \"contracts/onepage.sol\":5330:5356  pair.reserveA -= amountOut */\n      dup3\n      dup3\n      sload\n      tag_181\n      swap2\n      swap1\n      tag_67\n      jump\t// in\n    tag_181:\n      swap3\n      pop\n      pop\n      dup2\n      swap1\n      sstore\n      pop\n        /* \"contracts/onepage.sol\":5135:5368  if (tokenIn == tokenA) {... */\n    tag_179:\n        /* \"contracts/onepage.sol\":5393:5403  msg.sender */\n      caller\n        /* \"contracts/onepage.sol\":5385:5444  Swapped(msg.sender, tokenIn, tokenOut, amountIn, amountOut) */\n      0xffffffffffffffffffffffffffffffffffffffff\n      and\n      0x6782190c91d4a7e8ad2a867deed6ec0a970cab8ff137ae2bd4abd92b3810f4d3\n        /* \"contracts/onepage.sol\":5405:5412  tokenIn */\n      dup14\n        /* \"contracts/onepage.sol\":5414:5422  tokenOut */\n      dup14\n        /* \"contracts/onepage.sol\":5424:5432  amountIn */\n      dup14\n        /* \"contracts/onepage.sol\":5434:5443  amountOut */\n      dup7\n        /* \"contracts/onepage.sol\":5385:5444  Swapped(msg.sender, tokenIn, tokenOut, amountIn, amountOut) */\n      mload(0x40)\n      tag_182\n      swap5\n      swap4\n      swap3\n      swap2\n      swap1\n      tag_183\n      jump\t// in\n    tag_182:\n      mload(0x40)\n      dup1\n      swap2\n      sub\n      swap1\n      log2\n        /* \"contracts/onepage.sol\":3426:5452  {... */\n      pop\n      pop\n      pop\n      pop\n      pop\n      pop\n      pop\n      pop\n        /* \"contracts/onepage.sol\":3328:5452  function swap(address tokenIn, address tokenOut, uint256 amountIn, uint256 minAmountOut) external {... */\n      pop\n      pop\n      pop\n      pop\n      jump\t// out\n        /* \"#utility.yul\":7:133   */\n    tag_184:\n        /* \"#utility.yul\":44:51   */\n      0x00\n        /* \"#utility.yul\":84:126   */\n      0xffffffffffffffffffffffffffffffffffffffff\n        /* \"#utility.yul\":77:82   */\n      dup3\n        /* \"#utility.yul\":73:127   */\n      and\n        /* \"#utility.yul\":62:127   */\n      swap1\n      pop\n        /* \"#utility.yul\":7:133   */\n      swap2\n      swap1\n      pop\n      jump\t// out\n        /* \"#utility.yul\":139:235   */\n    tag_185:\n        /* \"#utility.yul\":176:183   */\n      0x00\n        /* \"#utility.yul\":205:229   */\n      tag_231\n        /* \"#utility.yul\":223:228   */\n      dup3\n        /* \"#utility.yul\":205:229   */\n      tag_184\n      jump\t// in\n    tag_231:\n        /* \"#utility.yul\":194:229   */\n      swap1\n      pop\n        /* \"#utility.yul\":139:235   */\n      swap2\n      swap1\n      pop\n      jump\t// out\n        /* \"#utility.yul\":241:359   */\n    tag_186:\n        /* \"#utility.yul\":328:352   */\n      tag_233\n        /* \"#utility.yul\":346:351   */\n      dup2\n        /* \"#utility.yul\":328:352   */\n      tag_185\n      jump\t// in\n    tag_233:\n        /* \"#utility.yul\":323:326   */\n      dup3\n        /* \"#utility.yul\":316:353   */\n      mstore\n        /* \"#utility.yul\":241:359   */\n      pop\n      pop\n      jump\t// out\n        /* \"#utility.yul\":365:587   */\n    tag_16:\n        /* \"#utility.yul\":458:462   */\n      0x00\n        /* \"#utility.yul\":496:498   */\n      0x20\n        /* \"#utility.yul\":485:494   */\n      dup3\n        /* \"#utility.yul\":481:499   */\n      add\n        /* \"#utility.yul\":473:499   */\n      swap1\n      pop\n        /* \"#utility.yul\":509:580   */\n      tag_235\n        /* \"#utility.yul\":577:578   */\n      0x00\n        /* \"#utility.yul\":566:575   */\n      dup4\n        /* \"#utility.yul\":562:579   */\n      add\n        /* \"#utility.yul\":553:559   */\n      dup5\n        /* \"#utility.yul\":509:580   */\n      tag_186\n      jump\t// in\n    tag_235:\n        /* \"#utility.yul\":365:587   */\n      swap3\n      swap2\n      pop\n      pop\n      jump\t// out\n        /* \"#utility.yul\":674:791   */\n    tag_188:\n        /* \"#utility.yul\":783:784   */\n      0x00\n        /* \"#utility.yul\":780:781   */\n      dup1\n        /* \"#utility.yul\":773:785   */\n      revert\n        /* \"#utility.yul\":920:1042   */\n    tag_190:\n        /* \"#utility.yul\":993:1017   */\n      tag_240\n        /* \"#utility.yul\":1011:1016   */\n      dup2\n        /* \"#utility.yul\":993:1017   */\n      tag_185\n      jump\t// in\n    tag_240:\n        /* \"#utility.yul\":986:991   */\n      dup2\n        /* \"#utility.yul\":983:1018   */\n      eq\n        /* \"#utility.yul\":973:1036   */\n      tag_241\n      jumpi\n        /* \"#utility.yul\":1032:1033   */\n      0x00\n        /* \"#utility.yul\":1029:1030   */\n      dup1\n        /* \"#utility.yul\":1022:1034   */\n      revert\n        /* \"#utility.yul\":973:1036   */\n    tag_241:\n        /* \"#utility.yul\":920:1042   */\n      pop\n      jump\t// out\n        /* \"#utility.yul\":1048:1187   */\n    tag_191:\n        /* \"#utility.yul\":1094:1099   */\n      0x00\n        /* \"#utility.yul\":1132:1138   */\n      dup2\n        /* \"#utility.yul\":1119:1139   */\n      calldataload\n        /* \"#utility.yul\":1110:1139   */\n      swap1\n      pop\n        /* \"#utility.yul\":1148:1181   */\n      tag_243\n        /* \"#utility.yul\":1175:1180   */\n      dup2\n        /* \"#utility.yul\":1148:1181   */\n      tag_190\n      jump\t// in\n    tag_243:\n        /* \"#utility.yul\":1048:1187   */\n      swap3\n      swap2\n      pop\n      pop\n      jump\t// out\n        /* \"#utility.yul\":1193:1270   */\n    tag_192:\n        /* \"#utility.yul\":1230:1237   */\n      0x00\n        /* \"#utility.yul\":1259:1264   */\n      dup2\n        /* \"#utility.yul\":1248:1264   */\n      swap1\n      pop\n        /* \"#utility.yul\":1193:1270   */\n      swap2\n      swap1\n      pop\n      jump\t// out\n        /* \"#utility.yul\":1276:1398   */\n    tag_193:\n        /* \"#utility.yul\":1349:1373   */\n      tag_246\n        /* \"#utility.yul\":1367:1372   */\n      dup2\n        /* \"#utility.yul\":1349:1373   */\n      tag_192\n      jump\t// in\n    tag_246:\n        /* \"#utility.yul\":1342:1347   */\n      dup2\n        /* \"#utility.yul\":1339:1374   */\n      eq\n        /* \"#utility.yul\":1329:1392   */\n      tag_247\n      jumpi\n        /* \"#utility.yul\":1388:1389   */\n      0x00\n        /* \"#utility.yul\":1385:1386   */\n      dup1\n        /* \"#utility.yul\":1378:1390   */\n      revert\n        /* \"#utility.yul\":1329:1392   */\n    tag_247:\n        /* \"#utility.yul\":1276:1398   */\n      pop\n      jump\t// out\n        /* \"#utility.yul\":1404:1543   */\n    tag_194:\n        /* \"#utility.yul\":1450:1455   */\n      0x00\n        /* \"#utility.yul\":1488:1494   */\n      dup2\n        /* \"#utility.yul\":1475:1495   */\n      calldataload\n        /* \"#utility.yul\":1466:1495   */\n      swap1\n      pop\n        /* \"#utility.yul\":1504:1537   */\n      tag_249\n        /* \"#utility.yul\":1531:1536   */\n      dup2\n        /* \"#utility.yul\":1504:1537   */\n      tag_193\n      jump\t// in\n    tag_249:\n        /* \"#utility.yul\":1404:1543   */\n      swap3\n      swap2\n      pop\n      pop\n      jump\t// out\n        /* \"#utility.yul\":1549:2314   */\n    tag_19:\n        /* \"#utility.yul\":1635:1641   */\n      0x00\n        /* \"#utility.yul\":1643:1649   */\n      dup1\n        /* \"#utility.yul\":1651:1657   */\n      0x00\n        /* \"#utility.yul\":1659:1665   */\n      dup1\n        /* \"#utility.yul\":1708:1711   */\n      0x80\n        /* \"#utility.yul\":1696:1705   */\n      dup6\n        /* \"#utility.yul\":1687:1694   */\n      dup8\n        /* \"#utility.yul\":1683:1706   */\n      sub\n        /* \"#utility.yul\":1679:1712   */\n      slt\n        /* \"#utility.yul\":1676:1796   */\n      iszero\n      tag_251\n      jumpi\n        /* \"#utility.yul\":1715:1794   */\n      tag_252\n      tag_188\n      jump\t// in\n    tag_252:\n        /* \"#utility.yul\":1676:1796   */\n    tag_251:\n        /* \"#utility.yul\":1835:1836   */\n      0x00\n        /* \"#utility.yul\":1860:1913   */\n      tag_253\n        /* \"#utility.yul\":1905:1912   */\n      dup8\n        /* \"#utility.yul\":1896:1902   */\n      dup3\n        /* \"#utility.yul\":1885:1894   */\n      dup9\n        /* \"#utility.yul\":1881:1903   */\n      add\n        /* \"#utility.yul\":1860:1913   */\n      tag_191\n      jump\t// in\n    tag_253:\n        /* \"#utility.yul\":1850:1913   */\n      swap5\n      pop\n        /* \"#utility.yul\":1806:1923   */\n      pop\n        /* \"#utility.yul\":1962:1964   */\n      0x20\n        /* \"#utility.yul\":1988:2041   */\n      tag_254\n        /* \"#utility.yul\":2033:2040   */\n      dup8\n        /* \"#utility.yul\":2024:2030   */\n      dup3\n        /* \"#utility.yul\":2013:2022   */\n      dup9\n        /* \"#utility.yul\":2009:2031   */\n      add\n        /* \"#utility.yul\":1988:2041   */\n      tag_191\n      jump\t// in\n    tag_254:\n        /* \"#utility.yul\":1978:2041   */\n      swap4\n      pop\n        /* \"#utility.yul\":1933:2051   */\n      pop\n        /* \"#utility.yul\":2090:2092   */\n      0x40\n        /* \"#utility.yul\":2116:2169   */\n      tag_255\n        /* \"#utility.yul\":2161:2168   */\n      dup8\n        /* \"#utility.yul\":2152:2158   */\n      dup3\n        /* \"#utility.yul\":2141:2150   */\n      dup9\n        /* \"#utility.yul\":2137:2159   */\n      add\n        /* \"#utility.yul\":2116:2169   */\n      tag_194\n      jump\t// in\n    tag_255:\n        /* \"#utility.yul\":2106:2169   */\n      swap3\n      pop\n        /* \"#utility.yul\":2061:2179   */\n      pop\n        /* \"#utility.yul\":2218:2220   */\n      0x60\n        /* \"#utility.yul\":2244:2297   */\n      tag_256\n        /* \"#utility.yul\":2289:2296   */\n      dup8\n        /* \"#utility.yul\":2280:2286   */\n      dup3\n        /* \"#utility.yul\":2269:2278   */\n      dup9\n        /* \"#utility.yul\":2265:2287   */\n      add\n        /* \"#utility.yul\":2244:2297   */\n      tag_194\n      jump\t// in\n    tag_256:\n        /* \"#utility.yul\":2234:2297   */\n      swap2\n      pop\n        /* \"#utility.yul\":2189:2307   */\n      pop\n        /* \"#utility.yul\":1549:2314   */\n      swap3\n      swap6\n      swap2\n      swap5\n      pop\n      swap3\n      pop\n      jump\t// out\n        /* \"#utility.yul\":2320:2794   */\n    tag_23:\n        /* \"#utility.yul\":2388:2394   */\n      0x00\n        /* \"#utility.yul\":2396:2402   */\n      dup1\n        /* \"#utility.yul\":2445:2447   */\n      0x40\n        /* \"#utility.yul\":2433:2442   */\n      dup4\n        /* \"#utility.yul\":2424:2431   */\n      dup6\n        /* \"#utility.yul\":2420:2443   */\n      sub\n        /* \"#utility.yul\":2416:2448   */\n      slt\n        /* \"#utility.yul\":2413:2532   */\n      iszero\n      tag_258\n      jumpi\n        /* \"#utility.yul\":2451:2530   */\n      tag_259\n      tag_188\n      jump\t// in\n    tag_259:\n        /* \"#utility.yul\":2413:2532   */\n    tag_258:\n        /* \"#utility.yul\":2571:2572   */\n      0x00\n        /* \"#utility.yul\":2596:2649   */\n      tag_260\n        /* \"#utility.yul\":2641:2648   */\n      dup6\n        /* \"#utility.yul\":2632:2638   */\n      dup3\n        /* \"#utility.yul\":2621:2630   */\n      dup7\n        /* \"#utility.yul\":2617:2639   */\n      add\n        /* \"#utility.yul\":2596:2649   */\n      tag_191\n      jump\t// in\n    tag_260:\n        /* \"#utility.yul\":2586:2649   */\n      swap3\n      pop\n        /* \"#utility.yul\":2542:2659   */\n      pop\n        /* \"#utility.yul\":2698:2700   */\n      0x20\n        /* \"#utility.yul\":2724:2777   */\n      tag_261\n        /* \"#utility.yul\":2769:2776   */\n      dup6\n        /* \"#utility.yul\":2760:2766   */\n      dup3\n        /* \"#utility.yul\":2749:2758   */\n      dup7\n        /* \"#utility.yul\":2745:2767   */\n      add\n        /* \"#utility.yul\":2724:2777   */\n      tag_191\n      jump\t// in\n    tag_261:\n        /* \"#utility.yul\":2714:2777   */\n      swap2\n      pop\n        /* \"#utility.yul\":2669:2787   */\n      pop\n        /* \"#utility.yul\":2320:2794   */\n      swap3\n      pop\n      swap3\n      swap1\n      pop\n      jump\t// out\n        /* \"#utility.yul\":2800:2918   */\n    tag_195:\n        /* \"#utility.yul\":2887:2911   */\n      tag_263\n        /* \"#utility.yul\":2905:2910   */\n      dup2\n        /* \"#utility.yul\":2887:2911   */\n      tag_192\n      jump\t// in\n    tag_263:\n        /* \"#utility.yul\":2882:2885   */\n      dup3\n        /* \"#utility.yul\":2875:2912   */\n      mstore\n        /* \"#utility.yul\":2800:2918   */\n      pop\n      pop\n      jump\t// out\n        /* \"#utility.yul\":2924:3588   */\n    tag_26:\n        /* \"#utility.yul\":3129:3133   */\n      0x00\n        /* \"#utility.yul\":3167:3170   */\n      0xa0\n        /* \"#utility.yul\":3156:3165   */\n      dup3\n        /* \"#utility.yul\":3152:3171   */\n      add\n        /* \"#utility.yul\":3144:3171   */\n      swap1\n      pop\n        /* \"#utility.yul\":3181:3252   */\n      tag_265\n        /* \"#utility.yul\":3249:3250   */\n      0x00\n        /* \"#utility.yul\":3238:3247   */\n      dup4\n        /* \"#utility.yul\":3234:3251   */\n      add\n        /* \"#utility.yul\":3225:3231   */\n      dup9\n        /* \"#utility.yul\":3181:3252   */\n      tag_186\n      jump\t// in\n    tag_265:\n        /* \"#utility.yul\":3262:3334   */\n      tag_266\n        /* \"#utility.yul\":3330:3332   */\n      0x20\n        /* \"#utility.yul\":3319:3328   */\n      dup4\n        /* \"#utility.yul\":3315:3333   */\n      add\n        /* \"#utility.yul\":3306:3312   */\n      dup8\n        /* \"#utility.yul\":3262:3334   */\n      tag_186\n      jump\t// in\n    tag_266:\n        /* \"#utility.yul\":3344:3416   */\n      tag_267\n        /* \"#utility.yul\":3412:3414   */\n      0x40\n        /* \"#utility.yul\":3401:3410   */\n      dup4\n        /* \"#utility.yul\":3397:3415   */\n      add\n        /* \"#utility.yul\":3388:3394   */\n      dup7\n        /* \"#utility.yul\":3344:3416   */\n      tag_195\n      jump\t// in\n    tag_267:\n        /* \"#utility.yul\":3426:3498   */\n      tag_268\n        /* \"#utility.yul\":3494:3496   */\n      0x60\n        /* \"#utility.yul\":3483:3492   */\n      dup4\n        /* \"#utility.yul\":3479:3497   */\n      add\n        /* \"#utility.yul\":3470:3476   */\n      dup6\n        /* \"#utility.yul\":3426:3498   */\n      tag_195\n      jump\t// in\n    tag_268:\n        /* \"#utility.yul\":3508:3581   */\n      tag_269\n        /* \"#utility.yul\":3576:3579   */\n      0x80\n        /* \"#utility.yul\":3565:3574   */\n      dup4\n        /* \"#utility.yul\":3561:3580   */\n      add\n        /* \"#utility.yul\":3552:3558   */\n      dup5\n        /* \"#utility.yul\":3508:3581   */\n      tag_195\n      jump\t// in\n    tag_269:\n        /* \"#utility.yul\":2924:3588   */\n      swap7\n      swap6\n      pop\n      pop\n      pop\n      pop\n      pop\n      pop\n      jump\t// out\n        /* \"#utility.yul\":3594:3923   */\n    tag_29:\n        /* \"#utility.yul\":3653:3659   */\n      0x00\n        /* \"#utility.yul\":3702:3704   */\n      0x20\n        /* \"#utility.yul\":3690:3699   */\n      dup3\n        /* \"#utility.yul\":3681:3688   */\n      dup5\n        /* \"#utility.yul\":3677:3700   */\n      sub\n        /* \"#utility.yul\":3673:3705   */\n      slt\n        /* \"#utility.yul\":3670:3789   */\n      iszero\n      tag_271\n      jumpi\n        /* \"#utility.yul\":3708:3787   */\n      tag_272\n      tag_188\n      jump\t// in\n    tag_272:\n        /* \"#utility.yul\":3670:3789   */\n    tag_271:\n        /* \"#utility.yul\":3828:3829   */\n      0x00\n        /* \"#utility.yul\":3853:3906   */\n      tag_273\n        /* \"#utility.yul\":3898:3905   */\n      dup5\n        /* \"#utility.yul\":3889:3895   */\n      dup3\n        /* \"#utility.yul\":3878:3887   */\n      dup6\n        /* \"#utility.yul\":3874:3896   */\n      add\n        /* \"#utility.yul\":3853:3906   */\n      tag_194\n      jump\t// in\n    tag_273:\n        /* \"#utility.yul\":3843:3906   */\n      swap2\n      pop\n        /* \"#utility.yul\":3799:3916   */\n      pop\n        /* \"#utility.yul\":3594:3923   */\n      swap3\n      swap2\n      pop\n      pop\n      jump\t// out\n        /* \"#utility.yul\":3929:4261   */\n    tag_32:\n        /* \"#utility.yul\":4050:4054   */\n      0x00\n        /* \"#utility.yul\":4088:4090   */\n      0x40\n        /* \"#utility.yul\":4077:4086   */\n      dup3\n        /* \"#utility.yul\":4073:4091   */\n      add\n        /* \"#utility.yul\":4065:4091   */\n      swap1\n      pop\n        /* \"#utility.yul\":4101:4172   */\n      tag_275\n        /* \"#utility.yul\":4169:4170   */\n      0x00\n        /* \"#utility.yul\":4158:4167   */\n      dup4\n        /* \"#utility.yul\":4154:4171   */\n      add\n        /* \"#utility.yul\":4145:4151   */\n      dup6\n        /* \"#utility.yul\":4101:4172   */\n      tag_186\n      jump\t// in\n    tag_275:\n        /* \"#utility.yul\":4182:4254   */\n      tag_276\n        /* \"#utility.yul\":4250:4252   */\n      0x20\n        /* \"#utility.yul\":4239:4248   */\n      dup4\n        /* \"#utility.yul\":4235:4253   */\n      add\n        /* \"#utility.yul\":4226:4232   */\n      dup5\n        /* \"#utility.yul\":4182:4254   */\n      tag_186\n      jump\t// in\n    tag_276:\n        /* \"#utility.yul\":3929:4261   */\n      swap4\n      swap3\n      pop\n      pop\n      pop\n      jump\t// out\n        /* \"#utility.yul\":4267:4886   */\n    tag_35:\n        /* \"#utility.yul\":4344:4350   */\n      0x00\n        /* \"#utility.yul\":4352:4358   */\n      dup1\n        /* \"#utility.yul\":4360:4366   */\n      0x00\n        /* \"#utility.yul\":4409:4411   */\n      0x60\n        /* \"#utility.yul\":4397:4406   */\n      dup5\n        /* \"#utility.yul\":4388:4395   */\n      dup7\n        /* \"#utility.yul\":4384:4407   */\n      sub\n        /* \"#utility.yul\":4380:4412   */\n      slt\n        /* \"#utility.yul\":4377:4496   */\n      iszero\n      tag_278\n      jumpi\n        /* \"#utility.yul\":4415:4494   */\n      tag_279\n      tag_188\n      jump\t// in\n    tag_279:\n        /* \"#utility.yul\":4377:4496   */\n    tag_278:\n        /* \"#utility.yul\":4535:4536   */\n      0x00\n        /* \"#utility.yul\":4560:4613   */\n      tag_280\n        /* \"#utility.yul\":4605:4612   */\n      dup7\n        /* \"#utility.yul\":4596:4602   */\n      dup3\n        /* \"#utility.yul\":4585:4594   */\n      dup8\n        /* \"#utility.yul\":4581:4603   */\n      add\n        /* \"#utility.yul\":4560:4613   */\n      tag_191\n      jump\t// in\n    tag_280:\n        /* \"#utility.yul\":4550:4613   */\n      swap4\n      pop\n        /* \"#utility.yul\":4506:4623   */\n      pop\n        /* \"#utility.yul\":4662:4664   */\n      0x20\n        /* \"#utility.yul\":4688:4741   */\n      tag_281\n        /* \"#utility.yul\":4733:4740   */\n      dup7\n        /* \"#utility.yul\":4724:4730   */\n      dup3\n        /* \"#utility.yul\":4713:4722   */\n      dup8\n        /* \"#utility.yul\":4709:4731   */\n      add\n        /* \"#utility.yul\":4688:4741   */\n      tag_191\n      jump\t// in\n    tag_281:\n        /* \"#utility.yul\":4678:4741   */\n      swap3\n      pop\n        /* \"#utility.yul\":4633:4751   */\n      pop\n        /* \"#utility.yul\":4790:4792   */\n      0x40\n        /* \"#utility.yul\":4816:4869   */\n      tag_282\n        /* \"#utility.yul\":4861:4868   */\n      dup7\n        /* \"#utility.yul\":4852:4858   */\n      dup3\n        /* \"#utility.yul\":4841:4850   */\n      dup8\n        /* \"#utility.yul\":4837:4859   */\n      add\n        /* \"#utility.yul\":4816:4869   */\n      tag_194\n      jump\t// in\n    tag_282:\n        /* \"#utility.yul\":4806:4869   */\n      swap2\n      pop\n        /* \"#utility.yul\":4761:4879   */\n      pop\n        /* \"#utility.yul\":4267:4886   */\n      swap3\n      pop\n      swap3\n      pop\n      swap3\n      jump\t// out\n        /* \"#utility.yul\":4892:5114   */\n    tag_43:\n        /* \"#utility.yul\":4985:4989   */\n      0x00\n        /* \"#utility.yul\":5023:5025   */\n      0x20\n        /* \"#utility.yul\":5012:5021   */\n      dup3\n        /* \"#utility.yul\":5008:5026   */\n      add\n        /* \"#utility.yul\":5000:5026   */\n      swap1\n      pop\n        /* \"#utility.yul\":5036:5107   */\n      tag_284\n        /* \"#utility.yul\":5104:5105   */\n      0x00\n        /* \"#utility.yul\":5093:5102   */\n      dup4\n        /* \"#utility.yul\":5089:5106   */\n      add\n        /* \"#utility.yul\":5080:5086   */\n      dup5\n        /* \"#utility.yul\":5036:5107   */\n      tag_195\n      jump\t// in\n    tag_284:\n        /* \"#utility.yul\":4892:5114   */\n      swap3\n      swap2\n      pop\n      pop\n      jump\t// out\n        /* \"#utility.yul\":5120:5289   */\n    tag_196:\n        /* \"#utility.yul\":5204:5215   */\n      0x00\n        /* \"#utility.yul\":5238:5244   */\n      dup3\n        /* \"#utility.yul\":5233:5236   */\n      dup3\n        /* \"#utility.yul\":5226:5245   */\n      mstore\n        /* \"#utility.yul\":5278:5282   */\n      0x20\n        /* \"#utility.yul\":5273:5276   */\n      dup3\n        /* \"#utility.yul\":5269:5283   */\n      add\n        /* \"#utility.yul\":5254:5283   */\n      swap1\n      pop\n        /* \"#utility.yul\":5120:5289   */\n      swap3\n      swap2\n      pop\n      pop\n      jump\t// out\n        /* \"#utility.yul\":5295:5517   */\n    tag_197:\n        /* \"#utility.yul\":5435:5469   */\n      0x4f6e6c792063726561746f722063616e2063616c6c20746869732066756e6374\n        /* \"#utility.yul\":5431:5432   */\n      0x00\n        /* \"#utility.yul\":5423:5429   */\n      dup3\n        /* \"#utility.yul\":5419:5433   */\n      add\n        /* \"#utility.yul\":5412:5470   */\n      mstore\n        /* \"#utility.yul\":5504:5509   */\n      0x696f6e0000000000000000000000000000000000000000000000000000000000\n        /* \"#utility.yul\":5499:5501   */\n      0x20\n        /* \"#utility.yul\":5491:5497   */\n      dup3\n        /* \"#utility.yul\":5487:5502   */\n      add\n        /* \"#utility.yul\":5480:5510   */\n      mstore\n        /* \"#utility.yul\":5295:5517   */\n      pop\n      jump\t// out\n        /* \"#utility.yul\":5523:5889   */\n    tag_198:\n        /* \"#utility.yul\":5665:5668   */\n      0x00\n        /* \"#utility.yul\":5686:5753   */\n      tag_288\n        /* \"#utility.yul\":5750:5752   */\n      0x23\n        /* \"#utility.yul\":5745:5748   */\n      dup4\n        /* \"#utility.yul\":5686:5753   */\n      tag_196\n      jump\t// in\n    tag_288:\n        /* \"#utility.yul\":5679:5753   */\n      swap2\n      pop\n        /* \"#utility.yul\":5762:5855   */\n      tag_289\n        /* \"#utility.yul\":5851:5854   */\n      dup3\n        /* \"#utility.yul\":5762:5855   */\n      tag_197\n      jump\t// in\n    tag_289:\n        /* \"#utility.yul\":5880:5882   */\n      0x40\n        /* \"#utility.yul\":5875:5878   */\n      dup3\n        /* \"#utility.yul\":5871:5883   */\n      add\n        /* \"#utility.yul\":5864:5883   */\n      swap1\n      pop\n        /* \"#utility.yul\":5523:5889   */\n      swap2\n      swap1\n      pop\n      jump\t// out\n        /* \"#utility.yul\":5895:6314   */\n    tag_53:\n        /* \"#utility.yul\":6061:6065   */\n      0x00\n        /* \"#utility.yul\":6099:6101   */\n      0x20\n        /* \"#utility.yul\":6088:6097   */\n      dup3\n        /* \"#utility.yul\":6084:6102   */\n      add\n        /* \"#utility.yul\":6076:6102   */\n      swap1\n      pop\n        /* \"#utility.yul\":6148:6157   */\n      dup2\n        /* \"#utility.yul\":6142:6146   */\n      dup2\n        /* \"#utility.yul\":6138:6158   */\n      sub\n        /* \"#utility.yul\":6134:6135   */\n      0x00\n        /* \"#utility.yul\":6123:6132   */\n      dup4\n        /* \"#utility.yul\":6119:6136   */\n      add\n        /* \"#utility.yul\":6112:6159   */\n      mstore\n        /* \"#utility.yul\":6176:6307   */\n      tag_291\n        /* \"#utility.yul\":6302:6306   */\n      dup2\n        /* \"#utility.yul\":6176:6307   */\n      tag_198\n      jump\t// in\n    tag_291:\n        /* \"#utility.yul\":6168:6307   */\n      swap1\n      pop\n        /* \"#utility.yul\":5895:6314   */\n      swap2\n      swap1\n      pop\n      jump\t// out\n        /* \"#utility.yul\":6320:6551   */\n    tag_199:\n        /* \"#utility.yul\":6460:6494   */\n      0x5769746864726177616c20616d6f756e7473206d757374206265206772656174\n        /* \"#utility.yul\":6456:6457   */\n      0x00\n        /* \"#utility.yul\":6448:6454   */\n      dup3\n        /* \"#utility.yul\":6444:6458   */\n      add\n        /* \"#utility.yul\":6437:6495   */\n      mstore\n        /* \"#utility.yul\":6529:6543   */\n      0x6572207468616e207a65726f0000000000000000000000000000000000000000\n        /* \"#utility.yul\":6524:6526   */\n      0x20\n        /* \"#utility.yul\":6516:6522   */\n      dup3\n        /* \"#utility.yul\":6512:6527   */\n      add\n        /* \"#utility.yul\":6505:6544   */\n      mstore\n        /* \"#utility.yul\":6320:6551   */\n      pop\n      jump\t// out\n        /* \"#utility.yul\":6557:6923   */\n    tag_200:\n        /* \"#utility.yul\":6699:6702   */\n      0x00\n        /* \"#utility.yul\":6720:6787   */\n      tag_294\n        /* \"#utility.yul\":6784:6786   */\n      0x2c\n        /* \"#utility.yul\":6779:6782   */\n      dup4\n        /* \"#utility.yul\":6720:6787   */\n      tag_196\n      jump\t// in\n    tag_294:\n        /* \"#utility.yul\":6713:6787   */\n      swap2\n      pop\n        /* \"#utility.yul\":6796:6889   */\n      tag_295\n        /* \"#utility.yul\":6885:6888   */\n      dup3\n        /* \"#utility.yul\":6796:6889   */\n      tag_199\n      jump\t// in\n    tag_295:\n        /* \"#utility.yul\":6914:6916   */\n      0x40\n        /* \"#utility.yul\":6909:6912   */\n      dup3\n        /* \"#utility.yul\":6905:6917   */\n      add\n        /* \"#utility.yul\":6898:6917   */\n      swap1\n      pop\n        /* \"#utility.yul\":6557:6923   */\n      swap2\n      swap1\n      pop\n      jump\t// out\n        /* \"#utility.yul\":6929:7348   */\n    tag_58:\n        /* \"#utility.yul\":7095:7099   */\n      0x00\n        /* \"#utility.yul\":7133:7135   */\n      0x20\n        /* \"#utility.yul\":7122:7131   */\n      dup3\n        /* \"#utility.yul\":7118:7136   */\n      add\n        /* \"#utility.yul\":7110:7136   */\n      swap1\n      pop\n        /* \"#utility.yul\":7182:7191   */\n      dup2\n        /* \"#utility.yul\":7176:7180   */\n      dup2\n        /* \"#utility.yul\":7172:7192   */\n      sub\n        /* \"#utility.yul\":7168:7169   */\n      0x00\n        /* \"#utility.yul\":7157:7166   */\n      dup4\n        /* \"#utility.yul\":7153:7170   */\n      add\n        /* \"#utility.yul\":7146:7193   */\n      mstore\n        /* \"#utility.yul\":7210:7341   */\n      tag_297\n        /* \"#utility.yul\":7336:7340   */\n      dup2\n        /* \"#utility.yul\":7210:7341   */\n      tag_200\n      jump\t// in\n    tag_297:\n        /* \"#utility.yul\":7202:7341   */\n      swap1\n      pop\n        /* \"#utility.yul\":6929:7348   */\n      swap2\n      swap1\n      pop\n      jump\t// out\n        /* \"#utility.yul\":7354:7574   */\n    tag_201:\n        /* \"#utility.yul\":7494:7528   */\n      0x496e73756666696369656e74206c697175696469747920666f7220746f6b656e\n        /* \"#utility.yul\":7490:7491   */\n      0x00\n        /* \"#utility.yul\":7482:7488   */\n      dup3\n        /* \"#utility.yul\":7478:7492   */\n      add\n        /* \"#utility.yul\":7471:7529   */\n      mstore\n        /* \"#utility.yul\":7563:7566   */\n      0x4100000000000000000000000000000000000000000000000000000000000000\n        /* \"#utility.yul\":7558:7560   */\n      0x20\n        /* \"#utility.yul\":7550:7556   */\n      dup3\n        /* \"#utility.yul\":7546:7561   */\n      add\n        /* \"#utility.yul\":7539:7567   */\n      mstore\n        /* \"#utility.yul\":7354:7574   */\n      pop\n      jump\t// out\n        /* \"#utility.yul\":7580:7946   */\n    tag_202:\n        /* \"#utility.yul\":7722:7725   */\n      0x00\n        /* \"#utility.yul\":7743:7810   */\n      tag_300\n        /* \"#utility.yul\":7807:7809   */\n      0x21\n        /* \"#utility.yul\":7802:7805   */\n      dup4\n        /* \"#utility.yul\":7743:7810   */\n      tag_196\n      jump\t// in\n    tag_300:\n        /* \"#utility.yul\":7736:7810   */\n      swap2\n      pop\n        /* \"#utility.yul\":7819:7912   */\n      tag_301\n        /* \"#utility.yul\":7908:7911   */\n      dup3\n        /* \"#utility.yul\":7819:7912   */\n      tag_201\n      jump\t// in\n    tag_301:\n        /* \"#utility.yul\":7937:7939   */\n      0x40\n        /* \"#utility.yul\":7932:7935   */\n      dup3\n        /* \"#utility.yul\":7928:7940   */\n      add\n        /* \"#utility.yul\":7921:7940   */\n      swap1\n      pop\n        /* \"#utility.yul\":7580:7946   */\n      swap2\n      swap1\n      pop\n      jump\t// out\n        /* \"#utility.yul\":7952:8371   */\n    tag_62:\n        /* \"#utility.yul\":8118:8122   */\n      0x00\n        /* \"#utility.yul\":8156:8158   */\n      0x20\n        /* \"#utility.yul\":8145:8154   */\n      dup3\n        /* \"#utility.yul\":8141:8159   */\n      add\n        /* \"#utility.yul\":8133:8159   */\n      swap1\n      pop\n        /* \"#utility.yul\":8205:8214   */\n      dup2\n        /* \"#utility.yul\":8199:8203   */\n      dup2\n        /* \"#utility.yul\":8195:8215   */\n      sub\n        /* \"#utility.yul\":8191:8192   */\n      0x00\n        /* \"#utility.yul\":8180:8189   */\n      dup4\n        /* \"#utility.yul\":8176:8193   */\n      add\n        /* \"#utility.yul\":8169:8216   */\n      mstore\n        /* \"#utility.yul\":8233:8364   */\n      tag_303\n        /* \"#utility.yul\":8359:8363   */\n      dup2\n        /* \"#utility.yul\":8233:8364   */\n      tag_202\n      jump\t// in\n    tag_303:\n        /* \"#utility.yul\":8225:8364   */\n      swap1\n      pop\n        /* \"#utility.yul\":7952:8371   */\n      swap2\n      swap1\n      pop\n      jump\t// out\n        /* \"#utility.yul\":8377:8597   */\n    tag_203:\n        /* \"#utility.yul\":8517:8551   */\n      0x496e73756666696369656e74206c697175696469747920666f7220746f6b656e\n        /* \"#utility.yul\":8513:8514   */\n      0x00\n        /* \"#utility.yul\":8505:8511   */\n      dup3\n        /* \"#utility.yul\":8501:8515   */\n      add\n        /* \"#utility.yul\":8494:8552   */\n      mstore\n        /* \"#utility.yul\":8586:8589   */\n      0x4200000000000000000000000000000000000000000000000000000000000000\n        /* \"#utility.yul\":8581:8583   */\n      0x20\n        /* \"#utility.yul\":8573:8579   */\n      dup3\n        /* \"#utility.yul\":8569:8584   */\n      add\n        /* \"#utility.yul\":8562:8590   */\n      mstore\n        /* \"#utility.yul\":8377:8597   */\n      pop\n      jump\t// out\n        /* \"#utility.yul\":8603:8969   */\n    tag_204:\n        /* \"#utility.yul\":8745:8748   */\n      0x00\n        /* \"#utility.yul\":8766:8833   */\n      tag_306\n        /* \"#utility.yul\":8830:8832   */\n      0x21\n        /* \"#utility.yul\":8825:8828   */\n      dup4\n        /* \"#utility.yul\":8766:8833   */\n      tag_196\n      jump\t// in\n    tag_306:\n        /* \"#utility.yul\":8759:8833   */\n      swap2\n      pop\n        /* \"#utility.yul\":8842:8935   */\n      tag_307\n        /* \"#utility.yul\":8931:8934   */\n      dup3\n        /* \"#utility.yul\":8842:8935   */\n      tag_203\n      jump\t// in\n    tag_307:\n        /* \"#utility.yul\":8960:8962   */\n      0x40\n        /* \"#utility.yul\":8955:8958   */\n      dup3\n        /* \"#utility.yul\":8951:8963   */\n      add\n        /* \"#utility.yul\":8944:8963   */\n      swap1\n      pop\n        /* \"#utility.yul\":8603:8969   */\n      swap2\n      swap1\n      pop\n      jump\t// out\n        /* \"#utility.yul\":8975:9394   */\n    tag_65:\n        /* \"#utility.yul\":9141:9145   */\n      0x00\n        /* \"#utility.yul\":9179:9181   */\n      0x20\n        /* \"#utility.yul\":9168:9177   */\n      dup3\n        /* \"#utility.yul\":9164:9182   */\n      add\n        /* \"#utility.yul\":9156:9182   */\n      swap1\n      pop\n        /* \"#utility.yul\":9228:9237   */\n      dup2\n        /* \"#utility.yul\":9222:9226   */\n      dup2\n        /* \"#utility.yul\":9218:9238   */\n      sub\n        /* \"#utility.yul\":9214:9215   */\n      0x00\n        /* \"#utility.yul\":9203:9212   */\n      dup4\n        /* \"#utility.yul\":9199:9216   */\n      add\n        /* \"#utility.yul\":9192:9239   */\n      mstore\n        /* \"#utility.yul\":9256:9387   */\n      tag_309\n        /* \"#utility.yul\":9382:9386   */\n      dup2\n        /* \"#utility.yul\":9256:9387   */\n      tag_204\n      jump\t// in\n    tag_309:\n        /* \"#utility.yul\":9248:9387   */\n      swap1\n      pop\n        /* \"#utility.yul\":8975:9394   */\n      swap2\n      swap1\n      pop\n      jump\t// out\n        /* \"#utility.yul\":9400:9580   */\n    tag_205:\n        /* \"#utility.yul\":9448:9525   */\n      0x4e487b7100000000000000000000000000000000000000000000000000000000\n        /* \"#utility.yul\":9445:9446   */\n      0x00\n        /* \"#utility.yul\":9438:9526   */\n      mstore\n        /* \"#utility.yul\":9545:9549   */\n      0x11\n        /* \"#utility.yul\":9542:9543   */\n      0x04\n        /* \"#utility.yul\":9535:9550   */\n      mstore\n        /* \"#utility.yul\":9569:9573   */\n      0x24\n        /* \"#utility.yul\":9566:9567   */\n      0x00\n        /* \"#utility.yul\":9559:9574   */\n      revert\n        /* \"#utility.yul\":9586:9780   */\n    tag_67:\n        /* \"#utility.yul\":9626:9630   */\n      0x00\n        /* \"#utility.yul\":9646:9666   */\n      tag_312\n        /* \"#utility.yul\":9664:9665   */\n      dup3\n        /* \"#utility.yul\":9646:9666   */\n      tag_192\n      jump\t// in\n    tag_312:\n        /* \"#utility.yul\":9641:9666   */\n      swap2\n      pop\n        /* \"#utility.yul\":9680:9700   */\n      tag_313\n        /* \"#utility.yul\":9698:9699   */\n      dup4\n        /* \"#utility.yul\":9680:9700   */\n      tag_192\n      jump\t// in\n    tag_313:\n        /* \"#utility.yul\":9675:9700   */\n      swap3\n      pop\n        /* \"#utility.yul\":9724:9725   */\n      dup3\n        /* \"#utility.yul\":9721:9722   */\n      dup3\n        /* \"#utility.yul\":9717:9726   */\n      sub\n        /* \"#utility.yul\":9709:9726   */\n      swap1\n      pop\n        /* \"#utility.yul\":9748:9749   */\n      dup2\n        /* \"#utility.yul\":9742:9746   */\n      dup2\n        /* \"#utility.yul\":9739:9750   */\n      gt\n        /* \"#utility.yul\":9736:9773   */\n      iszero\n      tag_314\n      jumpi\n        /* \"#utility.yul\":9753:9771   */\n      tag_315\n      tag_205\n      jump\t// in\n    tag_315:\n        /* \"#utility.yul\":9736:9773   */\n    tag_314:\n        /* \"#utility.yul\":9586:9780   */\n      swap3\n      swap2\n      pop\n      pop\n      jump\t// out\n        /* \"#utility.yul\":9786:10118   */\n    tag_70:\n        /* \"#utility.yul\":9907:9911   */\n      0x00\n        /* \"#utility.yul\":9945:9947   */\n      0x40\n        /* \"#utility.yul\":9934:9943   */\n      dup3\n        /* \"#utility.yul\":9930:9948   */\n      add\n        /* \"#utility.yul\":9922:9948   */\n      swap1\n      pop\n        /* \"#utility.yul\":9958:10029   */\n      tag_317\n        /* \"#utility.yul\":10026:10027   */\n      0x00\n        /* \"#utility.yul\":10015:10024   */\n      dup4\n        /* \"#utility.yul\":10011:10028   */\n      add\n        /* \"#utility.yul\":10002:10008   */\n      dup6\n        /* \"#utility.yul\":9958:10029   */\n      tag_186\n      jump\t// in\n    tag_317:\n        /* \"#utility.yul\":10039:10111   */\n      tag_318\n        /* \"#utility.yul\":10107:10109   */\n      0x20\n        /* \"#utility.yul\":10096:10105   */\n      dup4\n        /* \"#utility.yul\":10092:10110   */\n      add\n        /* \"#utility.yul\":10083:10089   */\n      dup5\n        /* \"#utility.yul\":10039:10111   */\n      tag_195\n      jump\t// in\n    tag_318:\n        /* \"#utility.yul\":9786:10118   */\n      swap4\n      swap3\n      pop\n      pop\n      pop\n      jump\t// out\n        /* \"#utility.yul\":10124:10214   */\n    tag_206:\n        /* \"#utility.yul\":10158:10165   */\n      0x00\n        /* \"#utility.yul\":10201:10206   */\n      dup2\n        /* \"#utility.yul\":10194:10207   */\n      iszero\n        /* \"#utility.yul\":10187:10208   */\n      iszero\n        /* \"#utility.yul\":10176:10208   */\n      swap1\n      pop\n        /* \"#utility.yul\":10124:10214   */\n      swap2\n      swap1\n      pop\n      jump\t// out\n        /* \"#utility.yul\":10220:10336   */\n    tag_207:\n        /* \"#utility.yul\":10290:10311   */\n      tag_321\n        /* \"#utility.yul\":10305:10310   */\n      dup2\n        /* \"#utility.yul\":10290:10311   */\n      tag_206\n      jump\t// in\n    tag_321:\n        /* \"#utility.yul\":10283:10288   */\n      dup2\n        /* \"#utility.yul\":10280:10312   */\n      eq\n        /* \"#utility.yul\":10270:10330   */\n      tag_322\n      jumpi\n        /* \"#utility.yul\":10326:10327   */\n      0x00\n        /* \"#utility.yul\":10323:10324   */\n      dup1\n        /* \"#utility.yul\":10316:10328   */\n      revert\n        /* \"#utility.yul\":10270:10330   */\n    tag_322:\n        /* \"#utility.yul\":10220:10336   */\n      pop\n      jump\t// out\n        /* \"#utility.yul\":10342:10479   */\n    tag_208:\n        /* \"#utility.yul\":10396:10401   */\n      0x00\n        /* \"#utility.yul\":10427:10433   */\n      dup2\n        /* \"#utility.yul\":10421:10434   */\n      mload\n        /* \"#utility.yul\":10412:10434   */\n      swap1\n      pop\n        /* \"#utility.yul\":10443:10473   */\n      tag_324\n        /* \"#utility.yul\":10467:10472   */\n      dup2\n        /* \"#utility.yul\":10443:10473   */\n      tag_207\n      jump\t// in\n    tag_324:\n        /* \"#utility.yul\":10342:10479   */\n      swap3\n      swap2\n      pop\n      pop\n      jump\t// out\n        /* \"#utility.yul\":10485:10830   */\n    tag_74:\n        /* \"#utility.yul\":10552:10558   */\n      0x00\n        /* \"#utility.yul\":10601:10603   */\n      0x20\n        /* \"#utility.yul\":10589:10598   */\n      dup3\n        /* \"#utility.yul\":10580:10587   */\n      dup5\n        /* \"#utility.yul\":10576:10599   */\n      sub\n        /* \"#utility.yul\":10572:10604   */\n      slt\n        /* \"#utility.yul\":10569:10688   */\n      iszero\n      tag_326\n      jumpi\n        /* \"#utility.yul\":10607:10686   */\n      tag_327\n      tag_188\n      jump\t// in\n    tag_327:\n        /* \"#utility.yul\":10569:10688   */\n    tag_326:\n        /* \"#utility.yul\":10727:10728   */\n      0x00\n        /* \"#utility.yul\":10752:10813   */\n      tag_328\n        /* \"#utility.yul\":10805:10812   */\n      dup5\n        /* \"#utility.yul\":10796:10802   */\n      dup3\n        /* \"#utility.yul\":10785:10794   */\n      dup6\n        /* \"#utility.yul\":10781:10803   */\n      add\n        /* \"#utility.yul\":10752:10813   */\n      tag_208\n      jump\t// in\n    tag_328:\n        /* \"#utility.yul\":10742:10813   */\n      swap2\n      pop\n        /* \"#utility.yul\":10698:10823   */\n      pop\n        /* \"#utility.yul\":10485:10830   */\n      swap3\n      swap2\n      pop\n      pop\n      jump\t// out\n        /* \"#utility.yul\":10836:11168   */\n    tag_80:\n        /* \"#utility.yul\":10957:10961   */\n      0x00\n        /* \"#utility.yul\":10995:10997   */\n      0x40\n        /* \"#utility.yul\":10984:10993   */\n      dup3\n        /* \"#utility.yul\":10980:10998   */\n      add\n        /* \"#utility.yul\":10972:10998   */\n      swap1\n      pop\n        /* \"#utility.yul\":11008:11079   */\n      tag_330\n        /* \"#utility.yul\":11076:11077   */\n      0x00\n        /* \"#utility.yul\":11065:11074   */\n      dup4\n        /* \"#utility.yul\":11061:11078   */\n      add\n        /* \"#utility.yul\":11052:11058   */\n      dup6\n        /* \"#utility.yul\":11008:11079   */\n      tag_195\n      jump\t// in\n    tag_330:\n        /* \"#utility.yul\":11089:11161   */\n      tag_331\n        /* \"#utility.yul\":11157:11159   */\n      0x20\n        /* \"#utility.yul\":11146:11155   */\n      dup4\n        /* \"#utility.yul\":11142:11160   */\n      add\n        /* \"#utility.yul\":11133:11139   */\n      dup5\n        /* \"#utility.yul\":11089:11161   */\n      tag_195\n      jump\t// in\n    tag_331:\n        /* \"#utility.yul\":10836:11168   */\n      swap4\n      swap3\n      pop\n      pop\n      pop\n      jump\t// out\n        /* \"#utility.yul\":11174:11345   */\n    tag_209:\n        /* \"#utility.yul\":11314:11337   */\n      0x496e76616c696420746f6b656e20616464726573730000000000000000000000\n        /* \"#utility.yul\":11310:11311   */\n      0x00\n        /* \"#utility.yul\":11302:11308   */\n      dup3\n        /* \"#utility.yul\":11298:11312   */\n      add\n        /* \"#utility.yul\":11291:11338   */\n      mstore\n        /* \"#utility.yul\":11174:11345   */\n      pop\n      jump\t// out\n        /* \"#utility.yul\":11351:11717   */\n    tag_210:\n        /* \"#utility.yul\":11493:11496   */\n      0x00\n        /* \"#utility.yul\":11514:11581   */\n      tag_334\n        /* \"#utility.yul\":11578:11580   */\n      0x15\n        /* \"#utility.yul\":11573:11576   */\n      dup4\n        /* \"#utility.yul\":11514:11581   */\n      tag_196\n      jump\t// in\n    tag_334:\n        /* \"#utility.yul\":11507:11581   */\n      swap2\n      pop\n        /* \"#utility.yul\":11590:11683   */\n      tag_335\n        /* \"#utility.yul\":11679:11682   */\n      dup3\n        /* \"#utility.yul\":11590:11683   */\n      tag_209\n      jump\t// in\n    tag_335:\n        /* \"#utility.yul\":11708:11710   */\n      0x20\n        /* \"#utility.yul\":11703:11706   */\n      dup3\n        /* \"#utility.yul\":11699:11711   */\n      add\n        /* \"#utility.yul\":11692:11711   */\n      swap1\n      pop\n        /* \"#utility.yul\":11351:11717   */\n      swap2\n      swap1\n      pop\n      jump\t// out\n        /* \"#utility.yul\":11723:12142   */\n    tag_90:\n        /* \"#utility.yul\":11889:11893   */\n      0x00\n        /* \"#utility.yul\":11927:11929   */\n      0x20\n        /* \"#utility.yul\":11916:11925   */\n      dup3\n        /* \"#utility.yul\":11912:11930   */\n      add\n        /* \"#utility.yul\":11904:11930   */\n      swap1\n      pop\n        /* \"#utility.yul\":11976:11985   */\n      dup2\n        /* \"#utility.yul\":11970:11974   */\n      dup2\n        /* \"#utility.yul\":11966:11986   */\n      sub\n        /* \"#utility.yul\":11962:11963   */\n      0x00\n        /* \"#utility.yul\":11951:11960   */\n      dup4\n        /* \"#utility.yul\":11947:11964   */\n      add\n        /* \"#utility.yul\":11940:11987   */\n      mstore\n        /* \"#utility.yul\":12004:12135   */\n      tag_337\n        /* \"#utility.yul\":12130:12134   */\n      dup2\n        /* \"#utility.yul\":12004:12135   */\n      tag_210\n      jump\t// in\n    tag_337:\n        /* \"#utility.yul\":11996:12135   */\n      swap1\n      pop\n        /* \"#utility.yul\":11723:12142   */\n      swap2\n      swap1\n      pop\n      jump\t// out\n        /* \"#utility.yul\":12148:12317   */\n    tag_211:\n        /* \"#utility.yul\":12288:12309   */\n      0x5061697220616c72656164792065786973747300000000000000000000000000\n        /* \"#utility.yul\":12284:12285   */\n      0x00\n        /* \"#utility.yul\":12276:12282   */\n      dup3\n        /* \"#utility.yul\":12272:12286   */\n      add\n        /* \"#utility.yul\":12265:12310   */\n      mstore\n        /* \"#utility.yul\":12148:12317   */\n      pop\n      jump\t// out\n        /* \"#utility.yul\":12323:12689   */\n    tag_212:\n        /* \"#utility.yul\":12465:12468   */\n      0x00\n        /* \"#utility.yul\":12486:12553   */\n      tag_340\n        /* \"#utility.yul\":12550:12552   */\n      0x13\n        /* \"#utility.yul\":12545:12548   */\n      dup4\n        /* \"#utility.yul\":12486:12553   */\n      tag_196\n      jump\t// in\n    tag_340:\n        /* \"#utility.yul\":12479:12553   */\n      swap2\n      pop\n        /* \"#utility.yul\":12562:12655   */\n      tag_341\n        /* \"#utility.yul\":12651:12654   */\n      dup3\n        /* \"#utility.yul\":12562:12655   */\n      tag_211\n      jump\t// in\n    tag_341:\n        /* \"#utility.yul\":12680:12682   */\n      0x20\n        /* \"#utility.yul\":12675:12678   */\n      dup3\n        /* \"#utility.yul\":12671:12683   */\n      add\n        /* \"#utility.yul\":12664:12683   */\n      swap1\n      pop\n        /* \"#utility.yul\":12323:12689   */\n      swap2\n      swap1\n      pop\n      jump\t// out\n        /* \"#utility.yul\":12695:13114   */\n    tag_94:\n        /* \"#utility.yul\":12861:12865   */\n      0x00\n        /* \"#utility.yul\":12899:12901   */\n      0x20\n        /* \"#utility.yul\":12888:12897   */\n      dup3\n        /* \"#utility.yul\":12884:12902   */\n      add\n        /* \"#utility.yul\":12876:12902   */\n      swap1\n      pop\n        /* \"#utility.yul\":12948:12957   */\n      dup2\n        /* \"#utility.yul\":12942:12946   */\n      dup2\n        /* \"#utility.yul\":12938:12958   */\n      sub\n        /* \"#utility.yul\":12934:12935   */\n      0x00\n        /* \"#utility.yul\":12923:12932   */\n      dup4\n        /* \"#utility.yul\":12919:12936   */\n      add\n        /* \"#utility.yul\":12912:12959   */\n      mstore\n        /* \"#utility.yul\":12976:13107   */\n      tag_343\n        /* \"#utility.yul\":13102:13106   */\n      dup2\n        /* \"#utility.yul\":12976:13107   */\n      tag_212\n      jump\t// in\n    tag_343:\n        /* \"#utility.yul\":12968:13107   */\n      swap1\n      pop\n        /* \"#utility.yul\":12695:13114   */\n      swap2\n      swap1\n      pop\n      jump\t// out\n        /* \"#utility.yul\":13120:13340   */\n    tag_213:\n        /* \"#utility.yul\":13260:13294   */\n      0x416d6f756e7473206d7573742062652067726561746572207468616e207a6572\n        /* \"#utility.yul\":13256:13257   */\n      0x00\n        /* \"#utility.yul\":13248:13254   */\n      dup3\n        /* \"#utility.yul\":13244:13258   */\n      add\n        /* \"#utility.yul\":13237:13295   */\n      mstore\n        /* \"#utility.yul\":13329:13332   */\n      0x6f00000000000000000000000000000000000000000000000000000000000000\n        /* \"#utility.yul\":13324:13326   */\n      0x20\n        /* \"#utility.yul\":13316:13322   */\n      dup3\n        /* \"#utility.yul\":13312:13327   */\n      add\n        /* \"#utility.yul\":13305:13333   */\n      mstore\n        /* \"#utility.yul\":13120:13340   */\n      pop\n      jump\t// out\n        /* \"#utility.yul\":13346:13712   */\n    tag_214:\n        /* \"#utility.yul\":13488:13491   */\n      0x00\n        /* \"#utility.yul\":13509:13576   */\n      tag_346\n        /* \"#utility.yul\":13573:13575   */\n      0x21\n        /* \"#utility.yul\":13568:13571   */\n      dup4\n        /* \"#utility.yul\":13509:13576   */\n      tag_196\n      jump\t// in\n    tag_346:\n        /* \"#utility.yul\":13502:13576   */\n      swap2\n      pop\n        /* \"#utility.yul\":13585:13678   */\n      tag_347\n        /* \"#utility.yul\":13674:13677   */\n      dup3\n        /* \"#utility.yul\":13585:13678   */\n      tag_213\n      jump\t// in\n    tag_347:\n        /* \"#utility.yul\":13703:13705   */\n      0x40\n        /* \"#utility.yul\":13698:13701   */\n      dup3\n        /* \"#utility.yul\":13694:13706   */\n      add\n        /* \"#utility.yul\":13687:13706   */\n      swap1\n      pop\n        /* \"#utility.yul\":13346:13712   */\n      swap2\n      swap1\n      pop\n      jump\t// out\n        /* \"#utility.yul\":13718:14137   */\n    tag_104:\n        /* \"#utility.yul\":13884:13888   */\n      0x00\n        /* \"#utility.yul\":13922:13924   */\n      0x20\n        /* \"#utility.yul\":13911:13920   */\n      dup3\n        /* \"#utility.yul\":13907:13925   */\n      add\n        /* \"#utility.yul\":13899:13925   */\n      swap1\n      pop\n        /* \"#utility.yul\":13971:13980   */\n      dup2\n        /* \"#utility.yul\":13965:13969   */\n      dup2\n        /* \"#utility.yul\":13961:13981   */\n      sub\n        /* \"#utility.yul\":13957:13958   */\n      0x00\n        /* \"#utility.yul\":13946:13955   */\n      dup4\n        /* \"#utility.yul\":13942:13959   */\n      add\n        /* \"#utility.yul\":13935:13982   */\n      mstore\n        /* \"#utility.yul\":13999:14130   */\n      tag_349\n        /* \"#utility.yul\":14125:14129   */\n      dup2\n        /* \"#utility.yul\":13999:14130   */\n      tag_214\n      jump\t// in\n    tag_349:\n        /* \"#utility.yul\":13991:14130   */\n      swap1\n      pop\n        /* \"#utility.yul\":13718:14137   */\n      swap2\n      swap1\n      pop\n      jump\t// out\n        /* \"#utility.yul\":14143:14312   */\n    tag_215:\n        /* \"#utility.yul\":14283:14304   */\n      0x5061697220646f6573206e6f7420657869737400000000000000000000000000\n        /* \"#utility.yul\":14279:14280   */\n      0x00\n        /* \"#utility.yul\":14271:14277   */\n      dup3\n        /* \"#utility.yul\":14267:14281   */\n      add\n        /* \"#utility.yul\":14260:14305   */\n      mstore\n        /* \"#utility.yul\":14143:14312   */\n      pop\n      jump\t// out\n        /* \"#utility.yul\":14318:14684   */\n    tag_216:\n        /* \"#utility.yul\":14460:14463   */\n      0x00\n        /* \"#utility.yul\":14481:14548   */\n      tag_352\n        /* \"#utility.yul\":14545:14547   */\n      0x13\n        /* \"#utility.yul\":14540:14543   */\n      dup4\n        /* \"#utility.yul\":14481:14548   */\n      tag_196\n      jump\t// in\n    tag_352:\n        /* \"#utility.yul\":14474:14548   */\n      swap2\n      pop\n        /* \"#utility.yul\":14557:14650   */\n      tag_353\n        /* \"#utility.yul\":14646:14649   */\n      dup3\n        /* \"#utility.yul\":14557:14650   */\n      tag_215\n      jump\t// in\n    tag_353:\n        /* \"#utility.yul\":14675:14677   */\n      0x20\n        /* \"#utility.yul\":14670:14673   */\n      dup3\n        /* \"#utility.yul\":14666:14678   */\n      add\n        /* \"#utility.yul\":14659:14678   */\n      swap1\n      pop\n        /* \"#utility.yul\":14318:14684   */\n      swap2\n      swap1\n      pop\n      jump\t// out\n        /* \"#utility.yul\":14690:15109   */\n    tag_108:\n        /* \"#utility.yul\":14856:14860   */\n      0x00\n        /* \"#utility.yul\":14894:14896   */\n      0x20\n        /* \"#utility.yul\":14883:14892   */\n      dup3\n        /* \"#utility.yul\":14879:14897   */\n      add\n        /* \"#utility.yul\":14871:14897   */\n      swap1\n      pop\n        /* \"#utility.yul\":14943:14952   */\n      dup2\n        /* \"#utility.yul\":14937:14941   */\n      dup2\n        /* \"#utility.yul\":14933:14953   */\n      sub\n        /* \"#utility.yul\":14929:14930   */\n      0x00\n        /* \"#utility.yul\":14918:14927   */\n      dup4\n        /* \"#utility.yul\":14914:14931   */\n      add\n        /* \"#utility.yul\":14907:14954   */\n      mstore\n        /* \"#utility.yul\":14971:15102   */\n      tag_355\n        /* \"#utility.yul\":15097:15101   */\n      dup2\n        /* \"#utility.yul\":14971:15102   */\n      tag_216\n      jump\t// in\n    tag_355:\n        /* \"#utility.yul\":14963:15102   */\n      swap1\n      pop\n        /* \"#utility.yul\":14690:15109   */\n      swap2\n      swap1\n      pop\n      jump\t// out\n        /* \"#utility.yul\":15115:15557   */\n    tag_110:\n        /* \"#utility.yul\":15264:15268   */\n      0x00\n        /* \"#utility.yul\":15302:15304   */\n      0x60\n        /* \"#utility.yul\":15291:15300   */\n      dup3\n        /* \"#utility.yul\":15287:15305   */\n      add\n        /* \"#utility.yul\":15279:15305   */\n      swap1\n      pop\n        /* \"#utility.yul\":15315:15386   */\n      tag_357\n        /* \"#utility.yul\":15383:15384   */\n      0x00\n        /* \"#utility.yul\":15372:15381   */\n      dup4\n        /* \"#utility.yul\":15368:15385   */\n      add\n        /* \"#utility.yul\":15359:15365   */\n      dup7\n        /* \"#utility.yul\":15315:15386   */\n      tag_186\n      jump\t// in\n    tag_357:\n        /* \"#utility.yul\":15396:15468   */\n      tag_358\n        /* \"#utility.yul\":15464:15466   */\n      0x20\n        /* \"#utility.yul\":15453:15462   */\n      dup4\n        /* \"#utility.yul\":15449:15467   */\n      add\n        /* \"#utility.yul\":15440:15446   */\n      dup6\n        /* \"#utility.yul\":15396:15468   */\n      tag_186\n      jump\t// in\n    tag_358:\n        /* \"#utility.yul\":15478:15550   */\n      tag_359\n        /* \"#utility.yul\":15546:15548   */\n      0x40\n        /* \"#utility.yul\":15535:15544   */\n      dup4\n        /* \"#utility.yul\":15531:15549   */\n      add\n        /* \"#utility.yul\":15522:15528   */\n      dup5\n        /* \"#utility.yul\":15478:15550   */\n      tag_195\n      jump\t// in\n    tag_359:\n        /* \"#utility.yul\":15115:15557   */\n      swap5\n      swap4\n      pop\n      pop\n      pop\n      pop\n      jump\t// out\n        /* \"#utility.yul\":15563:15754   */\n    tag_119:\n        /* \"#utility.yul\":15603:15606   */\n      0x00\n        /* \"#utility.yul\":15622:15642   */\n      tag_361\n        /* \"#utility.yul\":15640:15641   */\n      dup3\n        /* \"#utility.yul\":15622:15642   */\n      tag_192\n      jump\t// in\n    tag_361:\n        /* \"#utility.yul\":15617:15642   */\n      swap2\n      pop\n        /* \"#utility.yul\":15656:15676   */\n      tag_362\n        /* \"#utility.yul\":15674:15675   */\n      dup4\n        /* \"#utility.yul\":15656:15676   */\n      tag_192\n      jump\t// in\n    tag_362:\n        /* \"#utility.yul\":15651:15676   */\n      swap3\n      pop\n        /* \"#utility.yul\":15699:15700   */\n      dup3\n        /* \"#utility.yul\":15696:15697   */\n      dup3\n        /* \"#utility.yul\":15692:15701   */\n      add\n        /* \"#utility.yul\":15685:15701   */\n      swap1\n      pop\n        /* \"#utility.yul\":15720:15723   */\n      dup1\n        /* \"#utility.yul\":15717:15718   */\n      dup3\n        /* \"#utility.yul\":15714:15724   */\n      gt\n        /* \"#utility.yul\":15711:15747   */\n      iszero\n      tag_363\n      jumpi\n        /* \"#utility.yul\":15727:15745   */\n      tag_364\n      tag_205\n      jump\t// in\n    tag_364:\n        /* \"#utility.yul\":15711:15747   */\n    tag_363:\n        /* \"#utility.yul\":15563:15754   */\n      swap3\n      swap2\n      pop\n      pop\n      jump\t// out\n        /* \"#utility.yul\":15760:15982   */\n    tag_217:\n        /* \"#utility.yul\":15900:15934   */\n      0x416d6f756e7420696e206d7573742062652067726561746572207468616e207a\n        /* \"#utility.yul\":15896:15897   */\n      0x00\n        /* \"#utility.yul\":15888:15894   */\n      dup3\n        /* \"#utility.yul\":15884:15898   */\n      add\n        /* \"#utility.yul\":15877:15935   */\n      mstore\n        /* \"#utility.yul\":15969:15974   */\n      0x65726f0000000000000000000000000000000000000000000000000000000000\n        /* \"#utility.yul\":15964:15966   */\n      0x20\n        /* \"#utility.yul\":15956:15962   */\n      dup3\n        /* \"#utility.yul\":15952:15967   */\n      add\n        /* \"#utility.yul\":15945:15975   */\n      mstore\n        /* \"#utility.yul\":15760:15982   */\n      pop\n      jump\t// out\n        /* \"#utility.yul\":15988:16354   */\n    tag_218:\n        /* \"#utility.yul\":16130:16133   */\n      0x00\n        /* \"#utility.yul\":16151:16218   */\n      tag_367\n        /* \"#utility.yul\":16215:16217   */\n      0x23\n        /* \"#utility.yul\":16210:16213   */\n      dup4\n        /* \"#utility.yul\":16151:16218   */\n      tag_196\n      jump\t// in\n    tag_367:\n        /* \"#utility.yul\":16144:16218   */\n      swap2\n      pop\n        /* \"#utility.yul\":16227:16320   */\n      tag_368\n        /* \"#utility.yul\":16316:16319   */\n      dup3\n        /* \"#utility.yul\":16227:16320   */\n      tag_217\n      jump\t// in\n    tag_368:\n        /* \"#utility.yul\":16345:16347   */\n      0x40\n        /* \"#utility.yul\":16340:16343   */\n      dup3\n        /* \"#utility.yul\":16336:16348   */\n      add\n        /* \"#utility.yul\":16329:16348   */\n      swap1\n      pop\n        /* \"#utility.yul\":15988:16354   */\n      swap2\n      swap1\n      pop\n      jump\t// out\n        /* \"#utility.yul\":16360:16779   */\n    tag_125:\n        /* \"#utility.yul\":16526:16530   */\n      0x00\n        /* \"#utility.yul\":16564:16566   */\n      0x20\n        /* \"#utility.yul\":16553:16562   */\n      dup3\n        /* \"#utility.yul\":16549:16567   */\n      add\n        /* \"#utility.yul\":16541:16567   */\n      swap1\n      pop\n        /* \"#utility.yul\":16613:16622   */\n      dup2\n        /* \"#utility.yul\":16607:16611   */\n      dup2\n        /* \"#utility.yul\":16603:16623   */\n      sub\n        /* \"#utility.yul\":16599:16600   */\n      0x00\n        /* \"#utility.yul\":16588:16597   */\n      dup4\n        /* \"#utility.yul\":16584:16601   */\n      add\n        /* \"#utility.yul\":16577:16624   */\n      mstore\n        /* \"#utility.yul\":16641:16772   */\n      tag_370\n        /* \"#utility.yul\":16767:16771   */\n      dup2\n        /* \"#utility.yul\":16641:16772   */\n      tag_218\n      jump\t// in\n    tag_370:\n        /* \"#utility.yul\":16633:16772   */\n      swap1\n      pop\n        /* \"#utility.yul\":16360:16779   */\n      swap2\n      swap1\n      pop\n      jump\t// out\n        /* \"#utility.yul\":16785:16949   */\n    tag_219:\n        /* \"#utility.yul\":16925:16941   */\n      0x456d707479207265736572766573000000000000000000000000000000000000\n        /* \"#utility.yul\":16921:16922   */\n      0x00\n        /* \"#utility.yul\":16913:16919   */\n      dup3\n        /* \"#utility.yul\":16909:16923   */\n      add\n        /* \"#utility.yul\":16902:16942   */\n      mstore\n        /* \"#utility.yul\":16785:16949   */\n      pop\n      jump\t// out\n        /* \"#utility.yul\":16955:17321   */\n    tag_220:\n        /* \"#utility.yul\":17097:17100   */\n      0x00\n        /* \"#utility.yul\":17118:17185   */\n      tag_373\n        /* \"#utility.yul\":17182:17184   */\n      0x0e\n        /* \"#utility.yul\":17177:17180   */\n      dup4\n        /* \"#utility.yul\":17118:17185   */\n      tag_196\n      jump\t// in\n    tag_373:\n        /* \"#utility.yul\":17111:17185   */\n      swap2\n      pop\n        /* \"#utility.yul\":17194:17287   */\n      tag_374\n        /* \"#utility.yul\":17283:17286   */\n      dup3\n        /* \"#utility.yul\":17194:17287   */\n      tag_219\n      jump\t// in\n    tag_374:\n        /* \"#utility.yul\":17312:17314   */\n      0x20\n        /* \"#utility.yul\":17307:17310   */\n      dup3\n        /* \"#utility.yul\":17303:17315   */\n      add\n        /* \"#utility.yul\":17296:17315   */\n      swap1\n      pop\n        /* \"#utility.yul\":16955:17321   */\n      swap2\n      swap1\n      pop\n      jump\t// out\n        /* \"#utility.yul\":17327:17746   */\n    tag_140:\n        /* \"#utility.yul\":17493:17497   */\n      0x00\n        /* \"#utility.yul\":17531:17533   */\n      0x20\n        /* \"#utility.yul\":17520:17529   */\n      dup3\n        /* \"#utility.yul\":17516:17534   */\n      add\n        /* \"#utility.yul\":17508:17534   */\n      swap1\n      pop\n        /* \"#utility.yul\":17580:17589   */\n      dup2\n        /* \"#utility.yul\":17574:17578   */\n      dup2\n        /* \"#utility.yul\":17570:17590   */\n      sub\n        /* \"#utility.yul\":17566:17567   */\n      0x00\n        /* \"#utility.yul\":17555:17564   */\n      dup4\n        /* \"#utility.yul\":17551:17568   */\n      add\n        /* \"#utility.yul\":17544:17591   */\n      mstore\n        /* \"#utility.yul\":17608:17739   */\n      tag_376\n        /* \"#utility.yul\":17734:17738   */\n      dup2\n        /* \"#utility.yul\":17608:17739   */\n      tag_220\n      jump\t// in\n    tag_376:\n        /* \"#utility.yul\":17600:17739   */\n      swap1\n      pop\n        /* \"#utility.yul\":17327:17746   */\n      swap2\n      swap1\n      pop\n      jump\t// out\n        /* \"#utility.yul\":17752:18162   */\n    tag_142:\n        /* \"#utility.yul\":17792:17799   */\n      0x00\n        /* \"#utility.yul\":17815:17835   */\n      tag_378\n        /* \"#utility.yul\":17833:17834   */\n      dup3\n        /* \"#utility.yul\":17815:17835   */\n      tag_192\n      jump\t// in\n    tag_378:\n        /* \"#utility.yul\":17810:17835   */\n      swap2\n      pop\n        /* \"#utility.yul\":17849:17869   */\n      tag_379\n        /* \"#utility.yul\":17867:17868   */\n      dup4\n        /* \"#utility.yul\":17849:17869   */\n      tag_192\n      jump\t// in\n    tag_379:\n        /* \"#utility.yul\":17844:17869   */\n      swap3\n      pop\n        /* \"#utility.yul\":17904:17905   */\n      dup3\n        /* \"#utility.yul\":17901:17902   */\n      dup3\n        /* \"#utility.yul\":17897:17906   */\n      mul\n        /* \"#utility.yul\":17926:17956   */\n      tag_380\n        /* \"#utility.yul\":17944:17955   */\n      dup2\n        /* \"#utility.yul\":17926:17956   */\n      tag_192\n      jump\t// in\n    tag_380:\n        /* \"#utility.yul\":17915:17956   */\n      swap2\n      pop\n        /* \"#utility.yul\":18105:18106   */\n      dup3\n        /* \"#utility.yul\":18096:18103   */\n      dup3\n        /* \"#utility.yul\":18092:18107   */\n      div\n        /* \"#utility.yul\":18089:18090   */\n      dup5\n        /* \"#utility.yul\":18086:18108   */\n      eq\n        /* \"#utility.yul\":18066:18067   */\n      dup4\n        /* \"#utility.yul\":18059:18068   */\n      iszero\n        /* \"#utility.yul\":18039:18122   */\n      or\n        /* \"#utility.yul\":18016:18155   */\n      tag_381\n      jumpi\n        /* \"#utility.yul\":18135:18153   */\n      tag_382\n      tag_205\n      jump\t// in\n    tag_382:\n        /* \"#utility.yul\":18016:18155   */\n    tag_381:\n        /* \"#utility.yul\":17800:18162   */\n      pop\n        /* \"#utility.yul\":17752:18162   */\n      swap3\n      swap2\n      pop\n      pop\n      jump\t// out\n        /* \"#utility.yul\":18168:18348   */\n    tag_221:\n        /* \"#utility.yul\":18216:18293   */\n      0x4e487b7100000000000000000000000000000000000000000000000000000000\n        /* \"#utility.yul\":18213:18214   */\n      0x00\n        /* \"#utility.yul\":18206:18294   */\n      mstore\n        /* \"#utility.yul\":18313:18317   */\n      0x12\n        /* \"#utility.yul\":18310:18311   */\n      0x04\n        /* \"#utility.yul\":18303:18318   */\n      mstore\n        /* \"#utility.yul\":18337:18341   */\n      0x24\n        /* \"#utility.yul\":18334:18335   */\n      0x00\n        /* \"#utility.yul\":18327:18342   */\n      revert\n        /* \"#utility.yul\":18354:18539   */\n    tag_144:\n        /* \"#utility.yul\":18394:18395   */\n      0x00\n        /* \"#utility.yul\":18411:18431   */\n      tag_385\n        /* \"#utility.yul\":18429:18430   */\n      dup3\n        /* \"#utility.yul\":18411:18431   */\n      tag_192\n      jump\t// in\n    tag_385:\n        /* \"#utility.yul\":18406:18431   */\n      swap2\n      pop\n        /* \"#utility.yul\":18445:18465   */\n      tag_386\n        /* \"#utility.yul\":18463:18464   */\n      dup4\n        /* \"#utility.yul\":18445:18465   */\n      tag_192\n      jump\t// in\n    tag_386:\n        /* \"#utility.yul\":18440:18465   */\n      swap3\n      pop\n        /* \"#utility.yul\":18484:18485   */\n      dup3\n        /* \"#utility.yul\":18474:18509   */\n      tag_387\n      jumpi\n        /* \"#utility.yul\":18489:18507   */\n      tag_388\n      tag_221\n      jump\t// in\n    tag_388:\n        /* \"#utility.yul\":18474:18509   */\n    tag_387:\n        /* \"#utility.yul\":18531:18532   */\n      dup3\n        /* \"#utility.yul\":18528:18529   */\n      dup3\n        /* \"#utility.yul\":18524:18533   */\n      div\n        /* \"#utility.yul\":18519:18533   */\n      swap1\n      pop\n        /* \"#utility.yul\":18354:18539   */\n      swap3\n      swap2\n      pop\n      pop\n      jump\t// out\n        /* \"#utility.yul\":18545:18719   */\n    tag_222:\n        /* \"#utility.yul\":18685:18711   */\n      0x45666665637469766520616d6f756e7420746f6f206c6f770000000000000000\n        /* \"#utility.yul\":18681:18682   */\n      0x00\n        /* \"#utility.yul\":18673:18679   */\n      dup3\n        /* \"#utility.yul\":18669:18683   */\n      add\n        /* \"#utility.yul\":18662:18712   */\n      mstore\n        /* \"#utility.yul\":18545:18719   */\n      pop\n      jump\t// out\n        /* \"#utility.yul\":18725:19091   */\n    tag_223:\n        /* \"#utility.yul\":18867:18870   */\n      0x00\n        /* \"#utility.yul\":18888:18955   */\n      tag_391\n        /* \"#utility.yul\":18952:18954   */\n      0x18\n        /* \"#utility.yul\":18947:18950   */\n      dup4\n        /* \"#utility.yul\":18888:18955   */\n      tag_196\n      jump\t// in\n    tag_391:\n        /* \"#utility.yul\":18881:18955   */\n      swap2\n      pop\n        /* \"#utility.yul\":18964:19057   */\n      tag_392\n        /* \"#utility.yul\":19053:19056   */\n      dup3\n        /* \"#utility.yul\":18964:19057   */\n      tag_222\n      jump\t// in\n    tag_392:\n        /* \"#utility.yul\":19082:19084   */\n      0x20\n        /* \"#utility.yul\":19077:19080   */\n      dup3\n        /* \"#utility.yul\":19073:19085   */\n      add\n        /* \"#utility.yul\":19066:19085   */\n      swap1\n      pop\n        /* \"#utility.yul\":18725:19091   */\n      swap2\n      swap1\n      pop\n      jump\t// out\n        /* \"#utility.yul\":19097:19516   */\n    tag_151:\n        /* \"#utility.yul\":19263:19267   */\n      0x00\n        /* \"#utility.yul\":19301:19303   */\n      0x20\n        /* \"#utility.yul\":19290:19299   */\n      dup3\n        /* \"#utility.yul\":19286:19304   */\n      add\n        /* \"#utility.yul\":19278:19304   */\n      swap1\n      pop\n        /* \"#utility.yul\":19350:19359   */\n      dup2\n        /* \"#utility.yul\":19344:19348   */\n      dup2\n        /* \"#utility.yul\":19340:19360   */\n      sub\n        /* \"#utility.yul\":19336:19337   */\n      0x00\n        /* \"#utility.yul\":19325:19334   */\n      dup4\n        /* \"#utility.yul\":19321:19338   */\n      add\n        /* \"#utility.yul\":19314:19361   */\n      mstore\n        /* \"#utility.yul\":19378:19509   */\n      tag_394\n        /* \"#utility.yul\":19504:19508   */\n      dup2\n        /* \"#utility.yul\":19378:19509   */\n      tag_223\n      jump\t// in\n    tag_394:\n        /* \"#utility.yul\":19370:19509   */\n      swap1\n      pop\n        /* \"#utility.yul\":19097:19516   */\n      swap2\n      swap1\n      pop\n      jump\t// out\n        /* \"#utility.yul\":19522:19695   */\n    tag_224:\n        /* \"#utility.yul\":19662:19687   */\n      0x536c697070616765206c696d6974206578636565646564000000000000000000\n        /* \"#utility.yul\":19658:19659   */\n      0x00\n        /* \"#utility.yul\":19650:19656   */\n      dup3\n        /* \"#utility.yul\":19646:19660   */\n      add\n        /* \"#utility.yul\":19639:19688   */\n      mstore\n        /* \"#utility.yul\":19522:19695   */\n      pop\n      jump\t// out\n        /* \"#utility.yul\":19701:20067   */\n    tag_225:\n        /* \"#utility.yul\":19843:19846   */\n      0x00\n        /* \"#utility.yul\":19864:19931   */\n      tag_397\n        /* \"#utility.yul\":19928:19930   */\n      0x17\n        /* \"#utility.yul\":19923:19926   */\n      dup4\n        /* \"#utility.yul\":19864:19931   */\n      tag_196\n      jump\t// in\n    tag_397:\n        /* \"#utility.yul\":19857:19931   */\n      swap2\n      pop\n        /* \"#utility.yul\":19940:20033   */\n      tag_398\n        /* \"#utility.yul\":20029:20032   */\n      dup3\n        /* \"#utility.yul\":19940:20033   */\n      tag_224\n      jump\t// in\n    tag_398:\n        /* \"#utility.yul\":20058:20060   */\n      0x20\n        /* \"#utility.yul\":20053:20056   */\n      dup3\n        /* \"#utility.yul\":20049:20061   */\n      add\n        /* \"#utility.yul\":20042:20061   */\n      swap1\n      pop\n        /* \"#utility.yul\":19701:20067   */\n      swap2\n      swap1\n      pop\n      jump\t// out\n        /* \"#utility.yul\":20073:20492   */\n    tag_158:\n        /* \"#utility.yul\":20239:20243   */\n      0x00\n        /* \"#utility.yul\":20277:20279   */\n      0x20\n        /* \"#utility.yul\":20266:20275   */\n      dup3\n        /* \"#utility.yul\":20262:20280   */\n      add\n        /* \"#utility.yul\":20254:20280   */\n      swap1\n      pop\n        /* \"#utility.yul\":20326:20335   */\n      dup2\n        /* \"#utility.yul\":20320:20324   */\n      dup2\n        /* \"#utility.yul\":20316:20336   */\n      sub\n        /* \"#utility.yul\":20312:20313   */\n      0x00\n        /* \"#utility.yul\":20301:20310   */\n      dup4\n        /* \"#utility.yul\":20297:20314   */\n      add\n        /* \"#utility.yul\":20290:20337   */\n      mstore\n        /* \"#utility.yul\":20354:20485   */\n      tag_400\n        /* \"#utility.yul\":20480:20484   */\n      dup2\n        /* \"#utility.yul\":20354:20485   */\n      tag_225\n      jump\t// in\n    tag_400:\n        /* \"#utility.yul\":20346:20485   */\n      swap1\n      pop\n        /* \"#utility.yul\":20073:20492   */\n      swap2\n      swap1\n      pop\n      jump\t// out\n        /* \"#utility.yul\":20498:20670   */\n    tag_226:\n        /* \"#utility.yul\":20638:20662   */\n      0x496e73756666696369656e74206c697175696469747900000000000000000000\n        /* \"#utility.yul\":20634:20635   */\n      0x00\n        /* \"#utility.yul\":20626:20632   */\n      dup3\n        /* \"#utility.yul\":20622:20636   */\n      add\n        /* \"#utility.yul\":20615:20663   */\n      mstore\n        /* \"#utility.yul\":20498:20670   */\n      pop\n      jump\t// out\n        /* \"#utility.yul\":20676:21042   */\n    tag_227:\n        /* \"#utility.yul\":20818:20821   */\n      0x00\n        /* \"#utility.yul\":20839:20906   */\n      tag_403\n        /* \"#utility.yul\":20903:20905   */\n      0x16\n        /* \"#utility.yul\":20898:20901   */\n      dup4\n        /* \"#utility.yul\":20839:20906   */\n      tag_196\n      jump\t// in\n    tag_403:\n        /* \"#utility.yul\":20832:20906   */\n      swap2\n      pop\n        /* \"#utility.yul\":20915:21008   */\n      tag_404\n        /* \"#utility.yul\":21004:21007   */\n      dup3\n        /* \"#utility.yul\":20915:21008   */\n      tag_226\n      jump\t// in\n    tag_404:\n        /* \"#utility.yul\":21033:21035   */\n      0x20\n        /* \"#utility.yul\":21028:21031   */\n      dup3\n        /* \"#utility.yul\":21024:21036   */\n      add\n        /* \"#utility.yul\":21017:21036   */\n      swap1\n      pop\n        /* \"#utility.yul\":20676:21042   */\n      swap2\n      swap1\n      pop\n      jump\t// out\n        /* \"#utility.yul\":21048:21467   */\n    tag_161:\n        /* \"#utility.yul\":21214:21218   */\n      0x00\n        /* \"#utility.yul\":21252:21254   */\n      0x20\n        /* \"#utility.yul\":21241:21250   */\n      dup3\n        /* \"#utility.yul\":21237:21255   */\n      add\n        /* \"#utility.yul\":21229:21255   */\n      swap1\n      pop\n        /* \"#utility.yul\":21301:21310   */\n      dup2\n        /* \"#utility.yul\":21295:21299   */\n      dup2\n        /* \"#utility.yul\":21291:21311   */\n      sub\n        /* \"#utility.yul\":21287:21288   */\n      0x00\n        /* \"#utility.yul\":21276:21285   */\n      dup4\n        /* \"#utility.yul\":21272:21289   */\n      add\n        /* \"#utility.yul\":21265:21312   */\n      mstore\n        /* \"#utility.yul\":21329:21460   */\n      tag_406\n        /* \"#utility.yul\":21455:21459   */\n      dup2\n        /* \"#utility.yul\":21329:21460   */\n      tag_227\n      jump\t// in\n    tag_406:\n        /* \"#utility.yul\":21321:21460   */\n      swap1\n      pop\n        /* \"#utility.yul\":21048:21467   */\n      swap2\n      swap1\n      pop\n      jump\t// out\n        /* \"#utility.yul\":21473:22026   */\n    tag_183:\n        /* \"#utility.yul\":21650:21654   */\n      0x00\n        /* \"#utility.yul\":21688:21691   */\n      0x80\n        /* \"#utility.yul\":21677:21686   */\n      dup3\n        /* \"#utility.yul\":21673:21692   */\n      add\n        /* \"#utility.yul\":21665:21692   */\n      swap1\n      pop\n        /* \"#utility.yul\":21702:21773   */\n      tag_408\n        /* \"#utility.yul\":21770:21771   */\n      0x00\n        /* \"#utility.yul\":21759:21768   */\n      dup4\n        /* \"#utility.yul\":21755:21772   */\n      add\n        /* \"#utility.yul\":21746:21752   */\n      dup8\n        /* \"#utility.yul\":21702:21773   */\n      tag_186\n      jump\t// in\n    tag_408:\n        /* \"#utility.yul\":21783:21855   */\n      tag_409\n        /* \"#utility.yul\":21851:21853   */\n      0x20\n        /* \"#utility.yul\":21840:21849   */\n      dup4\n        /* \"#utility.yul\":21836:21854   */\n      add\n        /* \"#utility.yul\":21827:21833   */\n      dup7\n        /* \"#utility.yul\":21783:21855   */\n      tag_186\n      jump\t// in\n    tag_409:\n        /* \"#utility.yul\":21865:21937   */\n      tag_410\n        /* \"#utility.yul\":21933:21935   */\n      0x40\n        /* \"#utility.yul\":21922:21931   */\n      dup4\n        /* \"#utility.yul\":21918:21936   */\n      add\n        /* \"#utility.yul\":21909:21915   */\n      dup6\n        /* \"#utility.yul\":21865:21937   */\n      tag_195\n      jump\t// in\n    tag_410:\n        /* \"#utility.yul\":21947:22019   */\n      tag_411\n        /* \"#utility.yul\":22015:22017   */\n      0x60\n        /* \"#utility.yul\":22004:22013   */\n      dup4\n        /* \"#utility.yul\":22000:22018   */\n      add\n        /* \"#utility.yul\":21991:21997   */\n      dup5\n        /* \"#utility.yul\":21947:22019   */\n      tag_195\n      jump\t// in\n    tag_411:\n        /* \"#utility.yul\":21473:22026   */\n      swap6\n      swap5\n      pop\n      pop\n      pop\n      pop\n      pop\n      jump\t// out\n\n    auxdata: 0xa2646970667358221220e263e1d9b124462df509884f67b54d6ac36f9aace6fe9c9182a99e7a225ba16764736f6c634300081a0033\n}\n",
				"bytecode": {
					"linkReferences": {},
					"object": "608060405234801561000f575f80fd5b5060405161251a38038061251a833981810160405281019061003191906101f7565b5f73ffffffffffffffffffffffffffffffffffffffff168373ffffffffffffffffffffffffffffffffffffffff161415801561009957505f73ffffffffffffffffffffffffffffffffffffffff168273ffffffffffffffffffffffffffffffffffffffff1614155b6100d8576040517f08c379a00000000000000000000000000000000000000000000000000000000081526004016100cf906102a1565b60405180910390fd5b825f806101000a81548173ffffffffffffffffffffffffffffffffffffffff021916908373ffffffffffffffffffffffffffffffffffffffff1602179055508160015f6101000a81548173ffffffffffffffffffffffffffffffffffffffff021916908373ffffffffffffffffffffffffffffffffffffffff160217905550806002819055505050506102bf565b5f80fd5b5f73ffffffffffffffffffffffffffffffffffffffff82169050919050565b5f6101938261016a565b9050919050565b6101a381610189565b81146101ad575f80fd5b50565b5f815190506101be8161019a565b92915050565b5f819050919050565b6101d6816101c4565b81146101e0575f80fd5b50565b5f815190506101f1816101cd565b92915050565b5f805f6060848603121561020e5761020d610166565b5b5f61021b868287016101b0565b935050602061022c868287016101b0565b925050604061023d868287016101e3565b9150509250925092565b5f82825260208201905092915050565b7f496e76616c6964206164647265737300000000000000000000000000000000005f82015250565b5f61028b600f83610247565b915061029682610257565b602082019050919050565b5f6020820190508181035f8301526102b88161027f565b9050919050565b61224e806102cc5f395ff3fe608060405234801561000f575f80fd5b5060043610610091575f3560e01c8063b5acfa6211610064578063b5acfa6214610134578063bd50a3d414610150578063ebaaa3a11461016c578063fa2af9da1461018a578063fe029156146101a857610091565b806302d05d3f1461009557806327efb5a7146100b357806369454b86146100cf578063ad8c566814610103575b5f80fd5b61009d6101c4565b6040516100aa919061174e565b60405180910390f35b6100cd60048036038101906100c891906117c8565b6101e7565b005b6100e960048036038101906100e4919061182c565b6105e1565b6040516100fa959493929190611879565b60405180910390f35b61011d600480360381019061011891906118ca565b61065c565b60405161012b9291906118f5565b60405180910390f35b61014e6004803603810190610149919061191c565b6106c9565b005b61016a600480360381019061016591906117c8565b610c18565b005b610174610fe4565b604051610181919061196c565b60405180910390f35b610192610fea565b60405161019f919061174e565b60405180910390f35b6101c260048036038101906101bd91906117c8565b61100f565b005b5f8054906101000a900473ffffffffffffffffffffffffffffffffffffffff1681565b5f8054906101000a900473ffffffffffffffffffffffffffffffffffffffff1673ffffffffffffffffffffffffffffffffffffffff163373ffffffffffffffffffffffffffffffffffffffff1614610274576040517f08c379a000000000000000000000000000000000000000000000000000000000815260040161026b90611a05565b60405180910390fd5b5f8211801561028257505f81115b6102c1576040517f08c379a00000000000000000000000000000000000000000000000000000000081526004016102b890611a93565b60405180910390fd5b8273ffffffffffffffffffffffffffffffffffffffff168473ffffffffffffffffffffffffffffffffffffffff16111561030057828480945081955050505b5f60035f8673ffffffffffffffffffffffffffffffffffffffff1673ffffffffffffffffffffffffffffffffffffffff1681526020019081526020015f205f8573ffffffffffffffffffffffffffffffffffffffff1673ffffffffffffffffffffffffffffffffffffffff1681526020019081526020015f20905082816002015410156103c2576040517f08c379a00000000000000000000000000000000000000000000000000000000081526004016103b990611b21565b60405180910390fd5b8181600301541015610409576040517f08c379a000000000000000000000000000000000000000000000000000000000815260040161040090611baf565b60405180910390fd5b82816002015f82825461041c9190611bfa565b9250508190555081816003015f8282546104369190611bfa565b925050819055508473ffffffffffffffffffffffffffffffffffffffff1663a9059cbb5f8054906101000a900473ffffffffffffffffffffffffffffffffffffffff16856040518363ffffffff1660e01b8152600401610497929190611c2d565b6020604051808303815f875af11580156104b3573d5f803e3d5ffd5b505050506040513d601f19601f820116820180604052508101906104d79190611c89565b508373ffffffffffffffffffffffffffffffffffffffff1663a9059cbb5f8054906101000a900473ffffffffffffffffffffffffffffffffffffffff16846040518363ffffffff1660e01b8152600401610532929190611c2d565b6020604051808303815f875af115801561054e573d5f803e3d5ffd5b505050506040513d601f19601f820116820180604052508101906105729190611c89565b508373ffffffffffffffffffffffffffffffffffffffff168573ffffffffffffffffffffffffffffffffffffffff167fba0b893b2f314a229997e335266881b5ac6b290bd350d2c23cc57160b77882b885856040516105d2929190611cb4565b60405180910390a35050505050565b6003602052815f5260405f20602052805f5260405f205f9150915050805f015f9054906101000a900473ffffffffffffffffffffffffffffffffffffffff1690806001015f9054906101000a900473ffffffffffffffffffffffffffffffffffffffff16908060020154908060030154908060040154905085565b6004818154811061066b575f80fd5b905f5260205f2090600202015f91509050805f015f9054906101000a900473ffffffffffffffffffffffffffffffffffffffff1690806001015f9054906101000a900473ffffffffffffffffffffffffffffffffffffffff16905082565b5f8054906101000a900473ffffffffffffffffffffffffffffffffffffffff1673ffffffffffffffffffffffffffffffffffffffff163373ffffffffffffffffffffffffffffffffffffffff1614610756576040517f08c379a000000000000000000000000000000000000000000000000000000000815260040161074d90611a05565b60405180910390fd5b5f73ffffffffffffffffffffffffffffffffffffffff168373ffffffffffffffffffffffffffffffffffffffff16141580156107be57505f73ffffffffffffffffffffffffffffffffffffffff168273ffffffffffffffffffffffffffffffffffffffff1614155b6107fd576040517f08c379a00000000000000000000000000000000000000000000000000000000081526004016107f490611d25565b60405180910390fd5b8173ffffffffffffffffffffffffffffffffffffffff168373ffffffffffffffffffffffffffffffffffffffff16111561083c57818380935081945050505b5f73ffffffffffffffffffffffffffffffffffffffff1660035f8573ffffffffffffffffffffffffffffffffffffffff1673ffffffffffffffffffffffffffffffffffffffff1681526020019081526020015f205f8473ffffffffffffffffffffffffffffffffffffffff1673ffffffffffffffffffffffffffffffffffffffff1681526020019081526020015f205f015f9054906101000a900473ffffffffffffffffffffffffffffffffffffffff1673ffffffffffffffffffffffffffffffffffffffff1614610943576040517f08c379a000000000000000000000000000000000000000000000000000000000815260040161093a90611d8d565b60405180910390fd5b6040518060a001604052808473ffffffffffffffffffffffffffffffffffffffff1681526020018373ffffffffffffffffffffffffffffffffffffffff1681526020015f81526020015f81526020018281525060035f8573ffffffffffffffffffffffffffffffffffffffff1673ffffffffffffffffffffffffffffffffffffffff1681526020019081526020015f205f8473ffffffffffffffffffffffffffffffffffffffff1673ffffffffffffffffffffffffffffffffffffffff1681526020019081526020015f205f820151815f015f6101000a81548173ffffffffffffffffffffffffffffffffffffffff021916908373ffffffffffffffffffffffffffffffffffffffff1602179055506020820151816001015f6101000a81548173ffffffffffffffffffffffffffffffffffffffff021916908373ffffffffffffffffffffffffffffffffffffffff160217905550604082015181600201556060820151816003015560808201518160040155905050600460405180604001604052808573ffffffffffffffffffffffffffffffffffffffff1681526020018473ffffffffffffffffffffffffffffffffffffffff16815250908060018154018082558091505060019003905f5260205f2090600202015f909190919091505f820151815f015f6101000a81548173ffffffffffffffffffffffffffffffffffffffff021916908373ffffffffffffffffffffffffffffffffffffffff1602179055506020820151816001015f6101000a81548173ffffffffffffffffffffffffffffffffffffffff021916908373ffffffffffffffffffffffffffffffffffffffff16021790555050508173ffffffffffffffffffffffffffffffffffffffff168373ffffffffffffffffffffffffffffffffffffffff167fedd4b700a2980a33a301ad39ced5dbc1c98a786ecb28da5bf3926d5165005d1b83604051610c0b919061196c565b60405180910390a3505050565b5f8054906101000a900473ffffffffffffffffffffffffffffffffffffffff1673ffffffffffffffffffffffffffffffffffffffff163373ffffffffffffffffffffffffffffffffffffffff1614610ca5576040517f08c379a0000000000000000000000000000000000000000000000000000000008152600401610c9c90611a05565b60405180910390fd5b5f82118015610cb357505f81115b610cf2576040517f08c379a0000000000000000000000000000000000000000000000000000000008152600401610ce990611e1b565b60405180910390fd5b8273ffffffffffffffffffffffffffffffffffffffff168473ffffffffffffffffffffffffffffffffffffffff161115610d3b5782848094508195505050808280925081935050505b5f60035f8673ffffffffffffffffffffffffffffffffffffffff1673ffffffffffffffffffffffffffffffffffffffff1681526020019081526020015f205f8573ffffffffffffffffffffffffffffffffffffffff1673ffffffffffffffffffffffffffffffffffffffff1681526020019081526020015f2090508473ffffffffffffffffffffffffffffffffffffffff16815f015f9054906101000a900473ffffffffffffffffffffffffffffffffffffffff1673ffffffffffffffffffffffffffffffffffffffff1614610e46576040517f08c379a0000000000000000000000000000000000000000000000000000000008152600401610e3d90611e83565b60405180910390fd5b8473ffffffffffffffffffffffffffffffffffffffff166323b872dd3330866040518463ffffffff1660e01b8152600401610e8393929190611ea1565b6020604051808303815f875af1158015610e9f573d5f803e3d5ffd5b505050506040513d601f19601f82011682018060405250810190610ec39190611c89565b508373ffffffffffffffffffffffffffffffffffffffff166323b872dd3330856040518463ffffffff1660e01b8152600401610f0193929190611ea1565b6020604051808303815f875af1158015610f1d573d5f803e3d5ffd5b505050506040513d601f19601f82011682018060405250810190610f419190611c89565b5082816002015f828254610f559190611ed6565b9250508190555081816003015f828254610f6f9190611ed6565b925050819055508373ffffffffffffffffffffffffffffffffffffffff168573ffffffffffffffffffffffffffffffffffffffff167f44504979f82d498dad8a0687fc02e140be70b1b4ab3b9e23c6ffc1d04410194a8585604051610fd5929190611cb4565b60405180910390a35050505050565b60025481565b60015f9054906101000a900473ffffffffffffffffffffffffffffffffffffffff1681565b5f8211611051576040517f08c379a000000000000000000000000000000000000000000000000000000000815260040161104890611f79565b60405180910390fd5b5f8373ffffffffffffffffffffffffffffffffffffffff168573ffffffffffffffffffffffffffffffffffffffff161061108b578361108d565b845b90505f8473ffffffffffffffffffffffffffffffffffffffff168673ffffffffffffffffffffffffffffffffffffffff16106110c957856110cb565b845b90505f60035f8473ffffffffffffffffffffffffffffffffffffffff1673ffffffffffffffffffffffffffffffffffffffff1681526020019081526020015f205f8373ffffffffffffffffffffffffffffffffffffffff1673ffffffffffffffffffffffffffffffffffffffff1681526020019081526020015f2090508273ffffffffffffffffffffffffffffffffffffffff16815f015f9054906101000a900473ffffffffffffffffffffffffffffffffffffffff1673ffffffffffffffffffffffffffffffffffffffff161480156111f357508173ffffffffffffffffffffffffffffffffffffffff16816001015f9054906101000a900473ffffffffffffffffffffffffffffffffffffffff1673ffffffffffffffffffffffffffffffffffffffff16145b611232576040517f08c379a000000000000000000000000000000000000000000000000000000000815260040161122990611e83565b60405180910390fd5b5f8373ffffffffffffffffffffffffffffffffffffffff168873ffffffffffffffffffffffffffffffffffffffff1614611270578160030154611276565b81600201545b90505f8473ffffffffffffffffffffffffffffffffffffffff168973ffffffffffffffffffffffffffffffffffffffff16146112b65782600201546112bc565b82600301545b90505f821180156112cc57505f81115b61130b576040517f08c379a000000000000000000000000000000000000000000000000000000000815260040161130290611fe1565b60405180910390fd5b5f6127106002548961131d9190611fff565b611327919061206d565b612710856004015461271061133c9190611bfa565b8a6113479190611fff565b611351919061206d565b61135b9190611bfa565b90505f811161139f576040517f08c379a0000000000000000000000000000000000000000000000000000000008152600401611396906120e7565b60405180910390fd5b5f81612710856113af9190611fff565b6113b99190611ed6565b83836113c59190611fff565b6113cf919061206d565b905087811015611414576040517f08c379a000000000000000000000000000000000000000000000000000000000815260040161140b9061214f565b60405180910390fd5b80831015611457576040517f08c379a000000000000000000000000000000000000000000000000000000000815260040161144e906121b7565b60405180910390fd5b8a73ffffffffffffffffffffffffffffffffffffffff166323b872dd33308c6040518463ffffffff1660e01b815260040161149493929190611ea1565b6020604051808303815f875af11580156114b0573d5f803e3d5ffd5b505050506040513d601f19601f820116820180604052508101906114d49190611c89565b505f6127106002548b6114e79190611fff565b6114f1919061206d565b90508b73ffffffffffffffffffffffffffffffffffffffff1663a9059cbb60015f9054906101000a900473ffffffffffffffffffffffffffffffffffffffff16836040518363ffffffff1660e01b815260040161154f929190611c2d565b6020604051808303815f875af115801561156b573d5f803e3d5ffd5b505050506040513d601f19601f8201168201806040525081019061158f9190611c89565b508a73ffffffffffffffffffffffffffffffffffffffff1663a9059cbb33846040518363ffffffff1660e01b81526004016115cb929190611c2d565b6020604051808303815f875af11580156115e7573d5f803e3d5ffd5b505050506040513d601f19601f8201168201806040525081019061160b9190611c89565b508773ffffffffffffffffffffffffffffffffffffffff168c73ffffffffffffffffffffffffffffffffffffffff16036116785782866002015f8282546116529190611ed6565b9250508190555081866003015f82825461166c9190611bfa565b925050819055506116ad565b82866003015f82825461168b9190611ed6565b9250508190555081866002015f8282546116a59190611bfa565b925050819055505b3373ffffffffffffffffffffffffffffffffffffffff167f6782190c91d4a7e8ad2a867deed6ec0a970cab8ff137ae2bd4abd92b3810f4d38d8d8d866040516116f994939291906121d5565b60405180910390a2505050505050505050505050565b5f73ffffffffffffffffffffffffffffffffffffffff82169050919050565b5f6117388261170f565b9050919050565b6117488161172e565b82525050565b5f6020820190506117615f83018461173f565b92915050565b5f80fd5b6117748161172e565b811461177e575f80fd5b50565b5f8135905061178f8161176b565b92915050565b5f819050919050565b6117a781611795565b81146117b1575f80fd5b50565b5f813590506117c28161179e565b92915050565b5f805f80608085870312156117e0576117df611767565b5b5f6117ed87828801611781565b94505060206117fe87828801611781565b935050604061180f878288016117b4565b9250506060611820878288016117b4565b91505092959194509250565b5f806040838503121561184257611841611767565b5b5f61184f85828601611781565b925050602061186085828601611781565b9150509250929050565b61187381611795565b82525050565b5f60a08201905061188c5f83018861173f565b611899602083018761173f565b6118a6604083018661186a565b6118b3606083018561186a565b6118c0608083018461186a565b9695505050505050565b5f602082840312156118df576118de611767565b5b5f6118ec848285016117b4565b91505092915050565b5f6040820190506119085f83018561173f565b611915602083018461173f565b9392505050565b5f805f6060848603121561193357611932611767565b5b5f61194086828701611781565b935050602061195186828701611781565b9250506040611962868287016117b4565b9150509250925092565b5f60208201905061197f5f83018461186a565b92915050565b5f82825260208201905092915050565b7f4f6e6c792063726561746f722063616e2063616c6c20746869732066756e63745f8201527f696f6e0000000000000000000000000000000000000000000000000000000000602082015250565b5f6119ef602383611985565b91506119fa82611995565b604082019050919050565b5f6020820190508181035f830152611a1c816119e3565b9050919050565b7f5769746864726177616c20616d6f756e7473206d7573742062652067726561745f8201527f6572207468616e207a65726f0000000000000000000000000000000000000000602082015250565b5f611a7d602c83611985565b9150611a8882611a23565b604082019050919050565b5f6020820190508181035f830152611aaa81611a71565b9050919050565b7f496e73756666696369656e74206c697175696469747920666f7220746f6b656e5f8201527f4100000000000000000000000000000000000000000000000000000000000000602082015250565b5f611b0b602183611985565b9150611b1682611ab1565b604082019050919050565b5f6020820190508181035f830152611b3881611aff565b9050919050565b7f496e73756666696369656e74206c697175696469747920666f7220746f6b656e5f8201527f4200000000000000000000000000000000000000000000000000000000000000602082015250565b5f611b99602183611985565b9150611ba482611b3f565b604082019050919050565b5f6020820190508181035f830152611bc681611b8d565b9050919050565b7f4e487b71000000000000000000000000000000000000000000000000000000005f52601160045260245ffd5b5f611c0482611795565b9150611c0f83611795565b9250828203905081811115611c2757611c26611bcd565b5b92915050565b5f604082019050611c405f83018561173f565b611c4d602083018461186a565b9392505050565b5f8115159050919050565b611c6881611c54565b8114611c72575f80fd5b50565b5f81519050611c8381611c5f565b92915050565b5f60208284031215611c9e57611c9d611767565b5b5f611cab84828501611c75565b91505092915050565b5f604082019050611cc75f83018561186a565b611cd4602083018461186a565b9392505050565b7f496e76616c696420746f6b656e206164647265737300000000000000000000005f82015250565b5f611d0f601583611985565b9150611d1a82611cdb565b602082019050919050565b5f6020820190508181035f830152611d3c81611d03565b9050919050565b7f5061697220616c726561647920657869737473000000000000000000000000005f82015250565b5f611d77601383611985565b9150611d8282611d43565b602082019050919050565b5f6020820190508181035f830152611da481611d6b565b9050919050565b7f416d6f756e7473206d7573742062652067726561746572207468616e207a65725f8201527f6f00000000000000000000000000000000000000000000000000000000000000602082015250565b5f611e05602183611985565b9150611e1082611dab565b604082019050919050565b5f6020820190508181035f830152611e3281611df9565b9050919050565b7f5061697220646f6573206e6f74206578697374000000000000000000000000005f82015250565b5f611e6d601383611985565b9150611e7882611e39565b602082019050919050565b5f6020820190508181035f830152611e9a81611e61565b9050919050565b5f606082019050611eb45f83018661173f565b611ec1602083018561173f565b611ece604083018461186a565b949350505050565b5f611ee082611795565b9150611eeb83611795565b9250828201905080821115611f0357611f02611bcd565b5b92915050565b7f416d6f756e7420696e206d7573742062652067726561746572207468616e207a5f8201527f65726f0000000000000000000000000000000000000000000000000000000000602082015250565b5f611f63602383611985565b9150611f6e82611f09565b604082019050919050565b5f6020820190508181035f830152611f9081611f57565b9050919050565b7f456d7074792072657365727665730000000000000000000000000000000000005f82015250565b5f611fcb600e83611985565b9150611fd682611f97565b602082019050919050565b5f6020820190508181035f830152611ff881611fbf565b9050919050565b5f61200982611795565b915061201483611795565b925082820261202281611795565b9150828204841483151761203957612038611bcd565b5b5092915050565b7f4e487b71000000000000000000000000000000000000000000000000000000005f52601260045260245ffd5b5f61207782611795565b915061208283611795565b92508261209257612091612040565b5b828204905092915050565b7f45666665637469766520616d6f756e7420746f6f206c6f7700000000000000005f82015250565b5f6120d1601883611985565b91506120dc8261209d565b602082019050919050565b5f6020820190508181035f8301526120fe816120c5565b9050919050565b7f536c697070616765206c696d69742065786365656465640000000000000000005f82015250565b5f612139601783611985565b915061214482612105565b602082019050919050565b5f6020820190508181035f8301526121668161212d565b9050919050565b7f496e73756666696369656e74206c6971756964697479000000000000000000005f82015250565b5f6121a1601683611985565b91506121ac8261216d565b602082019050919050565b5f6020820190508181035f8301526121ce81612195565b9050919050565b5f6080820190506121e85f83018761173f565b6121f5602083018661173f565b612202604083018561186a565b61220f606083018461186a565b9594505050505056fea2646970667358221220e263e1d9b124462df509884f67b54d6ac36f9aace6fe9c9182a99e7a225ba16764736f6c634300081a0033",
					"opcodes": "PUSH1 0x80 PUSH1 0x40 MSTORE CALLVALUE DUP1 ISZERO PUSH2 0xF JUMPI PUSH0 DUP1 REVERT JUMPDEST POP PUSH1 0x40 MLOAD PUSH2 0x251A CODESIZE SUB DUP1 PUSH2 0x251A DUP4 CODECOPY DUP2 DUP2 ADD PUSH1 0x40 MSTORE DUP2 ADD SWAP1 PUSH2 0x31 SWAP2 SWAP1 PUSH2 0x1F7 JUMP JUMPDEST PUSH0 PUSH20 0xFFFFFFFFFFFFFFFFFFFFFFFFFFFFFFFFFFFFFFFF AND DUP4 PUSH20 0xFFFFFFFFFFFFFFFFFFFFFFFFFFFFFFFFFFFFFFFF AND EQ ISZERO DUP1 ISZERO PUSH2 0x99 JUMPI POP PUSH0 PUSH20 0xFFFFFFFFFFFFFFFFFFFFFFFFFFFFFFFFFFFFFFFF AND DUP3 PUSH20 0xFFFFFFFFFFFFFFFFFFFFFFFFFFFFFFFFFFFFFFFF AND EQ ISZERO JUMPDEST PUSH2 0xD8 JUMPI PUSH1 0x40 MLOAD PUSH32 0x8C379A000000000000000000000000000000000000000000000000000000000 DUP2 MSTORE PUSH1 0x4 ADD PUSH2 0xCF SWAP1 PUSH2 0x2A1 JUMP JUMPDEST PUSH1 0x40 MLOAD DUP1 SWAP2 SUB SWAP1 REVERT JUMPDEST DUP3 PUSH0 DUP1 PUSH2 0x100 EXP DUP2 SLOAD DUP2 PUSH20 0xFFFFFFFFFFFFFFFFFFFFFFFFFFFFFFFFFFFFFFFF MUL NOT AND SWAP1 DUP4 PUSH20 0xFFFFFFFFFFFFFFFFFFFFFFFFFFFFFFFFFFFFFFFF AND MUL OR SWAP1 SSTORE POP DUP2 PUSH1 0x1 PUSH0 PUSH2 0x100 EXP DUP2 SLOAD DUP2 PUSH20 0xFFFFFFFFFFFFFFFFFFFFFFFFFFFFFFFFFFFFFFFF MUL NOT AND SWAP1 DUP4 PUSH20 0xFFFFFFFFFFFFFFFFFFFFFFFFFFFFFFFFFFFFFFFF AND MUL OR SWAP1 SSTORE POP DUP1 PUSH1 0x2 DUP2 SWAP1 SSTORE POP POP POP POP PUSH2 0x2BF JUMP JUMPDEST PUSH0 DUP1 REVERT JUMPDEST PUSH0 PUSH20 0xFFFFFFFFFFFFFFFFFFFFFFFFFFFFFFFFFFFFFFFF DUP3 AND SWAP1 POP SWAP2 SWAP1 POP JUMP JUMPDEST PUSH0 PUSH2 0x193 DUP3 PUSH2 0x16A JUMP JUMPDEST SWAP1 POP SWAP2 SWAP1 POP JUMP JUMPDEST PUSH2 0x1A3 DUP2 PUSH2 0x189 JUMP JUMPDEST DUP2 EQ PUSH2 0x1AD JUMPI PUSH0 DUP1 REVERT JUMPDEST POP JUMP JUMPDEST PUSH0 DUP2 MLOAD SWAP1 POP PUSH2 0x1BE DUP2 PUSH2 0x19A JUMP JUMPDEST SWAP3 SWAP2 POP POP JUMP JUMPDEST PUSH0 DUP2 SWAP1 POP SWAP2 SWAP1 POP JUMP JUMPDEST PUSH2 0x1D6 DUP2 PUSH2 0x1C4 JUMP JUMPDEST DUP2 EQ PUSH2 0x1E0 JUMPI PUSH0 DUP1 REVERT JUMPDEST POP JUMP JUMPDEST PUSH0 DUP2 MLOAD SWAP1 POP PUSH2 0x1F1 DUP2 PUSH2 0x1CD JUMP JUMPDEST SWAP3 SWAP2 POP POP JUMP JUMPDEST PUSH0 DUP1 PUSH0 PUSH1 0x60 DUP5 DUP7 SUB SLT ISZERO PUSH2 0x20E JUMPI PUSH2 0x20D PUSH2 0x166 JUMP JUMPDEST JUMPDEST PUSH0 PUSH2 0x21B DUP7 DUP3 DUP8 ADD PUSH2 0x1B0 JUMP JUMPDEST SWAP4 POP POP PUSH1 0x20 PUSH2 0x22C DUP7 DUP3 DUP8 ADD PUSH2 0x1B0 JUMP JUMPDEST SWAP3 POP POP PUSH1 0x40 PUSH2 0x23D DUP7 DUP3 DUP8 ADD PUSH2 0x1E3 JUMP JUMPDEST SWAP2 POP POP SWAP3 POP SWAP3 POP SWAP3 JUMP JUMPDEST PUSH0 DUP3 DUP3 MSTORE PUSH1 0x20 DUP3 ADD SWAP1 POP SWAP3 SWAP2 POP POP JUMP JUMPDEST PUSH32 0x496E76616C696420616464726573730000000000000000000000000000000000 PUSH0 DUP3 ADD MSTORE POP JUMP JUMPDEST PUSH0 PUSH2 0x28B PUSH1 0xF DUP4 PUSH2 0x247 JUMP JUMPDEST SWAP2 POP PUSH2 0x296 DUP3 PUSH2 0x257 JUMP JUMPDEST PUSH1 0x20 DUP3 ADD SWAP1 POP SWAP2 SWAP1 POP JUMP JUMPDEST PUSH0 PUSH1 0x20 DUP3 ADD SWAP1 POP DUP2 DUP2 SUB PUSH0 DUP4 ADD MSTORE PUSH2 0x2B8 DUP2 PUSH2 0x27F JUMP JUMPDEST SWAP1 POP SWAP2 SWAP1 POP JUMP JUMPDEST PUSH2 0x224E DUP1 PUSH2 0x2CC PUSH0 CODECOPY PUSH0 RETURN INVALID PUSH1 0x80 PUSH1 0x40 MSTORE CALLVALUE DUP1 ISZERO PUSH2 0xF JUMPI PUSH0 DUP1 REVERT JUMPDEST POP PUSH1 0x4 CALLDATASIZE LT PUSH2 0x91 JUMPI PUSH0 CALLDATALOAD PUSH1 0xE0 SHR DUP1 PUSH4 0xB5ACFA62 GT PUSH2 0x64 JUMPI DUP1 PUSH4 0xB5ACFA62 EQ PUSH2 0x134 JUMPI DUP1 PUSH4 0xBD50A3D4 EQ PUSH2 0x150 JUMPI DUP1 PUSH4 0xEBAAA3A1 EQ PUSH2 0x16C JUMPI DUP1 PUSH4 0xFA2AF9DA EQ PUSH2 0x18A JUMPI DUP1 PUSH4 0xFE029156 EQ PUSH2 0x1A8 JUMPI PUSH2 0x91 JUMP JUMPDEST DUP1 PUSH4 0x2D05D3F EQ PUSH2 0x95 JUMPI DUP1 PUSH4 0x27EFB5A7 EQ PUSH2 0xB3 JUMPI DUP1 PUSH4 0x69454B86 EQ PUSH2 0xCF JUMPI DUP1 PUSH4 0xAD8C5668 EQ PUSH2 0x103 JUMPI JUMPDEST PUSH0 DUP1 REVERT JUMPDEST PUSH2 0x9D PUSH2 0x1C4 JUMP JUMPDEST PUSH1 0x40 MLOAD PUSH2 0xAA SWAP2 SWAP1 PUSH2 0x174E JUMP JUMPDEST PUSH1 0x40 MLOAD DUP1 SWAP2 SUB SWAP1 RETURN JUMPDEST PUSH2 0xCD PUSH1 0x4 DUP1 CALLDATASIZE SUB DUP2 ADD SWAP1 PUSH2 0xC8 SWAP2 SWAP1 PUSH2 0x17C8 JUMP JUMPDEST PUSH2 0x1E7 JUMP JUMPDEST STOP JUMPDEST PUSH2 0xE9 PUSH1 0x4 DUP1 CALLDATASIZE SUB DUP2 ADD SWAP1 PUSH2 0xE4 SWAP2 SWAP1 PUSH2 0x182C JUMP JUMPDEST PUSH2 0x5E1 JUMP JUMPDEST PUSH1 0x40 MLOAD PUSH2 0xFA SWAP6 SWAP5 SWAP4 SWAP3 SWAP2 SWAP1 PUSH2 0x1879 JUMP JUMPDEST PUSH1 0x40 MLOAD DUP1 SWAP2 SUB SWAP1 RETURN JUMPDEST PUSH2 0x11D PUSH1 0x4 DUP1 CALLDATASIZE SUB DUP2 ADD SWAP1 PUSH2 0x118 SWAP2 SWAP1 PUSH2 0x18CA JUMP JUMPDEST PUSH2 0x65C JUMP JUMPDEST PUSH1 0x40 MLOAD PUSH2 0x12B SWAP3 SWAP2 SWAP1 PUSH2 0x18F5 JUMP JUMPDEST PUSH1 0x40 MLOAD DUP1 SWAP2 SUB SWAP1 RETURN JUMPDEST PUSH2 0x14E PUSH1 0x4 DUP1 CALLDATASIZE SUB DUP2 ADD SWAP1 PUSH2 0x149 SWAP2 SWAP1 PUSH2 0x191C JUMP JUMPDEST PUSH2 0x6C9 JUMP JUMPDEST STOP JUMPDEST PUSH2 0x16A PUSH1 0x4 DUP1 CALLDATASIZE SUB DUP2 ADD SWAP1 PUSH2 0x165 SWAP2 SWAP1 PUSH2 0x17C8 JUMP JUMPDEST PUSH2 0xC18 JUMP JUMPDEST STOP JUMPDEST PUSH2 0x174 PUSH2 0xFE4 JUMP JUMPDEST PUSH1 0x40 MLOAD PUSH2 0x181 SWAP2 SWAP1 PUSH2 0x196C JUMP JUMPDEST PUSH1 0x40 MLOAD DUP1 SWAP2 SUB SWAP1 RETURN JUMPDEST PUSH2 0x192 PUSH2 0xFEA JUMP JUMPDEST PUSH1 0x40 MLOAD PUSH2 0x19F SWAP2 SWAP1 PUSH2 0x174E JUMP JUMPDEST PUSH1 0x40 MLOAD DUP1 SWAP2 SUB SWAP1 RETURN JUMPDEST PUSH2 0x1C2 PUSH1 0x4 DUP1 CALLDATASIZE SUB DUP2 ADD SWAP1 PUSH2 0x1BD SWAP2 SWAP1 PUSH2 0x17C8 JUMP JUMPDEST PUSH2 0x100F JUMP JUMPDEST STOP JUMPDEST PUSH0 DUP1 SLOAD SWAP1 PUSH2 0x100 EXP SWAP1 DIV PUSH20 0xFFFFFFFFFFFFFFFFFFFFFFFFFFFFFFFFFFFFFFFF AND DUP2 JUMP JUMPDEST PUSH0 DUP1 SLOAD SWAP1 PUSH2 0x100 EXP SWAP1 DIV PUSH20 0xFFFFFFFFFFFFFFFFFFFFFFFFFFFFFFFFFFFFFFFF AND PUSH20 0xFFFFFFFFFFFFFFFFFFFFFFFFFFFFFFFFFFFFFFFF AND CALLER PUSH20 0xFFFFFFFFFFFFFFFFFFFFFFFFFFFFFFFFFFFFFFFF AND EQ PUSH2 0x274 JUMPI PUSH1 0x40 MLOAD PUSH32 0x8C379A000000000000000000000000000000000000000000000000000000000 DUP2 MSTORE PUSH1 0x4 ADD PUSH2 0x26B SWAP1 PUSH2 0x1A05 JUMP JUMPDEST PUSH1 0x40 MLOAD DUP1 SWAP2 SUB SWAP1 REVERT JUMPDEST PUSH0 DUP3 GT DUP1 ISZERO PUSH2 0x282 JUMPI POP PUSH0 DUP2 GT JUMPDEST PUSH2 0x2C1 JUMPI PUSH1 0x40 MLOAD PUSH32 0x8C379A000000000000000000000000000000000000000000000000000000000 DUP2 MSTORE PUSH1 0x4 ADD PUSH2 0x2B8 SWAP1 PUSH2 0x1A93 JUMP JUMPDEST PUSH1 0x40 MLOAD DUP1 SWAP2 SUB SWAP1 REVERT JUMPDEST DUP3 PUSH20 0xFFFFFFFFFFFFFFFFFFFFFFFFFFFFFFFFFFFFFFFF AND DUP5 PUSH20 0xFFFFFFFFFFFFFFFFFFFFFFFFFFFFFFFFFFFFFFFF AND GT ISZERO PUSH2 0x300 JUMPI DUP3 DUP5 DUP1 SWAP5 POP DUP2 SWAP6 POP POP POP JUMPDEST PUSH0 PUSH1 0x3 PUSH0 DUP7 PUSH20 0xFFFFFFFFFFFFFFFFFFFFFFFFFFFFFFFFFFFFFFFF AND PUSH20 0xFFFFFFFFFFFFFFFFFFFFFFFFFFFFFFFFFFFFFFFF AND DUP2 MSTORE PUSH1 0x20 ADD SWAP1 DUP2 MSTORE PUSH1 0x20 ADD PUSH0 KECCAK256 PUSH0 DUP6 PUSH20 0xFFFFFFFFFFFFFFFFFFFFFFFFFFFFFFFFFFFFFFFF AND PUSH20 0xFFFFFFFFFFFFFFFFFFFFFFFFFFFFFFFFFFFFFFFF AND DUP2 MSTORE PUSH1 0x20 ADD SWAP1 DUP2 MSTORE PUSH1 0x20 ADD PUSH0 KECCAK256 SWAP1 POP DUP3 DUP2 PUSH1 0x2 ADD SLOAD LT ISZERO PUSH2 0x3C2 JUMPI PUSH1 0x40 MLOAD PUSH32 0x8C379A000000000000000000000000000000000000000000000000000000000 DUP2 MSTORE PUSH1 0x4 ADD PUSH2 0x3B9 SWAP1 PUSH2 0x1B21 JUMP JUMPDEST PUSH1 0x40 MLOAD DUP1 SWAP2 SUB SWAP1 REVERT JUMPDEST DUP2 DUP2 PUSH1 0x3 ADD SLOAD LT ISZERO PUSH2 0x409 JUMPI PUSH1 0x40 MLOAD PUSH32 0x8C379A000000000000000000000000000000000000000000000000000000000 DUP2 MSTORE PUSH1 0x4 ADD PUSH2 0x400 SWAP1 PUSH2 0x1BAF JUMP JUMPDEST PUSH1 0x40 MLOAD DUP1 SWAP2 SUB SWAP1 REVERT JUMPDEST DUP3 DUP2 PUSH1 0x2 ADD PUSH0 DUP3 DUP3 SLOAD PUSH2 0x41C SWAP2 SWAP1 PUSH2 0x1BFA JUMP JUMPDEST SWAP3 POP POP DUP2 SWAP1 SSTORE POP DUP2 DUP2 PUSH1 0x3 ADD PUSH0 DUP3 DUP3 SLOAD PUSH2 0x436 SWAP2 SWAP1 PUSH2 0x1BFA JUMP JUMPDEST SWAP3 POP POP DUP2 SWAP1 SSTORE POP DUP5 PUSH20 0xFFFFFFFFFFFFFFFFFFFFFFFFFFFFFFFFFFFFFFFF AND PUSH4 0xA9059CBB PUSH0 DUP1 SLOAD SWAP1 PUSH2 0x100 EXP SWAP1 DIV PUSH20 0xFFFFFFFFFFFFFFFFFFFFFFFFFFFFFFFFFFFFFFFF AND DUP6 PUSH1 0x40 MLOAD DUP4 PUSH4 0xFFFFFFFF AND PUSH1 0xE0 SHL DUP2 MSTORE PUSH1 0x4 ADD PUSH2 0x497 SWAP3 SWAP2 SWAP1 PUSH2 0x1C2D JUMP JUMPDEST PUSH1 0x20 PUSH1 0x40 MLOAD DUP1 DUP4 SUB DUP2 PUSH0 DUP8 GAS CALL ISZERO DUP1 ISZERO PUSH2 0x4B3 JUMPI RETURNDATASIZE PUSH0 DUP1 RETURNDATACOPY RETURNDATASIZE PUSH0 REVERT JUMPDEST POP POP POP POP PUSH1 0x40 MLOAD RETURNDATASIZE PUSH1 0x1F NOT PUSH1 0x1F DUP3 ADD AND DUP3 ADD DUP1 PUSH1 0x40 MSTORE POP DUP2 ADD SWAP1 PUSH2 0x4D7 SWAP2 SWAP1 PUSH2 0x1C89 JUMP JUMPDEST POP DUP4 PUSH20 0xFFFFFFFFFFFFFFFFFFFFFFFFFFFFFFFFFFFFFFFF AND PUSH4 0xA9059CBB PUSH0 DUP1 SLOAD SWAP1 PUSH2 0x100 EXP SWAP1 DIV PUSH20 0xFFFFFFFFFFFFFFFFFFFFFFFFFFFFFFFFFFFFFFFF AND DUP5 PUSH1 0x40 MLOAD DUP4 PUSH4 0xFFFFFFFF AND PUSH1 0xE0 SHL DUP2 MSTORE PUSH1 0x4 ADD PUSH2 0x532 SWAP3 SWAP2 SWAP1 PUSH2 0x1C2D JUMP JUMPDEST PUSH1 0x20 PUSH1 0x40 MLOAD DUP1 DUP4 SUB DUP2 PUSH0 DUP8 GAS CALL ISZERO DUP1 ISZERO PUSH2 0x54E JUMPI RETURNDATASIZE PUSH0 DUP1 RETURNDATACOPY RETURNDATASIZE PUSH0 REVERT JUMPDEST POP POP POP POP PUSH1 0x40 MLOAD RETURNDATASIZE PUSH1 0x1F NOT PUSH1 0x1F DUP3 ADD AND DUP3 ADD DUP1 PUSH1 0x40 MSTORE POP DUP2 ADD SWAP1 PUSH2 0x572 SWAP2 SWAP1 PUSH2 0x1C89 JUMP JUMPDEST POP DUP4 PUSH20 0xFFFFFFFFFFFFFFFFFFFFFFFFFFFFFFFFFFFFFFFF AND DUP6 PUSH20 0xFFFFFFFFFFFFFFFFFFFFFFFFFFFFFFFFFFFFFFFF AND PUSH32 0xBA0B893B2F314A229997E335266881B5AC6B290BD350D2C23CC57160B77882B8 DUP6 DUP6 PUSH1 0x40 MLOAD PUSH2 0x5D2 SWAP3 SWAP2 SWAP1 PUSH2 0x1CB4 JUMP JUMPDEST PUSH1 0x40 MLOAD DUP1 SWAP2 SUB SWAP1 LOG3 POP POP POP POP POP JUMP JUMPDEST PUSH1 0x3 PUSH1 0x20 MSTORE DUP2 PUSH0 MSTORE PUSH1 0x40 PUSH0 KECCAK256 PUSH1 0x20 MSTORE DUP1 PUSH0 MSTORE PUSH1 0x40 PUSH0 KECCAK256 PUSH0 SWAP2 POP SWAP2 POP POP DUP1 PUSH0 ADD PUSH0 SWAP1 SLOAD SWAP1 PUSH2 0x100 EXP SWAP1 DIV PUSH20 0xFFFFFFFFFFFFFFFFFFFFFFFFFFFFFFFFFFFFFFFF AND SWAP1 DUP1 PUSH1 0x1 ADD PUSH0 SWAP1 SLOAD SWAP1 PUSH2 0x100 EXP SWAP1 DIV PUSH20 0xFFFFFFFFFFFFFFFFFFFFFFFFFFFFFFFFFFFFFFFF AND SWAP1 DUP1 PUSH1 0x2 ADD SLOAD SWAP1 DUP1 PUSH1 0x3 ADD SLOAD SWAP1 DUP1 PUSH1 0x4 ADD SLOAD SWAP1 POP DUP6 JUMP JUMPDEST PUSH1 0x4 DUP2 DUP2 SLOAD DUP2 LT PUSH2 0x66B JUMPI PUSH0 DUP1 REVERT JUMPDEST SWAP1 PUSH0 MSTORE PUSH1 0x20 PUSH0 KECCAK256 SWAP1 PUSH1 0x2 MUL ADD PUSH0 SWAP2 POP SWAP1 POP DUP1 PUSH0 ADD PUSH0 SWAP1 SLOAD SWAP1 PUSH2 0x100 EXP SWAP1 DIV PUSH20 0xFFFFFFFFFFFFFFFFFFFFFFFFFFFFFFFFFFFFFFFF AND SWAP1 DUP1 PUSH1 0x1 ADD PUSH0 SWAP1 SLOAD SWAP1 PUSH2 0x100 EXP SWAP1 DIV PUSH20 0xFFFFFFFFFFFFFFFFFFFFFFFFFFFFFFFFFFFFFFFF AND SWAP1 POP DUP3 JUMP JUMPDEST PUSH0 DUP1 SLOAD SWAP1 PUSH2 0x100 EXP SWAP1 DIV PUSH20 0xFFFFFFFFFFFFFFFFFFFFFFFFFFFFFFFFFFFFFFFF AND PUSH20 0xFFFFFFFFFFFFFFFFFFFFFFFFFFFFFFFFFFFFFFFF AND CALLER PUSH20 0xFFFFFFFFFFFFFFFFFFFFFFFFFFFFFFFFFFFFFFFF AND EQ PUSH2 0x756 JUMPI PUSH1 0x40 MLOAD PUSH32 0x8C379A000000000000000000000000000000000000000000000000000000000 DUP2 MSTORE PUSH1 0x4 ADD PUSH2 0x74D SWAP1 PUSH2 0x1A05 JUMP JUMPDEST PUSH1 0x40 MLOAD DUP1 SWAP2 SUB SWAP1 REVERT JUMPDEST PUSH0 PUSH20 0xFFFFFFFFFFFFFFFFFFFFFFFFFFFFFFFFFFFFFFFF AND DUP4 PUSH20 0xFFFFFFFFFFFFFFFFFFFFFFFFFFFFFFFFFFFFFFFF AND EQ ISZERO DUP1 ISZERO PUSH2 0x7BE JUMPI POP PUSH0 PUSH20 0xFFFFFFFFFFFFFFFFFFFFFFFFFFFFFFFFFFFFFFFF AND DUP3 PUSH20 0xFFFFFFFFFFFFFFFFFFFFFFFFFFFFFFFFFFFFFFFF AND EQ ISZERO JUMPDEST PUSH2 0x7FD JUMPI PUSH1 0x40 MLOAD PUSH32 0x8C379A000000000000000000000000000000000000000000000000000000000 DUP2 MSTORE PUSH1 0x4 ADD PUSH2 0x7F4 SWAP1 PUSH2 0x1D25 JUMP JUMPDEST PUSH1 0x40 MLOAD DUP1 SWAP2 SUB SWAP1 REVERT JUMPDEST DUP2 PUSH20 0xFFFFFFFFFFFFFFFFFFFFFFFFFFFFFFFFFFFFFFFF AND DUP4 PUSH20 0xFFFFFFFFFFFFFFFFFFFFFFFFFFFFFFFFFFFFFFFF AND GT ISZERO PUSH2 0x83C JUMPI DUP2 DUP4 DUP1 SWAP4 POP DUP2 SWAP5 POP POP POP JUMPDEST PUSH0 PUSH20 0xFFFFFFFFFFFFFFFFFFFFFFFFFFFFFFFFFFFFFFFF AND PUSH1 0x3 PUSH0 DUP6 PUSH20 0xFFFFFFFFFFFFFFFFFFFFFFFFFFFFFFFFFFFFFFFF AND PUSH20 0xFFFFFFFFFFFFFFFFFFFFFFFFFFFFFFFFFFFFFFFF AND DUP2 MSTORE PUSH1 0x20 ADD SWAP1 DUP2 MSTORE PUSH1 0x20 ADD PUSH0 KECCAK256 PUSH0 DUP5 PUSH20 0xFFFFFFFFFFFFFFFFFFFFFFFFFFFFFFFFFFFFFFFF AND PUSH20 0xFFFFFFFFFFFFFFFFFFFFFFFFFFFFFFFFFFFFFFFF AND DUP2 MSTORE PUSH1 0x20 ADD SWAP1 DUP2 MSTORE PUSH1 0x20 ADD PUSH0 KECCAK256 PUSH0 ADD PUSH0 SWAP1 SLOAD SWAP1 PUSH2 0x100 EXP SWAP1 DIV PUSH20 0xFFFFFFFFFFFFFFFFFFFFFFFFFFFFFFFFFFFFFFFF AND PUSH20 0xFFFFFFFFFFFFFFFFFFFFFFFFFFFFFFFFFFFFFFFF AND EQ PUSH2 0x943 JUMPI PUSH1 0x40 MLOAD PUSH32 0x8C379A000000000000000000000000000000000000000000000000000000000 DUP2 MSTORE PUSH1 0x4 ADD PUSH2 0x93A SWAP1 PUSH2 0x1D8D JUMP JUMPDEST PUSH1 0x40 MLOAD DUP1 SWAP2 SUB SWAP1 REVERT JUMPDEST PUSH1 0x40 MLOAD DUP1 PUSH1 0xA0 ADD PUSH1 0x40 MSTORE DUP1 DUP5 PUSH20 0xFFFFFFFFFFFFFFFFFFFFFFFFFFFFFFFFFFFFFFFF AND DUP2 MSTORE PUSH1 0x20 ADD DUP4 PUSH20 0xFFFFFFFFFFFFFFFFFFFFFFFFFFFFFFFFFFFFFFFF AND DUP2 MSTORE PUSH1 0x20 ADD PUSH0 DUP2 MSTORE PUSH1 0x20 ADD PUSH0 DUP2 MSTORE PUSH1 0x20 ADD DUP3 DUP2 MSTORE POP PUSH1 0x3 PUSH0 DUP6 PUSH20 0xFFFFFFFFFFFFFFFFFFFFFFFFFFFFFFFFFFFFFFFF AND PUSH20 0xFFFFFFFFFFFFFFFFFFFFFFFFFFFFFFFFFFFFFFFF AND DUP2 MSTORE PUSH1 0x20 ADD SWAP1 DUP2 MSTORE PUSH1 0x20 ADD PUSH0 KECCAK256 PUSH0 DUP5 PUSH20 0xFFFFFFFFFFFFFFFFFFFFFFFFFFFFFFFFFFFFFFFF AND PUSH20 0xFFFFFFFFFFFFFFFFFFFFFFFFFFFFFFFFFFFFFFFF AND DUP2 MSTORE PUSH1 0x20 ADD SWAP1 DUP2 MSTORE PUSH1 0x20 ADD PUSH0 KECCAK256 PUSH0 DUP3 ADD MLOAD DUP2 PUSH0 ADD PUSH0 PUSH2 0x100 EXP DUP2 SLOAD DUP2 PUSH20 0xFFFFFFFFFFFFFFFFFFFFFFFFFFFFFFFFFFFFFFFF MUL NOT AND SWAP1 DUP4 PUSH20 0xFFFFFFFFFFFFFFFFFFFFFFFFFFFFFFFFFFFFFFFF AND MUL OR SWAP1 SSTORE POP PUSH1 0x20 DUP3 ADD MLOAD DUP2 PUSH1 0x1 ADD PUSH0 PUSH2 0x100 EXP DUP2 SLOAD DUP2 PUSH20 0xFFFFFFFFFFFFFFFFFFFFFFFFFFFFFFFFFFFFFFFF MUL NOT AND SWAP1 DUP4 PUSH20 0xFFFFFFFFFFFFFFFFFFFFFFFFFFFFFFFFFFFFFFFF AND MUL OR SWAP1 SSTORE POP PUSH1 0x40 DUP3 ADD MLOAD DUP2 PUSH1 0x2 ADD SSTORE PUSH1 0x60 DUP3 ADD MLOAD DUP2 PUSH1 0x3 ADD SSTORE PUSH1 0x80 DUP3 ADD MLOAD DUP2 PUSH1 0x4 ADD SSTORE SWAP1 POP POP PUSH1 0x4 PUSH1 0x40 MLOAD DUP1 PUSH1 0x40 ADD PUSH1 0x40 MSTORE DUP1 DUP6 PUSH20 0xFFFFFFFFFFFFFFFFFFFFFFFFFFFFFFFFFFFFFFFF AND DUP2 MSTORE PUSH1 0x20 ADD DUP5 PUSH20 0xFFFFFFFFFFFFFFFFFFFFFFFFFFFFFFFFFFFFFFFF AND DUP2 MSTORE POP SWAP1 DUP1 PUSH1 0x1 DUP2 SLOAD ADD DUP1 DUP3 SSTORE DUP1 SWAP2 POP POP PUSH1 0x1 SWAP1 SUB SWAP1 PUSH0 MSTORE PUSH1 0x20 PUSH0 KECCAK256 SWAP1 PUSH1 0x2 MUL ADD PUSH0 SWAP1 SWAP2 SWAP1 SWAP2 SWAP1 SWAP2 POP PUSH0 DUP3 ADD MLOAD DUP2 PUSH0 ADD PUSH0 PUSH2 0x100 EXP DUP2 SLOAD DUP2 PUSH20 0xFFFFFFFFFFFFFFFFFFFFFFFFFFFFFFFFFFFFFFFF MUL NOT AND SWAP1 DUP4 PUSH20 0xFFFFFFFFFFFFFFFFFFFFFFFFFFFFFFFFFFFFFFFF AND MUL OR SWAP1 SSTORE POP PUSH1 0x20 DUP3 ADD MLOAD DUP2 PUSH1 0x1 ADD PUSH0 PUSH2 0x100 EXP DUP2 SLOAD DUP2 PUSH20 0xFFFFFFFFFFFFFFFFFFFFFFFFFFFFFFFFFFFFFFFF MUL NOT AND SWAP1 DUP4 PUSH20 0xFFFFFFFFFFFFFFFFFFFFFFFFFFFFFFFFFFFFFFFF AND MUL OR SWAP1 SSTORE POP POP POP DUP2 PUSH20 0xFFFFFFFFFFFFFFFFFFFFFFFFFFFFFFFFFFFFFFFF AND DUP4 PUSH20 0xFFFFFFFFFFFFFFFFFFFFFFFFFFFFFFFFFFFFFFFF AND PUSH32 0xEDD4B700A2980A33A301AD39CED5DBC1C98A786ECB28DA5BF3926D5165005D1B DUP4 PUSH1 0x40 MLOAD PUSH2 0xC0B SWAP2 SWAP1 PUSH2 0x196C JUMP JUMPDEST PUSH1 0x40 MLOAD DUP1 SWAP2 SUB SWAP1 LOG3 POP POP POP JUMP JUMPDEST PUSH0 DUP1 SLOAD SWAP1 PUSH2 0x100 EXP SWAP1 DIV PUSH20 0xFFFFFFFFFFFFFFFFFFFFFFFFFFFFFFFFFFFFFFFF AND PUSH20 0xFFFFFFFFFFFFFFFFFFFFFFFFFFFFFFFFFFFFFFFF AND CALLER PUSH20 0xFFFFFFFFFFFFFFFFFFFFFFFFFFFFFFFFFFFFFFFF AND EQ PUSH2 0xCA5 JUMPI PUSH1 0x40 MLOAD PUSH32 0x8C379A000000000000000000000000000000000000000000000000000000000 DUP2 MSTORE PUSH1 0x4 ADD PUSH2 0xC9C SWAP1 PUSH2 0x1A05 JUMP JUMPDEST PUSH1 0x40 MLOAD DUP1 SWAP2 SUB SWAP1 REVERT JUMPDEST PUSH0 DUP3 GT DUP1 ISZERO PUSH2 0xCB3 JUMPI POP PUSH0 DUP2 GT JUMPDEST PUSH2 0xCF2 JUMPI PUSH1 0x40 MLOAD PUSH32 0x8C379A000000000000000000000000000000000000000000000000000000000 DUP2 MSTORE PUSH1 0x4 ADD PUSH2 0xCE9 SWAP1 PUSH2 0x1E1B JUMP JUMPDEST PUSH1 0x40 MLOAD DUP1 SWAP2 SUB SWAP1 REVERT JUMPDEST DUP3 PUSH20 0xFFFFFFFFFFFFFFFFFFFFFFFFFFFFFFFFFFFFFFFF AND DUP5 PUSH20 0xFFFFFFFFFFFFFFFFFFFFFFFFFFFFFFFFFFFFFFFF AND GT ISZERO PUSH2 0xD3B JUMPI DUP3 DUP5 DUP1 SWAP5 POP DUP2 SWAP6 POP POP POP DUP1 DUP3 DUP1 SWAP3 POP DUP2 SWAP4 POP POP POP JUMPDEST PUSH0 PUSH1 0x3 PUSH0 DUP7 PUSH20 0xFFFFFFFFFFFFFFFFFFFFFFFFFFFFFFFFFFFFFFFF AND PUSH20 0xFFFFFFFFFFFFFFFFFFFFFFFFFFFFFFFFFFFFFFFF AND DUP2 MSTORE PUSH1 0x20 ADD SWAP1 DUP2 MSTORE PUSH1 0x20 ADD PUSH0 KECCAK256 PUSH0 DUP6 PUSH20 0xFFFFFFFFFFFFFFFFFFFFFFFFFFFFFFFFFFFFFFFF AND PUSH20 0xFFFFFFFFFFFFFFFFFFFFFFFFFFFFFFFFFFFFFFFF AND DUP2 MSTORE PUSH1 0x20 ADD SWAP1 DUP2 MSTORE PUSH1 0x20 ADD PUSH0 KECCAK256 SWAP1 POP DUP5 PUSH20 0xFFFFFFFFFFFFFFFFFFFFFFFFFFFFFFFFFFFFFFFF AND DUP2 PUSH0 ADD PUSH0 SWAP1 SLOAD SWAP1 PUSH2 0x100 EXP SWAP1 DIV PUSH20 0xFFFFFFFFFFFFFFFFFFFFFFFFFFFFFFFFFFFFFFFF AND PUSH20 0xFFFFFFFFFFFFFFFFFFFFFFFFFFFFFFFFFFFFFFFF AND EQ PUSH2 0xE46 JUMPI PUSH1 0x40 MLOAD PUSH32 0x8C379A000000000000000000000000000000000000000000000000000000000 DUP2 MSTORE PUSH1 0x4 ADD PUSH2 0xE3D SWAP1 PUSH2 0x1E83 JUMP JUMPDEST PUSH1 0x40 MLOAD DUP1 SWAP2 SUB SWAP1 REVERT JUMPDEST DUP5 PUSH20 0xFFFFFFFFFFFFFFFFFFFFFFFFFFFFFFFFFFFFFFFF AND PUSH4 0x23B872DD CALLER ADDRESS DUP7 PUSH1 0x40 MLOAD DUP5 PUSH4 0xFFFFFFFF AND PUSH1 0xE0 SHL DUP2 MSTORE PUSH1 0x4 ADD PUSH2 0xE83 SWAP4 SWAP3 SWAP2 SWAP1 PUSH2 0x1EA1 JUMP JUMPDEST PUSH1 0x20 PUSH1 0x40 MLOAD DUP1 DUP4 SUB DUP2 PUSH0 DUP8 GAS CALL ISZERO DUP1 ISZERO PUSH2 0xE9F JUMPI RETURNDATASIZE PUSH0 DUP1 RETURNDATACOPY RETURNDATASIZE PUSH0 REVERT JUMPDEST POP POP POP POP PUSH1 0x40 MLOAD RETURNDATASIZE PUSH1 0x1F NOT PUSH1 0x1F DUP3 ADD AND DUP3 ADD DUP1 PUSH1 0x40 MSTORE POP DUP2 ADD SWAP1 PUSH2 0xEC3 SWAP2 SWAP1 PUSH2 0x1C89 JUMP JUMPDEST POP DUP4 PUSH20 0xFFFFFFFFFFFFFFFFFFFFFFFFFFFFFFFFFFFFFFFF AND PUSH4 0x23B872DD CALLER ADDRESS DUP6 PUSH1 0x40 MLOAD DUP5 PUSH4 0xFFFFFFFF AND PUSH1 0xE0 SHL DUP2 MSTORE PUSH1 0x4 ADD PUSH2 0xF01 SWAP4 SWAP3 SWAP2 SWAP1 PUSH2 0x1EA1 JUMP JUMPDEST PUSH1 0x20 PUSH1 0x40 MLOAD DUP1 DUP4 SUB DUP2 PUSH0 DUP8 GAS CALL ISZERO DUP1 ISZERO PUSH2 0xF1D JUMPI RETURNDATASIZE PUSH0 DUP1 RETURNDATACOPY RETURNDATASIZE PUSH0 REVERT JUMPDEST POP POP POP POP PUSH1 0x40 MLOAD RETURNDATASIZE PUSH1 0x1F NOT PUSH1 0x1F DUP3 ADD AND DUP3 ADD DUP1 PUSH1 0x40 MSTORE POP DUP2 ADD SWAP1 PUSH2 0xF41 SWAP2 SWAP1 PUSH2 0x1C89 JUMP JUMPDEST POP DUP3 DUP2 PUSH1 0x2 ADD PUSH0 DUP3 DUP3 SLOAD PUSH2 0xF55 SWAP2 SWAP1 PUSH2 0x1ED6 JUMP JUMPDEST SWAP3 POP POP DUP2 SWAP1 SSTORE POP DUP2 DUP2 PUSH1 0x3 ADD PUSH0 DUP3 DUP3 SLOAD PUSH2 0xF6F SWAP2 SWAP1 PUSH2 0x1ED6 JUMP JUMPDEST SWAP3 POP POP DUP2 SWAP1 SSTORE POP DUP4 PUSH20 0xFFFFFFFFFFFFFFFFFFFFFFFFFFFFFFFFFFFFFFFF AND DUP6 PUSH20 0xFFFFFFFFFFFFFFFFFFFFFFFFFFFFFFFFFFFFFFFF AND PUSH32 0x44504979F82D498DAD8A0687FC02E140BE70B1B4AB3B9E23C6FFC1D04410194A DUP6 DUP6 PUSH1 0x40 MLOAD PUSH2 0xFD5 SWAP3 SWAP2 SWAP1 PUSH2 0x1CB4 JUMP JUMPDEST PUSH1 0x40 MLOAD DUP1 SWAP2 SUB SWAP1 LOG3 POP POP POP POP POP JUMP JUMPDEST PUSH1 0x2 SLOAD DUP2 JUMP JUMPDEST PUSH1 0x1 PUSH0 SWAP1 SLOAD SWAP1 PUSH2 0x100 EXP SWAP1 DIV PUSH20 0xFFFFFFFFFFFFFFFFFFFFFFFFFFFFFFFFFFFFFFFF AND DUP2 JUMP JUMPDEST PUSH0 DUP3 GT PUSH2 0x1051 JUMPI PUSH1 0x40 MLOAD PUSH32 0x8C379A000000000000000000000000000000000000000000000000000000000 DUP2 MSTORE PUSH1 0x4 ADD PUSH2 0x1048 SWAP1 PUSH2 0x1F79 JUMP JUMPDEST PUSH1 0x40 MLOAD DUP1 SWAP2 SUB SWAP1 REVERT JUMPDEST PUSH0 DUP4 PUSH20 0xFFFFFFFFFFFFFFFFFFFFFFFFFFFFFFFFFFFFFFFF AND DUP6 PUSH20 0xFFFFFFFFFFFFFFFFFFFFFFFFFFFFFFFFFFFFFFFF AND LT PUSH2 0x108B JUMPI DUP4 PUSH2 0x108D JUMP JUMPDEST DUP5 JUMPDEST SWAP1 POP PUSH0 DUP5 PUSH20 0xFFFFFFFFFFFFFFFFFFFFFFFFFFFFFFFFFFFFFFFF AND DUP7 PUSH20 0xFFFFFFFFFFFFFFFFFFFFFFFFFFFFFFFFFFFFFFFF AND LT PUSH2 0x10C9 JUMPI DUP6 PUSH2 0x10CB JUMP JUMPDEST DUP5 JUMPDEST SWAP1 POP PUSH0 PUSH1 0x3 PUSH0 DUP5 PUSH20 0xFFFFFFFFFFFFFFFFFFFFFFFFFFFFFFFFFFFFFFFF AND PUSH20 0xFFFFFFFFFFFFFFFFFFFFFFFFFFFFFFFFFFFFFFFF AND DUP2 MSTORE PUSH1 0x20 ADD SWAP1 DUP2 MSTORE PUSH1 0x20 ADD PUSH0 KECCAK256 PUSH0 DUP4 PUSH20 0xFFFFFFFFFFFFFFFFFFFFFFFFFFFFFFFFFFFFFFFF AND PUSH20 0xFFFFFFFFFFFFFFFFFFFFFFFFFFFFFFFFFFFFFFFF AND DUP2 MSTORE PUSH1 0x20 ADD SWAP1 DUP2 MSTORE PUSH1 0x20 ADD PUSH0 KECCAK256 SWAP1 POP DUP3 PUSH20 0xFFFFFFFFFFFFFFFFFFFFFFFFFFFFFFFFFFFFFFFF AND DUP2 PUSH0 ADD PUSH0 SWAP1 SLOAD SWAP1 PUSH2 0x100 EXP SWAP1 DIV PUSH20 0xFFFFFFFFFFFFFFFFFFFFFFFFFFFFFFFFFFFFFFFF AND PUSH20 0xFFFFFFFFFFFFFFFFFFFFFFFFFFFFFFFFFFFFFFFF AND EQ DUP1 ISZERO PUSH2 0x11F3 JUMPI POP DUP2 PUSH20 0xFFFFFFFFFFFFFFFFFFFFFFFFFFFFFFFFFFFFFFFF AND DUP2 PUSH1 0x1 ADD PUSH0 SWAP1 SLOAD SWAP1 PUSH2 0x100 EXP SWAP1 DIV PUSH20 0xFFFFFFFFFFFFFFFFFFFFFFFFFFFFFFFFFFFFFFFF AND PUSH20 0xFFFFFFFFFFFFFFFFFFFFFFFFFFFFFFFFFFFFFFFF AND EQ JUMPDEST PUSH2 0x1232 JUMPI PUSH1 0x40 MLOAD PUSH32 0x8C379A000000000000000000000000000000000000000000000000000000000 DUP2 MSTORE PUSH1 0x4 ADD PUSH2 0x1229 SWAP1 PUSH2 0x1E83 JUMP JUMPDEST PUSH1 0x40 MLOAD DUP1 SWAP2 SUB SWAP1 REVERT JUMPDEST PUSH0 DUP4 PUSH20 0xFFFFFFFFFFFFFFFFFFFFFFFFFFFFFFFFFFFFFFFF AND DUP9 PUSH20 0xFFFFFFFFFFFFFFFFFFFFFFFFFFFFFFFFFFFFFFFF AND EQ PUSH2 0x1270 JUMPI DUP2 PUSH1 0x3 ADD SLOAD PUSH2 0x1276 JUMP JUMPDEST DUP2 PUSH1 0x2 ADD SLOAD JUMPDEST SWAP1 POP PUSH0 DUP5 PUSH20 0xFFFFFFFFFFFFFFFFFFFFFFFFFFFFFFFFFFFFFFFF AND DUP10 PUSH20 0xFFFFFFFFFFFFFFFFFFFFFFFFFFFFFFFFFFFFFFFF AND EQ PUSH2 0x12B6 JUMPI DUP3 PUSH1 0x2 ADD SLOAD PUSH2 0x12BC JUMP JUMPDEST DUP3 PUSH1 0x3 ADD SLOAD JUMPDEST SWAP1 POP PUSH0 DUP3 GT DUP1 ISZERO PUSH2 0x12CC JUMPI POP PUSH0 DUP2 GT JUMPDEST PUSH2 0x130B JUMPI PUSH1 0x40 MLOAD PUSH32 0x8C379A000000000000000000000000000000000000000000000000000000000 DUP2 MSTORE PUSH1 0x4 ADD PUSH2 0x1302 SWAP1 PUSH2 0x1FE1 JUMP JUMPDEST PUSH1 0x40 MLOAD DUP1 SWAP2 SUB SWAP1 REVERT JUMPDEST PUSH0 PUSH2 0x2710 PUSH1 0x2 SLOAD DUP10 PUSH2 0x131D SWAP2 SWAP1 PUSH2 0x1FFF JUMP JUMPDEST PUSH2 0x1327 SWAP2 SWAP1 PUSH2 0x206D JUMP JUMPDEST PUSH2 0x2710 DUP6 PUSH1 0x4 ADD SLOAD PUSH2 0x2710 PUSH2 0x133C SWAP2 SWAP1 PUSH2 0x1BFA JUMP JUMPDEST DUP11 PUSH2 0x1347 SWAP2 SWAP1 PUSH2 0x1FFF JUMP JUMPDEST PUSH2 0x1351 SWAP2 SWAP1 PUSH2 0x206D JUMP JUMPDEST PUSH2 0x135B SWAP2 SWAP1 PUSH2 0x1BFA JUMP JUMPDEST SWAP1 POP PUSH0 DUP2 GT PUSH2 0x139F JUMPI PUSH1 0x40 MLOAD PUSH32 0x8C379A000000000000000000000000000000000000000000000000000000000 DUP2 MSTORE PUSH1 0x4 ADD PUSH2 0x1396 SWAP1 PUSH2 0x20E7 JUMP JUMPDEST PUSH1 0x40 MLOAD DUP1 SWAP2 SUB SWAP1 REVERT JUMPDEST PUSH0 DUP2 PUSH2 0x2710 DUP6 PUSH2 0x13AF SWAP2 SWAP1 PUSH2 0x1FFF JUMP JUMPDEST PUSH2 0x13B9 SWAP2 SWAP1 PUSH2 0x1ED6 JUMP JUMPDEST DUP4 DUP4 PUSH2 0x13C5 SWAP2 SWAP1 PUSH2 0x1FFF JUMP JUMPDEST PUSH2 0x13CF SWAP2 SWAP1 PUSH2 0x206D JUMP JUMPDEST SWAP1 POP DUP8 DUP2 LT ISZERO PUSH2 0x1414 JUMPI PUSH1 0x40 MLOAD PUSH32 0x8C379A000000000000000000000000000000000000000000000000000000000 DUP2 MSTORE PUSH1 0x4 ADD PUSH2 0x140B SWAP1 PUSH2 0x214F JUMP JUMPDEST PUSH1 0x40 MLOAD DUP1 SWAP2 SUB SWAP1 REVERT JUMPDEST DUP1 DUP4 LT ISZERO PUSH2 0x1457 JUMPI PUSH1 0x40 MLOAD PUSH32 0x8C379A000000000000000000000000000000000000000000000000000000000 DUP2 MSTORE PUSH1 0x4 ADD PUSH2 0x144E SWAP1 PUSH2 0x21B7 JUMP JUMPDEST PUSH1 0x40 MLOAD DUP1 SWAP2 SUB SWAP1 REVERT JUMPDEST DUP11 PUSH20 0xFFFFFFFFFFFFFFFFFFFFFFFFFFFFFFFFFFFFFFFF AND PUSH4 0x23B872DD CALLER ADDRESS DUP13 PUSH1 0x40 MLOAD DUP5 PUSH4 0xFFFFFFFF AND PUSH1 0xE0 SHL DUP2 MSTORE PUSH1 0x4 ADD PUSH2 0x1494 SWAP4 SWAP3 SWAP2 SWAP1 PUSH2 0x1EA1 JUMP JUMPDEST PUSH1 0x20 PUSH1 0x40 MLOAD DUP1 DUP4 SUB DUP2 PUSH0 DUP8 GAS CALL ISZERO DUP1 ISZERO PUSH2 0x14B0 JUMPI RETURNDATASIZE PUSH0 DUP1 RETURNDATACOPY RETURNDATASIZE PUSH0 REVERT JUMPDEST POP POP POP POP PUSH1 0x40 MLOAD RETURNDATASIZE PUSH1 0x1F NOT PUSH1 0x1F DUP3 ADD AND DUP3 ADD DUP1 PUSH1 0x40 MSTORE POP DUP2 ADD SWAP1 PUSH2 0x14D4 SWAP2 SWAP1 PUSH2 0x1C89 JUMP JUMPDEST POP PUSH0 PUSH2 0x2710 PUSH1 0x2 SLOAD DUP12 PUSH2 0x14E7 SWAP2 SWAP1 PUSH2 0x1FFF JUMP JUMPDEST PUSH2 0x14F1 SWAP2 SWAP1 PUSH2 0x206D JUMP JUMPDEST SWAP1 POP DUP12 PUSH20 0xFFFFFFFFFFFFFFFFFFFFFFFFFFFFFFFFFFFFFFFF AND PUSH4 0xA9059CBB PUSH1 0x1 PUSH0 SWAP1 SLOAD SWAP1 PUSH2 0x100 EXP SWAP1 DIV PUSH20 0xFFFFFFFFFFFFFFFFFFFFFFFFFFFFFFFFFFFFFFFF AND DUP4 PUSH1 0x40 MLOAD DUP4 PUSH4 0xFFFFFFFF AND PUSH1 0xE0 SHL DUP2 MSTORE PUSH1 0x4 ADD PUSH2 0x154F SWAP3 SWAP2 SWAP1 PUSH2 0x1C2D JUMP JUMPDEST PUSH1 0x20 PUSH1 0x40 MLOAD DUP1 DUP4 SUB DUP2 PUSH0 DUP8 GAS CALL ISZERO DUP1 ISZERO PUSH2 0x156B JUMPI RETURNDATASIZE PUSH0 DUP1 RETURNDATACOPY RETURNDATASIZE PUSH0 REVERT JUMPDEST POP POP POP POP PUSH1 0x40 MLOAD RETURNDATASIZE PUSH1 0x1F NOT PUSH1 0x1F DUP3 ADD AND DUP3 ADD DUP1 PUSH1 0x40 MSTORE POP DUP2 ADD SWAP1 PUSH2 0x158F SWAP2 SWAP1 PUSH2 0x1C89 JUMP JUMPDEST POP DUP11 PUSH20 0xFFFFFFFFFFFFFFFFFFFFFFFFFFFFFFFFFFFFFFFF AND PUSH4 0xA9059CBB CALLER DUP5 PUSH1 0x40 MLOAD DUP4 PUSH4 0xFFFFFFFF AND PUSH1 0xE0 SHL DUP2 MSTORE PUSH1 0x4 ADD PUSH2 0x15CB SWAP3 SWAP2 SWAP1 PUSH2 0x1C2D JUMP JUMPDEST PUSH1 0x20 PUSH1 0x40 MLOAD DUP1 DUP4 SUB DUP2 PUSH0 DUP8 GAS CALL ISZERO DUP1 ISZERO PUSH2 0x15E7 JUMPI RETURNDATASIZE PUSH0 DUP1 RETURNDATACOPY RETURNDATASIZE PUSH0 REVERT JUMPDEST POP POP POP POP PUSH1 0x40 MLOAD RETURNDATASIZE PUSH1 0x1F NOT PUSH1 0x1F DUP3 ADD AND DUP3 ADD DUP1 PUSH1 0x40 MSTORE POP DUP2 ADD SWAP1 PUSH2 0x160B SWAP2 SWAP1 PUSH2 0x1C89 JUMP JUMPDEST POP DUP8 PUSH20 0xFFFFFFFFFFFFFFFFFFFFFFFFFFFFFFFFFFFFFFFF AND DUP13 PUSH20 0xFFFFFFFFFFFFFFFFFFFFFFFFFFFFFFFFFFFFFFFF AND SUB PUSH2 0x1678 JUMPI DUP3 DUP7 PUSH1 0x2 ADD PUSH0 DUP3 DUP3 SLOAD PUSH2 0x1652 SWAP2 SWAP1 PUSH2 0x1ED6 JUMP JUMPDEST SWAP3 POP POP DUP2 SWAP1 SSTORE POP DUP2 DUP7 PUSH1 0x3 ADD PUSH0 DUP3 DUP3 SLOAD PUSH2 0x166C SWAP2 SWAP1 PUSH2 0x1BFA JUMP JUMPDEST SWAP3 POP POP DUP2 SWAP1 SSTORE POP PUSH2 0x16AD JUMP JUMPDEST DUP3 DUP7 PUSH1 0x3 ADD PUSH0 DUP3 DUP3 SLOAD PUSH2 0x168B SWAP2 SWAP1 PUSH2 0x1ED6 JUMP JUMPDEST SWAP3 POP POP DUP2 SWAP1 SSTORE POP DUP2 DUP7 PUSH1 0x2 ADD PUSH0 DUP3 DUP3 SLOAD PUSH2 0x16A5 SWAP2 SWAP1 PUSH2 0x1BFA JUMP JUMPDEST SWAP3 POP POP DUP2 SWAP1 SSTORE POP JUMPDEST CALLER PUSH20 0xFFFFFFFFFFFFFFFFFFFFFFFFFFFFFFFFFFFFFFFF AND PUSH32 0x6782190C91D4A7E8AD2A867DEED6EC0A970CAB8FF137AE2BD4ABD92B3810F4D3 DUP14 DUP14 DUP14 DUP7 PUSH1 0x40 MLOAD PUSH2 0x16F9 SWAP5 SWAP4 SWAP3 SWAP2 SWAP1 PUSH2 0x21D5 JUMP JUMPDEST PUSH1 0x40 MLOAD DUP1 SWAP2 SUB SWAP1 LOG2 POP POP POP POP POP POP POP POP POP POP POP POP JUMP JUMPDEST PUSH0 PUSH20 0xFFFFFFFFFFFFFFFFFFFFFFFFFFFFFFFFFFFFFFFF DUP3 AND SWAP1 POP SWAP2 SWAP1 POP JUMP JUMPDEST PUSH0 PUSH2 0x1738 DUP3 PUSH2 0x170F JUMP JUMPDEST SWAP1 POP SWAP2 SWAP1 POP JUMP JUMPDEST PUSH2 0x1748 DUP2 PUSH2 0x172E JUMP JUMPDEST DUP3 MSTORE POP POP JUMP JUMPDEST PUSH0 PUSH1 0x20 DUP3 ADD SWAP1 POP PUSH2 0x1761 PUSH0 DUP4 ADD DUP5 PUSH2 0x173F JUMP JUMPDEST SWAP3 SWAP2 POP POP JUMP JUMPDEST PUSH0 DUP1 REVERT JUMPDEST PUSH2 0x1774 DUP2 PUSH2 0x172E JUMP JUMPDEST DUP2 EQ PUSH2 0x177E JUMPI PUSH0 DUP1 REVERT JUMPDEST POP JUMP JUMPDEST PUSH0 DUP2 CALLDATALOAD SWAP1 POP PUSH2 0x178F DUP2 PUSH2 0x176B JUMP JUMPDEST SWAP3 SWAP2 POP POP JUMP JUMPDEST PUSH0 DUP2 SWAP1 POP SWAP2 SWAP1 POP JUMP JUMPDEST PUSH2 0x17A7 DUP2 PUSH2 0x1795 JUMP JUMPDEST DUP2 EQ PUSH2 0x17B1 JUMPI PUSH0 DUP1 REVERT JUMPDEST POP JUMP JUMPDEST PUSH0 DUP2 CALLDATALOAD SWAP1 POP PUSH2 0x17C2 DUP2 PUSH2 0x179E JUMP JUMPDEST SWAP3 SWAP2 POP POP JUMP JUMPDEST PUSH0 DUP1 PUSH0 DUP1 PUSH1 0x80 DUP6 DUP8 SUB SLT ISZERO PUSH2 0x17E0 JUMPI PUSH2 0x17DF PUSH2 0x1767 JUMP JUMPDEST JUMPDEST PUSH0 PUSH2 0x17ED DUP8 DUP3 DUP9 ADD PUSH2 0x1781 JUMP JUMPDEST SWAP5 POP POP PUSH1 0x20 PUSH2 0x17FE DUP8 DUP3 DUP9 ADD PUSH2 0x1781 JUMP JUMPDEST SWAP4 POP POP PUSH1 0x40 PUSH2 0x180F DUP8 DUP3 DUP9 ADD PUSH2 0x17B4 JUMP JUMPDEST SWAP3 POP POP PUSH1 0x60 PUSH2 0x1820 DUP8 DUP3 DUP9 ADD PUSH2 0x17B4 JUMP JUMPDEST SWAP2 POP POP SWAP3 SWAP6 SWAP2 SWAP5 POP SWAP3 POP JUMP JUMPDEST PUSH0 DUP1 PUSH1 0x40 DUP4 DUP6 SUB SLT ISZERO PUSH2 0x1842 JUMPI PUSH2 0x1841 PUSH2 0x1767 JUMP JUMPDEST JUMPDEST PUSH0 PUSH2 0x184F DUP6 DUP3 DUP7 ADD PUSH2 0x1781 JUMP JUMPDEST SWAP3 POP POP PUSH1 0x20 PUSH2 0x1860 DUP6 DUP3 DUP7 ADD PUSH2 0x1781 JUMP JUMPDEST SWAP2 POP POP SWAP3 POP SWAP3 SWAP1 POP JUMP JUMPDEST PUSH2 0x1873 DUP2 PUSH2 0x1795 JUMP JUMPDEST DUP3 MSTORE POP POP JUMP JUMPDEST PUSH0 PUSH1 0xA0 DUP3 ADD SWAP1 POP PUSH2 0x188C PUSH0 DUP4 ADD DUP9 PUSH2 0x173F JUMP JUMPDEST PUSH2 0x1899 PUSH1 0x20 DUP4 ADD DUP8 PUSH2 0x173F JUMP JUMPDEST PUSH2 0x18A6 PUSH1 0x40 DUP4 ADD DUP7 PUSH2 0x186A JUMP JUMPDEST PUSH2 0x18B3 PUSH1 0x60 DUP4 ADD DUP6 PUSH2 0x186A JUMP JUMPDEST PUSH2 0x18C0 PUSH1 0x80 DUP4 ADD DUP5 PUSH2 0x186A JUMP JUMPDEST SWAP7 SWAP6 POP POP POP POP POP POP JUMP JUMPDEST PUSH0 PUSH1 0x20 DUP3 DUP5 SUB SLT ISZERO PUSH2 0x18DF JUMPI PUSH2 0x18DE PUSH2 0x1767 JUMP JUMPDEST JUMPDEST PUSH0 PUSH2 0x18EC DUP5 DUP3 DUP6 ADD PUSH2 0x17B4 JUMP JUMPDEST SWAP2 POP POP SWAP3 SWAP2 POP POP JUMP JUMPDEST PUSH0 PUSH1 0x40 DUP3 ADD SWAP1 POP PUSH2 0x1908 PUSH0 DUP4 ADD DUP6 PUSH2 0x173F JUMP JUMPDEST PUSH2 0x1915 PUSH1 0x20 DUP4 ADD DUP5 PUSH2 0x173F JUMP JUMPDEST SWAP4 SWAP3 POP POP POP JUMP JUMPDEST PUSH0 DUP1 PUSH0 PUSH1 0x60 DUP5 DUP7 SUB SLT ISZERO PUSH2 0x1933 JUMPI PUSH2 0x1932 PUSH2 0x1767 JUMP JUMPDEST JUMPDEST PUSH0 PUSH2 0x1940 DUP7 DUP3 DUP8 ADD PUSH2 0x1781 JUMP JUMPDEST SWAP4 POP POP PUSH1 0x20 PUSH2 0x1951 DUP7 DUP3 DUP8 ADD PUSH2 0x1781 JUMP JUMPDEST SWAP3 POP POP PUSH1 0x40 PUSH2 0x1962 DUP7 DUP3 DUP8 ADD PUSH2 0x17B4 JUMP JUMPDEST SWAP2 POP POP SWAP3 POP SWAP3 POP SWAP3 JUMP JUMPDEST PUSH0 PUSH1 0x20 DUP3 ADD SWAP1 POP PUSH2 0x197F PUSH0 DUP4 ADD DUP5 PUSH2 0x186A JUMP JUMPDEST SWAP3 SWAP2 POP POP JUMP JUMPDEST PUSH0 DUP3 DUP3 MSTORE PUSH1 0x20 DUP3 ADD SWAP1 POP SWAP3 SWAP2 POP POP JUMP JUMPDEST PUSH32 0x4F6E6C792063726561746F722063616E2063616C6C20746869732066756E6374 PUSH0 DUP3 ADD MSTORE PUSH32 0x696F6E0000000000000000000000000000000000000000000000000000000000 PUSH1 0x20 DUP3 ADD MSTORE POP JUMP JUMPDEST PUSH0 PUSH2 0x19EF PUSH1 0x23 DUP4 PUSH2 0x1985 JUMP JUMPDEST SWAP2 POP PUSH2 0x19FA DUP3 PUSH2 0x1995 JUMP JUMPDEST PUSH1 0x40 DUP3 ADD SWAP1 POP SWAP2 SWAP1 POP JUMP JUMPDEST PUSH0 PUSH1 0x20 DUP3 ADD SWAP1 POP DUP2 DUP2 SUB PUSH0 DUP4 ADD MSTORE PUSH2 0x1A1C DUP2 PUSH2 0x19E3 JUMP JUMPDEST SWAP1 POP SWAP2 SWAP1 POP JUMP JUMPDEST PUSH32 0x5769746864726177616C20616D6F756E7473206D757374206265206772656174 PUSH0 DUP3 ADD MSTORE PUSH32 0x6572207468616E207A65726F0000000000000000000000000000000000000000 PUSH1 0x20 DUP3 ADD MSTORE POP JUMP JUMPDEST PUSH0 PUSH2 0x1A7D PUSH1 0x2C DUP4 PUSH2 0x1985 JUMP JUMPDEST SWAP2 POP PUSH2 0x1A88 DUP3 PUSH2 0x1A23 JUMP JUMPDEST PUSH1 0x40 DUP3 ADD SWAP1 POP SWAP2 SWAP1 POP JUMP JUMPDEST PUSH0 PUSH1 0x20 DUP3 ADD SWAP1 POP DUP2 DUP2 SUB PUSH0 DUP4 ADD MSTORE PUSH2 0x1AAA DUP2 PUSH2 0x1A71 JUMP JUMPDEST SWAP1 POP SWAP2 SWAP1 POP JUMP JUMPDEST PUSH32 0x496E73756666696369656E74206C697175696469747920666F7220746F6B656E PUSH0 DUP3 ADD MSTORE PUSH32 0x4100000000000000000000000000000000000000000000000000000000000000 PUSH1 0x20 DUP3 ADD MSTORE POP JUMP JUMPDEST PUSH0 PUSH2 0x1B0B PUSH1 0x21 DUP4 PUSH2 0x1985 JUMP JUMPDEST SWAP2 POP PUSH2 0x1B16 DUP3 PUSH2 0x1AB1 JUMP JUMPDEST PUSH1 0x40 DUP3 ADD SWAP1 POP SWAP2 SWAP1 POP JUMP JUMPDEST PUSH0 PUSH1 0x20 DUP3 ADD SWAP1 POP DUP2 DUP2 SUB PUSH0 DUP4 ADD MSTORE PUSH2 0x1B38 DUP2 PUSH2 0x1AFF JUMP JUMPDEST SWAP1 POP SWAP2 SWAP1 POP JUMP JUMPDEST PUSH32 0x496E73756666696369656E74206C697175696469747920666F7220746F6B656E PUSH0 DUP3 ADD MSTORE PUSH32 0x4200000000000000000000000000000000000000000000000000000000000000 PUSH1 0x20 DUP3 ADD MSTORE POP JUMP JUMPDEST PUSH0 PUSH2 0x1B99 PUSH1 0x21 DUP4 PUSH2 0x1985 JUMP JUMPDEST SWAP2 POP PUSH2 0x1BA4 DUP3 PUSH2 0x1B3F JUMP JUMPDEST PUSH1 0x40 DUP3 ADD SWAP1 POP SWAP2 SWAP1 POP JUMP JUMPDEST PUSH0 PUSH1 0x20 DUP3 ADD SWAP1 POP DUP2 DUP2 SUB PUSH0 DUP4 ADD MSTORE PUSH2 0x1BC6 DUP2 PUSH2 0x1B8D JUMP JUMPDEST SWAP1 POP SWAP2 SWAP1 POP JUMP JUMPDEST PUSH32 0x4E487B7100000000000000000000000000000000000000000000000000000000 PUSH0 MSTORE PUSH1 0x11 PUSH1 0x4 MSTORE PUSH1 0x24 PUSH0 REVERT JUMPDEST PUSH0 PUSH2 0x1C04 DUP3 PUSH2 0x1795 JUMP JUMPDEST SWAP2 POP PUSH2 0x1C0F DUP4 PUSH2 0x1795 JUMP JUMPDEST SWAP3 POP DUP3 DUP3 SUB SWAP1 POP DUP2 DUP2 GT ISZERO PUSH2 0x1C27 JUMPI PUSH2 0x1C26 PUSH2 0x1BCD JUMP JUMPDEST JUMPDEST SWAP3 SWAP2 POP POP JUMP JUMPDEST PUSH0 PUSH1 0x40 DUP3 ADD SWAP1 POP PUSH2 0x1C40 PUSH0 DUP4 ADD DUP6 PUSH2 0x173F JUMP JUMPDEST PUSH2 0x1C4D PUSH1 0x20 DUP4 ADD DUP5 PUSH2 0x186A JUMP JUMPDEST SWAP4 SWAP3 POP POP POP JUMP JUMPDEST PUSH0 DUP2 ISZERO ISZERO SWAP1 POP SWAP2 SWAP1 POP JUMP JUMPDEST PUSH2 0x1C68 DUP2 PUSH2 0x1C54 JUMP JUMPDEST DUP2 EQ PUSH2 0x1C72 JUMPI PUSH0 DUP1 REVERT JUMPDEST POP JUMP JUMPDEST PUSH0 DUP2 MLOAD SWAP1 POP PUSH2 0x1C83 DUP2 PUSH2 0x1C5F JUMP JUMPDEST SWAP3 SWAP2 POP POP JUMP JUMPDEST PUSH0 PUSH1 0x20 DUP3 DUP5 SUB SLT ISZERO PUSH2 0x1C9E JUMPI PUSH2 0x1C9D PUSH2 0x1767 JUMP JUMPDEST JUMPDEST PUSH0 PUSH2 0x1CAB DUP5 DUP3 DUP6 ADD PUSH2 0x1C75 JUMP JUMPDEST SWAP2 POP POP SWAP3 SWAP2 POP POP JUMP JUMPDEST PUSH0 PUSH1 0x40 DUP3 ADD SWAP1 POP PUSH2 0x1CC7 PUSH0 DUP4 ADD DUP6 PUSH2 0x186A JUMP JUMPDEST PUSH2 0x1CD4 PUSH1 0x20 DUP4 ADD DUP5 PUSH2 0x186A JUMP JUMPDEST SWAP4 SWAP3 POP POP POP JUMP JUMPDEST PUSH32 0x496E76616C696420746F6B656E20616464726573730000000000000000000000 PUSH0 DUP3 ADD MSTORE POP JUMP JUMPDEST PUSH0 PUSH2 0x1D0F PUSH1 0x15 DUP4 PUSH2 0x1985 JUMP JUMPDEST SWAP2 POP PUSH2 0x1D1A DUP3 PUSH2 0x1CDB JUMP JUMPDEST PUSH1 0x20 DUP3 ADD SWAP1 POP SWAP2 SWAP1 POP JUMP JUMPDEST PUSH0 PUSH1 0x20 DUP3 ADD SWAP1 POP DUP2 DUP2 SUB PUSH0 DUP4 ADD MSTORE PUSH2 0x1D3C DUP2 PUSH2 0x1D03 JUMP JUMPDEST SWAP1 POP SWAP2 SWAP1 POP JUMP JUMPDEST PUSH32 0x5061697220616C72656164792065786973747300000000000000000000000000 PUSH0 DUP3 ADD MSTORE POP JUMP JUMPDEST PUSH0 PUSH2 0x1D77 PUSH1 0x13 DUP4 PUSH2 0x1985 JUMP JUMPDEST SWAP2 POP PUSH2 0x1D82 DUP3 PUSH2 0x1D43 JUMP JUMPDEST PUSH1 0x20 DUP3 ADD SWAP1 POP SWAP2 SWAP1 POP JUMP JUMPDEST PUSH0 PUSH1 0x20 DUP3 ADD SWAP1 POP DUP2 DUP2 SUB PUSH0 DUP4 ADD MSTORE PUSH2 0x1DA4 DUP2 PUSH2 0x1D6B JUMP JUMPDEST SWAP1 POP SWAP2 SWAP1 POP JUMP JUMPDEST PUSH32 0x416D6F756E7473206D7573742062652067726561746572207468616E207A6572 PUSH0 DUP3 ADD MSTORE PUSH32 0x6F00000000000000000000000000000000000000000000000000000000000000 PUSH1 0x20 DUP3 ADD MSTORE POP JUMP JUMPDEST PUSH0 PUSH2 0x1E05 PUSH1 0x21 DUP4 PUSH2 0x1985 JUMP JUMPDEST SWAP2 POP PUSH2 0x1E10 DUP3 PUSH2 0x1DAB JUMP JUMPDEST PUSH1 0x40 DUP3 ADD SWAP1 POP SWAP2 SWAP1 POP JUMP JUMPDEST PUSH0 PUSH1 0x20 DUP3 ADD SWAP1 POP DUP2 DUP2 SUB PUSH0 DUP4 ADD MSTORE PUSH2 0x1E32 DUP2 PUSH2 0x1DF9 JUMP JUMPDEST SWAP1 POP SWAP2 SWAP1 POP JUMP JUMPDEST PUSH32 0x5061697220646F6573206E6F7420657869737400000000000000000000000000 PUSH0 DUP3 ADD MSTORE POP JUMP JUMPDEST PUSH0 PUSH2 0x1E6D PUSH1 0x13 DUP4 PUSH2 0x1985 JUMP JUMPDEST SWAP2 POP PUSH2 0x1E78 DUP3 PUSH2 0x1E39 JUMP JUMPDEST PUSH1 0x20 DUP3 ADD SWAP1 POP SWAP2 SWAP1 POP JUMP JUMPDEST PUSH0 PUSH1 0x20 DUP3 ADD SWAP1 POP DUP2 DUP2 SUB PUSH0 DUP4 ADD MSTORE PUSH2 0x1E9A DUP2 PUSH2 0x1E61 JUMP JUMPDEST SWAP1 POP SWAP2 SWAP1 POP JUMP JUMPDEST PUSH0 PUSH1 0x60 DUP3 ADD SWAP1 POP PUSH2 0x1EB4 PUSH0 DUP4 ADD DUP7 PUSH2 0x173F JUMP JUMPDEST PUSH2 0x1EC1 PUSH1 0x20 DUP4 ADD DUP6 PUSH2 0x173F JUMP JUMPDEST PUSH2 0x1ECE PUSH1 0x40 DUP4 ADD DUP5 PUSH2 0x186A JUMP JUMPDEST SWAP5 SWAP4 POP POP POP POP JUMP JUMPDEST PUSH0 PUSH2 0x1EE0 DUP3 PUSH2 0x1795 JUMP JUMPDEST SWAP2 POP PUSH2 0x1EEB DUP4 PUSH2 0x1795 JUMP JUMPDEST SWAP3 POP DUP3 DUP3 ADD SWAP1 POP DUP1 DUP3 GT ISZERO PUSH2 0x1F03 JUMPI PUSH2 0x1F02 PUSH2 0x1BCD JUMP JUMPDEST JUMPDEST SWAP3 SWAP2 POP POP JUMP JUMPDEST PUSH32 0x416D6F756E7420696E206D7573742062652067726561746572207468616E207A PUSH0 DUP3 ADD MSTORE PUSH32 0x65726F0000000000000000000000000000000000000000000000000000000000 PUSH1 0x20 DUP3 ADD MSTORE POP JUMP JUMPDEST PUSH0 PUSH2 0x1F63 PUSH1 0x23 DUP4 PUSH2 0x1985 JUMP JUMPDEST SWAP2 POP PUSH2 0x1F6E DUP3 PUSH2 0x1F09 JUMP JUMPDEST PUSH1 0x40 DUP3 ADD SWAP1 POP SWAP2 SWAP1 POP JUMP JUMPDEST PUSH0 PUSH1 0x20 DUP3 ADD SWAP1 POP DUP2 DUP2 SUB PUSH0 DUP4 ADD MSTORE PUSH2 0x1F90 DUP2 PUSH2 0x1F57 JUMP JUMPDEST SWAP1 POP SWAP2 SWAP1 POP JUMP JUMPDEST PUSH32 0x456D707479207265736572766573000000000000000000000000000000000000 PUSH0 DUP3 ADD MSTORE POP JUMP JUMPDEST PUSH0 PUSH2 0x1FCB PUSH1 0xE DUP4 PUSH2 0x1985 JUMP JUMPDEST SWAP2 POP PUSH2 0x1FD6 DUP3 PUSH2 0x1F97 JUMP JUMPDEST PUSH1 0x20 DUP3 ADD SWAP1 POP SWAP2 SWAP1 POP JUMP JUMPDEST PUSH0 PUSH1 0x20 DUP3 ADD SWAP1 POP DUP2 DUP2 SUB PUSH0 DUP4 ADD MSTORE PUSH2 0x1FF8 DUP2 PUSH2 0x1FBF JUMP JUMPDEST SWAP1 POP SWAP2 SWAP1 POP JUMP JUMPDEST PUSH0 PUSH2 0x2009 DUP3 PUSH2 0x1795 JUMP JUMPDEST SWAP2 POP PUSH2 0x2014 DUP4 PUSH2 0x1795 JUMP JUMPDEST SWAP3 POP DUP3 DUP3 MUL PUSH2 0x2022 DUP2 PUSH2 0x1795 JUMP JUMPDEST SWAP2 POP DUP3 DUP3 DIV DUP5 EQ DUP4 ISZERO OR PUSH2 0x2039 JUMPI PUSH2 0x2038 PUSH2 0x1BCD JUMP JUMPDEST JUMPDEST POP SWAP3 SWAP2 POP POP JUMP JUMPDEST PUSH32 0x4E487B7100000000000000000000000000000000000000000000000000000000 PUSH0 MSTORE PUSH1 0x12 PUSH1 0x4 MSTORE PUSH1 0x24 PUSH0 REVERT JUMPDEST PUSH0 PUSH2 0x2077 DUP3 PUSH2 0x1795 JUMP JUMPDEST SWAP2 POP PUSH2 0x2082 DUP4 PUSH2 0x1795 JUMP JUMPDEST SWAP3 POP DUP3 PUSH2 0x2092 JUMPI PUSH2 0x2091 PUSH2 0x2040 JUMP JUMPDEST JUMPDEST DUP3 DUP3 DIV SWAP1 POP SWAP3 SWAP2 POP POP JUMP JUMPDEST PUSH32 0x45666665637469766520616D6F756E7420746F6F206C6F770000000000000000 PUSH0 DUP3 ADD MSTORE POP JUMP JUMPDEST PUSH0 PUSH2 0x20D1 PUSH1 0x18 DUP4 PUSH2 0x1985 JUMP JUMPDEST SWAP2 POP PUSH2 0x20DC DUP3 PUSH2 0x209D JUMP JUMPDEST PUSH1 0x20 DUP3 ADD SWAP1 POP SWAP2 SWAP1 POP JUMP JUMPDEST PUSH0 PUSH1 0x20 DUP3 ADD SWAP1 POP DUP2 DUP2 SUB PUSH0 DUP4 ADD MSTORE PUSH2 0x20FE DUP2 PUSH2 0x20C5 JUMP JUMPDEST SWAP1 POP SWAP2 SWAP1 POP JUMP JUMPDEST PUSH32 0x536C697070616765206C696D6974206578636565646564000000000000000000 PUSH0 DUP3 ADD MSTORE POP JUMP JUMPDEST PUSH0 PUSH2 0x2139 PUSH1 0x17 DUP4 PUSH2 0x1985 JUMP JUMPDEST SWAP2 POP PUSH2 0x2144 DUP3 PUSH2 0x2105 JUMP JUMPDEST PUSH1 0x20 DUP3 ADD SWAP1 POP SWAP2 SWAP1 POP JUMP JUMPDEST PUSH0 PUSH1 0x20 DUP3 ADD SWAP1 POP DUP2 DUP2 SUB PUSH0 DUP4 ADD MSTORE PUSH2 0x2166 DUP2 PUSH2 0x212D JUMP JUMPDEST SWAP1 POP SWAP2 SWAP1 POP JUMP JUMPDEST PUSH32 0x496E73756666696369656E74206C697175696469747900000000000000000000 PUSH0 DUP3 ADD MSTORE POP JUMP JUMPDEST PUSH0 PUSH2 0x21A1 PUSH1 0x16 DUP4 PUSH2 0x1985 JUMP JUMPDEST SWAP2 POP PUSH2 0x21AC DUP3 PUSH2 0x216D JUMP JUMPDEST PUSH1 0x20 DUP3 ADD SWAP1 POP SWAP2 SWAP1 POP JUMP JUMPDEST PUSH0 PUSH1 0x20 DUP3 ADD SWAP1 POP DUP2 DUP2 SUB PUSH0 DUP4 ADD MSTORE PUSH2 0x21CE DUP2 PUSH2 0x2195 JUMP JUMPDEST SWAP1 POP SWAP2 SWAP1 POP JUMP JUMPDEST PUSH0 PUSH1 0x80 DUP3 ADD SWAP1 POP PUSH2 0x21E8 PUSH0 DUP4 ADD DUP8 PUSH2 0x173F JUMP JUMPDEST PUSH2 0x21F5 PUSH1 0x20 DUP4 ADD DUP7 PUSH2 0x173F JUMP JUMPDEST PUSH2 0x2202 PUSH1 0x40 DUP4 ADD DUP6 PUSH2 0x186A JUMP JUMPDEST PUSH2 0x220F PUSH1 0x60 DUP4 ADD DUP5 PUSH2 0x186A JUMP JUMPDEST SWAP6 SWAP5 POP POP POP POP POP JUMP INVALID LOG2 PUSH5 0x6970667358 0x22 SLT KECCAK256 0xE2 PUSH4 0xE1D9B124 CHAINID 0x2D CREATE2 MULMOD DUP9 0x4F PUSH8 0xB54D6AC36F9AACE6 INVALID SWAP13 SWAP2 DUP3 0xA9 SWAP15 PUSH27 0x225BA16764736F6C634300081A0033000000000000000000000000 "
				},
				"gasEstimates": {
					"creation": {
						"codeDepositCost": "1756400",
						"executionCost": "infinite",
						"totalCost": "infinite"
					},
					"external": {
						"addPair(address,address,uint256)": "infinite",
						"creator()": "2506",
						"depositLiquidity(address,address,uint256,uint256)": "infinite",
						"pairKeys(uint256)": "infinite",
						"pairs(address,address)": "infinite",
						"platformFeeBPS()": "2469",
						"platformWallet()": "2574",
						"swap(address,address,uint256,uint256)": "infinite",
						"withdrawFromPair(address,address,uint256,uint256)": "infinite"
					}
				},
				"methodIdentifiers": {
					"addPair(address,address,uint256)": "b5acfa62",
					"creator()": "02d05d3f",
					"depositLiquidity(address,address,uint256,uint256)": "bd50a3d4",
					"pairKeys(uint256)": "ad8c5668",
					"pairs(address,address)": "69454b86",
					"platformFeeBPS()": "ebaaa3a1",
					"platformWallet()": "fa2af9da",
					"swap(address,address,uint256,uint256)": "fe029156",
					"withdrawFromPair(address,address,uint256,uint256)": "27efb5a7"
				}
			},
			"storageLayout": {
				"storage": [
					{
						"astId": 82,
						"contract": "contracts/onepage.sol:OnePageLiquidity",
						"label": "creator",
						"offset": 0,
						"slot": "0",
						"type": "t_address"
					},
					{
						"astId": 84,
						"contract": "contracts/onepage.sol:OnePageLiquidity",
						"label": "platformWallet",
						"offset": 0,
						"slot": "1",
						"type": "t_address"
					},
					{
						"astId": 86,
						"contract": "contracts/onepage.sol:OnePageLiquidity",
						"label": "platformFeeBPS",
						"offset": 0,
						"slot": "2",
						"type": "t_uint256"
					},
					{
						"astId": 149,
						"contract": "contracts/onepage.sol:OnePageLiquidity",
						"label": "pairs",
						"offset": 0,
						"slot": "3",
						"type": "t_mapping(t_address,t_mapping(t_address,t_struct(Pair)137_storage))"
					},
					{
						"astId": 153,
						"contract": "contracts/onepage.sol:OnePageLiquidity",
						"label": "pairKeys",
						"offset": 0,
						"slot": "4",
						"type": "t_array(t_struct(PairKey)142_storage)dyn_storage"
					}
				],
				"types": {
					"t_address": {
						"encoding": "inplace",
						"label": "address",
						"numberOfBytes": "20"
					},
					"t_array(t_struct(PairKey)142_storage)dyn_storage": {
						"base": "t_struct(PairKey)142_storage",
						"encoding": "dynamic_array",
						"label": "struct OnePageLiquidity.PairKey[]",
						"numberOfBytes": "32"
					},
					"t_mapping(t_address,t_mapping(t_address,t_struct(Pair)137_storage))": {
						"encoding": "mapping",
						"key": "t_address",
						"label": "mapping(address => mapping(address => struct OnePageLiquidity.Pair))",
						"numberOfBytes": "32",
						"value": "t_mapping(t_address,t_struct(Pair)137_storage)"
					},
					"t_mapping(t_address,t_struct(Pair)137_storage)": {
						"encoding": "mapping",
						"key": "t_address",
						"label": "mapping(address => struct OnePageLiquidity.Pair)",
						"numberOfBytes": "32",
						"value": "t_struct(Pair)137_storage"
					},
					"t_struct(Pair)137_storage": {
						"encoding": "inplace",
						"label": "struct OnePageLiquidity.Pair",
						"members": [
							{
								"astId": 128,
								"contract": "contracts/onepage.sol:OnePageLiquidity",
								"label": "tokenA",
								"offset": 0,
								"slot": "0",
								"type": "t_address"
							},
							{
								"astId": 130,
								"contract": "contracts/onepage.sol:OnePageLiquidity",
								"label": "tokenB",
								"offset": 0,
								"slot": "1",
								"type": "t_address"
							},
							{
								"astId": 132,
								"contract": "contracts/onepage.sol:OnePageLiquidity",
								"label": "reserveA",
								"offset": 0,
								"slot": "2",
								"type": "t_uint256"
							},
							{
								"astId": 134,
								"contract": "contracts/onepage.sol:OnePageLiquidity",
								"label": "reserveB",
								"offset": 0,
								"slot": "3",
								"type": "t_uint256"
							},
							{
								"astId": 136,
								"contract": "contracts/onepage.sol:OnePageLiquidity",
								"label": "fee",
								"offset": 0,
								"slot": "4",
								"type": "t_uint256"
							}
						],
						"numberOfBytes": "160"
					},
					"t_struct(PairKey)142_storage": {
						"encoding": "inplace",
						"label": "struct OnePageLiquidity.PairKey",
						"members": [
							{
								"astId": 139,
								"contract": "contracts/onepage.sol:OnePageLiquidity",
								"label": "tokenA",
								"offset": 0,
								"slot": "0",
								"type": "t_address"
							},
							{
								"astId": 141,
								"contract": "contracts/onepage.sol:OnePageLiquidity",
								"label": "tokenB",
								"offset": 0,
								"slot": "1",
								"type": "t_address"
							}
						],
						"numberOfBytes": "64"
					},
					"t_uint256": {
						"encoding": "inplace",
						"label": "uint256",
						"numberOfBytes": "32"
					}
				}
			},
			"userdoc": {
				"kind": "user",
				"methods": {},
				"version": 1
			}
		}
	}
}